{
	"source/Marketplace.sol": {
		"Marketplace": {
			"abi": [
				{
					"inputs": [
						{
							"internalType": "address[]",
							"name": "__collections",
							"type": "address[]"
						},
						{
							"internalType": "address",
							"name": "__feeReceiver",
							"type": "address"
						},
						{
							"internalType": "uint256",
							"name": "__tradeFee",
							"type": "uint256"
						},
						{
							"internalType": "address[]",
							"name": "__allowedERC20",
							"type": "address[]"
						}
					],
					"stateMutability": "nonpayable",
					"type": "constructor"
				},
				{
					"anonymous": false,
					"inputs": [
						{
							"indexed": false,
							"internalType": "address",
							"name": "owner",
							"type": "address"
						},
						{
							"indexed": false,
							"internalType": "address",
							"name": "buyer",
							"type": "address"
						},
						{
							"indexed": false,
							"internalType": "address",
							"name": "collection",
							"type": "address"
						},
						{
							"indexed": false,
							"internalType": "uint256",
							"name": "tokenId",
							"type": "uint256"
						},
						{
							"indexed": false,
							"internalType": "uint256",
							"name": "price",
							"type": "uint256"
						}
					],
					"name": "Buy",
					"type": "event"
				},
				{
					"anonymous": false,
					"inputs": [
						{
							"indexed": false,
							"internalType": "address",
							"name": "owner",
							"type": "address"
						},
						{
							"indexed": false,
							"internalType": "address",
							"name": "buyer",
							"type": "address"
						},
						{
							"indexed": false,
							"internalType": "address",
							"name": "collection",
							"type": "address"
						},
						{
							"indexed": false,
							"internalType": "uint256",
							"name": "tokenId",
							"type": "uint256"
						},
						{
							"indexed": false,
							"internalType": "address",
							"name": "erc20",
							"type": "address"
						},
						{
							"indexed": false,
							"internalType": "uint256",
							"name": "price",
							"type": "uint256"
						}
					],
					"name": "BuyWithERC20",
					"type": "event"
				},
				{
					"anonymous": false,
					"inputs": [
						{
							"indexed": true,
							"internalType": "address",
							"name": "previousOwner",
							"type": "address"
						},
						{
							"indexed": true,
							"internalType": "address",
							"name": "newOwner",
							"type": "address"
						}
					],
					"name": "OwnershipTransferred",
					"type": "event"
				},
				{
					"anonymous": false,
					"inputs": [
						{
							"indexed": false,
							"internalType": "address",
							"name": "account",
							"type": "address"
						}
					],
					"name": "Paused",
					"type": "event"
				},
				{
					"anonymous": false,
					"inputs": [
						{
							"indexed": false,
							"internalType": "address",
							"name": "owner",
							"type": "address"
						},
						{
							"indexed": false,
							"internalType": "address",
							"name": "collection",
							"type": "address"
						},
						{
							"indexed": false,
							"internalType": "uint256",
							"name": "tokenId",
							"type": "uint256"
						},
						{
							"indexed": false,
							"internalType": "uint256",
							"name": "price",
							"type": "uint256"
						}
					],
					"name": "PutUpForSale",
					"type": "event"
				},
				{
					"anonymous": false,
					"inputs": [
						{
							"indexed": false,
							"internalType": "address",
							"name": "owner",
							"type": "address"
						},
						{
							"indexed": false,
							"internalType": "address",
							"name": "collection",
							"type": "address"
						},
						{
							"indexed": false,
							"internalType": "uint256",
							"name": "tokenId",
							"type": "uint256"
						},
						{
							"indexed": false,
							"internalType": "address",
							"name": "erc20",
							"type": "address"
						},
						{
							"indexed": false,
							"internalType": "uint256",
							"name": "price",
							"type": "uint256"
						}
					],
					"name": "PutUpForSaleWithERC20",
					"type": "event"
				},
				{
					"anonymous": false,
					"inputs": [
						{
							"indexed": false,
							"internalType": "address",
							"name": "account",
							"type": "address"
						}
					],
					"name": "Unpaused",
					"type": "event"
				},
				{
					"anonymous": false,
					"inputs": [
						{
							"indexed": false,
							"internalType": "address",
							"name": "to",
							"type": "address"
						},
						{
							"indexed": false,
							"internalType": "address",
							"name": "erc20",
							"type": "address"
						},
						{
							"indexed": false,
							"internalType": "uint256",
							"name": "amount",
							"type": "uint256"
						}
					],
					"name": "WithdrawERC20",
					"type": "event"
				},
				{
					"anonymous": false,
					"inputs": [
						{
							"indexed": false,
							"internalType": "address",
							"name": "owner",
							"type": "address"
						},
						{
							"indexed": false,
							"internalType": "address",
							"name": "collection",
							"type": "address"
						},
						{
							"indexed": false,
							"internalType": "uint256",
							"name": "tokenId",
							"type": "uint256"
						}
					],
					"name": "WithdrawFromSale",
					"type": "event"
				},
				{
					"anonymous": false,
					"inputs": [
						{
							"indexed": false,
							"internalType": "address",
							"name": "to",
							"type": "address"
						},
						{
							"indexed": false,
							"internalType": "uint256",
							"name": "amount",
							"type": "uint256"
						}
					],
					"name": "WithdrawWei",
					"type": "event"
				},
				{
					"inputs": [
						{
							"internalType": "address",
							"name": "collection",
							"type": "address"
						},
						{
							"internalType": "uint256",
							"name": "tokenId",
							"type": "uint256"
						}
					],
					"name": "buyNFT",
					"outputs": [],
					"stateMutability": "payable",
					"type": "function"
				},
				{
					"inputs": [
						{
							"internalType": "address",
							"name": "collection",
							"type": "address"
						},
						{
							"internalType": "uint256",
							"name": "tokenId",
							"type": "uint256"
						}
					],
					"name": "buyNFTbyERC20",
					"outputs": [],
					"stateMutability": "nonpayable",
					"type": "function"
				},
				{
					"inputs": [
						{
							"internalType": "address",
							"name": "collection",
							"type": "address"
						},
						{
							"internalType": "uint256",
							"name": "tokenId",
							"type": "uint256"
						}
					],
					"name": "deSellNFT",
					"outputs": [],
					"stateMutability": "nonpayable",
					"type": "function"
				},
				{
					"inputs": [],
					"name": "getAllowedCollections",
					"outputs": [
						{
							"internalType": "contract IERC721[]",
							"name": "",
							"type": "address[]"
						}
					],
					"stateMutability": "view",
					"type": "function"
				},
				{
					"inputs": [],
					"name": "getAllowedERC20",
					"outputs": [
						{
							"internalType": "address[]",
							"name": "",
							"type": "address[]"
						}
					],
					"stateMutability": "view",
					"type": "function"
				},
				{
					"inputs": [
						{
							"internalType": "address",
							"name": "collection",
							"type": "address"
						},
						{
							"internalType": "uint256",
							"name": "offset",
							"type": "uint256"
						},
						{
							"internalType": "uint256",
							"name": "limit",
							"type": "uint256"
						}
					],
					"name": "getCollectionTokensAtSale",
					"outputs": [
						{
							"components": [
								{
									"internalType": "address",
									"name": "collection",
									"type": "address"
								},
								{
									"internalType": "uint256",
									"name": "tokenId",
									"type": "uint256"
								},
								{
									"internalType": "address",
									"name": "seller",
									"type": "address"
								},
								{
									"internalType": "uint256",
									"name": "price",
									"type": "uint256"
								},
								{
									"internalType": "address",
									"name": "erc20",
									"type": "address"
								},
								{
									"internalType": "uint256",
									"name": "utx",
									"type": "uint256"
								}
							],
							"internalType": "struct Marketplace.SelledNFT[]",
							"name": "ret",
							"type": "tuple[]"
						}
					],
					"stateMutability": "view",
					"type": "function"
				},
				{
					"inputs": [],
					"name": "getCollectionsTokensCount",
					"outputs": [
						{
							"components": [
								{
									"internalType": "address",
									"name": "collection",
									"type": "address"
								},
								{
									"internalType": "uint256",
									"name": "count",
									"type": "uint256"
								}
							],
							"internalType": "struct Marketplace.CollectionTokenCount[]",
							"name": "ret",
							"type": "tuple[]"
						}
					],
					"stateMutability": "view",
					"type": "function"
				},
				{
					"inputs": [
						{
							"internalType": "address",
							"name": "collection",
							"type": "address"
						}
					],
					"name": "getColletionTokensCount",
					"outputs": [
						{
							"internalType": "uint256",
							"name": "",
							"type": "uint256"
						}
					],
					"stateMutability": "view",
					"type": "function"
				},
				{
					"inputs": [],
					"name": "getFeeReceiver",
					"outputs": [
						{
							"internalType": "address",
							"name": "",
							"type": "address"
						}
					],
					"stateMutability": "view",
					"type": "function"
				},
				{
					"inputs": [
						{
							"internalType": "uint256",
							"name": "offset",
							"type": "uint256"
						},
						{
							"internalType": "uint256",
							"name": "limit",
							"type": "uint256"
						}
					],
					"name": "getMyTokensAtSale",
					"outputs": [
						{
							"components": [
								{
									"internalType": "address",
									"name": "collection",
									"type": "address"
								},
								{
									"internalType": "uint256",
									"name": "tokenId",
									"type": "uint256"
								},
								{
									"internalType": "address",
									"name": "seller",
									"type": "address"
								},
								{
									"internalType": "uint256",
									"name": "price",
									"type": "uint256"
								},
								{
									"internalType": "address",
									"name": "erc20",
									"type": "address"
								},
								{
									"internalType": "uint256",
									"name": "utx",
									"type": "uint256"
								}
							],
							"internalType": "struct Marketplace.SelledNFT[]",
							"name": "",
							"type": "tuple[]"
						}
					],
					"stateMutability": "view",
					"type": "function"
				},
				{
					"inputs": [
						{
							"internalType": "uint256",
							"name": "limit",
							"type": "uint256"
						},
						{
							"internalType": "uint256",
							"name": "offset",
							"type": "uint256"
						}
					],
					"name": "getTokensAtSale",
					"outputs": [
						{
							"components": [
								{
									"internalType": "address",
									"name": "collection",
									"type": "address"
								},
								{
									"internalType": "uint256",
									"name": "tokenId",
									"type": "uint256"
								},
								{
									"internalType": "address",
									"name": "seller",
									"type": "address"
								},
								{
									"internalType": "uint256",
									"name": "price",
									"type": "uint256"
								},
								{
									"internalType": "address",
									"name": "erc20",
									"type": "address"
								},
								{
									"internalType": "uint256",
									"name": "utx",
									"type": "uint256"
								}
							],
							"internalType": "struct Marketplace.SelledNFT[]",
							"name": "",
							"type": "tuple[]"
						}
					],
					"stateMutability": "view",
					"type": "function"
				},
				{
					"inputs": [],
					"name": "getTokensAtSaleCount",
					"outputs": [
						{
							"internalType": "uint256",
							"name": "",
							"type": "uint256"
						}
					],
					"stateMutability": "view",
					"type": "function"
				},
				{
					"inputs": [],
					"name": "getTradeFee",
					"outputs": [
						{
							"internalType": "uint256",
							"name": "",
							"type": "uint256"
						}
					],
					"stateMutability": "view",
					"type": "function"
				},
				{
					"inputs": [
						{
							"internalType": "address",
							"name": "user",
							"type": "address"
						},
						{
							"internalType": "address",
							"name": "collection",
							"type": "address"
						}
					],
					"name": "getUserCollectionTokensCount",
					"outputs": [
						{
							"internalType": "uint256",
							"name": "",
							"type": "uint256"
						}
					],
					"stateMutability": "view",
					"type": "function"
				},
				{
					"inputs": [
						{
							"internalType": "address",
							"name": "user",
							"type": "address"
						}
					],
					"name": "getUserCollectionsTokenCount",
					"outputs": [
						{
							"components": [
								{
									"internalType": "address",
									"name": "collection",
									"type": "address"
								},
								{
									"internalType": "uint256",
									"name": "count",
									"type": "uint256"
								}
							],
							"internalType": "struct Marketplace.CollectionTokenCount[]",
							"name": "ret",
							"type": "tuple[]"
						}
					],
					"stateMutability": "view",
					"type": "function"
				},
				{
					"inputs": [
						{
							"internalType": "address",
							"name": "seller",
							"type": "address"
						},
						{
							"internalType": "uint256",
							"name": "offset",
							"type": "uint256"
						},
						{
							"internalType": "uint256",
							"name": "limit",
							"type": "uint256"
						}
					],
					"name": "getUserTokensAtSale",
					"outputs": [
						{
							"components": [
								{
									"internalType": "address",
									"name": "collection",
									"type": "address"
								},
								{
									"internalType": "uint256",
									"name": "tokenId",
									"type": "uint256"
								},
								{
									"internalType": "address",
									"name": "seller",
									"type": "address"
								},
								{
									"internalType": "uint256",
									"name": "price",
									"type": "uint256"
								},
								{
									"internalType": "address",
									"name": "erc20",
									"type": "address"
								},
								{
									"internalType": "uint256",
									"name": "utx",
									"type": "uint256"
								}
							],
							"internalType": "struct Marketplace.SelledNFT[]",
							"name": "ret",
							"type": "tuple[]"
						}
					],
					"stateMutability": "view",
					"type": "function"
				},
				{
					"inputs": [
						{
							"internalType": "address",
							"name": "erc20",
							"type": "address"
						}
					],
					"name": "isAllowedERC20",
					"outputs": [
						{
							"internalType": "bool",
							"name": "",
							"type": "bool"
						}
					],
					"stateMutability": "view",
					"type": "function"
				},
				{
					"inputs": [],
					"name": "isMarketPlaceContract",
					"outputs": [
						{
							"internalType": "bool",
							"name": "",
							"type": "bool"
						}
					],
					"stateMutability": "pure",
					"type": "function"
				},
				{
					"inputs": [
						{
							"internalType": "address",
							"name": "collection",
							"type": "address"
						},
						{
							"internalType": "uint256",
							"name": "tokenId",
							"type": "uint256"
						}
					],
					"name": "marketTokensGet",
					"outputs": [
						{
							"components": [
								{
									"internalType": "address",
									"name": "collection",
									"type": "address"
								},
								{
									"internalType": "uint256",
									"name": "tokenId",
									"type": "uint256"
								},
								{
									"internalType": "address",
									"name": "seller",
									"type": "address"
								},
								{
									"internalType": "uint256",
									"name": "price",
									"type": "uint256"
								},
								{
									"internalType": "address",
									"name": "erc20",
									"type": "address"
								},
								{
									"internalType": "uint256",
									"name": "utx",
									"type": "uint256"
								}
							],
							"internalType": "struct Marketplace.SelledNFT",
							"name": "ret",
							"type": "tuple"
						}
					],
					"stateMutability": "view",
					"type": "function"
				},
				{
					"inputs": [],
					"name": "owner",
					"outputs": [
						{
							"internalType": "address",
							"name": "",
							"type": "address"
						}
					],
					"stateMutability": "view",
					"type": "function"
				},
				{
					"inputs": [],
					"name": "paused",
					"outputs": [
						{
							"internalType": "bool",
							"name": "",
							"type": "bool"
						}
					],
					"stateMutability": "view",
					"type": "function"
				},
				{
					"inputs": [],
					"name": "renounceOwnership",
					"outputs": [],
					"stateMutability": "nonpayable",
					"type": "function"
				},
				{
					"inputs": [
						{
							"internalType": "address",
							"name": "collection",
							"type": "address"
						},
						{
							"internalType": "uint256",
							"name": "_tokenId",
							"type": "uint256"
						},
						{
							"internalType": "uint256",
							"name": "price",
							"type": "uint256"
						},
						{
							"internalType": "address",
							"name": "_erc20",
							"type": "address"
						}
					],
					"name": "sellNFT",
					"outputs": [],
					"stateMutability": "nonpayable",
					"type": "function"
				},
				{
					"inputs": [
						{
							"internalType": "address[]",
							"name": "_newCollections",
							"type": "address[]"
						}
					],
					"name": "setAllowedCollections",
					"outputs": [],
					"stateMutability": "nonpayable",
					"type": "function"
				},
				{
					"inputs": [
						{
							"internalType": "address[]",
							"name": "newAllowedERC20",
							"type": "address[]"
						}
					],
					"name": "setAllowedERC20",
					"outputs": [],
					"stateMutability": "nonpayable",
					"type": "function"
				},
				{
					"inputs": [
						{
							"internalType": "address",
							"name": "_newFeeReceiver",
							"type": "address"
						}
					],
					"name": "setFeeReceiver",
					"outputs": [],
					"stateMutability": "nonpayable",
					"type": "function"
				},
				{
					"inputs": [
						{
							"internalType": "uint256",
							"name": "_newTradeFee",
							"type": "uint256"
						}
					],
					"name": "setTradeFee",
					"outputs": [],
					"stateMutability": "nonpayable",
					"type": "function"
				},
				{
					"inputs": [
						{
							"internalType": "address",
							"name": "newOwner",
							"type": "address"
						}
					],
					"name": "transferOwnership",
					"outputs": [],
					"stateMutability": "nonpayable",
					"type": "function"
				},
				{
					"inputs": [],
					"name": "version",
					"outputs": [
						{
							"internalType": "uint256",
							"name": "",
							"type": "uint256"
						}
					],
					"stateMutability": "view",
					"type": "function"
				},
				{
					"inputs": [
						{
							"internalType": "address",
							"name": "erc20",
							"type": "address"
						}
					],
					"name": "withdrawERC20",
					"outputs": [],
					"stateMutability": "nonpayable",
					"type": "function"
				},
				{
					"inputs": [],
					"name": "withdrawWei",
					"outputs": [],
					"stateMutability": "nonpayable",
					"type": "function"
				}
			],
			"devdoc": {
				"events": {
					"Paused(address)": {
						"details": "Emitted when the pause is triggered by `account`."
					},
					"Unpaused(address)": {
						"details": "Emitted when the pause is lifted by `account`."
					}
				},
				"kind": "dev",
				"methods": {
					"owner()": {
						"details": "Returns the address of the current owner."
					},
					"paused()": {
						"details": "Returns true if the contract is paused, and false otherwise."
					},
					"renounceOwnership()": {
						"details": "Leaves the contract without owner. It will not be possible to call `onlyOwner` functions anymore. Can only be called by the current owner. NOTE: Renouncing ownership will leave the contract without an owner, thereby removing any functionality that is only available to the owner."
					},
					"transferOwnership(address)": {
						"details": "Transfers ownership of the contract to a new account (`newOwner`). Can only be called by the current owner."
					}
				},
				"version": 1
			},
			"evm": {
				"assembly": "    /* \"source/Marketplace.sol\":50386:64396  contract Marketplace is Ownable, Pausable {... */\n  mstore(0x40, 0x80)\n    /* \"source/Marketplace.sol\":51629:51630  0 */\n  0x00\n    /* \"source/Marketplace.sol\":51604:51630  uint private _tradeFee = 0 */\n  0x01\n  sstore\n    /* \"source/Marketplace.sol\":55479:55998  constructor(... */\n  callvalue\n  dup1\n  iszero\n  tag_1\n  jumpi\n  0x00\n  dup1\n  revert\ntag_1:\n  pop\n  mload(0x40)\n  sub(codesize, bytecodeSize)\n  dup1\n  bytecodeSize\n  dup4\n  codecopy\n  dup2\n  add\n  0x40\n  dup2\n  swap1\n  mstore\n  tag_2\n  swap2\n  tag_3\n  jump\t// in\ntag_2:\n    /* \"source/Marketplace.sol\":1740:1772  _transferOwnership(_msgSender()) */\n  tag_8\n    /* \"source/Marketplace.sol\":736:746  msg.sender */\n  caller\n    /* \"source/Marketplace.sol\":1740:1758  _transferOwnership */\n  tag_11\n    /* \"source/Marketplace.sol\":1740:1772  _transferOwnership(_msgSender()) */\n  jump\t// in\ntag_8:\n    /* \"source/Marketplace.sol\":49087:49092  false */\n  0x00\n    /* \"source/Marketplace.sol\":49077:49092  _paused = false */\n  dup1\n  sload\n  not(shl(0xa0, 0xff))\n  and\n  dup2\n  sstore\n    /* \"source/Marketplace.sol\":55650:55833  for(uint i = 0; i < __collections.length; i++) {... */\ntag_14:\n    /* \"source/Marketplace.sol\":55670:55683  __collections */\n  dup5\n    /* \"source/Marketplace.sol\":55670:55690  __collections.length */\n  mload\n    /* \"source/Marketplace.sol\":55666:55667  i */\n  dup2\n    /* \"source/Marketplace.sol\":55666:55690  i < __collections.length */\n  lt\n    /* \"source/Marketplace.sol\":55650:55833  for(uint i = 0; i < __collections.length; i++) {... */\n  iszero\n  tag_15\n  jumpi\n    /* \"source/Marketplace.sol\":55752:55756  true */\n  0x01\n    /* \"source/Marketplace.sol\":55712:55731  _allowedCollections */\n  0x03\n    /* \"source/Marketplace.sol\":55712:55749  _allowedCollections[__collections[i]] */\n  0x00\n    /* \"source/Marketplace.sol\":55732:55745  __collections */\n  dup8\n    /* \"source/Marketplace.sol\":55746:55747  i */\n  dup5\n    /* \"source/Marketplace.sol\":55732:55748  __collections[i] */\n  dup2\n  mload\n  dup2\n  lt\n  tag_18\n  jumpi\n  tag_18\n  tag_19\n  jump\t// in\ntag_18:\n  0x20\n  mul\n  0x20\n  add\n  add\n  mload\n  sub(shl(0xa0, 0x01), 0x01)\n    /* \"source/Marketplace.sol\":55712:55749  _allowedCollections[__collections[i]] */\n  and\n  sub(shl(0xa0, 0x01), 0x01)\n  and\n  dup2\n  mstore\n  0x20\n  add\n  swap1\n  dup2\n  mstore\n  0x20\n  add\n  0x00\n  keccak256\n  0x00\n    /* \"source/Marketplace.sol\":55712:55756  _allowedCollections[__collections[i]] = true */\n  0x0100\n  exp\n  dup2\n  sload\n  dup2\n  0xff\n  mul\n  not\n  and\n  swap1\n  dup4\n  iszero\n  iszero\n  mul\n  or\n  swap1\n  sstore\n  pop\n    /* \"source/Marketplace.sol\":55771:55789  _marketCollections */\n  0x02\n    /* \"source/Marketplace.sol\":55803:55816  __collections */\n  dup6\n    /* \"source/Marketplace.sol\":55817:55818  i */\n  dup3\n    /* \"source/Marketplace.sol\":55803:55819  __collections[i] */\n  dup2\n  mload\n  dup2\n  lt\n  tag_21\n  jumpi\n  tag_21\n  tag_19\n  jump\t// in\ntag_21:\n  0x20\n  swap1\n  dup2\n  mul\n  swap2\n  swap1\n  swap2\n  add\n  dup2\n  add\n  mload\n    /* \"source/Marketplace.sol\":55771:55821  _marketCollections.push(IERC721(__collections[i])) */\n  dup3\n  sload\n  0x01\n  dup2\n  add\n  dup5\n  sstore\n  0x00\n  swap4\n  dup5\n  mstore\n  swap2\n  swap1\n  swap3\n  keccak256\n  add\n  dup1\n  sload\n  not(sub(shl(0xa0, 0x01), 0x01))\n  and\n  sub(shl(0xa0, 0x01), 0x01)\n  swap1\n  swap3\n  and\n  swap2\n  swap1\n  swap2\n  or\n  swap1\n  sstore\n    /* \"source/Marketplace.sol\":55692:55695  i++ */\n  dup1\n  tag_23\n  dup2\n  tag_24\n  jump\t// in\ntag_23:\n  swap2\n  pop\n  pop\n    /* \"source/Marketplace.sol\":55650:55833  for(uint i = 0; i < __collections.length; i++) {... */\n  jump(tag_14)\ntag_15:\n  pop\n  sub(shl(0xa0, 0x01), 0x01)\n    /* \"source/Marketplace.sol\":55859:55886  __feeReceiver == address(0) */\n  dup4\n  and\n  iszero\n    /* \"source/Marketplace.sol\":55858:55916  (__feeReceiver == address(0)) ? msg.sender : __feeReceiver */\n  tag_25\n  jumpi\n    /* \"source/Marketplace.sol\":55903:55916  __feeReceiver */\n  dup3\n    /* \"source/Marketplace.sol\":55858:55916  (__feeReceiver == address(0)) ? msg.sender : __feeReceiver */\n  jump(tag_26)\ntag_25:\n    /* \"source/Marketplace.sol\":55890:55900  msg.sender */\n  caller\n    /* \"source/Marketplace.sol\":55858:55916  (__feeReceiver == address(0)) ? msg.sender : __feeReceiver */\ntag_26:\n    /* \"source/Marketplace.sol\":55843:55855  _feeReceiver */\n  0x09\n    /* \"source/Marketplace.sol\":55843:55916  _feeReceiver = (__feeReceiver == address(0)) ? msg.sender : __feeReceiver */\n  dup1\n  sload\n  not(sub(shl(0xa0, 0x01), 0x01))\n  and\n  sub(shl(0xa0, 0x01), 0x01)\n  swap3\n  swap1\n  swap3\n  and\n  swap2\n  swap1\n  swap2\n  or\n  swap1\n  sstore\n  0x01\n    /* \"source/Marketplace.sol\":55927:55949  _tradeFee = __tradeFee */\n  dup3\n  swap1\n  sstore\n    /* \"source/Marketplace.sol\":55960:55990  _allowedERC20 = __allowedERC20 */\n  dup1\n  mload\n  tag_27\n  swap1\n    /* \"source/Marketplace.sol\":55960:55973  _allowedERC20 */\n  0x04\n  swap1\n    /* \"source/Marketplace.sol\":55960:55990  _allowedERC20 = __allowedERC20 */\n  0x20\n  dup5\n  add\n  swap1\n  tag_28\n  jump\t// in\ntag_27:\n  pop\n    /* \"source/Marketplace.sol\":55479:55998  constructor(... */\n  pop\n  pop\n  pop\n  pop\n    /* \"source/Marketplace.sol\":50386:64396  contract Marketplace is Ownable, Pausable {... */\n  jump(tag_42)\n    /* \"source/Marketplace.sol\":3286:3477  function _transferOwnership(address newOwner) internal virtual {... */\ntag_11:\n    /* \"source/Marketplace.sol\":3360:3376  address oldOwner */\n  0x00\n    /* \"source/Marketplace.sol\":3379:3385  _owner */\n  dup1\n  sload\n  sub(shl(0xa0, 0x01), 0x01)\n    /* \"source/Marketplace.sol\":3396:3413  _owner = newOwner */\n  dup4\n  dup2\n  and\n  not(sub(shl(0xa0, 0x01), 0x01))\n  dup4\n  and\n  dup2\n  or\n  dup5\n  sstore\n    /* \"source/Marketplace.sol\":3429:3469  OwnershipTransferred(oldOwner, newOwner) */\n  mload(0x40)\n    /* \"source/Marketplace.sol\":3379:3385  _owner */\n  swap2\n  swap1\n  swap3\n  and\n  swap3\n  dup4\n  swap2\n    /* \"source/Marketplace.sol\":3429:3469  OwnershipTransferred(oldOwner, newOwner) */\n  0x8be0079c531659141344cd1fd0a4f28419497f9722a3daafe3b4186f6b6457e0\n  swap2\n    /* \"source/Marketplace.sol\":3360:3376  address oldOwner */\n  swap1\n    /* \"source/Marketplace.sol\":3429:3469  OwnershipTransferred(oldOwner, newOwner) */\n  log3\n    /* \"source/Marketplace.sol\":3349:3477  {... */\n  pop\n    /* \"source/Marketplace.sol\":3286:3477  function _transferOwnership(address newOwner) internal virtual {... */\n  pop\n  jump\t// out\n    /* \"source/Marketplace.sol\":50386:64396  contract Marketplace is Ownable, Pausable {... */\ntag_28:\n  dup3\n  dup1\n  sload\n  dup3\n  dup3\n  sstore\n  swap1\n  0x00\n  mstore\n  keccak256(0x00, 0x20)\n  swap1\n  dup2\n  add\n  swap3\n  dup3\n  iszero\n  tag_34\n  jumpi\n  swap2\n  0x20\n  mul\n  dup3\n  add\ntag_33:\n  dup3\n  dup2\n  gt\n  iszero\n  tag_34\n  jumpi\n  dup3\n  mload\n  dup3\n  sload\n  not(sub(shl(0xa0, 0x01), 0x01))\n  and\n  sub(shl(0xa0, 0x01), 0x01)\n  swap1\n  swap2\n  and\n  or\n  dup3\n  sstore\n  0x20\n  swap1\n  swap3\n  add\n  swap2\n  0x01\n  swap1\n  swap2\n  add\n  swap1\n  jump(tag_33)\ntag_34:\n  pop\n  tag_35\n  swap3\n  swap2\n  pop\n  tag_36\n  jump\t// in\ntag_35:\n  pop\n  swap1\n  jump\t// out\ntag_36:\ntag_37:\n  dup1\n  dup3\n  gt\n  iszero\n  tag_35\n  jumpi\n  0x00\n  dup2\n  sstore\n  0x01\n  add\n  jump(tag_37)\n    /* \"#utility.yul\":14:141   */\ntag_39:\n    /* \"#utility.yul\":75:85   */\n  0x4e487b71\n    /* \"#utility.yul\":70:73   */\n  0xe0\n    /* \"#utility.yul\":66:86   */\n  shl\n    /* \"#utility.yul\":63:64   */\n  0x00\n    /* \"#utility.yul\":56:87   */\n  mstore\n    /* \"#utility.yul\":106:110   */\n  0x41\n    /* \"#utility.yul\":103:104   */\n  0x04\n    /* \"#utility.yul\":96:111   */\n  mstore\n    /* \"#utility.yul\":130:134   */\n  0x24\n    /* \"#utility.yul\":127:128   */\n  0x00\n    /* \"#utility.yul\":120:135   */\n  revert\n    /* \"#utility.yul\":146:323   */\ntag_40:\n    /* \"#utility.yul\":225:238   */\n  dup1\n  mload\n  sub(shl(0xa0, 0x01), 0x01)\n    /* \"#utility.yul\":267:298   */\n  dup2\n  and\n    /* \"#utility.yul\":257:299   */\n  dup2\n  eq\n    /* \"#utility.yul\":247:317   */\n  tag_45\n  jumpi\n    /* \"#utility.yul\":313:314   */\n  0x00\n    /* \"#utility.yul\":310:311   */\n  dup1\n    /* \"#utility.yul\":303:315   */\n  revert\n    /* \"#utility.yul\":247:317   */\ntag_45:\n    /* \"#utility.yul\":146:323   */\n  swap2\n  swap1\n  pop\n  jump\t// out\n    /* \"#utility.yul\":328:1251   */\ntag_41:\n    /* \"#utility.yul\":393:398   */\n  0x00\n    /* \"#utility.yul\":446:449   */\n  dup3\n    /* \"#utility.yul\":439:443   */\n  0x1f\n    /* \"#utility.yul\":431:437   */\n  dup4\n    /* \"#utility.yul\":427:444   */\n  add\n    /* \"#utility.yul\":423:450   */\n  slt\n    /* \"#utility.yul\":413:468   */\n  tag_47\n  jumpi\n    /* \"#utility.yul\":464:465   */\n  0x00\n    /* \"#utility.yul\":461:462   */\n  dup1\n    /* \"#utility.yul\":454:466   */\n  revert\n    /* \"#utility.yul\":413:468   */\ntag_47:\n    /* \"#utility.yul\":487:500   */\n  dup2\n  mload\n    /* \"#utility.yul\":519:523   */\n  0x20\n  sub(shl(0x40, 0x01), 0x01)\n    /* \"#utility.yul\":572:582   */\n  dup1\n  dup4\n  gt\n    /* \"#utility.yul\":569:605   */\n  iszero\n  tag_49\n  jumpi\n    /* \"#utility.yul\":585:603   */\n  tag_49\n  tag_39\n  jump\t// in\ntag_49:\n    /* \"#utility.yul\":631:633   */\n  dup3\n    /* \"#utility.yul\":628:629   */\n  0x05\n    /* \"#utility.yul\":624:634   */\n  shl\n    /* \"#utility.yul\":663:665   */\n  0x40\n    /* \"#utility.yul\":657:666   */\n  mload\n    /* \"#utility.yul\":726:728   */\n  0x1f\n    /* \"#utility.yul\":722:729   */\n  not\n    /* \"#utility.yul\":717:719   */\n  0x3f\n    /* \"#utility.yul\":713:715   */\n  dup4\n    /* \"#utility.yul\":709:720   */\n  add\n    /* \"#utility.yul\":705:730   */\n  and\n    /* \"#utility.yul\":697:703   */\n  dup2\n    /* \"#utility.yul\":693:731   */\n  add\n    /* \"#utility.yul\":781:787   */\n  dup2\n    /* \"#utility.yul\":769:779   */\n  dup2\n    /* \"#utility.yul\":766:788   */\n  lt\n    /* \"#utility.yul\":761:763   */\n  dup5\n    /* \"#utility.yul\":749:759   */\n  dup3\n    /* \"#utility.yul\":746:764   */\n  gt\n    /* \"#utility.yul\":743:789   */\n  or\n    /* \"#utility.yul\":740:812   */\n  iszero\n  tag_51\n  jumpi\n    /* \"#utility.yul\":792:810   */\n  tag_51\n  tag_39\n  jump\t// in\ntag_51:\n    /* \"#utility.yul\":828:830   */\n  0x40\n    /* \"#utility.yul\":821:843   */\n  mstore\n    /* \"#utility.yul\":878:896   */\n  swap4\n  dup5\n  mstore\n    /* \"#utility.yul\":954:969   */\n  dup6\n  dup2\n  add\n    /* \"#utility.yul\":950:974   */\n  dup4\n  add\n  swap4\n    /* \"#utility.yul\":912:927   */\n  dup4\n  dup2\n  add\n  swap3\n  pop\n    /* \"#utility.yul\":986:1001   */\n  dup8\n  dup6\n  gt\n    /* \"#utility.yul\":983:1018   */\n  iszero\n  tag_52\n  jumpi\n    /* \"#utility.yul\":1014:1015   */\n  0x00\n    /* \"#utility.yul\":1011:1012   */\n  dup1\n    /* \"#utility.yul\":1004:1016   */\n  revert\n    /* \"#utility.yul\":983:1018   */\ntag_52:\n    /* \"#utility.yul\":1050:1052   */\n  dup4\n    /* \"#utility.yul\":1042:1048   */\n  dup8\n    /* \"#utility.yul\":1038:1053   */\n  add\n    /* \"#utility.yul\":1027:1053   */\n  swap2\n  pop\n    /* \"#utility.yul\":1062:1221   */\ntag_53:\n    /* \"#utility.yul\":1078:1084   */\n  dup5\n    /* \"#utility.yul\":1073:1076   */\n  dup3\n    /* \"#utility.yul\":1070:1085   */\n  lt\n    /* \"#utility.yul\":1062:1221   */\n  iszero\n  tag_55\n  jumpi\n    /* \"#utility.yul\":1144:1178   */\n  tag_56\n    /* \"#utility.yul\":1174:1177   */\n  dup3\n    /* \"#utility.yul\":1144:1178   */\n  tag_40\n  jump\t// in\ntag_56:\n    /* \"#utility.yul\":1132:1179   */\n  dup4\n  mstore\n    /* \"#utility.yul\":1199:1211   */\n  swap2\n  dup4\n  add\n  swap2\n    /* \"#utility.yul\":1095:1107   */\n  swap1\n  dup4\n  add\n  swap1\n    /* \"#utility.yul\":1062:1221   */\n  jump(tag_53)\ntag_55:\n    /* \"#utility.yul\":1239:1245   */\n  swap8\n    /* \"#utility.yul\":328:1251   */\n  swap7\n  pop\n  pop\n  pop\n  pop\n  pop\n  pop\n  pop\n  jump\t// out\n    /* \"#utility.yul\":1256:2017   */\ntag_3:\n    /* \"#utility.yul\":1403:1409   */\n  0x00\n    /* \"#utility.yul\":1411:1417   */\n  dup1\n    /* \"#utility.yul\":1419:1425   */\n  0x00\n    /* \"#utility.yul\":1427:1433   */\n  dup1\n    /* \"#utility.yul\":1480:1483   */\n  0x80\n    /* \"#utility.yul\":1468:1477   */\n  dup6\n    /* \"#utility.yul\":1459:1466   */\n  dup8\n    /* \"#utility.yul\":1455:1478   */\n  sub\n    /* \"#utility.yul\":1451:1484   */\n  slt\n    /* \"#utility.yul\":1448:1501   */\n  iszero\n  tag_58\n  jumpi\n    /* \"#utility.yul\":1497:1498   */\n  0x00\n    /* \"#utility.yul\":1494:1495   */\n  dup1\n    /* \"#utility.yul\":1487:1499   */\n  revert\n    /* \"#utility.yul\":1448:1501   */\ntag_58:\n    /* \"#utility.yul\":1524:1540   */\n  dup5\n  mload\n  sub(shl(0x40, 0x01), 0x01)\n    /* \"#utility.yul\":1589:1603   */\n  dup1\n  dup3\n  gt\n    /* \"#utility.yul\":1586:1620   */\n  iszero\n  tag_59\n  jumpi\n    /* \"#utility.yul\":1616:1617   */\n  0x00\n    /* \"#utility.yul\":1613:1614   */\n  dup1\n    /* \"#utility.yul\":1606:1618   */\n  revert\n    /* \"#utility.yul\":1586:1620   */\ntag_59:\n    /* \"#utility.yul\":1639:1711   */\n  tag_60\n    /* \"#utility.yul\":1703:1710   */\n  dup9\n    /* \"#utility.yul\":1694:1700   */\n  dup4\n    /* \"#utility.yul\":1683:1692   */\n  dup10\n    /* \"#utility.yul\":1679:1701   */\n  add\n    /* \"#utility.yul\":1639:1711   */\n  tag_41\n  jump\t// in\ntag_60:\n    /* \"#utility.yul\":1629:1711   */\n  swap6\n  pop\n    /* \"#utility.yul\":1730:1779   */\n  tag_61\n    /* \"#utility.yul\":1775:1777   */\n  0x20\n    /* \"#utility.yul\":1764:1773   */\n  dup9\n    /* \"#utility.yul\":1760:1778   */\n  add\n    /* \"#utility.yul\":1730:1779   */\n  tag_40\n  jump\t// in\ntag_61:\n    /* \"#utility.yul\":1720:1779   */\n  swap5\n  pop\n    /* \"#utility.yul\":1819:1821   */\n  0x40\n    /* \"#utility.yul\":1808:1817   */\n  dup8\n    /* \"#utility.yul\":1804:1822   */\n  add\n    /* \"#utility.yul\":1798:1823   */\n  mload\n    /* \"#utility.yul\":1788:1823   */\n  swap4\n  pop\n    /* \"#utility.yul\":1869:1871   */\n  0x60\n    /* \"#utility.yul\":1858:1867   */\n  dup8\n    /* \"#utility.yul\":1854:1872   */\n  add\n    /* \"#utility.yul\":1848:1873   */\n  mload\n    /* \"#utility.yul\":1832:1873   */\n  swap2\n  pop\n    /* \"#utility.yul\":1898:1900   */\n  dup1\n    /* \"#utility.yul\":1888:1896   */\n  dup3\n    /* \"#utility.yul\":1885:1901   */\n  gt\n    /* \"#utility.yul\":1882:1918   */\n  iszero\n  tag_62\n  jumpi\n    /* \"#utility.yul\":1914:1915   */\n  0x00\n    /* \"#utility.yul\":1911:1912   */\n  dup1\n    /* \"#utility.yul\":1904:1916   */\n  revert\n    /* \"#utility.yul\":1882:1918   */\ntag_62:\n  pop\n    /* \"#utility.yul\":1937:2011   */\n  tag_63\n    /* \"#utility.yul\":2003:2010   */\n  dup8\n    /* \"#utility.yul\":1992:2000   */\n  dup3\n    /* \"#utility.yul\":1981:1990   */\n  dup9\n    /* \"#utility.yul\":1977:2001   */\n  add\n    /* \"#utility.yul\":1937:2011   */\n  tag_41\n  jump\t// in\ntag_63:\n    /* \"#utility.yul\":1927:2011   */\n  swap2\n  pop\n  pop\n    /* \"#utility.yul\":1256:2017   */\n  swap3\n  swap6\n  swap2\n  swap5\n  pop\n  swap3\n  pop\n  jump\t// out\n    /* \"#utility.yul\":2022:2149   */\ntag_19:\n    /* \"#utility.yul\":2083:2093   */\n  0x4e487b71\n    /* \"#utility.yul\":2078:2081   */\n  0xe0\n    /* \"#utility.yul\":2074:2094   */\n  shl\n    /* \"#utility.yul\":2071:2072   */\n  0x00\n    /* \"#utility.yul\":2064:2095   */\n  mstore\n    /* \"#utility.yul\":2114:2118   */\n  0x32\n    /* \"#utility.yul\":2111:2112   */\n  0x04\n    /* \"#utility.yul\":2104:2119   */\n  mstore\n    /* \"#utility.yul\":2138:2142   */\n  0x24\n    /* \"#utility.yul\":2135:2136   */\n  0x00\n    /* \"#utility.yul\":2128:2143   */\n  revert\n    /* \"#utility.yul\":2154:2386   */\ntag_24:\n    /* \"#utility.yul\":2193:2196   */\n  0x00\n    /* \"#utility.yul\":2214:2231   */\n  0x01\n  dup3\n  add\n    /* \"#utility.yul\":2211:2351   */\n  tag_66\n  jumpi\n    /* \"#utility.yul\":2273:2283   */\n  0x4e487b71\n    /* \"#utility.yul\":2268:2271   */\n  0xe0\n    /* \"#utility.yul\":2264:2284   */\n  shl\n    /* \"#utility.yul\":2261:2262   */\n  0x00\n    /* \"#utility.yul\":2254:2285   */\n  mstore\n    /* \"#utility.yul\":2308:2312   */\n  0x11\n    /* \"#utility.yul\":2305:2306   */\n  0x04\n    /* \"#utility.yul\":2298:2313   */\n  mstore\n    /* \"#utility.yul\":2336:2340   */\n  0x24\n    /* \"#utility.yul\":2333:2334   */\n  0x00\n    /* \"#utility.yul\":2326:2341   */\n  revert\n    /* \"#utility.yul\":2211:2351   */\ntag_66:\n  pop\n    /* \"#utility.yul\":2378:2379   */\n  0x01\n    /* \"#utility.yul\":2367:2380   */\n  add\n  swap1\n    /* \"#utility.yul\":2154:2386   */\n  jump\t// out\ntag_42:\n    /* \"source/Marketplace.sol\":50386:64396  contract Marketplace is Ownable, Pausable {... */\n  dataSize(sub_0)\n  dup1\n  dataOffset(sub_0)\n  0x00\n  codecopy\n  0x00\n  return\nstop\n\nsub_0: assembly {\n        /* \"source/Marketplace.sol\":50386:64396  contract Marketplace is Ownable, Pausable {... */\n      mstore(0x40, 0x80)\n      jumpi(tag_1, lt(calldatasize, 0x04))\n      shr(0xe0, calldataload(0x00))\n      dup1\n      0x785fa7ce\n      gt\n      tag_33\n      jumpi\n      dup1\n      0xc8f77899\n      gt\n      tag_34\n      jumpi\n      dup1\n      0xe9e4e160\n      gt\n      tag_35\n      jumpi\n      dup1\n      0xe9e4e160\n      eq\n      tag_29\n      jumpi\n      dup1\n      0xefdcd974\n      eq\n      tag_30\n      jumpi\n      dup1\n      0xf2fde38b\n      eq\n      tag_31\n      jumpi\n      dup1\n      0xf4f3b200\n      eq\n      tag_32\n      jumpi\n      0x00\n      dup1\n      revert\n    tag_35:\n      dup1\n      0xc8f77899\n      eq\n      tag_25\n      jumpi\n      dup1\n      0xcb4ca919\n      eq\n      tag_26\n      jumpi\n      dup1\n      0xda24548a\n      eq\n      tag_27\n      jumpi\n      dup1\n      0xe8a35392\n      eq\n      tag_28\n      jumpi\n      0x00\n      dup1\n      revert\n    tag_34:\n      dup1\n      0xa7c9197a\n      gt\n      tag_36\n      jumpi\n      dup1\n      0xa7c9197a\n      eq\n      tag_21\n      jumpi\n      dup1\n      0xa82ba76f\n      eq\n      tag_22\n      jumpi\n      dup1\n      0xb7b7b8ff\n      eq\n      tag_23\n      jumpi\n      dup1\n      0xc8d8101c\n      eq\n      tag_24\n      jumpi\n      0x00\n      dup1\n      revert\n    tag_36:\n      dup1\n      0x785fa7ce\n      eq\n      tag_17\n      jumpi\n      dup1\n      0x8da5cb5b\n      eq\n      tag_18\n      jumpi\n      dup1\n      0x952977f5\n      eq\n      tag_19\n      jumpi\n      dup1\n      0x98f748bd\n      eq\n      tag_20\n      jumpi\n      0x00\n      dup1\n      revert\n    tag_33:\n      dup1\n      0x527f2902\n      gt\n      tag_37\n      jumpi\n      dup1\n      0x5c975abb\n      gt\n      tag_38\n      jumpi\n      dup1\n      0x5c975abb\n      eq\n      tag_13\n      jumpi\n      dup1\n      0x6629e913\n      eq\n      tag_14\n      jumpi\n      dup1\n      0x69c57352\n      eq\n      tag_15\n      jumpi\n      dup1\n      0x715018a6\n      eq\n      tag_16\n      jumpi\n      0x00\n      dup1\n      revert\n    tag_38:\n      dup1\n      0x527f2902\n      eq\n      tag_9\n      jumpi\n      dup1\n      0x54fd4d50\n      eq\n      tag_10\n      jumpi\n      dup1\n      0x5b4e7add\n      eq\n      tag_11\n      jumpi\n      dup1\n      0x5b87f0f2\n      eq\n      tag_12\n      jumpi\n      0x00\n      dup1\n      revert\n    tag_37:\n      dup1\n      0x2ca38df5\n      gt\n      tag_39\n      jumpi\n      dup1\n      0x2ca38df5\n      eq\n      tag_5\n      jumpi\n      dup1\n      0x3a51f383\n      eq\n      tag_6\n      jumpi\n      dup1\n      0x3eac63ed\n      eq\n      tag_7\n      jumpi\n      dup1\n      0x5211ac2e\n      eq\n      tag_8\n      jumpi\n      0x00\n      dup1\n      revert\n    tag_39:\n      dup1\n      0x10603023\n      eq\n      tag_2\n      jumpi\n      dup1\n      0x27713536\n      eq\n      tag_3\n      jumpi\n      dup1\n      0x2b205d14\n      eq\n      tag_4\n      jumpi\n    tag_1:\n      0x00\n      dup1\n      revert\n        /* \"source/Marketplace.sol\":57873:57973  function setTradeFee(uint _newTradeFee) public onlyOwner {... */\n    tag_2:\n      callvalue\n      dup1\n      iszero\n      tag_40\n      jumpi\n      0x00\n      dup1\n      revert\n    tag_40:\n      pop\n      tag_41\n      tag_42\n      calldatasize\n      0x04\n      tag_43\n      jump\t// in\n    tag_42:\n      tag_44\n      jump\t// in\n    tag_41:\n      stop\n        /* \"source/Marketplace.sol\":56349:56828  function setAllowedCollections(address[] memory _newCollections) public onlyOwner {... */\n    tag_3:\n      callvalue\n      dup1\n      iszero\n      tag_45\n      jumpi\n      0x00\n      dup1\n      revert\n    tag_45:\n      pop\n      tag_41\n      tag_47\n      calldatasize\n      0x04\n      tag_48\n      jump\t// in\n    tag_47:\n      tag_49\n      jump\t// in\n        /* \"source/Marketplace.sol\":59582:61308  function buyNFTbyERC20(address collection, uint tokenId)... */\n    tag_4:\n      callvalue\n      dup1\n      iszero\n      tag_50\n      jumpi\n      0x00\n      dup1\n      revert\n    tag_50:\n      pop\n      tag_41\n      tag_52\n      calldatasize\n      0x04\n      tag_53\n      jump\t// in\n    tag_52:\n      tag_54\n      jump\t// in\n        /* \"source/Marketplace.sol\":58157:58726  function getUserTokensAtSale(address seller, uint256 offset, uint256 limit)... */\n    tag_5:\n      callvalue\n      dup1\n      iszero\n      tag_55\n      jumpi\n      0x00\n      dup1\n      revert\n    tag_55:\n      pop\n      tag_56\n      tag_57\n      calldatasize\n      0x04\n      tag_58\n      jump\t// in\n    tag_57:\n      tag_59\n      jump\t// in\n    tag_56:\n      mload(0x40)\n      tag_60\n      swap2\n      swap1\n      tag_61\n      jump\t// in\n    tag_60:\n      mload(0x40)\n      dup1\n      swap2\n      sub\n      swap1\n      return\n        /* \"source/Marketplace.sol\":56228:56343  function getAllowedCollections() public view returns(IERC721[] memory) {... */\n    tag_6:\n      callvalue\n      dup1\n      iszero\n      tag_62\n      jumpi\n      0x00\n      dup1\n      revert\n    tag_62:\n      pop\n      tag_63\n      tag_64\n      jump\t// in\n    tag_63:\n      mload(0x40)\n      tag_60\n      swap2\n      swap1\n      tag_66\n      jump\t// in\n        /* \"source/Marketplace.sol\":53510:53987  function getUserCollectionsTokenCount(address user) public view returns(CollectionTokenCount[] memory ret) {... */\n    tag_7:\n      callvalue\n      dup1\n      iszero\n      tag_67\n      jumpi\n      0x00\n      dup1\n      revert\n    tag_67:\n      pop\n      tag_68\n      tag_69\n      calldatasize\n      0x04\n      tag_70\n      jump\t// in\n    tag_69:\n      tag_71\n      jump\t// in\n    tag_68:\n      mload(0x40)\n      tag_60\n      swap2\n      swap1\n      tag_73\n      jump\t// in\n        /* \"source/Marketplace.sol\":57314:57505  function withdrawWei() public onlyOwner {... */\n    tag_8:\n      callvalue\n      dup1\n      iszero\n      tag_74\n      jumpi\n      0x00\n      dup1\n      revert\n    tag_74:\n      pop\n      tag_41\n      tag_76\n      jump\t// in\n        /* \"source/Marketplace.sol\":51639:51729  function isMarketPlaceContract() public pure returns (bool) {... */\n    tag_9:\n      callvalue\n      dup1\n      iszero\n      tag_77\n      jumpi\n      0x00\n      dup1\n      revert\n    tag_77:\n      pop\n        /* \"source/Marketplace.sol\":51717:51721  true */\n      0x01\n        /* \"source/Marketplace.sol\":51639:51729  function isMarketPlaceContract() public pure returns (bool) {... */\n    tag_78:\n      mload(0x40)\n        /* \"#utility.yul\":5746:5760   */\n      swap1\n      iszero\n        /* \"#utility.yul\":5739:5761   */\n      iszero\n        /* \"#utility.yul\":5721:5762   */\n      dup2\n      mstore\n        /* \"#utility.yul\":5709:5711   */\n      0x20\n        /* \"#utility.yul\":5694:5712   */\n      add\n        /* \"source/Marketplace.sol\":51639:51729  function isMarketPlaceContract() public pure returns (bool) {... */\n      tag_60\n        /* \"#utility.yul\":5581:5768   */\n      jump\n        /* \"source/Marketplace.sol\":51563:51595  uint constant public version = 1 */\n    tag_10:\n      callvalue\n      dup1\n      iszero\n      tag_82\n      jumpi\n      0x00\n      dup1\n      revert\n    tag_82:\n      pop\n      tag_83\n        /* \"source/Marketplace.sol\":51594:51595  1 */\n      0x01\n        /* \"source/Marketplace.sol\":51563:51595  uint constant public version = 1 */\n      dup2\n      jump\n    tag_83:\n      mload(0x40)\n        /* \"#utility.yul\":5919:5944   */\n      swap1\n      dup2\n      mstore\n        /* \"#utility.yul\":5907:5909   */\n      0x20\n        /* \"#utility.yul\":5892:5910   */\n      add\n        /* \"source/Marketplace.sol\":51563:51595  uint constant public version = 1 */\n      tag_60\n        /* \"#utility.yul\":5773:5950   */\n      jump\n        /* \"source/Marketplace.sol\":52624:52767  function getColletionTokensCount(address collection) public view returns (uint256) {... */\n    tag_11:\n      callvalue\n      dup1\n      iszero\n      tag_87\n      jumpi\n      0x00\n      dup1\n      revert\n    tag_87:\n      pop\n      tag_83\n      tag_89\n      calldatasize\n      0x04\n      tag_70\n      jump\t// in\n    tag_89:\n        /* \"source/Marketplace.sol\":52725:52759  _collectionTokensCount[collection] */\n      0xffffffffffffffffffffffffffffffffffffffff\n      and\n        /* \"source/Marketplace.sol\":52698:52705  uint256 */\n      0x00\n        /* \"source/Marketplace.sol\":52725:52759  _collectionTokensCount[collection] */\n      swap1\n      dup2\n      mstore\n        /* \"source/Marketplace.sol\":52725:52747  _collectionTokensCount */\n      0x06\n        /* \"source/Marketplace.sol\":52725:52759  _collectionTokensCount[collection] */\n      0x20\n      mstore\n      0x40\n      swap1\n      keccak256\n      sload\n      swap1\n        /* \"source/Marketplace.sol\":52624:52767  function getColletionTokensCount(address collection) public view returns (uint256) {... */\n      jump\n        /* \"source/Marketplace.sol\":58848:58984  function getTokensAtSale(uint256 limit, uint256 offset) public view returns (SelledNFT[] memory) {... */\n    tag_12:\n      callvalue\n      dup1\n      iszero\n      tag_92\n      jumpi\n      0x00\n      dup1\n      revert\n    tag_92:\n      pop\n      tag_56\n      tag_94\n      calldatasize\n      0x04\n      tag_95\n      jump\t// in\n    tag_94:\n      tag_96\n      jump\t// in\n        /* \"source/Marketplace.sol\":49200:49286  function paused() public view virtual returns (bool) {... */\n    tag_13:\n      callvalue\n      dup1\n      iszero\n      tag_98\n      jumpi\n      0x00\n      dup1\n      revert\n    tag_98:\n      pop\n        /* \"source/Marketplace.sol\":49247:49251  bool */\n      0x00\n        /* \"source/Marketplace.sol\":49271:49278  _paused */\n      sload\n      0x010000000000000000000000000000000000000000\n      swap1\n      div\n      0xff\n      and\n        /* \"source/Marketplace.sol\":49200:49286  function paused() public view virtual returns (bool) {... */\n      jump(tag_78)\n        /* \"source/Marketplace.sol\":52182:52616  function marketTokensGet(address collection, uint256 tokenId) public view returns (SelledNFT memory ret) {... */\n    tag_14:\n      callvalue\n      dup1\n      iszero\n      tag_102\n      jumpi\n      0x00\n      dup1\n      revert\n    tag_102:\n      pop\n      tag_103\n      tag_104\n      calldatasize\n      0x04\n      tag_53\n      jump\t// in\n    tag_104:\n      tag_105\n      jump\t// in\n    tag_103:\n      mload(0x40)\n      tag_60\n      swap2\n      swap1\n      tag_107\n      jump\t// in\n        /* \"source/Marketplace.sol\":56976:57080  function getAllowedERC20() public view returns(address[] memory) {... */\n    tag_15:\n      callvalue\n      dup1\n      iszero\n      tag_108\n      jumpi\n      0x00\n      dup1\n      revert\n    tag_108:\n      pop\n      tag_63\n      tag_110\n      jump\t// in\n        /* \"source/Marketplace.sol\":2667:2770  function renounceOwnership() public virtual onlyOwner {... */\n    tag_16:\n      callvalue\n      dup1\n      iszero\n      tag_113\n      jumpi\n      0x00\n      dup1\n      revert\n    tag_113:\n      pop\n      tag_41\n      tag_115\n      jump\t// in\n        /* \"source/Marketplace.sol\":57088:57306  function isAllowedERC20(address erc20) public view returns (bool) {... */\n    tag_17:\n      callvalue\n      dup1\n      iszero\n      tag_116\n      jumpi\n      0x00\n      dup1\n      revert\n    tag_116:\n      pop\n      tag_78\n      tag_118\n      calldatasize\n      0x04\n      tag_70\n      jump\t// in\n    tag_118:\n      tag_119\n      jump\t// in\n        /* \"source/Marketplace.sol\":2019:2106  function owner() public view virtual returns (address) {... */\n    tag_18:\n      callvalue\n      dup1\n      iszero\n      tag_121\n      jumpi\n      0x00\n      dup1\n      revert\n    tag_121:\n      pop\n        /* \"source/Marketplace.sol\":2065:2072  address */\n      0x00\n        /* \"source/Marketplace.sol\":2092:2098  _owner */\n      sload\n      0xffffffffffffffffffffffffffffffffffffffff\n      and\n        /* \"source/Marketplace.sol\":2019:2106  function owner() public view virtual returns (address) {... */\n    tag_122:\n      mload(0x40)\n        /* \"#utility.yul\":7328:7370   */\n      0xffffffffffffffffffffffffffffffffffffffff\n        /* \"#utility.yul\":7316:7371   */\n      swap1\n      swap2\n      and\n        /* \"#utility.yul\":7298:7372   */\n      dup2\n      mstore\n        /* \"#utility.yul\":7286:7288   */\n      0x20\n        /* \"#utility.yul\":7271:7289   */\n      add\n        /* \"source/Marketplace.sol\":2019:2106  function owner() public view virtual returns (address) {... */\n      tag_60\n        /* \"#utility.yul\":7152:7378   */\n      jump\n        /* \"source/Marketplace.sol\":57782:57867  function getTradeFee() public view returns (uint) {... */\n    tag_19:\n      callvalue\n      dup1\n      iszero\n      tag_126\n      jumpi\n      0x00\n      dup1\n      revert\n    tag_126:\n      pop\n        /* \"source/Marketplace.sol\":57850:57859  _tradeFee */\n      sload(0x01)\n        /* \"source/Marketplace.sol\":57782:57867  function getTradeFee() public view returns (uint) {... */\n      jump(tag_83)\n        /* \"source/Marketplace.sol\":62508:63800  function sellNFT(... */\n    tag_20:\n      callvalue\n      dup1\n      iszero\n      tag_130\n      jumpi\n      0x00\n      dup1\n      revert\n    tag_130:\n      pop\n      tag_41\n      tag_132\n      calldatasize\n      0x04\n      tag_133\n      jump\t// in\n    tag_132:\n      tag_134\n      jump\t// in\n        /* \"source/Marketplace.sol\":53054:53504  function getCollectionsTokensCount() public view returns (CollectionTokenCount[] memory ret) {... */\n    tag_21:\n      callvalue\n      dup1\n      iszero\n      tag_135\n      jumpi\n      0x00\n      dup1\n      revert\n    tag_135:\n      pop\n      tag_68\n      tag_137\n      jump\t// in\n        /* \"source/Marketplace.sol\":61318:62500  function buyNFT(address collection, uint256 tokenId)... */\n    tag_22:\n      tag_41\n      tag_140\n      calldatasize\n      0x04\n      tag_53\n      jump\t// in\n    tag_140:\n      tag_141\n      jump\t// in\n        /* \"source/Marketplace.sol\":58990:59574  function getCollectionTokensAtSale(address collection, uint256 offset, uint256 limit) public view returns (SelledNFT[] memory ret) {... */\n    tag_23:\n      callvalue\n      dup1\n      iszero\n      tag_142\n      jumpi\n      0x00\n      dup1\n      revert\n    tag_142:\n      pop\n      tag_56\n      tag_144\n      calldatasize\n      0x04\n      tag_58\n      jump\t// in\n    tag_144:\n      tag_145\n      jump\t// in\n        /* \"source/Marketplace.sol\":52773:52947  function getUserCollectionTokensCount(address user, address collection) public view returns(uint256) {... */\n    tag_24:\n      callvalue\n      dup1\n      iszero\n      tag_147\n      jumpi\n      0x00\n      dup1\n      revert\n    tag_147:\n      pop\n      tag_83\n      tag_149\n      calldatasize\n      0x04\n      tag_150\n      jump\t// in\n    tag_149:\n        /* \"source/Marketplace.sol\":52892:52927  _userTokensCountByCollections[user] */\n      0xffffffffffffffffffffffffffffffffffffffff\n      swap2\n      dup3\n      and\n        /* \"source/Marketplace.sol\":52865:52872  uint256 */\n      0x00\n        /* \"source/Marketplace.sol\":52892:52927  _userTokensCountByCollections[user] */\n      swap1\n      dup2\n      mstore\n        /* \"source/Marketplace.sol\":52892:52921  _userTokensCountByCollections */\n      0x08\n        /* \"source/Marketplace.sol\":52892:52927  _userTokensCountByCollections[user] */\n      0x20\n      swap1\n      dup2\n      mstore\n      0x40\n      dup1\n      dup4\n      keccak256\n        /* \"source/Marketplace.sol\":52892:52939  _userTokensCountByCollections[user][collection] */\n      swap4\n      swap1\n      swap5\n      and\n      dup3\n      mstore\n      swap2\n      swap1\n      swap2\n      mstore\n      keccak256\n      sload\n      swap1\n        /* \"source/Marketplace.sol\":52773:52947  function getUserCollectionTokensCount(address user, address collection) public view returns(uint256) {... */\n      jump\n        /* \"source/Marketplace.sol\":58734:58842  function getTokensAtSaleCount() public view returns (uint256) {... */\n    tag_25:\n      callvalue\n      dup1\n      iszero\n      tag_153\n      jumpi\n      0x00\n      dup1\n      revert\n    tag_153:\n      pop\n        /* \"source/Marketplace.sol\":58814:58827  _marketTokens */\n      0x05\n        /* \"source/Marketplace.sol\":58814:58834  _marketTokens.length */\n      sload\n        /* \"source/Marketplace.sol\":58734:58842  function getTokensAtSaleCount() public view returns (uint256) {... */\n      jump(tag_83)\n        /* \"source/Marketplace.sol\":57981:58151  function getMyTokensAtSale(uint256 offset, uint256 limit) public view returns(SelledNFT[] memory) {... */\n    tag_26:\n      callvalue\n      dup1\n      iszero\n      tag_157\n      jumpi\n      0x00\n      dup1\n      revert\n    tag_157:\n      pop\n      tag_56\n      tag_159\n      calldatasize\n      0x04\n      tag_95\n      jump\t// in\n    tag_159:\n      tag_160\n      jump\t// in\n        /* \"source/Marketplace.sol\":63808:64393  function deSellNFT(address collection, uint256 tokenId) public {... */\n    tag_27:\n      callvalue\n      dup1\n      iszero\n      tag_162\n      jumpi\n      0x00\n      dup1\n      revert\n    tag_162:\n      pop\n      tag_41\n      tag_164\n      calldatasize\n      0x04\n      tag_53\n      jump\t// in\n    tag_164:\n      tag_165\n      jump\t// in\n        /* \"source/Marketplace.sol\":56006:56099  function getFeeReceiver() public view returns(address) {... */\n    tag_28:\n      callvalue\n      dup1\n      iszero\n      tag_166\n      jumpi\n      0x00\n      dup1\n      revert\n    tag_166:\n      pop\n        /* \"source/Marketplace.sol\":56079:56091  _feeReceiver */\n      and(0xffffffffffffffffffffffffffffffffffffffff, sload(0x09))\n        /* \"source/Marketplace.sol\":56006:56099  function getFeeReceiver() public view returns(address) {... */\n      jump(tag_122)\n        /* \"source/Marketplace.sol\":56838:56964  function setAllowedERC20(address[] memory newAllowedERC20) public onlyOwner {... */\n    tag_29:\n      callvalue\n      dup1\n      iszero\n      tag_170\n      jumpi\n      0x00\n      dup1\n      revert\n    tag_170:\n      pop\n      tag_41\n      tag_172\n      calldatasize\n      0x04\n      tag_48\n      jump\t// in\n    tag_172:\n      tag_173\n      jump\t// in\n        /* \"source/Marketplace.sol\":56105:56220  function setFeeReceiver(address _newFeeReceiver) public onlyOwner {... */\n    tag_30:\n      callvalue\n      dup1\n      iszero\n      tag_174\n      jumpi\n      0x00\n      dup1\n      revert\n    tag_174:\n      pop\n      tag_41\n      tag_176\n      calldatasize\n      0x04\n      tag_70\n      jump\t// in\n    tag_176:\n      tag_177\n      jump\t// in\n        /* \"source/Marketplace.sol\":2925:3126  function transferOwnership(address newOwner) public virtual onlyOwner {... */\n    tag_31:\n      callvalue\n      dup1\n      iszero\n      tag_178\n      jumpi\n      0x00\n      dup1\n      revert\n    tag_178:\n      pop\n      tag_41\n      tag_180\n      calldatasize\n      0x04\n      tag_70\n      jump\t// in\n    tag_180:\n      tag_181\n      jump\t// in\n        /* \"source/Marketplace.sol\":57513:57774  function withdrawERC20(address erc20) public onlyOwner {... */\n    tag_32:\n      callvalue\n      dup1\n      iszero\n      tag_182\n      jumpi\n      0x00\n      dup1\n      revert\n    tag_182:\n      pop\n      tag_41\n      tag_184\n      calldatasize\n      0x04\n      tag_70\n      jump\t// in\n    tag_184:\n      tag_185\n      jump\t// in\n        /* \"source/Marketplace.sol\":57873:57973  function setTradeFee(uint _newTradeFee) public onlyOwner {... */\n    tag_44:\n        /* \"source/Marketplace.sol\":1905:1918  _checkOwner() */\n      tag_187\n        /* \"source/Marketplace.sol\":1905:1916  _checkOwner */\n      tag_188\n        /* \"source/Marketplace.sol\":1905:1918  _checkOwner() */\n      jump\t// in\n    tag_187:\n        /* \"source/Marketplace.sol\":57941:57950  _tradeFee */\n      0x01\n        /* \"source/Marketplace.sol\":57941:57965  _tradeFee = _newTradeFee */\n      sstore\n        /* \"source/Marketplace.sol\":57873:57973  function setTradeFee(uint _newTradeFee) public onlyOwner {... */\n      jump\t// out\n        /* \"source/Marketplace.sol\":56349:56828  function setAllowedCollections(address[] memory _newCollections) public onlyOwner {... */\n    tag_49:\n        /* \"source/Marketplace.sol\":1905:1918  _checkOwner() */\n      tag_191\n        /* \"source/Marketplace.sol\":1905:1916  _checkOwner */\n      tag_188\n        /* \"source/Marketplace.sol\":1905:1918  _checkOwner() */\n      jump\t// in\n    tag_191:\n        /* \"source/Marketplace.sol\":56446:56455  uint256 i */\n      0x00\n        /* \"source/Marketplace.sol\":56442:56583  for(uint256 i = 0; i < _marketCollections.length; i++) {... */\n    tag_193:\n        /* \"source/Marketplace.sol\":56465:56483  _marketCollections */\n      0x02\n        /* \"source/Marketplace.sol\":56465:56490  _marketCollections.length */\n      sload\n        /* \"source/Marketplace.sol\":56461:56490  i < _marketCollections.length */\n      dup2\n      lt\n        /* \"source/Marketplace.sol\":56442:56583  for(uint256 i = 0; i < _marketCollections.length; i++) {... */\n      iszero\n      tag_194\n      jumpi\n        /* \"source/Marketplace.sol\":56566:56571  false */\n      0x00\n        /* \"source/Marketplace.sol\":56512:56531  _allowedCollections */\n      0x03\n        /* \"source/Marketplace.sol\":56512:56563  _allowedCollections[address(_marketCollections[i])] */\n      0x00\n        /* \"source/Marketplace.sol\":56540:56558  _marketCollections */\n      0x02\n        /* \"source/Marketplace.sol\":56559:56560  i */\n      dup5\n        /* \"source/Marketplace.sol\":56540:56561  _marketCollections[i] */\n      dup2\n      sload\n      dup2\n      lt\n      tag_197\n      jumpi\n      tag_197\n      tag_198\n      jump\t// in\n    tag_197:\n      0x00\n      swap2\n      dup3\n      mstore\n      0x20\n      dup1\n      dup4\n      keccak256\n      swap2\n      swap1\n      swap2\n      add\n      sload\n      0xffffffffffffffffffffffffffffffffffffffff\n      and\n        /* \"source/Marketplace.sol\":56512:56563  _allowedCollections[address(_marketCollections[i])] */\n      dup4\n      mstore\n      dup3\n      add\n      swap3\n      swap1\n      swap3\n      mstore\n      0x40\n      add\n      swap1\n      keccak256\n        /* \"source/Marketplace.sol\":56512:56571  _allowedCollections[address(_marketCollections[i])] = false */\n      dup1\n      sload\n      0xffffffffffffffffffffffffffffffffffffffffffffffffffffffffffffff00\n      and\n      swap2\n      iszero\n      iszero\n      swap2\n      swap1\n      swap2\n      or\n      swap1\n      sstore\n        /* \"source/Marketplace.sol\":56492:56495  i++ */\n      dup1\n      tag_200\n      dup2\n      tag_201\n      jump\t// in\n    tag_200:\n      swap2\n      pop\n      pop\n        /* \"source/Marketplace.sol\":56442:56583  for(uint256 i = 0; i < _marketCollections.length; i++) {... */\n      jump(tag_193)\n    tag_194:\n      pop\n        /* \"source/Marketplace.sol\":56593:56618  delete _marketCollections */\n      tag_202\n        /* \"source/Marketplace.sol\":56600:56618  _marketCollections */\n      0x02\n      0x00\n        /* \"source/Marketplace.sol\":56593:56618  delete _marketCollections */\n      tag_203\n      jump\t// in\n    tag_202:\n        /* \"source/Marketplace.sol\":56633:56642  uint256 i */\n      0x00\n        /* \"source/Marketplace.sol\":56629:56821  for(uint256 i = 0; i < _newCollections.length; i++) {... */\n    tag_204:\n        /* \"source/Marketplace.sol\":56652:56667  _newCollections */\n      dup2\n        /* \"source/Marketplace.sol\":56652:56674  _newCollections.length */\n      mload\n        /* \"source/Marketplace.sol\":56648:56649  i */\n      dup2\n        /* \"source/Marketplace.sol\":56648:56674  i < _newCollections.length */\n      lt\n        /* \"source/Marketplace.sol\":56629:56821  for(uint256 i = 0; i < _newCollections.length; i++) {... */\n      iszero\n      tag_205\n      jumpi\n        /* \"source/Marketplace.sol\":56696:56714  _marketCollections */\n      0x02\n        /* \"source/Marketplace.sol\":56728:56743  _newCollections */\n      dup3\n        /* \"source/Marketplace.sol\":56744:56745  i */\n      dup3\n        /* \"source/Marketplace.sol\":56728:56746  _newCollections[i] */\n      dup2\n      mload\n      dup2\n      lt\n      tag_208\n      jumpi\n      tag_208\n      tag_198\n      jump\t// in\n    tag_208:\n      0x20\n      swap1\n      dup2\n      mul\n      swap2\n      swap1\n      swap2\n      add\n      dup2\n      add\n      mload\n        /* \"source/Marketplace.sol\":56696:56748  _marketCollections.push(IERC721(_newCollections[i])) */\n      dup3\n      sload\n      0x01\n      dup1\n      dup3\n      add\n      dup6\n      sstore\n      0x00\n      swap5\n      dup6\n      mstore\n      swap3\n      dup5\n      keccak256\n      add\n      dup1\n      sload\n      0xffffffffffffffffffffffff0000000000000000000000000000000000000000\n      and\n      0xffffffffffffffffffffffffffffffffffffffff\n      swap1\n      swap3\n      and\n      swap2\n      swap1\n      swap2\n      or\n      swap1\n      sstore\n        /* \"source/Marketplace.sol\":56783:56801  _newCollections[i] */\n      dup4\n      mload\n        /* \"source/Marketplace.sol\":56696:56748  _marketCollections.push(IERC721(_newCollections[i])) */\n      swap1\n      swap2\n        /* \"source/Marketplace.sol\":56763:56782  _allowedCollections */\n      0x03\n      swap2\n        /* \"source/Marketplace.sol\":56783:56801  _newCollections[i] */\n      dup6\n      swap1\n        /* \"source/Marketplace.sol\":56799:56800  i */\n      dup6\n      swap1\n        /* \"source/Marketplace.sol\":56783:56801  _newCollections[i] */\n      dup2\n      lt\n      tag_211\n      jumpi\n      tag_211\n      tag_198\n      jump\t// in\n    tag_211:\n      0x20\n      swap1\n      dup2\n      mul\n      swap2\n      swap1\n      swap2\n      add\n      dup2\n      add\n      mload\n        /* \"source/Marketplace.sol\":56763:56802  _allowedCollections[_newCollections[i]] */\n      0xffffffffffffffffffffffffffffffffffffffff\n      and\n      dup3\n      mstore\n      dup2\n      add\n      swap2\n      swap1\n      swap2\n      mstore\n      0x40\n      add\n      0x00\n      keccak256\n        /* \"source/Marketplace.sol\":56763:56809  _allowedCollections[_newCollections[i]] = true */\n      dup1\n      sload\n      0xffffffffffffffffffffffffffffffffffffffffffffffffffffffffffffff00\n      and\n      swap2\n      iszero\n      iszero\n      swap2\n      swap1\n      swap2\n      or\n      swap1\n      sstore\n        /* \"source/Marketplace.sol\":56676:56679  i++ */\n      dup1\n      tag_212\n      dup2\n      tag_201\n      jump\t// in\n    tag_212:\n      swap2\n      pop\n      pop\n        /* \"source/Marketplace.sol\":56629:56821  for(uint256 i = 0; i < _newCollections.length; i++) {... */\n      jump(tag_204)\n    tag_205:\n      pop\n        /* \"source/Marketplace.sol\":56349:56828  function setAllowedCollections(address[] memory _newCollections) public onlyOwner {... */\n      pop\n      jump\t// out\n        /* \"source/Marketplace.sol\":59582:61308  function buyNFTbyERC20(address collection, uint tokenId)... */\n    tag_54:\n        /* \"source/Marketplace.sol\":49247:49251  bool */\n      0x00\n        /* \"source/Marketplace.sol\":49271:49278  _paused */\n      sload\n      0x010000000000000000000000000000000000000000\n      swap1\n      div\n      0xff\n      and\n        /* \"source/Marketplace.sol\":49525:49534  !paused() */\n      iszero\n        /* \"source/Marketplace.sol\":49517:49555  require(!paused(), \"Pausable: paused\") */\n      tag_215\n      jumpi\n      mload(0x40)\n      0x08c379a000000000000000000000000000000000000000000000000000000000\n      dup2\n      mstore\n        /* \"#utility.yul\":9086:9088   */\n      0x20\n        /* \"source/Marketplace.sol\":49517:49555  require(!paused(), \"Pausable: paused\") */\n      0x04\n      dup3\n      add\n        /* \"#utility.yul\":9068:9089   */\n      mstore\n        /* \"#utility.yul\":9125:9127   */\n      0x10\n        /* \"#utility.yul\":9105:9123   */\n      0x24\n      dup3\n      add\n        /* \"#utility.yul\":9098:9128   */\n      mstore\n        /* \"#utility.yul\":9164:9182   */\n      0x5061757361626c653a2070617573656400000000000000000000000000000000\n        /* \"#utility.yul\":9144:9162   */\n      0x44\n      dup3\n      add\n        /* \"#utility.yul\":9137:9183   */\n      mstore\n        /* \"#utility.yul\":9200:9218   */\n      0x64\n      add\n        /* \"source/Marketplace.sol\":49517:49555  require(!paused(), \"Pausable: paused\") */\n    tag_216:\n      mload(0x40)\n      dup1\n      swap2\n      sub\n      swap1\n      revert\n    tag_215:\n        /* \"source/Marketplace.sol\":59694:59718  SelledNFT memory lotInfo */\n      0x00\n        /* \"source/Marketplace.sol\":59721:59757  marketTokensGet(collection, tokenId) */\n      tag_219\n        /* \"source/Marketplace.sol\":59737:59747  collection */\n      dup4\n        /* \"source/Marketplace.sol\":59749:59756  tokenId */\n      dup4\n        /* \"source/Marketplace.sol\":59721:59736  marketTokensGet */\n      tag_105\n        /* \"source/Marketplace.sol\":59721:59757  marketTokensGet(collection, tokenId) */\n      jump\t// in\n    tag_219:\n        /* \"source/Marketplace.sol\":59776:59794  lotInfo.collection */\n      dup1\n      mload\n        /* \"source/Marketplace.sol\":59694:59757  SelledNFT memory lotInfo = marketTokensGet(collection, tokenId) */\n      swap1\n      swap2\n      pop\n        /* \"source/Marketplace.sol\":59776:59808  lotInfo.collection != address(0) */\n      0xffffffffffffffffffffffffffffffffffffffff\n      and\n        /* \"source/Marketplace.sol\":59768:59837  require(lotInfo.collection != address(0), \"This NFT is not for sale\") */\n      tag_220\n      jumpi\n      mload(0x40)\n      0x08c379a000000000000000000000000000000000000000000000000000000000\n      dup2\n      mstore\n        /* \"#utility.yul\":9431:9433   */\n      0x20\n        /* \"source/Marketplace.sol\":59768:59837  require(lotInfo.collection != address(0), \"This NFT is not for sale\") */\n      0x04\n      dup3\n      add\n        /* \"#utility.yul\":9413:9434   */\n      mstore\n        /* \"#utility.yul\":9470:9472   */\n      0x18\n        /* \"#utility.yul\":9450:9468   */\n      0x24\n      dup3\n      add\n        /* \"#utility.yul\":9443:9473   */\n      mstore\n        /* \"#utility.yul\":9509:9535   */\n      0x54686973204e4654206973206e6f7420666f722073616c650000000000000000\n        /* \"#utility.yul\":9489:9507   */\n      0x44\n      dup3\n      add\n        /* \"#utility.yul\":9482:9536   */\n      mstore\n        /* \"#utility.yul\":9553:9571   */\n      0x64\n      add\n        /* \"source/Marketplace.sol\":59768:59837  require(lotInfo.collection != address(0), \"This NFT is not for sale\") */\n      tag_216\n        /* \"#utility.yul\":9229:9577   */\n      jump\n        /* \"source/Marketplace.sol\":59768:59837  require(lotInfo.collection != address(0), \"This NFT is not for sale\") */\n    tag_220:\n        /* \"source/Marketplace.sol\":59856:59869  lotInfo.erc20 */\n      0x80\n      dup2\n      add\n      mload\n        /* \"source/Marketplace.sol\":59856:59883  lotInfo.erc20 != address(0) */\n      0xffffffffffffffffffffffffffffffffffffffff\n      and\n        /* \"source/Marketplace.sol\":59848:59920  require(lotInfo.erc20 != address(0), \"This token selled by Native coin\") */\n      tag_223\n      jumpi\n      mload(0x40)\n      0x08c379a000000000000000000000000000000000000000000000000000000000\n      dup2\n      mstore\n        /* \"#utility.yul\":9784:9786   */\n      0x20\n        /* \"source/Marketplace.sol\":59848:59920  require(lotInfo.erc20 != address(0), \"This token selled by Native coin\") */\n      0x04\n      dup3\n      add\n        /* \"#utility.yul\":9766:9787   */\n      dup2\n      swap1\n      mstore\n        /* \"#utility.yul\":9803:9821   */\n      0x24\n      dup3\n      add\n        /* \"#utility.yul\":9796:9826   */\n      mstore\n        /* \"#utility.yul\":9862:9896   */\n      0x5468697320746f6b656e2073656c6c6564206279204e617469766520636f696e\n        /* \"#utility.yul\":9842:9860   */\n      0x44\n      dup3\n      add\n        /* \"#utility.yul\":9835:9897   */\n      mstore\n        /* \"#utility.yul\":9914:9932   */\n      0x64\n      add\n        /* \"source/Marketplace.sol\":59848:59920  require(lotInfo.erc20 != address(0), \"This token selled by Native coin\") */\n      tag_216\n        /* \"#utility.yul\":9582:9938   */\n      jump\n        /* \"source/Marketplace.sol\":59848:59920  require(lotInfo.erc20 != address(0), \"This token selled by Native coin\") */\n    tag_223:\n        /* \"source/Marketplace.sol\":59958:59971  lotInfo.erc20 */\n      0x80\n      dup2\n      add\n      mload\n        /* \"source/Marketplace.sol\":60006:60036  payToken.balanceOf(msg.sender) */\n      mload(0x40)\n      0x70a0823100000000000000000000000000000000000000000000000000000000\n      dup2\n      mstore\n        /* \"source/Marketplace.sol\":60025:60035  msg.sender */\n      caller\n        /* \"source/Marketplace.sol\":60006:60036  payToken.balanceOf(msg.sender) */\n      0x04\n      dup3\n      add\n        /* \"#utility.yul\":7298:7372   */\n      mstore\n        /* \"source/Marketplace.sol\":59933:59948  IERC20 payToken */\n      0x00\n      swap1\n        /* \"source/Marketplace.sol\":60006:60024  payToken.balanceOf */\n      0xffffffffffffffffffffffffffffffffffffffff\n      dup4\n      and\n      swap1\n      0x70a08231\n      swap1\n        /* \"#utility.yul\":7271:7289   */\n      0x24\n      add\n        /* \"source/Marketplace.sol\":60006:60036  payToken.balanceOf(msg.sender) */\n      0x20\n      mload(0x40)\n      dup1\n      dup4\n      sub\n      dup2\n      dup7\n      gas\n      staticcall\n      iszero\n      dup1\n      iszero\n      tag_228\n      jumpi\n      returndatasize\n      0x00\n      dup1\n      returndatacopy\n      revert(0x00, returndatasize)\n    tag_228:\n      pop\n      pop\n      pop\n      pop\n      mload(0x40)\n      returndatasize\n      not(0x1f)\n      0x1f\n      dup3\n      add\n      and\n      dup3\n      add\n      dup1\n      0x40\n      mstore\n      pop\n      dup2\n      add\n      swap1\n      tag_229\n      swap2\n      swap1\n      tag_230\n      jump\t// in\n    tag_229:\n        /* \"source/Marketplace.sol\":59983:60036  uint256 buyerBalance = payToken.balanceOf(msg.sender) */\n      swap1\n      pop\n        /* \"source/Marketplace.sol\":60071:60078  lotInfo */\n      dup3\n        /* \"source/Marketplace.sol\":60071:60084  lotInfo.price */\n      0x60\n      add\n      mload\n        /* \"source/Marketplace.sol\":60055:60067  buyerBalance */\n      dup2\n        /* \"source/Marketplace.sol\":60055:60084  buyerBalance >= lotInfo.price */\n      lt\n      iszero\n        /* \"source/Marketplace.sol\":60047:60141  require(buyerBalance >= lotInfo.price, \"You do not have enough tokens on your balance to pay\") */\n      tag_231\n      jumpi\n      mload(0x40)\n      0x08c379a000000000000000000000000000000000000000000000000000000000\n      dup2\n      mstore\n        /* \"#utility.yul\":10334:10336   */\n      0x20\n        /* \"source/Marketplace.sol\":60047:60141  require(buyerBalance >= lotInfo.price, \"You do not have enough tokens on your balance to pay\") */\n      0x04\n      dup3\n      add\n        /* \"#utility.yul\":10316:10337   */\n      mstore\n        /* \"#utility.yul\":10373:10375   */\n      0x34\n        /* \"#utility.yul\":10353:10371   */\n      0x24\n      dup3\n      add\n        /* \"#utility.yul\":10346:10376   */\n      mstore\n        /* \"#utility.yul\":10412:10446   */\n      0x596f7520646f206e6f74206861766520656e6f75676820746f6b656e73206f6e\n        /* \"#utility.yul\":10392:10410   */\n      0x44\n      dup3\n      add\n        /* \"#utility.yul\":10385:10447   */\n      mstore\n        /* \"#utility.yul\":10483:10505   */\n      0x20796f75722062616c616e636520746f20706179000000000000000000000000\n        /* \"#utility.yul\":10463:10481   */\n      0x64\n      dup3\n      add\n        /* \"#utility.yul\":10456:10506   */\n      mstore\n        /* \"#utility.yul\":10523:10542   */\n      0x84\n      add\n        /* \"source/Marketplace.sol\":60047:60141  require(buyerBalance >= lotInfo.price, \"You do not have enough tokens on your balance to pay\") */\n      tag_216\n        /* \"#utility.yul\":10132:10548   */\n      jump\n        /* \"source/Marketplace.sol\":60047:60141  require(buyerBalance >= lotInfo.price, \"You do not have enough tokens on your balance to pay\") */\n    tag_231:\n        /* \"source/Marketplace.sol\":60177:60222  payToken.allowance(msg.sender, address(this)) */\n      mload(0x40)\n      0xdd62ed3e00000000000000000000000000000000000000000000000000000000\n      dup2\n      mstore\n        /* \"source/Marketplace.sol\":60196:60206  msg.sender */\n      caller\n        /* \"source/Marketplace.sol\":60177:60222  payToken.allowance(msg.sender, address(this)) */\n      0x04\n      dup3\n      add\n        /* \"#utility.yul\":10788:10822   */\n      mstore\n        /* \"source/Marketplace.sol\":60216:60220  this */\n      address\n        /* \"#utility.yul\":10838:10856   */\n      0x24\n      dup3\n      add\n        /* \"#utility.yul\":10831:10874   */\n      mstore\n        /* \"source/Marketplace.sol\":60152:60174  uint256 buyerAllowance */\n      0x00\n      swap1\n        /* \"source/Marketplace.sol\":60177:60195  payToken.allowance */\n      0xffffffffffffffffffffffffffffffffffffffff\n      dup5\n      and\n      swap1\n      0xdd62ed3e\n      swap1\n        /* \"#utility.yul\":10700:10718   */\n      0x44\n      add\n        /* \"source/Marketplace.sol\":60177:60222  payToken.allowance(msg.sender, address(this)) */\n      0x20\n      mload(0x40)\n      dup1\n      dup4\n      sub\n      dup2\n      dup7\n      gas\n      staticcall\n      iszero\n      dup1\n      iszero\n      tag_237\n      jumpi\n      returndatasize\n      0x00\n      dup1\n      returndatacopy\n      revert(0x00, returndatasize)\n    tag_237:\n      pop\n      pop\n      pop\n      pop\n      mload(0x40)\n      returndatasize\n      not(0x1f)\n      0x1f\n      dup3\n      add\n      and\n      dup3\n      add\n      dup1\n      0x40\n      mstore\n      pop\n      dup2\n      add\n      swap1\n      tag_238\n      swap2\n      swap1\n      tag_230\n      jump\t// in\n    tag_238:\n        /* \"source/Marketplace.sol\":60152:60222  uint256 buyerAllowance = payToken.allowance(msg.sender, address(this)) */\n      swap1\n      pop\n        /* \"source/Marketplace.sol\":60259:60266  lotInfo */\n      dup4\n        /* \"source/Marketplace.sol\":60259:60272  lotInfo.price */\n      0x60\n      add\n      mload\n        /* \"source/Marketplace.sol\":60241:60255  buyerAllowance */\n      dup2\n        /* \"source/Marketplace.sol\":60241:60272  buyerAllowance >= lotInfo.price */\n      lt\n      iszero\n        /* \"source/Marketplace.sol\":60233:60335  require(buyerAllowance >= lotInfo.price, \"You did not allow the contract to send the purchase amount\") */\n      tag_239\n      jumpi\n      mload(0x40)\n      0x08c379a000000000000000000000000000000000000000000000000000000000\n      dup2\n      mstore\n        /* \"#utility.yul\":11087:11089   */\n      0x20\n        /* \"source/Marketplace.sol\":60233:60335  require(buyerAllowance >= lotInfo.price, \"You did not allow the contract to send the purchase amount\") */\n      0x04\n      dup3\n      add\n        /* \"#utility.yul\":11069:11090   */\n      mstore\n        /* \"#utility.yul\":11126:11128   */\n      0x3a\n        /* \"#utility.yul\":11106:11124   */\n      0x24\n      dup3\n      add\n        /* \"#utility.yul\":11099:11129   */\n      mstore\n        /* \"#utility.yul\":11165:11199   */\n      0x596f7520646964206e6f7420616c6c6f772074686520636f6e74726163742074\n        /* \"#utility.yul\":11145:11163   */\n      0x44\n      dup3\n      add\n        /* \"#utility.yul\":11138:11200   */\n      mstore\n        /* \"#utility.yul\":11236:11264   */\n      0x6f2073656e642074686520707572636861736520616d6f756e74000000000000\n        /* \"#utility.yul\":11216:11234   */\n      0x64\n      dup3\n      add\n        /* \"#utility.yul\":11209:11265   */\n      mstore\n        /* \"#utility.yul\":11282:11301   */\n      0x84\n      add\n        /* \"source/Marketplace.sol\":60233:60335  require(buyerAllowance >= lotInfo.price, \"You did not allow the contract to send the purchase amount\") */\n      tag_216\n        /* \"#utility.yul\":10885:11307   */\n      jump\n        /* \"source/Marketplace.sol\":60233:60335  require(buyerAllowance >= lotInfo.price, \"You did not allow the contract to send the purchase amount\") */\n    tag_239:\n        /* \"source/Marketplace.sol\":60375:60388  lotInfo.price */\n      0x60\n      dup5\n      add\n      mload\n        /* \"source/Marketplace.sol\":60358:60372  uint256 amount */\n      0x00\n        /* \"source/Marketplace.sol\":60419:60469  SafeMath.mul(SafeMath.div(amount, 100), _tradeFee) */\n      tag_242\n        /* \"source/Marketplace.sol\":60432:60457  SafeMath.div(amount, 100) */\n      tag_243\n        /* \"source/Marketplace.sol\":60375:60388  lotInfo.price */\n      dup4\n        /* \"source/Marketplace.sol\":60453:60456  100 */\n      0x64\n        /* \"source/Marketplace.sol\":60432:60444  SafeMath.div */\n      tag_244\n        /* \"source/Marketplace.sol\":60432:60457  SafeMath.div(amount, 100) */\n      jump\t// in\n    tag_243:\n        /* \"source/Marketplace.sol\":60459:60468  _tradeFee */\n      sload(0x01)\n        /* \"source/Marketplace.sol\":60419:60431  SafeMath.mul */\n      tag_245\n        /* \"source/Marketplace.sol\":60419:60469  SafeMath.mul(SafeMath.div(amount, 100), _tradeFee) */\n      jump\t// in\n    tag_242:\n        /* \"source/Marketplace.sol\":60399:60469  uint256 feeAmount = SafeMath.mul(SafeMath.div(amount, 100), _tradeFee) */\n      swap1\n      pop\n        /* \"source/Marketplace.sol\":60502:60509  owner() */\n      tag_246\n        /* \"source/Marketplace.sol\":2065:2072  address */\n      0x00\n        /* \"source/Marketplace.sol\":2092:2098  _owner */\n      sload\n      0xffffffffffffffffffffffffffffffffffffffff\n      and\n      swap1\n        /* \"source/Marketplace.sol\":2019:2106  function owner() public view virtual returns (address) {... */\n      jump\n        /* \"source/Marketplace.sol\":60502:60509  owner() */\n    tag_246:\n        /* \"source/Marketplace.sol\":60484:60509  lotInfo.seller == owner() */\n      0xffffffffffffffffffffffffffffffffffffffff\n      and\n        /* \"source/Marketplace.sol\":60484:60491  lotInfo */\n      dup7\n        /* \"source/Marketplace.sol\":60484:60498  lotInfo.seller */\n      0x40\n      add\n      mload\n        /* \"source/Marketplace.sol\":60484:60509  lotInfo.seller == owner() */\n      0xffffffffffffffffffffffffffffffffffffffff\n      and\n      sub\n        /* \"source/Marketplace.sol\":60480:60524  if (lotInfo.seller == owner()) feeAmount = 0 */\n      tag_247\n      jumpi\n      pop\n        /* \"source/Marketplace.sol\":60523:60524  0 */\n      0x00\n        /* \"source/Marketplace.sol\":60480:60524  if (lotInfo.seller == owner()) feeAmount = 0 */\n    tag_247:\n        /* \"source/Marketplace.sol\":60535:60556  uint256 amountWithFee */\n      0x00\n        /* \"source/Marketplace.sol\":60559:60590  SafeMath.sub(amount, feeAmount) */\n      tag_248\n        /* \"source/Marketplace.sol\":60572:60578  amount */\n      dup4\n        /* \"source/Marketplace.sol\":60580:60589  feeAmount */\n      dup4\n        /* \"source/Marketplace.sol\":60559:60571  SafeMath.sub */\n      tag_249\n        /* \"source/Marketplace.sol\":60559:60590  SafeMath.sub(amount, feeAmount) */\n      jump\t// in\n    tag_248:\n        /* \"source/Marketplace.sol\":60685:60699  lotInfo.seller */\n      0x40\n      dup9\n      add\n      mload\n        /* \"source/Marketplace.sol\":60535:60590  uint256 amountWithFee = SafeMath.sub(amount, feeAmount) */\n      swap1\n      swap2\n      pop\n        /* \"source/Marketplace.sol\":60603:60739  payToken.safeTransferFrom(... */\n      tag_250\n      swap1\n        /* \"source/Marketplace.sol\":60603:60628  payToken.safeTransferFrom */\n      0xffffffffffffffffffffffffffffffffffffffff\n      dup9\n      and\n      swap1\n        /* \"source/Marketplace.sol\":60651:60661  msg.sender */\n      caller\n      swap1\n        /* \"source/Marketplace.sol\":60535:60590  uint256 amountWithFee = SafeMath.sub(amount, feeAmount) */\n      dup5\n        /* \"source/Marketplace.sol\":60603:60628  payToken.safeTransferFrom */\n      tag_251\n        /* \"source/Marketplace.sol\":60603:60739  payToken.safeTransferFrom(... */\n      jump\t// in\n    tag_250:\n        /* \"source/Marketplace.sol\":60754:60767  feeAmount > 0 */\n      dup2\n      iszero\n        /* \"source/Marketplace.sol\":60750:60942  if (feeAmount > 0) {... */\n      tag_253\n      jumpi\n        /* \"source/Marketplace.sol\":60874:60886  _feeReceiver */\n      sload(0x09)\n        /* \"source/Marketplace.sol\":60784:60930  payToken.safeTransferFrom(... */\n      tag_253\n      swap1\n        /* \"source/Marketplace.sol\":60874:60886  _feeReceiver */\n      0xffffffffffffffffffffffffffffffffffffffff\n        /* \"source/Marketplace.sol\":60784:60809  payToken.safeTransferFrom */\n      dup9\n      dup2\n      and\n      swap2\n        /* \"source/Marketplace.sol\":60836:60846  msg.sender */\n      caller\n      swap2\n        /* \"source/Marketplace.sol\":60874:60886  _feeReceiver */\n      and\n        /* \"source/Marketplace.sol\":60906:60915  feeAmount */\n      dup6\n        /* \"source/Marketplace.sol\":60784:60809  payToken.safeTransferFrom */\n      tag_251\n        /* \"source/Marketplace.sol\":60784:60930  payToken.safeTransferFrom(... */\n      jump\t// in\n    tag_253:\n        /* \"source/Marketplace.sol\":60960:60978  lotInfo.collection */\n      dup7\n      mload\n        /* \"source/Marketplace.sol\":61020:61035  lotInfo.tokenId */\n      0x20\n      dup9\n      add\n      mload\n        /* \"source/Marketplace.sol\":60952:61036  IERC721(lotInfo.collection).transferFrom(address(this), msg.sender, lotInfo.tokenId) */\n      mload(0x40)\n      0x23b872dd00000000000000000000000000000000000000000000000000000000\n      dup2\n      mstore\n        /* \"source/Marketplace.sol\":61001:61005  this */\n      address\n        /* \"source/Marketplace.sol\":60952:61036  IERC721(lotInfo.collection).transferFrom(address(this), msg.sender, lotInfo.tokenId) */\n      0x04\n      dup3\n      add\n        /* \"#utility.yul\":11575:11609   */\n      mstore\n        /* \"source/Marketplace.sol\":61008:61018  msg.sender */\n      caller\n        /* \"#utility.yul\":11625:11643   */\n      0x24\n      dup3\n      add\n        /* \"#utility.yul\":11618:11661   */\n      mstore\n        /* \"#utility.yul\":11677:11695   */\n      0x44\n      dup2\n      add\n        /* \"#utility.yul\":11670:11704   */\n      swap2\n      swap1\n      swap2\n      mstore\n        /* \"source/Marketplace.sol\":60952:60992  IERC721(lotInfo.collection).transferFrom */\n      0xffffffffffffffffffffffffffffffffffffffff\n      swap1\n      swap2\n      and\n      swap1\n      0x23b872dd\n      swap1\n        /* \"#utility.yul\":11487:11505   */\n      0x64\n      add\n        /* \"source/Marketplace.sol\":60952:61036  IERC721(lotInfo.collection).transferFrom(address(this), msg.sender, lotInfo.tokenId) */\n      0x00\n      mload(0x40)\n      dup1\n      dup4\n      sub\n      dup2\n      0x00\n      dup8\n      dup1\n      extcodesize\n      iszero\n      dup1\n      iszero\n      tag_256\n      jumpi\n      0x00\n      dup1\n      revert\n    tag_256:\n      pop\n      gas\n      call\n      iszero\n      dup1\n      iszero\n      tag_258\n      jumpi\n      returndatasize\n      0x00\n      dup1\n      returndatacopy\n      revert(0x00, returndatasize)\n    tag_258:\n      pop\n      pop\n      pop\n      pop\n        /* \"source/Marketplace.sol\":61047:61084  _marketTokensDel(collection, tokenId) */\n      tag_259\n        /* \"source/Marketplace.sol\":61064:61074  collection */\n      dup10\n        /* \"source/Marketplace.sol\":61076:61083  tokenId */\n      dup10\n        /* \"source/Marketplace.sol\":61047:61063  _marketTokensDel */\n      tag_260\n        /* \"source/Marketplace.sol\":61047:61084  _marketTokensDel(collection, tokenId) */\n      jump\t// in\n    tag_259:\n        /* \"source/Marketplace.sol\":61129:61143  lotInfo.seller */\n      0x40\n      dup8\n      dup2\n      add\n      mload\n        /* \"source/Marketplace.sol\":61185:61203  lotInfo.collection */\n      dup9\n      mload\n        /* \"source/Marketplace.sol\":61218:61233  lotInfo.tokenId */\n      0x20\n      dup1\n      dup12\n      add\n      mload\n        /* \"source/Marketplace.sol\":61248:61261  lotInfo.erc20 */\n      0x80\n      dup1\n      dup14\n      add\n      mload\n        /* \"source/Marketplace.sol\":61276:61289  lotInfo.price */\n      0x60\n      dup1\n      dup16\n      add\n      mload\n        /* \"source/Marketplace.sol\":61102:61300  BuyWithERC20(... */\n      dup9\n      mload\n        /* \"#utility.yul\":12012:12054   */\n      0xffffffffffffffffffffffffffffffffffffffff\n        /* \"#utility.yul\":12081:12096   */\n      swap9\n      dup10\n      and\n        /* \"#utility.yul\":12063:12097   */\n      dup2\n      mstore\n        /* \"source/Marketplace.sol\":61159:61169  msg.sender */\n      caller\n        /* \"#utility.yul\":12113:12131   */\n      swap7\n      dup2\n      add\n        /* \"#utility.yul\":12106:12149   */\n      swap7\n      swap1\n      swap7\n      mstore\n        /* \"#utility.yul\":12185:12200   */\n      swap6\n      dup8\n      and\n        /* \"#utility.yul\":12165:12183   */\n      dup6\n      dup10\n      add\n        /* \"#utility.yul\":12158:12201   */\n      mstore\n        /* \"#utility.yul\":12217:12235   */\n      dup5\n      add\n        /* \"#utility.yul\":12210:12244   */\n      swap3\n      swap1\n      swap3\n      mstore\n        /* \"#utility.yul\":12281:12296   */\n      swap4\n      and\n        /* \"#utility.yul\":12260:12279   */\n      swap3\n      dup2\n      add\n        /* \"#utility.yul\":12253:12297   */\n      swap3\n      swap1\n      swap3\n      mstore\n        /* \"#utility.yul\":12328:12331   */\n      0xa0\n        /* \"#utility.yul\":12313:12332   */\n      dup3\n      add\n        /* \"#utility.yul\":12306:12341   */\n      mstore\n        /* \"source/Marketplace.sol\":61102:61300  BuyWithERC20(... */\n      swap1\n      mload\n      0xa3d27cc8ac4e1915b6a89ce3e468d87aeb3caf011a47e236db61d098e452870c\n      swap2\n      dup2\n      swap1\n      sub\n        /* \"#utility.yul\":11989:11992   */\n      0xc0\n        /* \"source/Marketplace.sol\":61102:61300  BuyWithERC20(... */\n      add\n      swap1\n      log1\n        /* \"source/Marketplace.sol\":59683:61308  {... */\n      pop\n      pop\n      pop\n      pop\n      pop\n      pop\n      pop\n        /* \"source/Marketplace.sol\":59582:61308  function buyNFTbyERC20(address collection, uint tokenId)... */\n      pop\n      pop\n      jump\t// out\n        /* \"source/Marketplace.sol\":58157:58726  function getUserTokensAtSale(address seller, uint256 offset, uint256 limit)... */\n    tag_59:\n        /* \"source/Marketplace.sol\":58316:58340  _userTokensCount[seller] */\n      0xffffffffffffffffffffffffffffffffffffffff\n      dup4\n      and\n        /* \"source/Marketplace.sol\":58343:58344  0 */\n      0x00\n        /* \"source/Marketplace.sol\":58316:58340  _userTokensCount[seller] */\n      swap1\n      dup2\n      mstore\n        /* \"source/Marketplace.sol\":58316:58332  _userTokensCount */\n      0x07\n        /* \"source/Marketplace.sol\":58316:58340  _userTokensCount[seller] */\n      0x20\n      mstore\n      0x40\n      swap1\n      keccak256\n      sload\n        /* \"source/Marketplace.sol\":58272:58294  SelledNFT[] memory ret */\n      0x60\n      swap1\n        /* \"source/Marketplace.sol\":58316:58344  _userTokensCount[seller] > 0 */\n      iszero\n        /* \"source/Marketplace.sol\":58312:58698  if (_userTokensCount[seller] > 0) {... */\n      tag_264\n      jumpi\n        /* \"source/Marketplace.sol\":58383:58407  _userTokensCount[seller] */\n      0xffffffffffffffffffffffffffffffffffffffff\n      dup5\n      and\n      0x00\n      swap1\n      dup2\n      mstore\n        /* \"source/Marketplace.sol\":58383:58399  _userTokensCount */\n      0x07\n        /* \"source/Marketplace.sol\":58383:58407  _userTokensCount[seller] */\n      0x20\n      mstore\n      0x40\n      swap1\n      keccak256\n      sload\n        /* \"source/Marketplace.sol\":58367:58408  new SelledNFT[](_userTokensCount[seller]) */\n      0xffffffffffffffff\n      dup2\n      gt\n      iszero\n      tag_266\n      jumpi\n      tag_266\n      tag_267\n      jump\t// in\n    tag_266:\n      mload(0x40)\n      swap1\n      dup1\n      dup3\n      mstore\n      dup1\n      0x20\n      mul\n      0x20\n      add\n      dup3\n      add\n      0x40\n      mstore\n      dup1\n      iszero\n      tag_268\n      jumpi\n      dup2\n      0x20\n      add\n    tag_269:\n      0x40\n      dup1\n      mload\n      0xc0\n      dup2\n      add\n      dup3\n      mstore\n      0x00\n      dup1\n      dup3\n      mstore\n      0x20\n      dup1\n      dup4\n      add\n      dup3\n      swap1\n      mstore\n      swap3\n      dup3\n      add\n      dup2\n      swap1\n      mstore\n      0x60\n      dup3\n      add\n      dup2\n      swap1\n      mstore\n      0x80\n      dup3\n      add\n      dup2\n      swap1\n      mstore\n      0xa0\n      dup3\n      add\n      mstore\n      dup3\n      mstore\n      0xffffffffffffffffffffffffffffffffffffffffffffffffffffffffffffffff\n      swap1\n      swap3\n      add\n      swap2\n      add\n      dup2\n      tag_269\n      jumpi\n      swap1\n      pop\n    tag_268:\n      pop\n        /* \"source/Marketplace.sol\":58361:58408  ret = new SelledNFT[](_userTokensCount[seller]) */\n      swap1\n      pop\n        /* \"source/Marketplace.sol\":58423:58438  uint256 counter */\n      0x00\n        /* \"source/Marketplace.sol\":58462:58471  uint256 i */\n      dup1\n        /* \"source/Marketplace.sol\":58457:58687  for (uint256 i = 0; i < _marketTokens.length; i++) {... */\n    tag_272:\n        /* \"source/Marketplace.sol\":58481:58494  _marketTokens */\n      0x05\n        /* \"source/Marketplace.sol\":58481:58501  _marketTokens.length */\n      sload\n        /* \"source/Marketplace.sol\":58477:58501  i < _marketTokens.length */\n      dup2\n      lt\n        /* \"source/Marketplace.sol\":58457:58687  for (uint256 i = 0; i < _marketTokens.length; i++) {... */\n      iszero\n      tag_273\n      jumpi\n        /* \"source/Marketplace.sol\":58558:58564  seller */\n      dup6\n        /* \"source/Marketplace.sol\":58531:58564  _marketTokens[i].seller == seller */\n      0xffffffffffffffffffffffffffffffffffffffff\n      and\n        /* \"source/Marketplace.sol\":58531:58544  _marketTokens */\n      0x05\n        /* \"source/Marketplace.sol\":58545:58546  i */\n      dup3\n        /* \"source/Marketplace.sol\":58531:58547  _marketTokens[i] */\n      dup2\n      sload\n      dup2\n      lt\n      tag_276\n      jumpi\n      tag_276\n      tag_198\n      jump\t// in\n    tag_276:\n      0x00\n      swap2\n      dup3\n      mstore\n      0x20\n      swap1\n      swap2\n      keccak256\n        /* \"source/Marketplace.sol\":58531:58554  _marketTokens[i].seller */\n      0x02\n        /* \"source/Marketplace.sol\":58531:58547  _marketTokens[i] */\n      0x06\n      swap1\n      swap3\n      mul\n      add\n        /* \"source/Marketplace.sol\":58531:58554  _marketTokens[i].seller */\n      add\n      sload\n      0xffffffffffffffffffffffffffffffffffffffff\n      and\n        /* \"source/Marketplace.sol\":58531:58564  _marketTokens[i].seller == seller */\n      sub\n        /* \"source/Marketplace.sol\":58527:58672  if (_marketTokens[i].seller == seller) {... */\n      tag_278\n      jumpi\n        /* \"source/Marketplace.sol\":58604:58617  _marketTokens */\n      0x05\n        /* \"source/Marketplace.sol\":58618:58619  i */\n      dup2\n        /* \"source/Marketplace.sol\":58604:58620  _marketTokens[i] */\n      dup2\n      sload\n      dup2\n      lt\n      tag_280\n      jumpi\n      tag_280\n      tag_198\n      jump\t// in\n    tag_280:\n      0x00\n      swap2\n      dup3\n      mstore\n      0x20\n      swap2\n      dup3\n      swap1\n      keccak256\n        /* \"source/Marketplace.sol\":58589:58620  ret[counter] = _marketTokens[i] */\n      0x40\n      dup1\n      mload\n      0xc0\n      dup2\n      add\n      dup3\n      mstore\n        /* \"source/Marketplace.sol\":58604:58620  _marketTokens[i] */\n      0x06\n      swap1\n      swap4\n      mul\n      swap1\n      swap2\n      add\n        /* \"source/Marketplace.sol\":58589:58620  ret[counter] = _marketTokens[i] */\n      dup1\n      sload\n      0xffffffffffffffffffffffffffffffffffffffff\n      swap1\n      dup2\n      and\n      dup5\n      mstore\n      0x01\n      dup3\n      add\n      sload\n      swap5\n      dup5\n      add\n      swap5\n      swap1\n      swap5\n      mstore\n      0x02\n      dup2\n      add\n      sload\n      dup5\n      and\n      swap2\n      dup4\n      add\n      swap2\n      swap1\n      swap2\n      mstore\n      0x03\n      dup2\n      add\n      sload\n      0x60\n      dup4\n      add\n      mstore\n      0x04\n      dup2\n      add\n      sload\n      swap1\n      swap3\n      and\n      0x80\n      dup3\n      add\n      mstore\n      0x05\n      swap1\n      swap2\n      add\n      sload\n      0xa0\n      dup3\n      add\n      mstore\n        /* \"source/Marketplace.sol\":58589:58601  ret[counter] */\n      dup4\n      mload\n        /* \"source/Marketplace.sol\":58589:58592  ret */\n      dup5\n      swap1\n        /* \"source/Marketplace.sol\":58593:58600  counter */\n      dup5\n      swap1\n        /* \"source/Marketplace.sol\":58589:58601  ret[counter] */\n      dup2\n      lt\n      tag_283\n      jumpi\n      tag_283\n      tag_198\n      jump\t// in\n    tag_283:\n      0x20\n      mul\n      0x20\n      add\n      add\n        /* \"source/Marketplace.sol\":58589:58620  ret[counter] = _marketTokens[i] */\n      dup2\n      swap1\n      mstore\n      pop\n        /* \"source/Marketplace.sol\":58643:58652  counter++ */\n      dup2\n      dup1\n      tag_284\n      swap1\n      tag_201\n      jump\t// in\n    tag_284:\n      swap3\n      pop\n      pop\n        /* \"source/Marketplace.sol\":58527:58672  if (_marketTokens[i].seller == seller) {... */\n    tag_278:\n        /* \"source/Marketplace.sol\":58503:58506  i++ */\n      dup1\n      tag_285\n      dup2\n      tag_201\n      jump\t// in\n    tag_285:\n      swap2\n      pop\n      pop\n        /* \"source/Marketplace.sol\":58457:58687  for (uint256 i = 0; i < _marketTokens.length; i++) {... */\n      jump(tag_272)\n    tag_273:\n      pop\n        /* \"source/Marketplace.sol\":58346:58698  {... */\n      pop\n        /* \"source/Marketplace.sol\":58312:58698  if (_userTokensCount[seller] > 0) {... */\n    tag_264:\n        /* \"source/Marketplace.sol\":58157:58726  function getUserTokensAtSale(address seller, uint256 offset, uint256 limit)... */\n      swap4\n      swap3\n      pop\n      pop\n      pop\n      jump\t// out\n        /* \"source/Marketplace.sol\":56228:56343  function getAllowedCollections() public view returns(IERC721[] memory) {... */\n    tag_64:\n        /* \"source/Marketplace.sol\":56281:56297  IERC721[] memory */\n      0x60\n        /* \"source/Marketplace.sol\":56317:56335  _marketCollections */\n      0x02\n        /* \"source/Marketplace.sol\":56310:56335  return _marketCollections */\n      dup1\n      sload\n      dup1\n      0x20\n      mul\n      0x20\n      add\n      mload(0x40)\n      swap1\n      dup2\n      add\n      0x40\n      mstore\n      dup1\n      swap3\n      swap2\n      swap1\n      dup2\n      dup2\n      mstore\n      0x20\n      add\n      dup3\n      dup1\n      sload\n      dup1\n      iszero\n      tag_287\n      jumpi\n      0x20\n      mul\n      dup3\n      add\n      swap2\n      swap1\n      0x00\n      mstore\n      keccak256(0x00, 0x20)\n      swap1\n    tag_288:\n      dup2\n      sload\n      0xffffffffffffffffffffffffffffffffffffffff\n      and\n      dup2\n      mstore\n      0x01\n      swap1\n      swap2\n      add\n      swap1\n      0x20\n      add\n      dup1\n      dup4\n      gt\n      tag_288\n      jumpi\n    tag_287:\n      pop\n      pop\n      pop\n      pop\n      pop\n      swap1\n      pop\n        /* \"source/Marketplace.sol\":56228:56343  function getAllowedCollections() public view returns(IERC721[] memory) {... */\n      swap1\n      jump\t// out\n        /* \"source/Marketplace.sol\":53510:53987  function getUserCollectionsTokenCount(address user) public view returns(CollectionTokenCount[] memory ret) {... */\n    tag_71:\n        /* \"source/Marketplace.sol\":53661:53679  _marketCollections */\n      0x02\n        /* \"source/Marketplace.sol\":53661:53686  _marketCollections.length */\n      sload\n        /* \"source/Marketplace.sol\":53582:53615  CollectionTokenCount[] memory ret */\n      0x60\n      swap1\n        /* \"source/Marketplace.sol\":53634:53687  new CollectionTokenCount[](_marketCollections.length) */\n      0xffffffffffffffff\n      dup2\n      gt\n      iszero\n      tag_291\n      jumpi\n      tag_291\n      tag_267\n      jump\t// in\n    tag_291:\n      mload(0x40)\n      swap1\n      dup1\n      dup3\n      mstore\n      dup1\n      0x20\n      mul\n      0x20\n      add\n      dup3\n      add\n      0x40\n      mstore\n      dup1\n      iszero\n      tag_292\n      jumpi\n      dup2\n      0x20\n      add\n    tag_293:\n      0x40\n      dup1\n      mload\n      dup1\n      dup3\n      add\n      swap1\n      swap2\n      mstore\n      0x00\n      dup1\n      dup3\n      mstore\n      0x20\n      dup3\n      add\n      mstore\n      dup2\n      mstore\n      0x20\n      add\n      swap1\n      0x01\n      swap1\n      sub\n      swap1\n      dup2\n      tag_293\n      jumpi\n      swap1\n      pop\n    tag_292:\n      pop\n        /* \"source/Marketplace.sol\":53628:53687  ret = new CollectionTokenCount[](_marketCollections.length) */\n      swap1\n      pop\n        /* \"source/Marketplace.sol\":53702:53711  uint256 i */\n      0x00\n        /* \"source/Marketplace.sol\":53698:53959  for(uint256 i = 0; i < _marketCollections.length; i++) {... */\n    tag_296:\n        /* \"source/Marketplace.sol\":53721:53739  _marketCollections */\n      0x02\n        /* \"source/Marketplace.sol\":53721:53746  _marketCollections.length */\n      sload\n        /* \"source/Marketplace.sol\":53717:53746  i < _marketCollections.length */\n      dup2\n      lt\n        /* \"source/Marketplace.sol\":53698:53959  for(uint256 i = 0; i < _marketCollections.length; i++) {... */\n      iszero\n      tag_297\n      jumpi\n        /* \"source/Marketplace.sol\":53777:53947  CollectionTokenCount(... */\n      mload(0x40)\n      dup1\n      0x40\n      add\n      0x40\n      mstore\n      dup1\n        /* \"source/Marketplace.sol\":53824:53842  _marketCollections */\n      0x02\n        /* \"source/Marketplace.sol\":53843:53844  i */\n      dup4\n        /* \"source/Marketplace.sol\":53824:53845  _marketCollections[i] */\n      dup2\n      sload\n      dup2\n      lt\n      tag_300\n      jumpi\n      tag_300\n      tag_198\n      jump\t// in\n    tag_300:\n      0x00\n      swap2\n      dup3\n      mstore\n      0x20\n      dup1\n      dup4\n      keccak256\n      swap1\n      swap2\n      add\n      sload\n      0xffffffffffffffffffffffffffffffffffffffff\n      swap1\n      dup2\n      and\n        /* \"source/Marketplace.sol\":53777:53947  CollectionTokenCount(... */\n      dup5\n      mstore\n        /* \"source/Marketplace.sol\":53865:53900  _userTokensCountByCollections[user] */\n      dup8\n      and\n      dup3\n      mstore\n        /* \"source/Marketplace.sol\":53865:53894  _userTokensCountByCollections */\n      0x08\n        /* \"source/Marketplace.sol\":53865:53900  _userTokensCountByCollections[user] */\n      dup2\n      mstore\n      0x40\n      dup3\n      keccak256\n        /* \"source/Marketplace.sol\":53909:53927  _marketCollections */\n      0x02\n        /* \"source/Marketplace.sol\":53909:53930  _marketCollections[i] */\n      dup1\n      sload\n        /* \"source/Marketplace.sol\":53777:53947  CollectionTokenCount(... */\n      swap5\n      swap1\n      swap3\n      add\n      swap4\n        /* \"source/Marketplace.sol\":53865:53900  _userTokensCountByCollections[user] */\n      swap1\n      swap3\n        /* \"source/Marketplace.sol\":53824:53845  _marketCollections[i] */\n      swap2\n        /* \"source/Marketplace.sol\":53909:53927  _marketCollections */\n      swap1\n        /* \"source/Marketplace.sol\":53928:53929  i */\n      dup7\n      swap1\n        /* \"source/Marketplace.sol\":53909:53930  _marketCollections[i] */\n      dup2\n      lt\n      tag_303\n      jumpi\n      tag_303\n      tag_198\n      jump\t// in\n    tag_303:\n      0x00\n      swap2\n      dup3\n      mstore\n      0x20\n      dup1\n      dup4\n      keccak256\n      swap1\n      swap2\n      add\n      sload\n      0xffffffffffffffffffffffffffffffffffffffff\n      and\n        /* \"source/Marketplace.sol\":53865:53932  _userTokensCountByCollections[user][address(_marketCollections[i])] */\n      dup4\n      mstore\n      dup3\n      add\n      swap3\n      swap1\n      swap3\n      mstore\n      0x40\n      add\n      swap1\n      keccak256\n      sload\n        /* \"source/Marketplace.sol\":53777:53947  CollectionTokenCount(... */\n      swap1\n      mstore\n        /* \"source/Marketplace.sol\":53768:53774  ret[i] */\n      dup3\n      mload\n        /* \"source/Marketplace.sol\":53768:53771  ret */\n      dup4\n      swap1\n        /* \"source/Marketplace.sol\":53772:53773  i */\n      dup4\n      swap1\n        /* \"source/Marketplace.sol\":53768:53774  ret[i] */\n      dup2\n      lt\n      tag_306\n      jumpi\n      tag_306\n      tag_198\n      jump\t// in\n    tag_306:\n      0x20\n      mul\n      0x20\n      add\n      add\n        /* \"source/Marketplace.sol\":53768:53947  ret[i] = CollectionTokenCount(... */\n      dup2\n      swap1\n      mstore\n      pop\n        /* \"source/Marketplace.sol\":53748:53751  i++ */\n      dup1\n      dup1\n      tag_307\n      swap1\n      tag_201\n      jump\t// in\n    tag_307:\n      swap2\n      pop\n      pop\n        /* \"source/Marketplace.sol\":53698:53959  for(uint256 i = 0; i < _marketCollections.length; i++) {... */\n      jump(tag_296)\n    tag_297:\n      pop\n        /* \"source/Marketplace.sol\":53510:53987  function getUserCollectionsTokenCount(address user) public view returns(CollectionTokenCount[] memory ret) {... */\n      swap2\n      swap1\n      pop\n      jump\t// out\n        /* \"source/Marketplace.sol\":57314:57505  function withdrawWei() public onlyOwner {... */\n    tag_76:\n        /* \"source/Marketplace.sol\":1905:1918  _checkOwner() */\n      tag_309\n        /* \"source/Marketplace.sol\":1905:1916  _checkOwner */\n      tag_188\n        /* \"source/Marketplace.sol\":1905:1918  _checkOwner() */\n      jump\t// in\n    tag_309:\n        /* \"source/Marketplace.sol\":57414:57450  payable(msg.sender).transfer(amount) */\n      mload(0x40)\n        /* \"source/Marketplace.sol\":57382:57403  address(this).balance */\n      selfbalance\n      swap1\n        /* \"source/Marketplace.sol\":57422:57432  msg.sender */\n      caller\n      swap1\n        /* \"source/Marketplace.sol\":57414:57450  payable(msg.sender).transfer(amount) */\n      dup3\n      iszero\n      0x08fc\n      mul\n      swap1\n        /* \"source/Marketplace.sol\":57382:57403  address(this).balance */\n      dup4\n      swap1\n        /* \"source/Marketplace.sol\":57365:57379  uint256 amount */\n      0x00\n        /* \"source/Marketplace.sol\":57414:57450  payable(msg.sender).transfer(amount) */\n      dup2\n        /* \"source/Marketplace.sol\":57365:57379  uint256 amount */\n      dup2\n        /* \"source/Marketplace.sol\":57414:57450  payable(msg.sender).transfer(amount) */\n      dup2\n        /* \"source/Marketplace.sol\":57382:57403  address(this).balance */\n      dup6\n        /* \"source/Marketplace.sol\":57422:57432  msg.sender */\n      dup9\n        /* \"source/Marketplace.sol\":57414:57450  payable(msg.sender).transfer(amount) */\n      dup9\n      call\n      swap4\n      pop\n      pop\n      pop\n      pop\n      iszero\n      dup1\n      iszero\n      tag_312\n      jumpi\n      returndatasize\n      0x00\n      dup1\n      returndatacopy\n      revert(0x00, returndatasize)\n    tag_312:\n      pop\n        /* \"source/Marketplace.sol\":57466:57497  WithdrawWei(msg.sender, amount) */\n      0x40\n      dup1\n      mload\n        /* \"source/Marketplace.sol\":57478:57488  msg.sender */\n      caller\n        /* \"#utility.yul\":12526:12600   */\n      dup2\n      mstore\n        /* \"#utility.yul\":12631:12633   */\n      0x20\n        /* \"#utility.yul\":12616:12634   */\n      dup2\n      add\n        /* \"#utility.yul\":12609:12643   */\n      dup4\n      swap1\n      mstore\n        /* \"source/Marketplace.sol\":57466:57497  WithdrawWei(msg.sender, amount) */\n      0x2f15b7a52fc8a006876377705647acbd22eed72dec9b154aa290e286c06a3cd4\n      swap2\n        /* \"#utility.yul\":12499:12517   */\n      add\n        /* \"source/Marketplace.sol\":57466:57497  WithdrawWei(msg.sender, amount) */\n      mload(0x40)\n      dup1\n      swap2\n      sub\n      swap1\n      log1\n        /* \"source/Marketplace.sol\":57354:57505  {... */\n      pop\n        /* \"source/Marketplace.sol\":57314:57505  function withdrawWei() public onlyOwner {... */\n      jump\t// out\n        /* \"source/Marketplace.sol\":58848:58984  function getTokensAtSale(uint256 limit, uint256 offset) public view returns (SelledNFT[] memory) {... */\n    tag_96:\n        /* \"source/Marketplace.sol\":58925:58943  SelledNFT[] memory */\n      0x60\n        /* \"source/Marketplace.sol\":58963:58976  _marketTokens */\n      0x05\n        /* \"source/Marketplace.sol\":58956:58976  return _marketTokens */\n      dup1\n      sload\n      dup1\n      0x20\n      mul\n      0x20\n      add\n      mload(0x40)\n      swap1\n      dup2\n      add\n      0x40\n      mstore\n      dup1\n      swap3\n      swap2\n      swap1\n      dup2\n      dup2\n      mstore\n      0x20\n      add\n      0x00\n      swap1\n    tag_318:\n      dup3\n      dup3\n      lt\n      iszero\n      tag_319\n      jumpi\n      0x00\n      dup5\n      dup2\n      mstore\n      0x20\n      swap1\n      dup2\n      swap1\n      keccak256\n      0x40\n      dup1\n      mload\n      0xc0\n      dup2\n      add\n      dup3\n      mstore\n      0x06\n      dup7\n      mul\n      swap1\n      swap3\n      add\n      dup1\n      sload\n      0xffffffffffffffffffffffffffffffffffffffff\n      swap1\n      dup2\n      and\n      dup5\n      mstore\n      0x01\n      dup1\n      dup4\n      add\n      sload\n      dup6\n      dup8\n      add\n      mstore\n      0x02\n      dup4\n      add\n      sload\n      dup3\n      and\n      swap4\n      dup6\n      add\n      swap4\n      swap1\n      swap4\n      mstore\n      0x03\n      dup3\n      add\n      sload\n      0x60\n      dup6\n      add\n      mstore\n      0x04\n      dup3\n      add\n      sload\n      and\n      0x80\n      dup5\n      add\n      mstore\n      0x05\n      add\n      sload\n      0xa0\n      dup4\n      add\n      mstore\n      swap1\n      dup4\n      mstore\n      swap1\n      swap3\n      add\n      swap2\n      add\n      jump(tag_318)\n    tag_319:\n      pop\n      pop\n      pop\n      pop\n      swap1\n      pop\n        /* \"source/Marketplace.sol\":58848:58984  function getTokensAtSale(uint256 limit, uint256 offset) public view returns (SelledNFT[] memory) {... */\n    tag_317:\n      swap3\n      swap2\n      pop\n      pop\n      jump\t// out\n        /* \"source/Marketplace.sol\":52182:52616  function marketTokensGet(address collection, uint256 tokenId) public view returns (SelledNFT memory ret) {... */\n    tag_105:\n      0x40\n      dup1\n      mload\n      0xc0\n      dup2\n      add\n      dup3\n      mstore\n      0x00\n      dup1\n      dup3\n      mstore\n      0x20\n      dup3\n      add\n      dup2\n      swap1\n      mstore\n      swap2\n      dup2\n      add\n      dup3\n      swap1\n      mstore\n      0x60\n      dup2\n      add\n      dup3\n      swap1\n      mstore\n      0x80\n      dup2\n      add\n      dup3\n      swap1\n      mstore\n      0xa0\n      dup2\n      add\n      dup3\n      swap1\n      mstore\n      swap1\n        /* \"source/Marketplace.sol\":52298:52588  for(uint256 i = 0; i < _marketTokens.length; i++) {... */\n    tag_324:\n        /* \"source/Marketplace.sol\":52321:52334  _marketTokens */\n      0x05\n        /* \"source/Marketplace.sol\":52321:52341  _marketTokens.length */\n      sload\n        /* \"source/Marketplace.sol\":52317:52341  i < _marketTokens.length */\n      dup2\n      lt\n        /* \"source/Marketplace.sol\":52298:52588  for(uint256 i = 0; i < _marketTokens.length; i++) {... */\n      iszero\n      tag_325\n      jumpi\n        /* \"source/Marketplace.sol\":52417:52427  collection */\n      dup4\n        /* \"source/Marketplace.sol\":52386:52427  _marketTokens[i].collection == collection */\n      0xffffffffffffffffffffffffffffffffffffffff\n      and\n        /* \"source/Marketplace.sol\":52386:52399  _marketTokens */\n      0x05\n        /* \"source/Marketplace.sol\":52400:52401  i */\n      dup3\n        /* \"source/Marketplace.sol\":52386:52402  _marketTokens[i] */\n      dup2\n      sload\n      dup2\n      lt\n      tag_328\n      jumpi\n      tag_328\n      tag_198\n      jump\t// in\n    tag_328:\n      0x00\n      swap2\n      dup3\n      mstore\n      0x20\n      swap1\n      swap2\n      keccak256\n      0x06\n      swap1\n      swap2\n      mul\n      add\n        /* \"source/Marketplace.sol\":52386:52413  _marketTokens[i].collection */\n      sload\n      0xffffffffffffffffffffffffffffffffffffffff\n      and\n        /* \"source/Marketplace.sol\":52386:52427  _marketTokens[i].collection == collection */\n      eq\n        /* \"source/Marketplace.sol\":52385:52503  (_marketTokens[i].collection == collection)... */\n      dup1\n      iszero\n      tag_330\n      jumpi\n      pop\n        /* \"source/Marketplace.sol\":52495:52502  tokenId */\n      dup3\n        /* \"source/Marketplace.sol\":52467:52480  _marketTokens */\n      0x05\n        /* \"source/Marketplace.sol\":52481:52482  i */\n      dup3\n        /* \"source/Marketplace.sol\":52467:52483  _marketTokens[i] */\n      dup2\n      sload\n      dup2\n      lt\n      tag_332\n      jumpi\n      tag_332\n      tag_198\n      jump\t// in\n    tag_332:\n      swap1\n      0x00\n      mstore\n      keccak256(0x00, 0x20)\n      swap1\n      0x06\n      mul\n      add\n        /* \"source/Marketplace.sol\":52467:52491  _marketTokens[i].tokenId */\n      0x01\n      add\n      sload\n        /* \"source/Marketplace.sol\":52467:52502  _marketTokens[i].tokenId == tokenId */\n      eq\n        /* \"source/Marketplace.sol\":52385:52503  (_marketTokens[i].collection == collection)... */\n    tag_330:\n        /* \"source/Marketplace.sol\":52363:52577  if (... */\n      iszero\n      tag_334\n      jumpi\n        /* \"source/Marketplace.sol\":52545:52558  _marketTokens */\n      0x05\n        /* \"source/Marketplace.sol\":52559:52560  i */\n      dup2\n        /* \"source/Marketplace.sol\":52545:52561  _marketTokens[i] */\n      dup2\n      sload\n      dup2\n      lt\n      tag_336\n      jumpi\n      tag_336\n      tag_198\n      jump\t// in\n    tag_336:\n      0x00\n      swap2\n      dup3\n      mstore\n      0x20\n      swap2\n      dup3\n      swap1\n      keccak256\n        /* \"source/Marketplace.sol\":52538:52561  return _marketTokens[i] */\n      0x40\n      dup1\n      mload\n      0xc0\n      dup2\n      add\n      dup3\n      mstore\n        /* \"source/Marketplace.sol\":52545:52561  _marketTokens[i] */\n      0x06\n      swap1\n      swap4\n      mul\n      swap1\n      swap2\n      add\n        /* \"source/Marketplace.sol\":52538:52561  return _marketTokens[i] */\n      dup1\n      sload\n      0xffffffffffffffffffffffffffffffffffffffff\n      swap1\n      dup2\n      and\n      dup5\n      mstore\n      0x01\n      dup3\n      add\n      sload\n      swap5\n      dup5\n      add\n      swap5\n      swap1\n      swap5\n      mstore\n      0x02\n      dup2\n      add\n      sload\n      dup5\n      and\n      swap2\n      dup4\n      add\n      swap2\n      swap1\n      swap2\n      mstore\n      0x03\n      dup2\n      add\n      sload\n      0x60\n      dup4\n      add\n      mstore\n      0x04\n      dup2\n      add\n      sload\n      swap1\n      swap3\n      and\n      0x80\n      dup3\n      add\n      mstore\n      0x05\n      swap1\n      swap2\n      add\n      sload\n      0xa0\n      dup3\n      add\n      mstore\n      swap2\n      pop\n      tag_317\n      swap1\n      pop\n      jump\n        /* \"source/Marketplace.sol\":52363:52577  if (... */\n    tag_334:\n        /* \"source/Marketplace.sol\":52343:52346  i++ */\n      dup1\n      tag_338\n      dup2\n      tag_201\n      jump\t// in\n    tag_338:\n      swap2\n      pop\n      pop\n        /* \"source/Marketplace.sol\":52298:52588  for(uint256 i = 0; i < _marketTokens.length; i++) {... */\n      jump(tag_324)\n    tag_325:\n      pop\n        /* \"source/Marketplace.sol\":52182:52616  function marketTokensGet(address collection, uint256 tokenId) public view returns (SelledNFT memory ret) {... */\n      swap3\n      swap2\n      pop\n      pop\n      jump\t// out\n        /* \"source/Marketplace.sol\":56976:57080  function getAllowedERC20() public view returns(address[] memory) {... */\n    tag_110:\n        /* \"source/Marketplace.sol\":57023:57039  address[] memory */\n      0x60\n        /* \"source/Marketplace.sol\":57059:57072  _allowedERC20 */\n      0x04\n        /* \"source/Marketplace.sol\":57052:57072  return _allowedERC20 */\n      dup1\n      sload\n      dup1\n      0x20\n      mul\n      0x20\n      add\n      mload(0x40)\n      swap1\n      dup2\n      add\n      0x40\n      mstore\n      dup1\n      swap3\n      swap2\n      swap1\n      dup2\n      dup2\n      mstore\n      0x20\n      add\n      dup3\n      dup1\n      sload\n      dup1\n      iszero\n      tag_287\n      jumpi\n      0x20\n      mul\n      dup3\n      add\n      swap2\n      swap1\n      0x00\n      mstore\n      keccak256(0x00, 0x20)\n      swap1\n      dup2\n      sload\n      0xffffffffffffffffffffffffffffffffffffffff\n      and\n      dup2\n      mstore\n      0x01\n      swap1\n      swap2\n      add\n      swap1\n      0x20\n      add\n      dup1\n      dup4\n      gt\n      tag_288\n      jumpi\n      pop\n      pop\n      pop\n      pop\n      pop\n      swap1\n      pop\n        /* \"source/Marketplace.sol\":56976:57080  function getAllowedERC20() public view returns(address[] memory) {... */\n      swap1\n      jump\t// out\n        /* \"source/Marketplace.sol\":2667:2770  function renounceOwnership() public virtual onlyOwner {... */\n    tag_115:\n        /* \"source/Marketplace.sol\":1905:1918  _checkOwner() */\n      tag_343\n        /* \"source/Marketplace.sol\":1905:1916  _checkOwner */\n      tag_188\n        /* \"source/Marketplace.sol\":1905:1918  _checkOwner() */\n      jump\t// in\n    tag_343:\n        /* \"source/Marketplace.sol\":2732:2762  _transferOwnership(address(0)) */\n      tag_345\n        /* \"source/Marketplace.sol\":2759:2760  0 */\n      0x00\n        /* \"source/Marketplace.sol\":2732:2750  _transferOwnership */\n      tag_346\n        /* \"source/Marketplace.sol\":2732:2762  _transferOwnership(address(0)) */\n      jump\t// in\n    tag_345:\n        /* \"source/Marketplace.sol\":2667:2770  function renounceOwnership() public virtual onlyOwner {... */\n      jump\t// out\n        /* \"source/Marketplace.sol\":57088:57306  function isAllowedERC20(address erc20) public view returns (bool) {... */\n    tag_119:\n        /* \"source/Marketplace.sol\":57148:57152  bool */\n      0x00\n      dup1\n        /* \"source/Marketplace.sol\":57165:57276  for(uint i=0; i<_allowedERC20.length;i++) {... */\n    tag_348:\n        /* \"source/Marketplace.sol\":57181:57194  _allowedERC20 */\n      0x04\n        /* \"source/Marketplace.sol\":57181:57201  _allowedERC20.length */\n      sload\n        /* \"source/Marketplace.sol\":57179:57201  i<_allowedERC20.length */\n      dup2\n      lt\n        /* \"source/Marketplace.sol\":57165:57276  for(uint i=0; i<_allowedERC20.length;i++) {... */\n      iszero\n      tag_349\n      jumpi\n        /* \"source/Marketplace.sol\":57235:57248  _allowedERC20 */\n      0x04\n        /* \"source/Marketplace.sol\":57249:57250  i */\n      dup2\n        /* \"source/Marketplace.sol\":57235:57251  _allowedERC20[i] */\n      dup2\n      sload\n      dup2\n      lt\n      tag_352\n      jumpi\n      tag_352\n      tag_198\n      jump\t// in\n    tag_352:\n      0x00\n      swap2\n      dup3\n      mstore\n      0x20\n      swap1\n      swap2\n      keccak256\n      add\n      sload\n      0xffffffffffffffffffffffffffffffffffffffff\n      swap1\n      dup2\n      and\n        /* \"source/Marketplace.sol\":57226:57251  erc20 == _allowedERC20[i] */\n      swap1\n      dup5\n      and\n      sub\n        /* \"source/Marketplace.sol\":57222:57264  if (erc20 == _allowedERC20[i]) return true */\n      tag_354\n      jumpi\n      pop\n        /* \"source/Marketplace.sol\":57260:57264  true */\n      0x01\n      swap3\n        /* \"source/Marketplace.sol\":57088:57306  function isAllowedERC20(address erc20) public view returns (bool) {... */\n      swap2\n      pop\n      pop\n      jump\t// out\n        /* \"source/Marketplace.sol\":57222:57264  if (erc20 == _allowedERC20[i]) return true */\n    tag_354:\n        /* \"source/Marketplace.sol\":57202:57205  i++ */\n      dup1\n      tag_355\n      dup2\n      tag_201\n      jump\t// in\n    tag_355:\n      swap2\n      pop\n      pop\n        /* \"source/Marketplace.sol\":57165:57276  for(uint i=0; i<_allowedERC20.length;i++) {... */\n      jump(tag_348)\n    tag_349:\n      pop\n        /* \"source/Marketplace.sol\":57293:57298  false */\n      0x00\n      swap3\n        /* \"source/Marketplace.sol\":57088:57306  function isAllowedERC20(address erc20) public view returns (bool) {... */\n      swap2\n      pop\n      pop\n      jump\t// out\n        /* \"source/Marketplace.sol\":62508:63800  function sellNFT(... */\n    tag_134:\n        /* \"source/Marketplace.sol\":49247:49251  bool */\n      0x00\n        /* \"source/Marketplace.sol\":49271:49278  _paused */\n      sload\n      0x010000000000000000000000000000000000000000\n      swap1\n      div\n      0xff\n      and\n        /* \"source/Marketplace.sol\":49525:49534  !paused() */\n      iszero\n        /* \"source/Marketplace.sol\":49517:49555  require(!paused(), \"Pausable: paused\") */\n      tag_360\n      jumpi\n      mload(0x40)\n      0x08c379a000000000000000000000000000000000000000000000000000000000\n      dup2\n      mstore\n        /* \"#utility.yul\":9086:9088   */\n      0x20\n        /* \"source/Marketplace.sol\":49517:49555  require(!paused(), \"Pausable: paused\") */\n      0x04\n      dup3\n      add\n        /* \"#utility.yul\":9068:9089   */\n      mstore\n        /* \"#utility.yul\":9125:9127   */\n      0x10\n        /* \"#utility.yul\":9105:9123   */\n      0x24\n      dup3\n      add\n        /* \"#utility.yul\":9098:9128   */\n      mstore\n        /* \"#utility.yul\":9164:9182   */\n      0x5061757361626c653a2070617573656400000000000000000000000000000000\n        /* \"#utility.yul\":9144:9162   */\n      0x44\n      dup3\n      add\n        /* \"#utility.yul\":9137:9183   */\n      mstore\n        /* \"#utility.yul\":9200:9218   */\n      0x64\n      add\n        /* \"source/Marketplace.sol\":49517:49555  require(!paused(), \"Pausable: paused\") */\n      tag_216\n        /* \"#utility.yul\":8884:9224   */\n      jump\n        /* \"source/Marketplace.sol\":49517:49555  require(!paused(), \"Pausable: paused\") */\n    tag_360:\n        /* \"source/Marketplace.sol\":62751:62782  _allowedCollections[collection] */\n      0xffffffffffffffffffffffffffffffffffffffff\n      dup5\n      and\n      0x00\n      swap1\n      dup2\n      mstore\n        /* \"source/Marketplace.sol\":62751:62770  _allowedCollections */\n      0x03\n        /* \"source/Marketplace.sol\":62751:62782  _allowedCollections[collection] */\n      0x20\n      mstore\n      0x40\n      swap1\n      keccak256\n      sload\n      0xff\n      and\n        /* \"source/Marketplace.sol\":62729:62836  require(... */\n      tag_363\n      jumpi\n      mload(0x40)\n      0x08c379a000000000000000000000000000000000000000000000000000000000\n      dup2\n      mstore\n        /* \"#utility.yul\":12856:12858   */\n      0x20\n        /* \"source/Marketplace.sol\":62729:62836  require(... */\n      0x04\n      dup3\n      add\n        /* \"#utility.yul\":12838:12859   */\n      mstore\n        /* \"#utility.yul\":12895:12897   */\n      0x1a\n        /* \"#utility.yul\":12875:12893   */\n      0x24\n      dup3\n      add\n        /* \"#utility.yul\":12868:12898   */\n      mstore\n        /* \"#utility.yul\":12934:12962   */\n      0x4e6f7420616c6c6f776564204e465420636f6c6c656374696f6e000000000000\n        /* \"#utility.yul\":12914:12932   */\n      0x44\n      dup3\n      add\n        /* \"#utility.yul\":12907:12963   */\n      mstore\n        /* \"#utility.yul\":12980:12998   */\n      0x64\n      add\n        /* \"source/Marketplace.sol\":62729:62836  require(... */\n      tag_216\n        /* \"#utility.yul\":12654:13004   */\n      jump\n        /* \"source/Marketplace.sol\":62729:62836  require(... */\n    tag_363:\n        /* \"source/Marketplace.sol\":62893:62930  IERC721(collection).ownerOf(_tokenId) */\n      mload(0x40)\n      0x6352211e00000000000000000000000000000000000000000000000000000000\n      dup2\n      mstore\n      0x04\n      dup2\n      add\n        /* \"#utility.yul\":5919:5944   */\n      dup5\n      swap1\n      mstore\n        /* \"source/Marketplace.sol\":62934:62944  msg.sender */\n      caller\n      swap1\n        /* \"source/Marketplace.sol\":62893:62944  IERC721(collection).ownerOf(_tokenId) == msg.sender */\n      0xffffffffffffffffffffffffffffffffffffffff\n        /* \"source/Marketplace.sol\":62893:62920  IERC721(collection).ownerOf */\n      dup7\n      and\n      swap1\n      0x6352211e\n      swap1\n        /* \"#utility.yul\":5892:5910   */\n      0x24\n      add\n        /* \"source/Marketplace.sol\":62893:62930  IERC721(collection).ownerOf(_tokenId) */\n      0x20\n      mload(0x40)\n      dup1\n      dup4\n      sub\n      dup2\n      dup7\n      gas\n      staticcall\n      iszero\n      dup1\n      iszero\n      tag_368\n      jumpi\n      returndatasize\n      0x00\n      dup1\n      returndatacopy\n      revert(0x00, returndatasize)\n    tag_368:\n      pop\n      pop\n      pop\n      pop\n      mload(0x40)\n      returndatasize\n      not(0x1f)\n      0x1f\n      dup3\n      add\n      and\n      dup3\n      add\n      dup1\n      0x40\n      mstore\n      pop\n      dup2\n      add\n      swap1\n      tag_369\n      swap2\n      swap1\n      tag_370\n      jump\t// in\n    tag_369:\n        /* \"source/Marketplace.sol\":62893:62944  IERC721(collection).ownerOf(_tokenId) == msg.sender */\n      0xffffffffffffffffffffffffffffffffffffffff\n      and\n      eq\n        /* \"source/Marketplace.sol\":62871:62997  require(... */\n      tag_371\n      jumpi\n      mload(0x40)\n      0x08c379a000000000000000000000000000000000000000000000000000000000\n      dup2\n      mstore\n        /* \"#utility.yul\":13467:13469   */\n      0x20\n        /* \"source/Marketplace.sol\":62871:62997  require(... */\n      0x04\n      dup3\n      add\n        /* \"#utility.yul\":13449:13470   */\n      mstore\n        /* \"#utility.yul\":13506:13508   */\n      0x19\n        /* \"#utility.yul\":13486:13504   */\n      0x24\n      dup3\n      add\n        /* \"#utility.yul\":13479:13509   */\n      mstore\n        /* \"#utility.yul\":13545:13572   */\n      0x596f7520646f6e2774206f776e207468697320746f6b656e2100000000000000\n        /* \"#utility.yul\":13525:13543   */\n      0x44\n      dup3\n      add\n        /* \"#utility.yul\":13518:13573   */\n      mstore\n        /* \"#utility.yul\":13590:13608   */\n      0x64\n      add\n        /* \"source/Marketplace.sol\":62871:62997  require(... */\n      tag_216\n        /* \"#utility.yul\":13265:13614   */\n      jump\n        /* \"source/Marketplace.sol\":62871:62997  require(... */\n    tag_371:\n        /* \"source/Marketplace.sol\":63024:63025  0 */\n      0x00\n        /* \"source/Marketplace.sol\":63016:63021  price */\n      dup3\n        /* \"source/Marketplace.sol\":63016:63025  price > 0 */\n      gt\n        /* \"source/Marketplace.sol\":63008:63061  require(price > 0, \"Price must be greater than zero\") */\n      tag_374\n      jumpi\n      mload(0x40)\n      0x08c379a000000000000000000000000000000000000000000000000000000000\n      dup2\n      mstore\n        /* \"#utility.yul\":13821:13823   */\n      0x20\n        /* \"source/Marketplace.sol\":63008:63061  require(price > 0, \"Price must be greater than zero\") */\n      0x04\n      dup3\n      add\n        /* \"#utility.yul\":13803:13824   */\n      mstore\n        /* \"#utility.yul\":13860:13862   */\n      0x1f\n        /* \"#utility.yul\":13840:13858   */\n      0x24\n      dup3\n      add\n        /* \"#utility.yul\":13833:13863   */\n      mstore\n        /* \"#utility.yul\":13899:13932   */\n      0x5072696365206d7573742062652067726561746572207468616e207a65726f00\n        /* \"#utility.yul\":13879:13897   */\n      0x44\n      dup3\n      add\n        /* \"#utility.yul\":13872:13933   */\n      mstore\n        /* \"#utility.yul\":13950:13968   */\n      0x64\n      add\n        /* \"source/Marketplace.sol\":63008:63061  require(price > 0, \"Price must be greater than zero\") */\n      tag_216\n        /* \"#utility.yul\":13619:13974   */\n      jump\n        /* \"source/Marketplace.sol\":63008:63061  require(price > 0, \"Price must be greater than zero\") */\n    tag_374:\n        /* \"source/Marketplace.sol\":63076:63096  _erc20 != address(0) */\n      0xffffffffffffffffffffffffffffffffffffffff\n      dup2\n      and\n      iszero\n        /* \"source/Marketplace.sol\":63072:63244  if (_erc20 != address(0)) {... */\n      tag_379\n      jumpi\n        /* \"source/Marketplace.sol\":63153:63175  isAllowedERC20(_erc20) */\n      tag_378\n        /* \"source/Marketplace.sol\":63168:63174  _erc20 */\n      dup2\n        /* \"source/Marketplace.sol\":63153:63167  isAllowedERC20 */\n      tag_119\n        /* \"source/Marketplace.sol\":63153:63175  isAllowedERC20(_erc20) */\n      jump\t// in\n    tag_378:\n        /* \"source/Marketplace.sol\":63153:63183  isAllowedERC20(_erc20) == true */\n      iszero\n      iszero\n        /* \"source/Marketplace.sol\":63179:63183  true */\n      0x01\n        /* \"source/Marketplace.sol\":63153:63183  isAllowedERC20(_erc20) == true */\n      eq\n        /* \"source/Marketplace.sol\":63145:63232  require(isAllowedERC20(_erc20) == true, \"This ERC20 not allowed as a trading currency\") */\n      tag_379\n      jumpi\n      mload(0x40)\n      0x08c379a000000000000000000000000000000000000000000000000000000000\n      dup2\n      mstore\n        /* \"#utility.yul\":14181:14183   */\n      0x20\n        /* \"source/Marketplace.sol\":63145:63232  require(isAllowedERC20(_erc20) == true, \"This ERC20 not allowed as a trading currency\") */\n      0x04\n      dup3\n      add\n        /* \"#utility.yul\":14163:14184   */\n      mstore\n        /* \"#utility.yul\":14220:14222   */\n      0x2c\n        /* \"#utility.yul\":14200:14218   */\n      0x24\n      dup3\n      add\n        /* \"#utility.yul\":14193:14223   */\n      mstore\n        /* \"#utility.yul\":14259:14293   */\n      0x54686973204552433230206e6f7420616c6c6f77656420617320612074726164\n        /* \"#utility.yul\":14239:14257   */\n      0x44\n      dup3\n      add\n        /* \"#utility.yul\":14232:14294   */\n      mstore\n        /* \"#utility.yul\":14330:14344   */\n      0x696e672063757272656e63790000000000000000000000000000000000000000\n        /* \"#utility.yul\":14310:14328   */\n      0x64\n      dup3\n      add\n        /* \"#utility.yul\":14303:14345   */\n      mstore\n        /* \"#utility.yul\":14362:14381   */\n      0x84\n      add\n        /* \"source/Marketplace.sol\":63145:63232  require(isAllowedERC20(_erc20) == true, \"This ERC20 not allowed as a trading currency\") */\n      tag_216\n        /* \"#utility.yul\":13979:14387   */\n      jump\n        /* \"source/Marketplace.sol\":63145:63232  require(isAllowedERC20(_erc20) == true, \"This ERC20 not allowed as a trading currency\") */\n    tag_379:\n        /* \"source/Marketplace.sol\":63282:63446  SelledNFT(... */\n      0x40\n      dup1\n      mload\n      0xc0\n      dup2\n      add\n      dup3\n      mstore\n      0xffffffffffffffffffffffffffffffffffffffff\n      dup7\n      dup2\n      and\n      dup1\n      dup4\n      mstore\n      0x20\n      dup4\n      add\n      dup8\n      swap1\n      mstore\n        /* \"source/Marketplace.sol\":63354:63364  msg.sender */\n      caller\n        /* \"source/Marketplace.sol\":63282:63446  SelledNFT(... */\n      dup4\n      dup6\n      add\n      dup2\n      swap1\n      mstore\n      0x60\n      dup5\n      add\n      dup8\n      swap1\n      mstore\n      swap2\n      dup6\n      and\n      0x80\n      dup5\n      add\n      mstore\n        /* \"source/Marketplace.sol\":63420:63435  block.timestamp */\n      timestamp\n        /* \"source/Marketplace.sol\":63282:63446  SelledNFT(... */\n      0xa0\n      dup5\n      add\n      mstore\n        /* \"source/Marketplace.sol\":63457:63526  IERC721(collection).transferFrom(msg.sender, address(this), _tokenId) */\n      swap3\n      mload\n      0x23b872dd00000000000000000000000000000000000000000000000000000000\n      dup2\n      mstore\n      0x04\n      dup2\n      add\n        /* \"#utility.yul\":11575:11609   */\n      swap2\n      swap1\n      swap2\n      mstore\n        /* \"source/Marketplace.sol\":63510:63514  this */\n      address\n        /* \"#utility.yul\":11625:11643   */\n      0x24\n      dup3\n      add\n        /* \"#utility.yul\":11618:11661   */\n      mstore\n        /* \"#utility.yul\":11677:11695   */\n      0x44\n      dup2\n      add\n        /* \"#utility.yul\":11670:11704   */\n      dup7\n      swap1\n      mstore\n        /* \"source/Marketplace.sol\":63282:63446  SelledNFT(... */\n      swap1\n      swap2\n      swap1\n        /* \"source/Marketplace.sol\":63457:63489  IERC721(collection).transferFrom */\n      0x23b872dd\n      swap1\n        /* \"#utility.yul\":11487:11505   */\n      0x64\n      add\n        /* \"source/Marketplace.sol\":63457:63526  IERC721(collection).transferFrom(msg.sender, address(this), _tokenId) */\n      0x00\n      mload(0x40)\n      dup1\n      dup4\n      sub\n      dup2\n      0x00\n      dup8\n      dup1\n      extcodesize\n      iszero\n      dup1\n      iszero\n      tag_383\n      jumpi\n      0x00\n      dup1\n      revert\n    tag_383:\n      pop\n      gas\n      call\n      iszero\n      dup1\n      iszero\n      tag_385\n      jumpi\n      returndatasize\n      0x00\n      dup1\n      returndatacopy\n      revert(0x00, returndatasize)\n    tag_385:\n      pop\n      pop\n      pop\n      pop\n        /* \"source/Marketplace.sol\":63537:63561  _marketTokensAdd(newLot) */\n      tag_386\n        /* \"source/Marketplace.sol\":63554:63560  newLot */\n      dup2\n        /* \"source/Marketplace.sol\":63537:63553  _marketTokensAdd */\n      tag_387\n        /* \"source/Marketplace.sol\":63537:63561  _marketTokensAdd(newLot) */\n      jump\t// in\n    tag_386:\n        /* \"source/Marketplace.sol\":63578:63598  _erc20 == address(0) */\n      0xffffffffffffffffffffffffffffffffffffffff\n      dup3\n      and\n        /* \"source/Marketplace.sol\":63574:63793  if (_erc20 == address(0)) {... */\n      tag_388\n      jumpi\n        /* \"source/Marketplace.sol\":63620:63690  PutUpForSaleWithERC20(msg.sender, collection, _tokenId, _erc20, price) */\n      0x40\n      dup1\n      mload\n        /* \"source/Marketplace.sol\":63642:63652  msg.sender */\n      caller\n        /* \"#utility.yul\":14712:14746   */\n      dup2\n      mstore\n        /* \"#utility.yul\":14661:14703   */\n      0xffffffffffffffffffffffffffffffffffffffff\n        /* \"#utility.yul\":14782:14797   */\n      dup8\n      dup2\n      and\n        /* \"#utility.yul\":14777:14779   */\n      0x20\n        /* \"#utility.yul\":14762:14780   */\n      dup4\n      add\n        /* \"#utility.yul\":14755:14798   */\n      mstore\n        /* \"#utility.yul\":14814:14832   */\n      dup2\n      dup4\n      add\n        /* \"#utility.yul\":14807:14841   */\n      dup8\n      swap1\n      mstore\n        /* \"#utility.yul\":14877:14892   */\n      dup5\n      and\n        /* \"#utility.yul\":14872:14874   */\n      0x60\n        /* \"#utility.yul\":14857:14875   */\n      dup3\n      add\n        /* \"#utility.yul\":14850:14893   */\n      mstore\n        /* \"#utility.yul\":14924:14927   */\n      0x80\n        /* \"#utility.yul\":14909:14928   */\n      dup2\n      add\n        /* \"#utility.yul\":14902:14937   */\n      dup6\n      swap1\n      mstore\n        /* \"source/Marketplace.sol\":63620:63690  PutUpForSaleWithERC20(msg.sender, collection, _tokenId, _erc20, price) */\n      swap1\n      mload\n      0x44f716b281fa3e96fbd6ef888a275ef2fdf8914960a4c57c0bef6ccaebf0df31\n      swap2\n      dup2\n      swap1\n      sub\n        /* \"#utility.yul\":14638:14641   */\n      0xa0\n        /* \"source/Marketplace.sol\":63620:63690  PutUpForSaleWithERC20(msg.sender, collection, _tokenId, _erc20, price) */\n      add\n      swap1\n      log1\n        /* \"source/Marketplace.sol\":63574:63793  if (_erc20 == address(0)) {... */\n      jump(tag_391)\n    tag_388:\n        /* \"source/Marketplace.sol\":63728:63781  PutUpForSale(msg.sender, collection, _tokenId, price) */\n      0x40\n      dup1\n      mload\n        /* \"source/Marketplace.sol\":63741:63751  msg.sender */\n      caller\n        /* \"#utility.yul\":15240:15274   */\n      dup2\n      mstore\n        /* \"#utility.yul\":15189:15231   */\n      0xffffffffffffffffffffffffffffffffffffffff\n        /* \"#utility.yul\":15310:15325   */\n      dup8\n      and\n        /* \"#utility.yul\":15305:15307   */\n      0x20\n        /* \"#utility.yul\":15290:15308   */\n      dup3\n      add\n        /* \"#utility.yul\":15283:15326   */\n      mstore\n        /* \"#utility.yul\":15342:15360   */\n      swap1\n      dup2\n      add\n        /* \"#utility.yul\":15335:15369   */\n      dup6\n      swap1\n      mstore\n        /* \"#utility.yul\":15400:15402   */\n      0x60\n        /* \"#utility.yul\":15385:15403   */\n      dup2\n      add\n        /* \"#utility.yul\":15378:15412   */\n      dup5\n      swap1\n      mstore\n        /* \"source/Marketplace.sol\":63728:63781  PutUpForSale(msg.sender, collection, _tokenId, price) */\n      0xc68dc1f889fa3a215dcdd97178af6bd67fab7b34138eef18f4313aac53f5b364\n      swap1\n        /* \"#utility.yul\":15166:15169   */\n      0x80\n        /* \"#utility.yul\":15151:15170   */\n      add\n        /* \"source/Marketplace.sol\":63728:63781  PutUpForSale(msg.sender, collection, _tokenId, price) */\n      mload(0x40)\n      dup1\n      swap2\n      sub\n      swap1\n      log1\n        /* \"source/Marketplace.sol\":63574:63793  if (_erc20 == address(0)) {... */\n    tag_391:\n        /* \"source/Marketplace.sol\":62681:63800  {... */\n      pop\n        /* \"source/Marketplace.sol\":62508:63800  function sellNFT(... */\n      pop\n      pop\n      pop\n      pop\n      jump\t// out\n        /* \"source/Marketplace.sol\":53054:53504  function getCollectionsTokensCount() public view returns (CollectionTokenCount[] memory ret) {... */\n    tag_137:\n        /* \"source/Marketplace.sol\":53191:53209  _marketCollections */\n      0x02\n        /* \"source/Marketplace.sol\":53191:53216  _marketCollections.length */\n      sload\n        /* \"source/Marketplace.sol\":53112:53145  CollectionTokenCount[] memory ret */\n      0x60\n      swap1\n        /* \"source/Marketplace.sol\":53164:53217  new CollectionTokenCount[](_marketCollections.length) */\n      0xffffffffffffffff\n      dup2\n      gt\n      iszero\n      tag_396\n      jumpi\n      tag_396\n      tag_267\n      jump\t// in\n    tag_396:\n      mload(0x40)\n      swap1\n      dup1\n      dup3\n      mstore\n      dup1\n      0x20\n      mul\n      0x20\n      add\n      dup3\n      add\n      0x40\n      mstore\n      dup1\n      iszero\n      tag_397\n      jumpi\n      dup2\n      0x20\n      add\n    tag_398:\n      0x40\n      dup1\n      mload\n      dup1\n      dup3\n      add\n      swap1\n      swap2\n      mstore\n      0x00\n      dup1\n      dup3\n      mstore\n      0x20\n      dup3\n      add\n      mstore\n      dup2\n      mstore\n      0x20\n      add\n      swap1\n      0x01\n      swap1\n      sub\n      swap1\n      dup2\n      tag_398\n      jumpi\n      swap1\n      pop\n    tag_397:\n      pop\n        /* \"source/Marketplace.sol\":53158:53217  ret = new CollectionTokenCount[](_marketCollections.length) */\n      swap1\n      pop\n        /* \"source/Marketplace.sol\":53232:53241  uint256 i */\n      0x00\n        /* \"source/Marketplace.sol\":53228:53476  for(uint256 i = 0; i < _marketCollections.length; i++) {... */\n    tag_400:\n        /* \"source/Marketplace.sol\":53251:53269  _marketCollections */\n      0x02\n        /* \"source/Marketplace.sol\":53251:53276  _marketCollections.length */\n      sload\n        /* \"source/Marketplace.sol\":53247:53276  i < _marketCollections.length */\n      dup2\n      lt\n        /* \"source/Marketplace.sol\":53228:53476  for(uint256 i = 0; i < _marketCollections.length; i++) {... */\n      iszero\n      tag_401\n      jumpi\n        /* \"source/Marketplace.sol\":53307:53464  CollectionTokenCount(... */\n      mload(0x40)\n      dup1\n      0x40\n      add\n      0x40\n      mstore\n      dup1\n        /* \"source/Marketplace.sol\":53354:53372  _marketCollections */\n      0x02\n        /* \"source/Marketplace.sol\":53373:53374  i */\n      dup4\n        /* \"source/Marketplace.sol\":53354:53375  _marketCollections[i] */\n      dup2\n      sload\n      dup2\n      lt\n      tag_404\n      jumpi\n      tag_404\n      tag_198\n      jump\t// in\n    tag_404:\n      swap1\n      0x00\n      mstore\n      keccak256(0x00, 0x20)\n      add\n      0x00\n      swap1\n      sload\n      swap1\n      0x0100\n      exp\n      swap1\n      div\n      0xffffffffffffffffffffffffffffffffffffffff\n      and\n        /* \"source/Marketplace.sol\":53307:53464  CollectionTokenCount(... */\n      0xffffffffffffffffffffffffffffffffffffffff\n      and\n      dup2\n      mstore\n      0x20\n      add\n        /* \"source/Marketplace.sol\":53395:53417  _collectionTokensCount */\n      0x06\n        /* \"source/Marketplace.sol\":53395:53449  _collectionTokensCount[address(_marketCollections[i])] */\n      0x00\n        /* \"source/Marketplace.sol\":53426:53444  _marketCollections */\n      0x02\n        /* \"source/Marketplace.sol\":53445:53446  i */\n      dup6\n        /* \"source/Marketplace.sol\":53426:53447  _marketCollections[i] */\n      dup2\n      sload\n      dup2\n      lt\n      tag_407\n      jumpi\n      tag_407\n      tag_198\n      jump\t// in\n    tag_407:\n      0x00\n      swap2\n      dup3\n      mstore\n      0x20\n      dup1\n      dup4\n      keccak256\n      swap1\n      swap2\n      add\n      sload\n      0xffffffffffffffffffffffffffffffffffffffff\n      and\n        /* \"source/Marketplace.sol\":53395:53449  _collectionTokensCount[address(_marketCollections[i])] */\n      dup4\n      mstore\n      dup3\n      add\n      swap3\n      swap1\n      swap3\n      mstore\n      0x40\n      add\n      swap1\n      keccak256\n      sload\n        /* \"source/Marketplace.sol\":53307:53464  CollectionTokenCount(... */\n      swap1\n      mstore\n        /* \"source/Marketplace.sol\":53298:53304  ret[i] */\n      dup3\n      mload\n        /* \"source/Marketplace.sol\":53298:53301  ret */\n      dup4\n      swap1\n        /* \"source/Marketplace.sol\":53302:53303  i */\n      dup4\n      swap1\n        /* \"source/Marketplace.sol\":53298:53304  ret[i] */\n      dup2\n      lt\n      tag_410\n      jumpi\n      tag_410\n      tag_198\n      jump\t// in\n    tag_410:\n      0x20\n      mul\n      0x20\n      add\n      add\n        /* \"source/Marketplace.sol\":53298:53464  ret[i] = CollectionTokenCount(... */\n      dup2\n      swap1\n      mstore\n      pop\n        /* \"source/Marketplace.sol\":53278:53281  i++ */\n      dup1\n      dup1\n      tag_411\n      swap1\n      tag_201\n      jump\t// in\n    tag_411:\n      swap2\n      pop\n      pop\n        /* \"source/Marketplace.sol\":53228:53476  for(uint256 i = 0; i < _marketCollections.length; i++) {... */\n      jump(tag_400)\n    tag_401:\n      pop\n        /* \"source/Marketplace.sol\":53054:53504  function getCollectionsTokensCount() public view returns (CollectionTokenCount[] memory ret) {... */\n      swap1\n      jump\t// out\n        /* \"source/Marketplace.sol\":61318:62500  function buyNFT(address collection, uint256 tokenId)... */\n    tag_141:\n        /* \"source/Marketplace.sol\":49247:49251  bool */\n      0x00\n        /* \"source/Marketplace.sol\":49271:49278  _paused */\n      sload\n      0x010000000000000000000000000000000000000000\n      swap1\n      div\n      0xff\n      and\n        /* \"source/Marketplace.sol\":49525:49534  !paused() */\n      iszero\n        /* \"source/Marketplace.sol\":49517:49555  require(!paused(), \"Pausable: paused\") */\n      tag_414\n      jumpi\n      mload(0x40)\n      0x08c379a000000000000000000000000000000000000000000000000000000000\n      dup2\n      mstore\n        /* \"#utility.yul\":9086:9088   */\n      0x20\n        /* \"source/Marketplace.sol\":49517:49555  require(!paused(), \"Pausable: paused\") */\n      0x04\n      dup3\n      add\n        /* \"#utility.yul\":9068:9089   */\n      mstore\n        /* \"#utility.yul\":9125:9127   */\n      0x10\n        /* \"#utility.yul\":9105:9123   */\n      0x24\n      dup3\n      add\n        /* \"#utility.yul\":9098:9128   */\n      mstore\n        /* \"#utility.yul\":9164:9182   */\n      0x5061757361626c653a2070617573656400000000000000000000000000000000\n        /* \"#utility.yul\":9144:9162   */\n      0x44\n      dup3\n      add\n        /* \"#utility.yul\":9137:9183   */\n      mstore\n        /* \"#utility.yul\":9200:9218   */\n      0x64\n      add\n        /* \"source/Marketplace.sol\":49517:49555  require(!paused(), \"Pausable: paused\") */\n      tag_216\n        /* \"#utility.yul\":8884:9224   */\n      jump\n        /* \"source/Marketplace.sol\":49517:49555  require(!paused(), \"Pausable: paused\") */\n    tag_414:\n        /* \"source/Marketplace.sol\":61443:61467  SelledNFT memory lotInfo */\n      0x00\n        /* \"source/Marketplace.sol\":61470:61506  marketTokensGet(collection, tokenId) */\n      tag_417\n        /* \"source/Marketplace.sol\":61486:61496  collection */\n      dup4\n        /* \"source/Marketplace.sol\":61498:61505  tokenId */\n      dup4\n        /* \"source/Marketplace.sol\":61470:61485  marketTokensGet */\n      tag_105\n        /* \"source/Marketplace.sol\":61470:61506  marketTokensGet(collection, tokenId) */\n      jump\t// in\n    tag_417:\n        /* \"source/Marketplace.sol\":61526:61544  lotInfo.collection */\n      dup1\n      mload\n        /* \"source/Marketplace.sol\":61443:61506  SelledNFT memory lotInfo = marketTokensGet(collection, tokenId) */\n      swap1\n      swap2\n      pop\n        /* \"source/Marketplace.sol\":61526:61558  lotInfo.collection != address(0) */\n      0xffffffffffffffffffffffffffffffffffffffff\n      and\n        /* \"source/Marketplace.sol\":61517:61587  require( lotInfo.collection != address(0), \"This NFT is not for sale\") */\n      tag_418\n      jumpi\n      mload(0x40)\n      0x08c379a000000000000000000000000000000000000000000000000000000000\n      dup2\n      mstore\n        /* \"#utility.yul\":9431:9433   */\n      0x20\n        /* \"source/Marketplace.sol\":61517:61587  require( lotInfo.collection != address(0), \"This NFT is not for sale\") */\n      0x04\n      dup3\n      add\n        /* \"#utility.yul\":9413:9434   */\n      mstore\n        /* \"#utility.yul\":9470:9472   */\n      0x18\n        /* \"#utility.yul\":9450:9468   */\n      0x24\n      dup3\n      add\n        /* \"#utility.yul\":9443:9473   */\n      mstore\n        /* \"#utility.yul\":9509:9535   */\n      0x54686973204e4654206973206e6f7420666f722073616c650000000000000000\n        /* \"#utility.yul\":9489:9507   */\n      0x44\n      dup3\n      add\n        /* \"#utility.yul\":9482:9536   */\n      mstore\n        /* \"#utility.yul\":9553:9571   */\n      0x64\n      add\n        /* \"source/Marketplace.sol\":61517:61587  require( lotInfo.collection != address(0), \"This NFT is not for sale\") */\n      tag_216\n        /* \"#utility.yul\":9229:9577   */\n      jump\n        /* \"source/Marketplace.sol\":61517:61587  require( lotInfo.collection != address(0), \"This NFT is not for sale\") */\n    tag_418:\n        /* \"source/Marketplace.sol\":61645:61652  lotInfo */\n      dup1\n        /* \"source/Marketplace.sol\":61645:61658  lotInfo.price */\n      0x60\n      add\n      mload\n        /* \"source/Marketplace.sol\":61632:61641  msg.value */\n      callvalue\n        /* \"source/Marketplace.sol\":61632:61658  msg.value >= lotInfo.price */\n      lt\n      iszero\n        /* \"source/Marketplace.sol\":61624:61701  require(msg.value >= lotInfo.price, \"You have not paid enough for this item\") */\n      tag_420\n      jumpi\n      mload(0x40)\n      0x08c379a000000000000000000000000000000000000000000000000000000000\n      dup2\n      mstore\n        /* \"#utility.yul\":15625:15627   */\n      0x20\n        /* \"source/Marketplace.sol\":61624:61701  require(msg.value >= lotInfo.price, \"You have not paid enough for this item\") */\n      0x04\n      dup3\n      add\n        /* \"#utility.yul\":15607:15628   */\n      mstore\n        /* \"#utility.yul\":15664:15666   */\n      0x26\n        /* \"#utility.yul\":15644:15662   */\n      0x24\n      dup3\n      add\n        /* \"#utility.yul\":15637:15667   */\n      mstore\n        /* \"#utility.yul\":15703:15737   */\n      0x596f752068617665206e6f74207061696420656e6f75676820666f7220746869\n        /* \"#utility.yul\":15683:15701   */\n      0x44\n      dup3\n      add\n        /* \"#utility.yul\":15676:15738   */\n      mstore\n        /* \"#utility.yul\":15774:15782   */\n      0x73206974656d0000000000000000000000000000000000000000000000000000\n        /* \"#utility.yul\":15754:15772   */\n      0x64\n      dup3\n      add\n        /* \"#utility.yul\":15747:15783   */\n      mstore\n        /* \"#utility.yul\":15800:15819   */\n      0x84\n      add\n        /* \"source/Marketplace.sol\":61624:61701  require(msg.value >= lotInfo.price, \"You have not paid enough for this item\") */\n      tag_216\n        /* \"#utility.yul\":15423:15825   */\n      jump\n        /* \"source/Marketplace.sol\":61624:61701  require(msg.value >= lotInfo.price, \"You have not paid enough for this item\") */\n    tag_420:\n        /* \"source/Marketplace.sol\":61764:61777  lotInfo.erc20 */\n      0x80\n      dup2\n      add\n      mload\n        /* \"source/Marketplace.sol\":61764:61791  lotInfo.erc20 == address(0) */\n      0xffffffffffffffffffffffffffffffffffffffff\n      and\n      iszero\n        /* \"source/Marketplace.sol\":61756:61822  require(lotInfo.erc20 == address(0), \"This token selled by ERC20\") */\n      tag_423\n      jumpi\n      mload(0x40)\n      0x08c379a000000000000000000000000000000000000000000000000000000000\n      dup2\n      mstore\n        /* \"#utility.yul\":16032:16034   */\n      0x20\n        /* \"source/Marketplace.sol\":61756:61822  require(lotInfo.erc20 == address(0), \"This token selled by ERC20\") */\n      0x04\n      dup3\n      add\n        /* \"#utility.yul\":16014:16035   */\n      mstore\n        /* \"#utility.yul\":16071:16073   */\n      0x1a\n        /* \"#utility.yul\":16051:16069   */\n      0x24\n      dup3\n      add\n        /* \"#utility.yul\":16044:16074   */\n      mstore\n        /* \"#utility.yul\":16110:16138   */\n      0x5468697320746f6b656e2073656c6c6564206279204552433230000000000000\n        /* \"#utility.yul\":16090:16108   */\n      0x44\n      dup3\n      add\n        /* \"#utility.yul\":16083:16139   */\n      mstore\n        /* \"#utility.yul\":16156:16174   */\n      0x64\n      add\n        /* \"source/Marketplace.sol\":61756:61822  require(lotInfo.erc20 == address(0), \"This token selled by ERC20\") */\n      tag_216\n        /* \"#utility.yul\":15830:16180   */\n      jump\n        /* \"source/Marketplace.sol\":61756:61822  require(lotInfo.erc20 == address(0), \"This token selled by ERC20\") */\n    tag_423:\n        /* \"source/Marketplace.sol\":61860:61869  msg.value */\n      callvalue\n        /* \"source/Marketplace.sol\":61843:61857  uint256 amount */\n      0x00\n        /* \"source/Marketplace.sol\":61900:61950  SafeMath.mul(SafeMath.div(amount, 100), _tradeFee) */\n      tag_426\n        /* \"source/Marketplace.sol\":61913:61938  SafeMath.div(amount, 100) */\n      tag_243\n        /* \"source/Marketplace.sol\":61860:61869  msg.value */\n      dup4\n        /* \"source/Marketplace.sol\":61934:61937  100 */\n      0x64\n        /* \"source/Marketplace.sol\":61913:61925  SafeMath.div */\n      tag_244\n        /* \"source/Marketplace.sol\":61913:61938  SafeMath.div(amount, 100) */\n      jump\t// in\n        /* \"source/Marketplace.sol\":61900:61950  SafeMath.mul(SafeMath.div(amount, 100), _tradeFee) */\n    tag_426:\n        /* \"source/Marketplace.sol\":61880:61950  uint256 feeAmount = SafeMath.mul(SafeMath.div(amount, 100), _tradeFee) */\n      swap1\n      pop\n        /* \"source/Marketplace.sol\":61983:61990  owner() */\n      tag_428\n        /* \"source/Marketplace.sol\":2065:2072  address */\n      0x00\n        /* \"source/Marketplace.sol\":2092:2098  _owner */\n      sload\n      0xffffffffffffffffffffffffffffffffffffffff\n      and\n      swap1\n        /* \"source/Marketplace.sol\":2019:2106  function owner() public view virtual returns (address) {... */\n      jump\n        /* \"source/Marketplace.sol\":61983:61990  owner() */\n    tag_428:\n        /* \"source/Marketplace.sol\":61965:61990  lotInfo.seller == owner() */\n      0xffffffffffffffffffffffffffffffffffffffff\n      and\n        /* \"source/Marketplace.sol\":61965:61972  lotInfo */\n      dup4\n        /* \"source/Marketplace.sol\":61965:61979  lotInfo.seller */\n      0x40\n      add\n      mload\n        /* \"source/Marketplace.sol\":61965:61990  lotInfo.seller == owner() */\n      0xffffffffffffffffffffffffffffffffffffffff\n      and\n      sub\n        /* \"source/Marketplace.sol\":61961:62005  if (lotInfo.seller == owner()) feeAmount = 0 */\n      tag_429\n      jumpi\n      pop\n        /* \"source/Marketplace.sol\":62004:62005  0 */\n      0x00\n        /* \"source/Marketplace.sol\":61961:62005  if (lotInfo.seller == owner()) feeAmount = 0 */\n    tag_429:\n        /* \"source/Marketplace.sol\":62016:62037  uint256 amountWithFee */\n      0x00\n        /* \"source/Marketplace.sol\":62040:62071  SafeMath.sub(amount, feeAmount) */\n      tag_430\n        /* \"source/Marketplace.sol\":62053:62059  amount */\n      dup4\n        /* \"source/Marketplace.sol\":62061:62070  feeAmount */\n      dup4\n        /* \"source/Marketplace.sol\":62040:62052  SafeMath.sub */\n      tag_249\n        /* \"source/Marketplace.sol\":62040:62071  SafeMath.sub(amount, feeAmount) */\n      jump\t// in\n    tag_430:\n        /* \"source/Marketplace.sol\":62016:62071  uint256 amountWithFee = SafeMath.sub(amount, feeAmount) */\n      swap1\n      pop\n        /* \"source/Marketplace.sol\":62092:62099  lotInfo */\n      dup4\n        /* \"source/Marketplace.sol\":62092:62106  lotInfo.seller */\n      0x40\n      add\n      mload\n        /* \"source/Marketplace.sol\":62084:62116  payable(lotInfo.seller).transfer */\n      0xffffffffffffffffffffffffffffffffffffffff\n      and\n        /* \"source/Marketplace.sol\":62084:62131  payable(lotInfo.seller).transfer(amountWithFee) */\n      0x08fc\n        /* \"source/Marketplace.sol\":62117:62130  amountWithFee */\n      dup3\n        /* \"source/Marketplace.sol\":62084:62131  payable(lotInfo.seller).transfer(amountWithFee) */\n      swap1\n      dup2\n      iszero\n      mul\n      swap1\n      mload(0x40)\n      0x00\n      mload(0x40)\n      dup1\n      dup4\n      sub\n      dup2\n      dup6\n      dup9\n      dup9\n      call\n      swap4\n      pop\n      pop\n      pop\n      pop\n      iszero\n      dup1\n      iszero\n      tag_432\n      jumpi\n      returndatasize\n      0x00\n      dup1\n      returndatacopy\n      revert(0x00, returndatasize)\n    tag_432:\n      pop\n        /* \"source/Marketplace.sol\":62146:62159  feeAmount > 0 */\n      dup2\n      iszero\n        /* \"source/Marketplace.sol\":62142:62229  if (feeAmount > 0) {... */\n      tag_433\n      jumpi\n        /* \"source/Marketplace.sol\":62184:62196  _feeReceiver */\n      sload(0x09)\n        /* \"source/Marketplace.sol\":62176:62217  payable(_feeReceiver).transfer(feeAmount) */\n      mload(0x40)\n        /* \"source/Marketplace.sol\":62184:62196  _feeReceiver */\n      0xffffffffffffffffffffffffffffffffffffffff\n      swap1\n      swap2\n      and\n      swap1\n        /* \"source/Marketplace.sol\":62176:62217  payable(_feeReceiver).transfer(feeAmount) */\n      dup4\n      iszero\n      0x08fc\n      mul\n      swap1\n        /* \"source/Marketplace.sol\":62207:62216  feeAmount */\n      dup5\n      swap1\n        /* \"source/Marketplace.sol\":62184:62196  _feeReceiver */\n      0x00\n        /* \"source/Marketplace.sol\":62176:62217  payable(_feeReceiver).transfer(feeAmount) */\n      dup2\n        /* \"source/Marketplace.sol\":62184:62196  _feeReceiver */\n      dup2\n        /* \"source/Marketplace.sol\":62176:62217  payable(_feeReceiver).transfer(feeAmount) */\n      dup2\n        /* \"source/Marketplace.sol\":62207:62216  feeAmount */\n      dup6\n        /* \"source/Marketplace.sol\":62184:62196  _feeReceiver */\n      dup9\n        /* \"source/Marketplace.sol\":62176:62217  payable(_feeReceiver).transfer(feeAmount) */\n      dup9\n      call\n      swap4\n      pop\n      pop\n      pop\n      pop\n      iszero\n      dup1\n      iszero\n      tag_435\n      jumpi\n      returndatasize\n      0x00\n      dup1\n      returndatacopy\n      revert(0x00, returndatasize)\n    tag_435:\n      pop\n        /* \"source/Marketplace.sol\":62142:62229  if (feeAmount > 0) {... */\n    tag_433:\n        /* \"source/Marketplace.sol\":62257:62275  lotInfo.collection */\n      dup4\n      mload\n        /* \"source/Marketplace.sol\":62317:62332  lotInfo.tokenId */\n      0x20\n      dup6\n      add\n      mload\n        /* \"source/Marketplace.sol\":62249:62333  IERC721(lotInfo.collection).transferFrom(address(this), msg.sender, lotInfo.tokenId) */\n      mload(0x40)\n      0x23b872dd00000000000000000000000000000000000000000000000000000000\n      dup2\n      mstore\n        /* \"source/Marketplace.sol\":62298:62302  this */\n      address\n        /* \"source/Marketplace.sol\":62249:62333  IERC721(lotInfo.collection).transferFrom(address(this), msg.sender, lotInfo.tokenId) */\n      0x04\n      dup3\n      add\n        /* \"#utility.yul\":11575:11609   */\n      mstore\n        /* \"source/Marketplace.sol\":62305:62315  msg.sender */\n      caller\n        /* \"#utility.yul\":11625:11643   */\n      0x24\n      dup3\n      add\n        /* \"#utility.yul\":11618:11661   */\n      mstore\n        /* \"#utility.yul\":11677:11695   */\n      0x44\n      dup2\n      add\n        /* \"#utility.yul\":11670:11704   */\n      swap2\n      swap1\n      swap2\n      mstore\n        /* \"source/Marketplace.sol\":62249:62289  IERC721(lotInfo.collection).transferFrom */\n      0xffffffffffffffffffffffffffffffffffffffff\n      swap1\n      swap2\n      and\n      swap1\n      0x23b872dd\n      swap1\n        /* \"#utility.yul\":11487:11505   */\n      0x64\n      add\n        /* \"source/Marketplace.sol\":62249:62333  IERC721(lotInfo.collection).transferFrom(address(this), msg.sender, lotInfo.tokenId) */\n      0x00\n      mload(0x40)\n      dup1\n      dup4\n      sub\n      dup2\n      0x00\n      dup8\n      dup1\n      extcodesize\n      iszero\n      dup1\n      iszero\n      tag_437\n      jumpi\n      0x00\n      dup1\n      revert\n    tag_437:\n      pop\n      gas\n      call\n      iszero\n      dup1\n      iszero\n      tag_439\n      jumpi\n      returndatasize\n      0x00\n      dup1\n      returndatacopy\n      revert(0x00, returndatasize)\n    tag_439:\n      pop\n      pop\n      pop\n      pop\n        /* \"source/Marketplace.sol\":62344:62381  _marketTokensDel(collection, tokenId) */\n      tag_440\n        /* \"source/Marketplace.sol\":62361:62371  collection */\n      dup7\n        /* \"source/Marketplace.sol\":62373:62380  tokenId */\n      dup7\n        /* \"source/Marketplace.sol\":62344:62360  _marketTokensDel */\n      tag_260\n        /* \"source/Marketplace.sol\":62344:62381  _marketTokensDel(collection, tokenId) */\n      jump\t// in\n    tag_440:\n        /* \"source/Marketplace.sol\":62403:62417  lotInfo.seller */\n      0x40\n      dup1\n      dup6\n      add\n      mload\n        /* \"source/Marketplace.sol\":62431:62449  lotInfo.collection */\n      dup6\n      mload\n        /* \"source/Marketplace.sol\":62451:62466  lotInfo.tokenId */\n      0x20\n      dup1\n      dup9\n      add\n      mload\n        /* \"source/Marketplace.sol\":62468:62481  lotInfo.price */\n      0x60\n      dup1\n      dup11\n      add\n      mload\n        /* \"source/Marketplace.sol\":62399:62482  Buy(lotInfo.seller, msg.sender, lotInfo.collection, lotInfo.tokenId, lotInfo.price) */\n      dup7\n      mload\n        /* \"#utility.yul\":16454:16496   */\n      0xffffffffffffffffffffffffffffffffffffffff\n        /* \"#utility.yul\":16523:16538   */\n      swap7\n      dup8\n      and\n        /* \"#utility.yul\":16505:16539   */\n      dup2\n      mstore\n        /* \"source/Marketplace.sol\":62419:62429  msg.sender */\n      caller\n        /* \"#utility.yul\":16555:16573   */\n      swap5\n      dup2\n      add\n        /* \"#utility.yul\":16548:16591   */\n      swap5\n      swap1\n      swap5\n      mstore\n        /* \"#utility.yul\":16627:16642   */\n      swap5\n      swap1\n      swap4\n      and\n        /* \"#utility.yul\":16607:16625   */\n      swap5\n      dup3\n      add\n        /* \"#utility.yul\":16600:16643   */\n      swap5\n      swap1\n      swap5\n      mstore\n        /* \"#utility.yul\":16659:16677   */\n      swap1\n      dup2\n      add\n        /* \"#utility.yul\":16652:16686   */\n      swap3\n      swap1\n      swap3\n      mstore\n        /* \"#utility.yul\":16717:16720   */\n      0x80\n        /* \"#utility.yul\":16702:16721   */\n      dup3\n      add\n        /* \"#utility.yul\":16695:16730   */\n      mstore\n        /* \"source/Marketplace.sol\":62399:62482  Buy(lotInfo.seller, msg.sender, lotInfo.collection, lotInfo.tokenId, lotInfo.price) */\n      0xbab4aa6b2d5c0935e0e2937d1f73655848f670d43bf6f0c7e9e11e635bb5d86f\n      swap1\n        /* \"#utility.yul\":16431:16434   */\n      0xa0\n        /* \"#utility.yul\":16416:16435   */\n      add\n        /* \"source/Marketplace.sol\":62399:62482  Buy(lotInfo.seller, msg.sender, lotInfo.collection, lotInfo.tokenId, lotInfo.price) */\n      mload(0x40)\n      dup1\n      swap2\n      sub\n      swap1\n      log1\n        /* \"source/Marketplace.sol\":61432:62500  {... */\n      pop\n      pop\n      pop\n      pop\n        /* \"source/Marketplace.sol\":61318:62500  function buyNFT(address collection, uint256 tokenId)... */\n      pop\n      pop\n      jump\t// out\n        /* \"source/Marketplace.sol\":58990:59574  function getCollectionTokensAtSale(address collection, uint256 offset, uint256 limit) public view returns (SelledNFT[] memory ret) {... */\n    tag_145:\n        /* \"source/Marketplace.sol\":59136:59170  _collectionTokensCount[collection] */\n      0xffffffffffffffffffffffffffffffffffffffff\n      dup4\n      and\n        /* \"source/Marketplace.sol\":59173:59174  0 */\n      0x00\n        /* \"source/Marketplace.sol\":59136:59170  _collectionTokensCount[collection] */\n      swap1\n      dup2\n      mstore\n        /* \"source/Marketplace.sol\":59136:59158  _collectionTokensCount */\n      0x06\n        /* \"source/Marketplace.sol\":59136:59170  _collectionTokensCount[collection] */\n      0x20\n      mstore\n      0x40\n      swap1\n      keccak256\n      sload\n        /* \"source/Marketplace.sol\":59097:59119  SelledNFT[] memory ret */\n      0x60\n      swap1\n        /* \"source/Marketplace.sol\":59136:59174  _collectionTokensCount[collection] > 0 */\n      iszero\n        /* \"source/Marketplace.sol\":59132:59546  if (_collectionTokensCount[collection] > 0) {... */\n      tag_264\n      jumpi\n        /* \"source/Marketplace.sol\":59213:59247  _collectionTokensCount[collection] */\n      0xffffffffffffffffffffffffffffffffffffffff\n      dup5\n      and\n      0x00\n      swap1\n      dup2\n      mstore\n        /* \"source/Marketplace.sol\":59213:59235  _collectionTokensCount */\n      0x06\n        /* \"source/Marketplace.sol\":59213:59247  _collectionTokensCount[collection] */\n      0x20\n      mstore\n      0x40\n      swap1\n      keccak256\n      sload\n        /* \"source/Marketplace.sol\":59197:59248  new SelledNFT[](_collectionTokensCount[collection]) */\n      0xffffffffffffffff\n      dup2\n      gt\n      iszero\n      tag_446\n      jumpi\n      tag_446\n      tag_267\n      jump\t// in\n    tag_446:\n      mload(0x40)\n      swap1\n      dup1\n      dup3\n      mstore\n      dup1\n      0x20\n      mul\n      0x20\n      add\n      dup3\n      add\n      0x40\n      mstore\n      dup1\n      iszero\n      tag_447\n      jumpi\n      dup2\n      0x20\n      add\n    tag_448:\n      0x40\n      dup1\n      mload\n      0xc0\n      dup2\n      add\n      dup3\n      mstore\n      0x00\n      dup1\n      dup3\n      mstore\n      0x20\n      dup1\n      dup4\n      add\n      dup3\n      swap1\n      mstore\n      swap3\n      dup3\n      add\n      dup2\n      swap1\n      mstore\n      0x60\n      dup3\n      add\n      dup2\n      swap1\n      mstore\n      0x80\n      dup3\n      add\n      dup2\n      swap1\n      mstore\n      0xa0\n      dup3\n      add\n      mstore\n      dup3\n      mstore\n      0xffffffffffffffffffffffffffffffffffffffffffffffffffffffffffffffff\n      swap1\n      swap3\n      add\n      swap2\n      add\n      dup2\n      tag_448\n      jumpi\n      swap1\n      pop\n    tag_447:\n      pop\n        /* \"source/Marketplace.sol\":59191:59248  ret = new SelledNFT[](_collectionTokensCount[collection]) */\n      swap1\n      pop\n        /* \"source/Marketplace.sol\":59263:59278  uint256 counter */\n      0x00\n        /* \"source/Marketplace.sol\":59302:59311  uint256 i */\n      dup1\n        /* \"source/Marketplace.sol\":59297:59535  for (uint256 i = 0; i < _marketTokens.length; i++) {... */\n    tag_450:\n        /* \"source/Marketplace.sol\":59321:59334  _marketTokens */\n      0x05\n        /* \"source/Marketplace.sol\":59321:59341  _marketTokens.length */\n      sload\n        /* \"source/Marketplace.sol\":59317:59341  i < _marketTokens.length */\n      dup2\n      lt\n        /* \"source/Marketplace.sol\":59297:59535  for (uint256 i = 0; i < _marketTokens.length; i++) {... */\n      iszero\n      tag_273\n      jumpi\n        /* \"source/Marketplace.sol\":59402:59412  collection */\n      dup6\n        /* \"source/Marketplace.sol\":59371:59412  _marketTokens[i].collection == collection */\n      0xffffffffffffffffffffffffffffffffffffffff\n      and\n        /* \"source/Marketplace.sol\":59371:59384  _marketTokens */\n      0x05\n        /* \"source/Marketplace.sol\":59385:59386  i */\n      dup3\n        /* \"source/Marketplace.sol\":59371:59387  _marketTokens[i] */\n      dup2\n      sload\n      dup2\n      lt\n      tag_454\n      jumpi\n      tag_454\n      tag_198\n      jump\t// in\n    tag_454:\n      0x00\n      swap2\n      dup3\n      mstore\n      0x20\n      swap1\n      swap2\n      keccak256\n      0x06\n      swap1\n      swap2\n      mul\n      add\n        /* \"source/Marketplace.sol\":59371:59398  _marketTokens[i].collection */\n      sload\n      0xffffffffffffffffffffffffffffffffffffffff\n      and\n        /* \"source/Marketplace.sol\":59371:59412  _marketTokens[i].collection == collection */\n      sub\n        /* \"source/Marketplace.sol\":59367:59520  if (_marketTokens[i].collection == collection) {... */\n      tag_456\n      jumpi\n        /* \"source/Marketplace.sol\":59452:59465  _marketTokens */\n      0x05\n        /* \"source/Marketplace.sol\":59466:59467  i */\n      dup2\n        /* \"source/Marketplace.sol\":59452:59468  _marketTokens[i] */\n      dup2\n      sload\n      dup2\n      lt\n      tag_458\n      jumpi\n      tag_458\n      tag_198\n      jump\t// in\n    tag_458:\n      0x00\n      swap2\n      dup3\n      mstore\n      0x20\n      swap2\n      dup3\n      swap1\n      keccak256\n        /* \"source/Marketplace.sol\":59437:59468  ret[counter] = _marketTokens[i] */\n      0x40\n      dup1\n      mload\n      0xc0\n      dup2\n      add\n      dup3\n      mstore\n        /* \"source/Marketplace.sol\":59452:59468  _marketTokens[i] */\n      0x06\n      swap1\n      swap4\n      mul\n      swap1\n      swap2\n      add\n        /* \"source/Marketplace.sol\":59437:59468  ret[counter] = _marketTokens[i] */\n      dup1\n      sload\n      0xffffffffffffffffffffffffffffffffffffffff\n      swap1\n      dup2\n      and\n      dup5\n      mstore\n      0x01\n      dup3\n      add\n      sload\n      swap5\n      dup5\n      add\n      swap5\n      swap1\n      swap5\n      mstore\n      0x02\n      dup2\n      add\n      sload\n      dup5\n      and\n      swap2\n      dup4\n      add\n      swap2\n      swap1\n      swap2\n      mstore\n      0x03\n      dup2\n      add\n      sload\n      0x60\n      dup4\n      add\n      mstore\n      0x04\n      dup2\n      add\n      sload\n      swap1\n      swap3\n      and\n      0x80\n      dup3\n      add\n      mstore\n      0x05\n      swap1\n      swap2\n      add\n      sload\n      0xa0\n      dup3\n      add\n      mstore\n        /* \"source/Marketplace.sol\":59437:59449  ret[counter] */\n      dup4\n      mload\n        /* \"source/Marketplace.sol\":59437:59440  ret */\n      dup5\n      swap1\n        /* \"source/Marketplace.sol\":59441:59448  counter */\n      dup5\n      swap1\n        /* \"source/Marketplace.sol\":59437:59449  ret[counter] */\n      dup2\n      lt\n      tag_461\n      jumpi\n      tag_461\n      tag_198\n      jump\t// in\n    tag_461:\n      0x20\n      mul\n      0x20\n      add\n      add\n        /* \"source/Marketplace.sol\":59437:59468  ret[counter] = _marketTokens[i] */\n      dup2\n      swap1\n      mstore\n      pop\n        /* \"source/Marketplace.sol\":59491:59500  counter++ */\n      dup2\n      dup1\n      tag_462\n      swap1\n      tag_201\n      jump\t// in\n    tag_462:\n      swap3\n      pop\n      pop\n        /* \"source/Marketplace.sol\":59367:59520  if (_marketTokens[i].collection == collection) {... */\n    tag_456:\n        /* \"source/Marketplace.sol\":59343:59346  i++ */\n      dup1\n      tag_463\n      dup2\n      tag_201\n      jump\t// in\n    tag_463:\n      swap2\n      pop\n      pop\n        /* \"source/Marketplace.sol\":59297:59535  for (uint256 i = 0; i < _marketTokens.length; i++) {... */\n      jump(tag_450)\n        /* \"source/Marketplace.sol\":57981:58151  function getMyTokensAtSale(uint256 offset, uint256 limit) public view returns(SelledNFT[] memory) {... */\n    tag_160:\n        /* \"source/Marketplace.sol\":58059:58077  SelledNFT[] memory */\n      0x60\n        /* \"source/Marketplace.sol\":58097:58143  getUserTokensAtSale(msg.sender, offset, limit) */\n      tag_264\n        /* \"source/Marketplace.sol\":58117:58127  msg.sender */\n      caller\n        /* \"source/Marketplace.sol\":58129:58135  offset */\n      dup5\n        /* \"source/Marketplace.sol\":58137:58142  limit */\n      dup5\n        /* \"source/Marketplace.sol\":58097:58116  getUserTokensAtSale */\n      tag_59\n        /* \"source/Marketplace.sol\":58097:58143  getUserTokensAtSale(msg.sender, offset, limit) */\n      jump\t// in\n        /* \"source/Marketplace.sol\":63808:64393  function deSellNFT(address collection, uint256 tokenId) public {... */\n    tag_165:\n        /* \"source/Marketplace.sol\":63882:63904  SelledNFT memory token */\n      0x00\n        /* \"source/Marketplace.sol\":63907:63943  marketTokensGet(collection, tokenId) */\n      tag_469\n        /* \"source/Marketplace.sol\":63923:63933  collection */\n      dup4\n        /* \"source/Marketplace.sol\":63935:63942  tokenId */\n      dup4\n        /* \"source/Marketplace.sol\":63907:63922  marketTokensGet */\n      tag_105\n        /* \"source/Marketplace.sol\":63907:63943  marketTokensGet(collection, tokenId) */\n      jump\t// in\n    tag_469:\n        /* \"source/Marketplace.sol\":63963:63979  token.collection */\n      dup1\n      mload\n        /* \"source/Marketplace.sol\":63882:63943  SelledNFT memory token = marketTokensGet(collection, tokenId) */\n      swap1\n      swap2\n      pop\n        /* \"source/Marketplace.sol\":63963:63993  token.collection != address(0) */\n      0xffffffffffffffffffffffffffffffffffffffff\n      and\n        /* \"source/Marketplace.sol\":63954:64030  require( token.collection != address(0), \"Token not founded at marketplace\") */\n      tag_470\n      jumpi\n      mload(0x40)\n      0x08c379a000000000000000000000000000000000000000000000000000000000\n      dup2\n      mstore\n        /* \"#utility.yul\":16943:16945   */\n      0x20\n        /* \"source/Marketplace.sol\":63954:64030  require( token.collection != address(0), \"Token not founded at marketplace\") */\n      0x04\n      dup3\n      add\n        /* \"#utility.yul\":16925:16946   */\n      dup2\n      swap1\n      mstore\n        /* \"#utility.yul\":16962:16980   */\n      0x24\n      dup3\n      add\n        /* \"#utility.yul\":16955:16985   */\n      mstore\n        /* \"#utility.yul\":17021:17055   */\n      0x546f6b656e206e6f7420666f756e646564206174206d61726b6574706c616365\n        /* \"#utility.yul\":17001:17019   */\n      0x44\n      dup3\n      add\n        /* \"#utility.yul\":16994:17056   */\n      mstore\n        /* \"#utility.yul\":17073:17091   */\n      0x64\n      add\n        /* \"source/Marketplace.sol\":63954:64030  require( token.collection != address(0), \"Token not founded at marketplace\") */\n      tag_216\n        /* \"#utility.yul\":16741:17097   */\n      jump\n        /* \"source/Marketplace.sol\":63954:64030  require( token.collection != address(0), \"Token not founded at marketplace\") */\n    tag_470:\n        /* \"source/Marketplace.sol\":2065:2072  address */\n      0x00\n        /* \"source/Marketplace.sol\":2092:2098  _owner */\n      sload\n      0xffffffffffffffffffffffffffffffffffffffff\n      and\n        /* \"source/Marketplace.sol\":64044:64054  msg.sender */\n      caller\n        /* \"source/Marketplace.sol\":64044:64065  msg.sender != owner() */\n      eq\n        /* \"source/Marketplace.sol\":64041:64153  if(msg.sender != owner()) {... */\n      tag_475\n      jumpi\n        /* \"source/Marketplace.sol\":64104:64109  token */\n      dup1\n        /* \"source/Marketplace.sol\":64104:64116  token.seller */\n      0x40\n      add\n      mload\n        /* \"source/Marketplace.sol\":64090:64116  msg.sender == token.seller */\n      0xffffffffffffffffffffffffffffffffffffffff\n      and\n        /* \"source/Marketplace.sol\":64090:64100  msg.sender */\n      caller\n        /* \"source/Marketplace.sol\":64090:64116  msg.sender == token.seller */\n      0xffffffffffffffffffffffffffffffffffffffff\n      and\n      eq\n        /* \"source/Marketplace.sol\":64082:64141  require(msg.sender == token.seller, \"This is not your NFT\") */\n      tag_475\n      jumpi\n      mload(0x40)\n      0x08c379a000000000000000000000000000000000000000000000000000000000\n      dup2\n      mstore\n        /* \"#utility.yul\":17304:17306   */\n      0x20\n        /* \"source/Marketplace.sol\":64082:64141  require(msg.sender == token.seller, \"This is not your NFT\") */\n      0x04\n      dup3\n      add\n        /* \"#utility.yul\":17286:17307   */\n      mstore\n        /* \"#utility.yul\":17343:17345   */\n      0x14\n        /* \"#utility.yul\":17323:17341   */\n      0x24\n      dup3\n      add\n        /* \"#utility.yul\":17316:17346   */\n      mstore\n        /* \"#utility.yul\":17382:17404   */\n      0x54686973206973206e6f7420796f7572204e4654000000000000000000000000\n        /* \"#utility.yul\":17362:17380   */\n      0x44\n      dup3\n      add\n        /* \"#utility.yul\":17355:17405   */\n      mstore\n        /* \"#utility.yul\":17422:17440   */\n      0x64\n      add\n        /* \"source/Marketplace.sol\":64082:64141  require(msg.sender == token.seller, \"This is not your NFT\") */\n      tag_216\n        /* \"#utility.yul\":17102:17446   */\n      jump\n        /* \"source/Marketplace.sol\":64082:64141  require(msg.sender == token.seller, \"This is not your NFT\") */\n    tag_475:\n        /* \"source/Marketplace.sol\":64171:64187  token.collection */\n      dup1\n      mload\n        /* \"source/Marketplace.sol\":64217:64229  token.seller */\n      0x40\n      dup1\n      dup4\n      add\n      mload\n        /* \"source/Marketplace.sol\":64231:64244  token.tokenId */\n      0x20\n      dup5\n      add\n      mload\n        /* \"source/Marketplace.sol\":64163:64245  IERC721(token.collection).transferFrom(address(this), token.seller, token.tokenId) */\n      swap2\n      mload\n      0x23b872dd00000000000000000000000000000000000000000000000000000000\n      dup2\n      mstore\n        /* \"source/Marketplace.sol\":64210:64214  this */\n      address\n        /* \"source/Marketplace.sol\":64163:64245  IERC721(token.collection).transferFrom(address(this), token.seller, token.tokenId) */\n      0x04\n      dup3\n      add\n        /* \"#utility.yul\":11575:11609   */\n      mstore\n        /* \"source/Marketplace.sol\":64163:64201  IERC721(token.collection).transferFrom */\n      0xffffffffffffffffffffffffffffffffffffffff\n        /* \"#utility.yul\":11645:11660   */\n      swap2\n      dup3\n      and\n        /* \"#utility.yul\":11625:11643   */\n      0x24\n      dup3\n      add\n        /* \"#utility.yul\":11618:11661   */\n      mstore\n        /* \"#utility.yul\":11677:11695   */\n      0x44\n      dup2\n      add\n        /* \"#utility.yul\":11670:11704   */\n      swap3\n      swap1\n      swap3\n      mstore\n        /* \"source/Marketplace.sol\":64163:64201  IERC721(token.collection).transferFrom */\n      swap1\n      swap2\n      and\n      swap1\n      0x23b872dd\n      swap1\n        /* \"#utility.yul\":11487:11505   */\n      0x64\n      add\n        /* \"source/Marketplace.sol\":64163:64245  IERC721(token.collection).transferFrom(address(this), token.seller, token.tokenId) */\n      0x00\n      mload(0x40)\n      dup1\n      dup4\n      sub\n      dup2\n      0x00\n      dup8\n      dup1\n      extcodesize\n      iszero\n      dup1\n      iszero\n      tag_479\n      jumpi\n      0x00\n      dup1\n      revert\n    tag_479:\n      pop\n      gas\n      call\n      iszero\n      dup1\n      iszero\n      tag_481\n      jumpi\n      returndatasize\n      0x00\n      dup1\n      returndatacopy\n      revert(0x00, returndatasize)\n    tag_481:\n      pop\n      pop\n      pop\n      pop\n        /* \"source/Marketplace.sol\":64256:64304  _marketTokensDel(token.collection,token.tokenId) */\n      tag_482\n        /* \"source/Marketplace.sol\":64273:64278  token */\n      dup2\n        /* \"source/Marketplace.sol\":64273:64289  token.collection */\n      0x00\n      add\n      mload\n        /* \"source/Marketplace.sol\":64290:64295  token */\n      dup3\n        /* \"source/Marketplace.sol\":64290:64303  token.tokenId */\n      0x20\n      add\n      mload\n        /* \"source/Marketplace.sol\":64256:64272  _marketTokensDel */\n      tag_260\n        /* \"source/Marketplace.sol\":64256:64304  _marketTokensDel(token.collection,token.tokenId) */\n      jump\t// in\n    tag_482:\n        /* \"source/Marketplace.sol\":64339:64351  token.seller */\n      0x40\n      dup2\n      dup2\n      add\n      mload\n        /* \"source/Marketplace.sol\":64353:64369  token.collection */\n      dup3\n      mload\n        /* \"source/Marketplace.sol\":64371:64384  token.tokenId */\n      0x20\n      dup1\n      dup6\n      add\n      mload\n        /* \"source/Marketplace.sol\":64322:64385  WithdrawFromSale(token.seller, token.collection, token.tokenId) */\n      dup5\n      mload\n        /* \"#utility.yul\":11524:11566   */\n      0xffffffffffffffffffffffffffffffffffffffff\n        /* \"#utility.yul\":11593:11608   */\n      swap5\n      dup6\n      and\n        /* \"#utility.yul\":11575:11609   */\n      dup2\n      mstore\n        /* \"#utility.yul\":11645:11660   */\n      swap4\n      swap1\n      swap3\n      and\n        /* \"#utility.yul\":11625:11643   */\n      swap1\n      dup4\n      add\n        /* \"#utility.yul\":11618:11661   */\n      mstore\n        /* \"#utility.yul\":11677:11695   */\n      swap2\n      dup2\n      add\n        /* \"#utility.yul\":11670:11704   */\n      swap2\n      swap1\n      swap2\n      mstore\n        /* \"source/Marketplace.sol\":64322:64385  WithdrawFromSale(token.seller, token.collection, token.tokenId) */\n      0xcfd975662262e48e8c2b68605e79d409da1b108bdc941f32d355c4cf11d35925\n      swap1\n        /* \"#utility.yul\":11502:11504   */\n      0x60\n        /* \"#utility.yul\":11487:11505   */\n      add\n        /* \"source/Marketplace.sol\":64322:64385  WithdrawFromSale(token.seller, token.collection, token.tokenId) */\n    tag_483:\n      mload(0x40)\n      dup1\n      swap2\n      sub\n      swap1\n      log1\n        /* \"source/Marketplace.sol\":63871:64393  {... */\n      pop\n        /* \"source/Marketplace.sol\":63808:64393  function deSellNFT(address collection, uint256 tokenId) public {... */\n      pop\n      pop\n      jump\t// out\n        /* \"source/Marketplace.sol\":56838:56964  function setAllowedERC20(address[] memory newAllowedERC20) public onlyOwner {... */\n    tag_173:\n        /* \"source/Marketplace.sol\":1905:1918  _checkOwner() */\n      tag_486\n        /* \"source/Marketplace.sol\":1905:1916  _checkOwner */\n      tag_188\n        /* \"source/Marketplace.sol\":1905:1918  _checkOwner() */\n      jump\t// in\n    tag_486:\n        /* \"source/Marketplace.sol\":56925:56956  _allowedERC20 = newAllowedERC20 */\n      dup1\n      mload\n      tag_205\n      swap1\n        /* \"source/Marketplace.sol\":56925:56938  _allowedERC20 */\n      0x04\n      swap1\n        /* \"source/Marketplace.sol\":56925:56956  _allowedERC20 = newAllowedERC20 */\n      0x20\n      dup5\n      add\n      swap1\n      tag_489\n      jump\t// in\n        /* \"source/Marketplace.sol\":56105:56220  function setFeeReceiver(address _newFeeReceiver) public onlyOwner {... */\n    tag_177:\n        /* \"source/Marketplace.sol\":1905:1918  _checkOwner() */\n      tag_491\n        /* \"source/Marketplace.sol\":1905:1916  _checkOwner */\n      tag_188\n        /* \"source/Marketplace.sol\":1905:1918  _checkOwner() */\n      jump\t// in\n    tag_491:\n        /* \"source/Marketplace.sol\":56182:56194  _feeReceiver */\n      0x09\n        /* \"source/Marketplace.sol\":56182:56212  _feeReceiver = _newFeeReceiver */\n      dup1\n      sload\n      0xffffffffffffffffffffffff0000000000000000000000000000000000000000\n      and\n      0xffffffffffffffffffffffffffffffffffffffff\n      swap3\n      swap1\n      swap3\n      and\n      swap2\n      swap1\n      swap2\n      or\n      swap1\n      sstore\n        /* \"source/Marketplace.sol\":56105:56220  function setFeeReceiver(address _newFeeReceiver) public onlyOwner {... */\n      jump\t// out\n        /* \"source/Marketplace.sol\":2925:3126  function transferOwnership(address newOwner) public virtual onlyOwner {... */\n    tag_181:\n        /* \"source/Marketplace.sol\":1905:1918  _checkOwner() */\n      tag_494\n        /* \"source/Marketplace.sol\":1905:1916  _checkOwner */\n      tag_188\n        /* \"source/Marketplace.sol\":1905:1918  _checkOwner() */\n      jump\t// in\n    tag_494:\n        /* \"source/Marketplace.sol\":3014:3036  newOwner != address(0) */\n      0xffffffffffffffffffffffffffffffffffffffff\n      dup2\n      and\n        /* \"source/Marketplace.sol\":3006:3079  require(newOwner != address(0), \"Ownable: new owner is the zero address\") */\n      tag_496\n      jumpi\n      mload(0x40)\n      0x08c379a000000000000000000000000000000000000000000000000000000000\n      dup2\n      mstore\n        /* \"#utility.yul\":17653:17655   */\n      0x20\n        /* \"source/Marketplace.sol\":3006:3079  require(newOwner != address(0), \"Ownable: new owner is the zero address\") */\n      0x04\n      dup3\n      add\n        /* \"#utility.yul\":17635:17656   */\n      mstore\n        /* \"#utility.yul\":17692:17694   */\n      0x26\n        /* \"#utility.yul\":17672:17690   */\n      0x24\n      dup3\n      add\n        /* \"#utility.yul\":17665:17695   */\n      mstore\n        /* \"#utility.yul\":17731:17765   */\n      0x4f776e61626c653a206e6577206f776e657220697320746865207a65726f2061\n        /* \"#utility.yul\":17711:17729   */\n      0x44\n      dup3\n      add\n        /* \"#utility.yul\":17704:17766   */\n      mstore\n        /* \"#utility.yul\":17802:17810   */\n      0x6464726573730000000000000000000000000000000000000000000000000000\n        /* \"#utility.yul\":17782:17800   */\n      0x64\n      dup3\n      add\n        /* \"#utility.yul\":17775:17811   */\n      mstore\n        /* \"#utility.yul\":17828:17847   */\n      0x84\n      add\n        /* \"source/Marketplace.sol\":3006:3079  require(newOwner != address(0), \"Ownable: new owner is the zero address\") */\n      tag_216\n        /* \"#utility.yul\":17451:17853   */\n      jump\n        /* \"source/Marketplace.sol\":3006:3079  require(newOwner != address(0), \"Ownable: new owner is the zero address\") */\n    tag_496:\n        /* \"source/Marketplace.sol\":3090:3118  _transferOwnership(newOwner) */\n      tag_499\n        /* \"source/Marketplace.sol\":3109:3117  newOwner */\n      dup2\n        /* \"source/Marketplace.sol\":3090:3108  _transferOwnership */\n      tag_346\n        /* \"source/Marketplace.sol\":3090:3118  _transferOwnership(newOwner) */\n      jump\t// in\n    tag_499:\n        /* \"source/Marketplace.sol\":2925:3126  function transferOwnership(address newOwner) public virtual onlyOwner {... */\n      pop\n      jump\t// out\n        /* \"source/Marketplace.sol\":57513:57774  function withdrawERC20(address erc20) public onlyOwner {... */\n    tag_185:\n        /* \"source/Marketplace.sol\":1905:1918  _checkOwner() */\n      tag_501\n        /* \"source/Marketplace.sol\":1905:1916  _checkOwner */\n      tag_188\n        /* \"source/Marketplace.sol\":1905:1918  _checkOwner() */\n      jump\t// in\n    tag_501:\n        /* \"source/Marketplace.sol\":57636:57666  token.balanceOf(address(this)) */\n      mload(0x40)\n      0x70a0823100000000000000000000000000000000000000000000000000000000\n      dup2\n      mstore\n        /* \"source/Marketplace.sol\":57660:57664  this */\n      address\n        /* \"source/Marketplace.sol\":57636:57666  token.balanceOf(address(this)) */\n      0x04\n      dup3\n      add\n        /* \"#utility.yul\":7298:7372   */\n      mstore\n        /* \"source/Marketplace.sol\":57601:57606  erc20 */\n      dup2\n      swap1\n        /* \"source/Marketplace.sol\":57579:57591  IERC20 token */\n      0x00\n      swap1\n        /* \"source/Marketplace.sol\":57636:57651  token.balanceOf */\n      0xffffffffffffffffffffffffffffffffffffffff\n      dup4\n      and\n      swap1\n      0x70a08231\n      swap1\n        /* \"#utility.yul\":7271:7289   */\n      0x24\n      add\n        /* \"source/Marketplace.sol\":57636:57666  token.balanceOf(address(this)) */\n      0x20\n      mload(0x40)\n      dup1\n      dup4\n      sub\n      dup2\n      dup7\n      gas\n      staticcall\n      iszero\n      dup1\n      iszero\n      tag_505\n      jumpi\n      returndatasize\n      0x00\n      dup1\n      returndatacopy\n      revert(0x00, returndatasize)\n    tag_505:\n      pop\n      pop\n      pop\n      pop\n      mload(0x40)\n      returndatasize\n      not(0x1f)\n      0x1f\n      dup3\n      add\n      and\n      dup3\n      add\n      dup1\n      0x40\n      mstore\n      pop\n      dup2\n      add\n      swap1\n      tag_506\n      swap2\n      swap1\n      tag_230\n      jump\t// in\n    tag_506:\n        /* \"source/Marketplace.sol\":57618:57666  uint256 balance = token.balanceOf(address(this)) */\n      swap1\n      pop\n        /* \"source/Marketplace.sol\":57677:57682  token */\n      dup2\n        /* \"source/Marketplace.sol\":57677:57691  token.transfer */\n      0xffffffffffffffffffffffffffffffffffffffff\n      and\n      0xa9059cbb\n        /* \"source/Marketplace.sol\":57692:57699  owner() */\n      tag_507\n        /* \"source/Marketplace.sol\":2065:2072  address */\n      0x00\n        /* \"source/Marketplace.sol\":2092:2098  _owner */\n      sload\n      0xffffffffffffffffffffffffffffffffffffffff\n      and\n      swap1\n        /* \"source/Marketplace.sol\":2019:2106  function owner() public view virtual returns (address) {... */\n      jump\n        /* \"source/Marketplace.sol\":57692:57699  owner() */\n    tag_507:\n        /* \"source/Marketplace.sol\":57677:57709  token.transfer(owner(), balance) */\n      mload(0x40)\n      0xffffffff00000000000000000000000000000000000000000000000000000000\n      0xe0\n      dup5\n      swap1\n      shl\n      and\n      dup2\n      mstore\n        /* \"#utility.yul\":12556:12598   */\n      0xffffffffffffffffffffffffffffffffffffffff\n        /* \"#utility.yul\":12544:12599   */\n      swap1\n      swap2\n      and\n        /* \"source/Marketplace.sol\":57677:57709  token.transfer(owner(), balance) */\n      0x04\n      dup3\n      add\n        /* \"#utility.yul\":12526:12600   */\n      mstore\n        /* \"#utility.yul\":12616:12634   */\n      0x24\n      dup2\n      add\n        /* \"#utility.yul\":12609:12643   */\n      dup5\n      swap1\n      mstore\n        /* \"#utility.yul\":12499:12517   */\n      0x44\n      add\n        /* \"source/Marketplace.sol\":57677:57709  token.transfer(owner(), balance) */\n      0x20\n      mload(0x40)\n      dup1\n      dup4\n      sub\n      dup2\n      0x00\n      dup8\n      gas\n      call\n      iszero\n      dup1\n      iszero\n      tag_510\n      jumpi\n      returndatasize\n      0x00\n      dup1\n      returndatacopy\n      revert(0x00, returndatasize)\n    tag_510:\n      pop\n      pop\n      pop\n      pop\n      mload(0x40)\n      returndatasize\n      not(0x1f)\n      0x1f\n      dup3\n      add\n      and\n      dup3\n      add\n      dup1\n      0x40\n      mstore\n      pop\n      dup2\n      add\n      swap1\n      tag_511\n      swap2\n      swap1\n      tag_512\n      jump\t// in\n    tag_511:\n      pop\n        /* \"source/Marketplace.sol\":57725:57766  WithdrawERC20(msg.sender, erc20, balance) */\n      0x40\n      dup1\n      mload\n        /* \"source/Marketplace.sol\":57739:57749  msg.sender */\n      caller\n        /* \"#utility.yul\":11575:11609   */\n      dup2\n      mstore\n        /* \"#utility.yul\":11524:11566   */\n      0xffffffffffffffffffffffffffffffffffffffff\n        /* \"#utility.yul\":11645:11660   */\n      dup6\n      and\n        /* \"#utility.yul\":11640:11642   */\n      0x20\n        /* \"#utility.yul\":11625:11643   */\n      dup3\n      add\n        /* \"#utility.yul\":11618:11661   */\n      mstore\n        /* \"#utility.yul\":11677:11695   */\n      swap1\n      dup2\n      add\n        /* \"#utility.yul\":11670:11704   */\n      dup3\n      swap1\n      mstore\n        /* \"source/Marketplace.sol\":57725:57766  WithdrawERC20(msg.sender, erc20, balance) */\n      0x33c35f9541201e342d5e7467016e65a0a06182eb12a5f17103f71cec95b6cb29\n      swap1\n        /* \"#utility.yul\":11502:11504   */\n      0x60\n        /* \"#utility.yul\":11487:11505   */\n      add\n        /* \"source/Marketplace.sol\":57725:57766  WithdrawERC20(msg.sender, erc20, balance) */\n      tag_483\n        /* \"#utility.yul\":11312:11710   */\n      jump\n        /* \"source/Marketplace.sol\":2184:2316  function _checkOwner() internal view virtual {... */\n    tag_188:\n        /* \"source/Marketplace.sol\":2065:2072  address */\n      0x00\n        /* \"source/Marketplace.sol\":2092:2098  _owner */\n      sload\n        /* \"source/Marketplace.sol\":2248:2271  owner() == _msgSender() */\n      0xffffffffffffffffffffffffffffffffffffffff\n        /* \"source/Marketplace.sol\":2092:2098  _owner */\n      and\n        /* \"source/Marketplace.sol\":736:746  msg.sender */\n      caller\n        /* \"source/Marketplace.sol\":2248:2271  owner() == _msgSender() */\n      eq\n        /* \"source/Marketplace.sol\":2240:2308  require(owner() == _msgSender(), \"Ownable: caller is not the owner\") */\n      tag_345\n      jumpi\n      mload(0x40)\n      0x08c379a000000000000000000000000000000000000000000000000000000000\n      dup2\n      mstore\n        /* \"#utility.yul\":18342:18344   */\n      0x20\n        /* \"source/Marketplace.sol\":2240:2308  require(owner() == _msgSender(), \"Ownable: caller is not the owner\") */\n      0x04\n      dup3\n      add\n        /* \"#utility.yul\":18324:18345   */\n      dup2\n      swap1\n      mstore\n        /* \"#utility.yul\":18361:18379   */\n      0x24\n      dup3\n      add\n        /* \"#utility.yul\":18354:18384   */\n      mstore\n        /* \"#utility.yul\":18420:18454   */\n      0x4f776e61626c653a2063616c6c6572206973206e6f7420746865206f776e6572\n        /* \"#utility.yul\":18400:18418   */\n      0x44\n      dup3\n      add\n        /* \"#utility.yul\":18393:18455   */\n      mstore\n        /* \"#utility.yul\":18472:18490   */\n      0x64\n      add\n        /* \"source/Marketplace.sol\":2240:2308  require(owner() == _msgSender(), \"Ownable: caller is not the owner\") */\n      tag_216\n        /* \"#utility.yul\":18140:18496   */\n      jump\n        /* \"source/Marketplace.sol\":35741:35839  function div(uint256 a, uint256 b) internal pure returns (uint256) {... */\n    tag_244:\n        /* \"source/Marketplace.sol\":35799:35806  uint256 */\n      0x00\n        /* \"source/Marketplace.sol\":35826:35831  a / b */\n      tag_264\n        /* \"source/Marketplace.sol\":35830:35831  b */\n      dup3\n        /* \"source/Marketplace.sol\":35826:35827  a */\n      dup5\n        /* \"source/Marketplace.sol\":35826:35831  a / b */\n      tag_523\n      jump\t// in\n        /* \"source/Marketplace.sol\":35342:35440  function mul(uint256 a, uint256 b) internal pure returns (uint256) {... */\n    tag_245:\n        /* \"source/Marketplace.sol\":35400:35407  uint256 */\n      0x00\n        /* \"source/Marketplace.sol\":35427:35432  a * b */\n      tag_264\n        /* \"source/Marketplace.sol\":35431:35432  b */\n      dup3\n        /* \"source/Marketplace.sol\":35427:35428  a */\n      dup5\n        /* \"source/Marketplace.sol\":35427:35432  a * b */\n      tag_526\n      jump\t// in\n        /* \"source/Marketplace.sol\":34985:35083  function sub(uint256 a, uint256 b) internal pure returns (uint256) {... */\n    tag_249:\n        /* \"source/Marketplace.sol\":35043:35050  uint256 */\n      0x00\n        /* \"source/Marketplace.sol\":35070:35075  a - b */\n      tag_264\n        /* \"source/Marketplace.sol\":35074:35075  b */\n      dup3\n        /* \"source/Marketplace.sol\":35070:35071  a */\n      dup5\n        /* \"source/Marketplace.sol\":35070:35075  a - b */\n      tag_529\n      jump\t// in\n        /* \"source/Marketplace.sol\":6528:6733  function safeTransferFrom(IERC20 token, address from, address to, uint256 value) internal {... */\n    tag_251:\n        /* \"source/Marketplace.sol\":6656:6724  abi.encodeWithSelector(token.transferFrom.selector, from, to, value) */\n      0x40\n      dup1\n      mload\n        /* \"#utility.yul\":11524:11566   */\n      0xffffffffffffffffffffffffffffffffffffffff\n        /* \"#utility.yul\":11593:11608   */\n      dup6\n      dup2\n      and\n        /* \"source/Marketplace.sol\":6656:6724  abi.encodeWithSelector(token.transferFrom.selector, from, to, value) */\n      0x24\n      dup4\n      add\n        /* \"#utility.yul\":11575:11609   */\n      mstore\n        /* \"#utility.yul\":11645:11660   */\n      dup5\n      and\n        /* \"#utility.yul\":11625:11643   */\n      0x44\n      dup3\n      add\n        /* \"#utility.yul\":11618:11661   */\n      mstore\n        /* \"#utility.yul\":11677:11695   */\n      0x64\n      dup1\n      dup3\n      add\n        /* \"#utility.yul\":11670:11704   */\n      dup5\n      swap1\n      mstore\n        /* \"source/Marketplace.sol\":6656:6724  abi.encodeWithSelector(token.transferFrom.selector, from, to, value) */\n      dup3\n      mload\n      dup1\n      dup4\n      sub\n      swap1\n      swap2\n      add\n      dup2\n      mstore\n        /* \"#utility.yul\":11487:11505   */\n      0x84\n      swap1\n      swap2\n      add\n        /* \"source/Marketplace.sol\":6656:6724  abi.encodeWithSelector(token.transferFrom.selector, from, to, value) */\n      swap1\n      swap2\n      mstore\n      0x20\n      dup2\n      add\n      dup1\n      mload\n      0xffffffffffffffffffffffffffffffffffffffffffffffffffffffff\n      and\n        /* \"source/Marketplace.sol\":6679:6706  token.transferFrom.selector */\n      0x23b872dd00000000000000000000000000000000000000000000000000000000\n        /* \"source/Marketplace.sol\":6656:6724  abi.encodeWithSelector(token.transferFrom.selector, from, to, value) */\n      or\n      swap1\n      mstore\n        /* \"source/Marketplace.sol\":6629:6725  _callOptionalReturn(token, abi.encodeWithSelector(token.transferFrom.selector, from, to, value)) */\n      tag_531\n      swap1\n        /* \"source/Marketplace.sol\":6649:6654  token */\n      dup6\n      swap1\n        /* \"source/Marketplace.sol\":6629:6648  _callOptionalReturn */\n      tag_533\n        /* \"source/Marketplace.sol\":6629:6725  _callOptionalReturn(token, abi.encodeWithSelector(token.transferFrom.selector, from, to, value)) */\n      jump\t// in\n    tag_531:\n        /* \"source/Marketplace.sol\":6528:6733  function safeTransferFrom(IERC20 token, address from, address to, uint256 value) internal {... */\n      pop\n      pop\n      pop\n      pop\n      jump\t// out\n        /* \"source/Marketplace.sol\":54286:55463  function _marketTokensDel(address collection, uint256 tokenId) internal {... */\n    tag_260:\n        /* \"source/Marketplace.sol\":54388:54401  _marketTokens */\n      0x05\n        /* \"source/Marketplace.sol\":54402:54422  _marketTokens.length */\n      dup1\n      sload\n        /* \"source/Marketplace.sol\":54388:54452  _marketTokens[_marketTokens.length - 1].collection == collection */\n      0xffffffffffffffffffffffffffffffffffffffff\n      dup5\n      and\n      swap2\n        /* \"source/Marketplace.sol\":54388:54401  _marketTokens */\n      swap1\n        /* \"source/Marketplace.sol\":54402:54426  _marketTokens.length - 1 */\n      tag_535\n      swap1\n        /* \"source/Marketplace.sol\":54425:54426  1 */\n      0x01\n      swap1\n        /* \"source/Marketplace.sol\":54402:54426  _marketTokens.length - 1 */\n      tag_529\n      jump\t// in\n    tag_535:\n        /* \"source/Marketplace.sol\":54388:54427  _marketTokens[_marketTokens.length - 1] */\n      dup2\n      sload\n      dup2\n      lt\n      tag_537\n      jumpi\n      tag_537\n      tag_198\n      jump\t// in\n    tag_537:\n      0x00\n      swap2\n      dup3\n      mstore\n      0x20\n      swap1\n      swap2\n      keccak256\n      0x06\n      swap1\n      swap2\n      mul\n      add\n        /* \"source/Marketplace.sol\":54388:54438  _marketTokens[_marketTokens.length - 1].collection */\n      sload\n      0xffffffffffffffffffffffffffffffffffffffff\n      and\n        /* \"source/Marketplace.sol\":54388:54452  _marketTokens[_marketTokens.length - 1].collection == collection */\n      eq\n        /* \"source/Marketplace.sol\":54387:54543  (_marketTokens[_marketTokens.length - 1].collection == collection)... */\n      dup1\n      iszero\n      tag_539\n      jumpi\n      pop\n        /* \"source/Marketplace.sol\":54484:54497  _marketTokens */\n      0x05\n        /* \"source/Marketplace.sol\":54498:54518  _marketTokens.length */\n      dup1\n      sload\n        /* \"source/Marketplace.sol\":54535:54542  tokenId */\n      dup3\n      swap2\n        /* \"source/Marketplace.sol\":54484:54497  _marketTokens */\n      swap1\n        /* \"source/Marketplace.sol\":54498:54522  _marketTokens.length - 1 */\n      tag_540\n      swap1\n        /* \"source/Marketplace.sol\":54521:54522  1 */\n      0x01\n      swap1\n        /* \"source/Marketplace.sol\":54498:54522  _marketTokens.length - 1 */\n      tag_529\n      jump\t// in\n    tag_540:\n        /* \"source/Marketplace.sol\":54484:54523  _marketTokens[_marketTokens.length - 1] */\n      dup2\n      sload\n      dup2\n      lt\n      tag_542\n      jumpi\n      tag_542\n      tag_198\n      jump\t// in\n    tag_542:\n      swap1\n      0x00\n      mstore\n      keccak256(0x00, 0x20)\n      swap1\n      0x06\n      mul\n      add\n        /* \"source/Marketplace.sol\":54484:54531  _marketTokens[_marketTokens.length - 1].tokenId */\n      0x01\n      add\n      sload\n        /* \"source/Marketplace.sol\":54484:54542  _marketTokens[_marketTokens.length - 1].tokenId == tokenId */\n      eq\n        /* \"source/Marketplace.sol\":54387:54543  (_marketTokens[_marketTokens.length - 1].collection == collection)... */\n    tag_539:\n        /* \"source/Marketplace.sol\":54369:54837  if (... */\n      iszero\n      tag_544\n      jumpi\n        /* \"source/Marketplace.sol\":54587:54600  _marketTokens */\n      0x05\n        /* \"source/Marketplace.sol\":54601:54621  _marketTokens.length */\n      dup1\n      sload\n        /* \"source/Marketplace.sol\":54570:54586  _userTokensCount */\n      0x07\n      swap2\n        /* \"source/Marketplace.sol\":54570:54633  _userTokensCount[_marketTokens[_marketTokens.length -1].seller] */\n      0x00\n      swap2\n        /* \"source/Marketplace.sol\":54601:54624  _marketTokens.length -1 */\n      tag_545\n      swap1\n        /* \"source/Marketplace.sol\":54623:54624  1 */\n      0x01\n      swap1\n        /* \"source/Marketplace.sol\":54601:54624  _marketTokens.length -1 */\n      tag_529\n      jump\t// in\n    tag_545:\n        /* \"source/Marketplace.sol\":54587:54625  _marketTokens[_marketTokens.length -1] */\n      dup2\n      sload\n      dup2\n      lt\n      tag_547\n      jumpi\n      tag_547\n      tag_198\n      jump\t// in\n    tag_547:\n      0x00\n      swap2\n      dup3\n      mstore\n      0x20\n      dup1\n      dup4\n      keccak256\n        /* \"source/Marketplace.sol\":54587:54632  _marketTokens[_marketTokens.length -1].seller */\n      0x02\n        /* \"source/Marketplace.sol\":54587:54625  _marketTokens[_marketTokens.length -1] */\n      0x06\n      swap1\n      swap4\n      mul\n      add\n        /* \"source/Marketplace.sol\":54587:54632  _marketTokens[_marketTokens.length -1].seller */\n      swap2\n      swap1\n      swap2\n      add\n      sload\n      0xffffffffffffffffffffffffffffffffffffffff\n      and\n        /* \"source/Marketplace.sol\":54570:54633  _userTokensCount[_marketTokens[_marketTokens.length -1].seller] */\n      dup4\n      mstore\n      dup3\n      add\n      swap3\n      swap1\n      swap3\n      mstore\n      0x40\n      add\n      dup2\n      keccak256\n        /* \"source/Marketplace.sol\":54570:54635  _userTokensCount[_marketTokens[_marketTokens.length -1].seller]-- */\n      dup1\n      sload\n      swap2\n      tag_549\n      dup4\n      tag_550\n      jump\t// in\n    tag_549:\n      swap1\n      swap2\n      sstore\n      pop\n      pop\n        /* \"source/Marketplace.sol\":54680:54693  _marketTokens */\n      0x05\n        /* \"source/Marketplace.sol\":54694:54714  _marketTokens.length */\n      dup1\n      sload\n        /* \"source/Marketplace.sol\":54650:54679  _userTokensCountByCollections */\n      0x08\n      swap2\n        /* \"source/Marketplace.sol\":54650:54726  _userTokensCountByCollections[_marketTokens[_marketTokens.length -1].seller] */\n      0x00\n      swap2\n        /* \"source/Marketplace.sol\":54694:54717  _marketTokens.length -1 */\n      tag_551\n      swap1\n        /* \"source/Marketplace.sol\":54716:54717  1 */\n      0x01\n      swap1\n        /* \"source/Marketplace.sol\":54694:54717  _marketTokens.length -1 */\n      tag_529\n      jump\t// in\n    tag_551:\n        /* \"source/Marketplace.sol\":54680:54718  _marketTokens[_marketTokens.length -1] */\n      dup2\n      sload\n      dup2\n      lt\n      tag_553\n      jumpi\n      tag_553\n      tag_198\n      jump\t// in\n    tag_553:\n      0x00\n      swap2\n      dup3\n      mstore\n      0x20\n      dup1\n      dup4\n      keccak256\n        /* \"source/Marketplace.sol\":54680:54725  _marketTokens[_marketTokens.length -1].seller */\n      0x02\n        /* \"source/Marketplace.sol\":54680:54718  _marketTokens[_marketTokens.length -1] */\n      0x06\n      swap1\n      swap4\n      mul\n      add\n        /* \"source/Marketplace.sol\":54680:54725  _marketTokens[_marketTokens.length -1].seller */\n      swap2\n      swap1\n      swap2\n      add\n      sload\n      0xffffffffffffffffffffffffffffffffffffffff\n      swap1\n      dup2\n      and\n        /* \"source/Marketplace.sol\":54650:54726  _userTokensCountByCollections[_marketTokens[_marketTokens.length -1].seller] */\n      dup5\n      mstore\n      dup4\n      dup3\n      add\n      swap5\n      swap1\n      swap5\n      mstore\n      0x40\n      swap3\n      dup4\n      add\n      dup3\n      keccak256\n        /* \"source/Marketplace.sol\":54650:54738  _userTokensCountByCollections[_marketTokens[_marketTokens.length -1].seller][collection] */\n      swap4\n      dup7\n      and\n      dup3\n      mstore\n      swap3\n      swap1\n      swap3\n      mstore\n      dup2\n      keccak256\n        /* \"source/Marketplace.sol\":54650:54740  _userTokensCountByCollections[_marketTokens[_marketTokens.length -1].seller][collection]-- */\n      dup1\n      sload\n      swap2\n      tag_555\n      dup4\n      tag_550\n      jump\t// in\n    tag_555:\n      swap1\n      swap2\n      sstore\n      pop\n      pop\n        /* \"source/Marketplace.sol\":54755:54789  _collectionTokensCount[collection] */\n      0xffffffffffffffffffffffffffffffffffffffff\n      dup3\n      and\n      0x00\n      swap1\n      dup2\n      mstore\n        /* \"source/Marketplace.sol\":54755:54777  _collectionTokensCount */\n      0x06\n        /* \"source/Marketplace.sol\":54755:54789  _collectionTokensCount[collection] */\n      0x20\n      mstore\n      0x40\n      dup2\n      keccak256\n        /* \"source/Marketplace.sol\":54755:54791  _collectionTokensCount[collection]-- */\n      dup1\n      sload\n      swap2\n      tag_556\n      dup4\n      tag_550\n      jump\t// in\n    tag_556:\n      swap2\n      swap1\n      pop\n      sstore\n      pop\n        /* \"source/Marketplace.sol\":54806:54819  _marketTokens */\n      0x05\n        /* \"source/Marketplace.sol\":54806:54825  _marketTokens.pop() */\n      dup1\n      sload\n      dup1\n      tag_558\n      jumpi\n      tag_558\n      tag_559\n      jump\t// in\n    tag_558:\n      0x00\n      dup3\n      dup2\n      mstore\n      0x20\n      dup2\n      keccak256\n      0x06\n      0xffffffffffffffffffffffffffffffffffffffffffffffffffffffffffffffff\n      swap1\n      swap4\n      add\n      swap3\n      dup4\n      mul\n      add\n      dup1\n      sload\n      0xffffffffffffffffffffffff0000000000000000000000000000000000000000\n      swap1\n      dup2\n      and\n      dup3\n      sstore\n      0x01\n      dup3\n      add\n      dup4\n      swap1\n      sstore\n      0x02\n      dup3\n      add\n      dup1\n      sload\n      dup3\n      and\n      swap1\n      sstore\n      0x03\n      dup3\n      add\n      dup4\n      swap1\n      sstore\n      0x04\n      dup3\n      add\n      dup1\n      sload\n      swap1\n      swap2\n      and\n      swap1\n      sstore\n      0x05\n      add\n      sstore\n      swap1\n      sstore\n        /* \"source/Marketplace.sol\":54369:54837  if (... */\n    tag_544:\n        /* \"source/Marketplace.sol\":54851:54860  uint256 i */\n      0x00\n        /* \"source/Marketplace.sol\":54847:55456  for(uint256 i = 0; i < _marketTokens.length; i++) {... */\n    tag_561:\n        /* \"source/Marketplace.sol\":54870:54883  _marketTokens */\n      0x05\n        /* \"source/Marketplace.sol\":54870:54890  _marketTokens.length */\n      sload\n        /* \"source/Marketplace.sol\":54866:54890  i < _marketTokens.length */\n      dup2\n      lt\n        /* \"source/Marketplace.sol\":54847:55456  for(uint256 i = 0; i < _marketTokens.length; i++) {... */\n      iszero\n      tag_562\n      jumpi\n        /* \"source/Marketplace.sol\":54966:54976  collection */\n      dup3\n        /* \"source/Marketplace.sol\":54935:54976  _marketTokens[i].collection == collection */\n      0xffffffffffffffffffffffffffffffffffffffff\n      and\n        /* \"source/Marketplace.sol\":54935:54948  _marketTokens */\n      0x05\n        /* \"source/Marketplace.sol\":54949:54950  i */\n      dup3\n        /* \"source/Marketplace.sol\":54935:54951  _marketTokens[i] */\n      dup2\n      sload\n      dup2\n      lt\n      tag_565\n      jumpi\n      tag_565\n      tag_198\n      jump\t// in\n    tag_565:\n      0x00\n      swap2\n      dup3\n      mstore\n      0x20\n      swap1\n      swap2\n      keccak256\n      0x06\n      swap1\n      swap2\n      mul\n      add\n        /* \"source/Marketplace.sol\":54935:54962  _marketTokens[i].collection */\n      sload\n      0xffffffffffffffffffffffffffffffffffffffff\n      and\n        /* \"source/Marketplace.sol\":54935:54976  _marketTokens[i].collection == collection */\n      eq\n        /* \"source/Marketplace.sol\":54934:55052  (_marketTokens[i].collection == collection)... */\n      dup1\n      iszero\n      tag_567\n      jumpi\n      pop\n        /* \"source/Marketplace.sol\":55044:55051  tokenId */\n      dup2\n        /* \"source/Marketplace.sol\":55016:55029  _marketTokens */\n      0x05\n        /* \"source/Marketplace.sol\":55030:55031  i */\n      dup3\n        /* \"source/Marketplace.sol\":55016:55032  _marketTokens[i] */\n      dup2\n      sload\n      dup2\n      lt\n      tag_569\n      jumpi\n      tag_569\n      tag_198\n      jump\t// in\n    tag_569:\n      swap1\n      0x00\n      mstore\n      keccak256(0x00, 0x20)\n      swap1\n      0x06\n      mul\n      add\n        /* \"source/Marketplace.sol\":55016:55040  _marketTokens[i].tokenId */\n      0x01\n      add\n      sload\n        /* \"source/Marketplace.sol\":55016:55051  _marketTokens[i].tokenId == tokenId */\n      eq\n        /* \"source/Marketplace.sol\":54934:55052  (_marketTokens[i].collection == collection)... */\n    tag_567:\n        /* \"source/Marketplace.sol\":54912:55445  if (... */\n      iszero\n      tag_571\n      jumpi\n        /* \"source/Marketplace.sol\":55087:55103  _userTokensCount */\n      0x07\n        /* \"source/Marketplace.sol\":55087:55128  _userTokensCount[_marketTokens[i].seller] */\n      0x00\n        /* \"source/Marketplace.sol\":55104:55117  _marketTokens */\n      0x05\n        /* \"source/Marketplace.sol\":55118:55119  i */\n      dup4\n        /* \"source/Marketplace.sol\":55104:55120  _marketTokens[i] */\n      dup2\n      sload\n      dup2\n      lt\n      tag_573\n      jumpi\n      tag_573\n      tag_198\n      jump\t// in\n    tag_573:\n      0x00\n      swap2\n      dup3\n      mstore\n      0x20\n      dup1\n      dup4\n      keccak256\n        /* \"source/Marketplace.sol\":55104:55127  _marketTokens[i].seller */\n      0x02\n        /* \"source/Marketplace.sol\":55104:55120  _marketTokens[i] */\n      0x06\n      swap1\n      swap4\n      mul\n      add\n        /* \"source/Marketplace.sol\":55104:55127  _marketTokens[i].seller */\n      swap2\n      swap1\n      swap2\n      add\n      sload\n      0xffffffffffffffffffffffffffffffffffffffff\n      and\n        /* \"source/Marketplace.sol\":55087:55128  _userTokensCount[_marketTokens[i].seller] */\n      dup4\n      mstore\n      dup3\n      add\n      swap3\n      swap1\n      swap3\n      mstore\n      0x40\n      add\n      dup2\n      keccak256\n        /* \"source/Marketplace.sol\":55087:55130  _userTokensCount[_marketTokens[i].seller]-- */\n      dup1\n      sload\n      swap2\n      tag_575\n      dup4\n      tag_550\n      jump\t// in\n    tag_575:\n      swap2\n      swap1\n      pop\n      sstore\n      pop\n        /* \"source/Marketplace.sol\":55149:55178  _userTokensCountByCollections */\n      0x08\n        /* \"source/Marketplace.sol\":55149:55203  _userTokensCountByCollections[_marketTokens[i].seller] */\n      0x00\n        /* \"source/Marketplace.sol\":55179:55192  _marketTokens */\n      0x05\n        /* \"source/Marketplace.sol\":55193:55194  i */\n      dup4\n        /* \"source/Marketplace.sol\":55179:55195  _marketTokens[i] */\n      dup2\n      sload\n      dup2\n      lt\n      tag_577\n      jumpi\n      tag_577\n      tag_198\n      jump\t// in\n    tag_577:\n      0x00\n      swap2\n      dup3\n      mstore\n      0x20\n      dup1\n      dup4\n      keccak256\n        /* \"source/Marketplace.sol\":55179:55202  _marketTokens[i].seller */\n      0x02\n        /* \"source/Marketplace.sol\":55179:55195  _marketTokens[i] */\n      0x06\n      swap1\n      swap4\n      mul\n      add\n        /* \"source/Marketplace.sol\":55179:55202  _marketTokens[i].seller */\n      swap2\n      swap1\n      swap2\n      add\n      sload\n      0xffffffffffffffffffffffffffffffffffffffff\n      swap1\n      dup2\n      and\n        /* \"source/Marketplace.sol\":55149:55203  _userTokensCountByCollections[_marketTokens[i].seller] */\n      dup5\n      mstore\n      dup4\n      dup3\n      add\n      swap5\n      swap1\n      swap5\n      mstore\n      0x40\n      swap3\n      dup4\n      add\n      dup3\n      keccak256\n        /* \"source/Marketplace.sol\":55149:55215  _userTokensCountByCollections[_marketTokens[i].seller][collection] */\n      swap4\n      dup8\n      and\n      dup3\n      mstore\n      swap3\n      swap1\n      swap3\n      mstore\n      dup2\n      keccak256\n        /* \"source/Marketplace.sol\":55149:55217  _userTokensCountByCollections[_marketTokens[i].seller][collection]-- */\n      dup1\n      sload\n      swap2\n      tag_579\n      dup4\n      tag_550\n      jump\t// in\n    tag_579:\n      swap1\n      swap2\n      sstore\n      pop\n      pop\n        /* \"source/Marketplace.sol\":55236:55270  _collectionTokensCount[collection] */\n      0xffffffffffffffffffffffffffffffffffffffff\n      dup4\n      and\n      0x00\n      swap1\n      dup2\n      mstore\n        /* \"source/Marketplace.sol\":55236:55258  _collectionTokensCount */\n      0x06\n        /* \"source/Marketplace.sol\":55236:55270  _collectionTokensCount[collection] */\n      0x20\n      mstore\n      0x40\n      dup2\n      keccak256\n        /* \"source/Marketplace.sol\":55236:55272  _collectionTokensCount[collection]-- */\n      dup1\n      sload\n      swap2\n      tag_580\n      dup4\n      tag_550\n      jump\t// in\n    tag_580:\n      swap1\n      swap2\n      sstore\n      pop\n      pop\n        /* \"source/Marketplace.sol\":55310:55323  _marketTokens */\n      0x05\n        /* \"source/Marketplace.sol\":55324:55344  _marketTokens.length */\n      dup1\n      sload\n        /* \"source/Marketplace.sol\":55324:55347  _marketTokens.length -1 */\n      tag_581\n      swap1\n        /* \"source/Marketplace.sol\":55346:55347  1 */\n      0x01\n      swap1\n        /* \"source/Marketplace.sol\":55324:55347  _marketTokens.length -1 */\n      tag_529\n      jump\t// in\n    tag_581:\n        /* \"source/Marketplace.sol\":55310:55348  _marketTokens[_marketTokens.length -1] */\n      dup2\n      sload\n      dup2\n      lt\n      tag_583\n      jumpi\n      tag_583\n      tag_198\n      jump\t// in\n    tag_583:\n      swap1\n      0x00\n      mstore\n      keccak256(0x00, 0x20)\n      swap1\n      0x06\n      mul\n      add\n        /* \"source/Marketplace.sol\":55291:55304  _marketTokens */\n      0x05\n        /* \"source/Marketplace.sol\":55305:55306  i */\n      dup3\n        /* \"source/Marketplace.sol\":55291:55307  _marketTokens[i] */\n      dup2\n      sload\n      dup2\n      lt\n      tag_586\n      jumpi\n      tag_586\n      tag_198\n      jump\t// in\n    tag_586:\n      0x00\n      swap2\n      dup3\n      mstore\n      0x20\n      swap1\n      swap2\n      keccak256\n        /* \"source/Marketplace.sol\":55291:55348  _marketTokens[i] = _marketTokens[_marketTokens.length -1] */\n      dup3\n      sload\n        /* \"source/Marketplace.sol\":55291:55307  _marketTokens[i] */\n      0x06\n      swap1\n      swap3\n      mul\n      add\n        /* \"source/Marketplace.sol\":55291:55348  _marketTokens[i] = _marketTokens[_marketTokens.length -1] */\n      dup1\n      sload\n      0xffffffffffffffffffffffffffffffffffffffff\n      swap3\n      dup4\n      and\n      0xffffffffffffffffffffffff0000000000000000000000000000000000000000\n      swap2\n      dup3\n      and\n      or\n      dup3\n      sstore\n      0x01\n      dup1\n      dup6\n      add\n      sload\n      swap1\n      dup4\n      add\n      sstore\n      0x02\n      dup1\n      dup6\n      add\n      sload\n      swap1\n      dup4\n      add\n      dup1\n      sload\n      swap2\n      dup6\n      and\n      swap2\n      dup4\n      and\n      swap2\n      swap1\n      swap2\n      or\n      swap1\n      sstore\n      0x03\n      dup1\n      dup6\n      add\n      sload\n      swap1\n      dup4\n      add\n      sstore\n      0x04\n      dup1\n      dup6\n      add\n      sload\n      swap1\n      dup4\n      add\n      dup1\n      sload\n      swap2\n      swap1\n      swap5\n      and\n      swap2\n      and\n      or\n      swap1\n      swap2\n      sstore\n      0x05\n      swap2\n      dup3\n      add\n      sload\n      swap1\n      dup3\n      add\n      sstore\n        /* \"source/Marketplace.sol\":55367:55386  _marketTokens.pop() */\n      dup1\n      sload\n      dup1\n      tag_589\n      jumpi\n      tag_589\n      tag_559\n      jump\t// in\n    tag_589:\n      0x00\n      dup3\n      dup2\n      mstore\n      0x20\n      dup2\n      keccak256\n      0x06\n      0xffffffffffffffffffffffffffffffffffffffffffffffffffffffffffffffff\n      swap1\n      swap4\n      add\n      swap3\n      dup4\n      mul\n      add\n      dup1\n      sload\n      0xffffffffffffffffffffffff0000000000000000000000000000000000000000\n      swap1\n      dup2\n      and\n      dup3\n      sstore\n      0x01\n      dup3\n      add\n      dup4\n      swap1\n      sstore\n      0x02\n      dup3\n      add\n      dup1\n      sload\n      dup3\n      and\n      swap1\n      sstore\n      0x03\n      dup3\n      add\n      dup4\n      swap1\n      sstore\n      0x04\n      dup3\n      add\n      dup1\n      sload\n      swap1\n      swap2\n      and\n      swap1\n      sstore\n      0x05\n      add\n      sstore\n      swap1\n      sstore\n      pop\n      pop\n      pop\n        /* \"source/Marketplace.sol\":54286:55463  function _marketTokensDel(address collection, uint256 tokenId) internal {... */\n      jump\t// out\n        /* \"source/Marketplace.sol\":54912:55445  if (... */\n    tag_571:\n        /* \"source/Marketplace.sol\":54892:54895  i++ */\n      dup1\n      tag_591\n      dup2\n      tag_201\n      jump\t// in\n    tag_591:\n      swap2\n      pop\n      pop\n        /* \"source/Marketplace.sol\":54847:55456  for(uint256 i = 0; i < _marketTokens.length; i++) {... */\n      jump(tag_561)\n    tag_562:\n      pop\n        /* \"source/Marketplace.sol\":54286:55463  function _marketTokensDel(address collection, uint256 tokenId) internal {... */\n      pop\n      pop\n      jump\t// out\n        /* \"source/Marketplace.sol\":3286:3477  function _transferOwnership(address newOwner) internal virtual {... */\n    tag_346:\n        /* \"source/Marketplace.sol\":3360:3376  address oldOwner */\n      0x00\n        /* \"source/Marketplace.sol\":3379:3385  _owner */\n      dup1\n      sload\n      0xffffffffffffffffffffffffffffffffffffffff\n        /* \"source/Marketplace.sol\":3396:3413  _owner = newOwner */\n      dup4\n      dup2\n      and\n      0xffffffffffffffffffffffff0000000000000000000000000000000000000000\n      dup4\n      and\n      dup2\n      or\n      dup5\n      sstore\n        /* \"source/Marketplace.sol\":3429:3469  OwnershipTransferred(oldOwner, newOwner) */\n      mload(0x40)\n        /* \"source/Marketplace.sol\":3379:3385  _owner */\n      swap2\n      swap1\n      swap3\n      and\n      swap3\n      dup4\n      swap2\n        /* \"source/Marketplace.sol\":3429:3469  OwnershipTransferred(oldOwner, newOwner) */\n      0x8be0079c531659141344cd1fd0a4f28419497f9722a3daafe3b4186f6b6457e0\n      swap2\n        /* \"source/Marketplace.sol\":3360:3376  address oldOwner */\n      swap1\n        /* \"source/Marketplace.sol\":3429:3469  OwnershipTransferred(oldOwner, newOwner) */\n      log3\n        /* \"source/Marketplace.sol\":3349:3477  {... */\n      pop\n        /* \"source/Marketplace.sol\":3286:3477  function _transferOwnership(address newOwner) internal virtual {... */\n      pop\n      jump\t// out\n        /* \"source/Marketplace.sol\":53995:54280  function _marketTokensAdd(SelledNFT memory lotInfo) internal {... */\n    tag_387:\n        /* \"source/Marketplace.sol\":54067:54080  _marketTokens */\n      0x05\n        /* \"source/Marketplace.sol\":54067:54094  _marketTokens.push(lotInfo) */\n      dup1\n      sload\n      0x01\n      dup2\n      add\n      dup3\n      sstore\n      0x00\n      swap2\n      dup3\n      mstore\n      dup3\n      mload\n      0x06\n      swap2\n      dup3\n      mul\n      0x036b6384b5eca791c62761152d0c79bb0604c104a5fb6f4eb0703f3154bb3db0\n      dup2\n      add\n      dup1\n      sload\n      0xffffffffffffffffffffffffffffffffffffffff\n      swap4\n      dup5\n      and\n      0xffffffffffffffffffffffff0000000000000000000000000000000000000000\n      swap2\n      dup3\n      and\n      dup2\n      or\n      swap1\n      swap3\n      sstore\n      0x20\n      dup1\n      dup9\n      add\n      mload\n      0x036b6384b5eca791c62761152d0c79bb0604c104a5fb6f4eb0703f3154bb3db1\n      dup6\n      add\n      sstore\n      0x40\n      dup1\n      dup10\n      add\n      mload\n      0x036b6384b5eca791c62761152d0c79bb0604c104a5fb6f4eb0703f3154bb3db2\n      dup7\n      add\n      dup1\n      sload\n      swap2\n      dup9\n      and\n      swap2\n      dup6\n      and\n      swap2\n      swap1\n      swap2\n      or\n      swap1\n      sstore\n      0x60\n      dup10\n      add\n      mload\n      0x036b6384b5eca791c62761152d0c79bb0604c104a5fb6f4eb0703f3154bb3db3\n      dup7\n      add\n      sstore\n      0x80\n      dup10\n      add\n      mload\n      0x036b6384b5eca791c62761152d0c79bb0604c104a5fb6f4eb0703f3154bb3db4\n      dup7\n      add\n      dup1\n      sload\n      swap2\n      swap1\n      swap8\n      and\n      swap4\n      and\n      swap3\n      swap1\n      swap3\n      or\n      swap1\n      swap5\n      sstore\n      0xa0\n      dup8\n      add\n      mload\n      0x036b6384b5eca791c62761152d0c79bb0604c104a5fb6f4eb0703f3154bb3db5\n      swap1\n      swap4\n      add\n      swap3\n      swap1\n      swap3\n      sstore\n        /* \"source/Marketplace.sol\":54105:54147  _collectionTokensCount[lotInfo.collection] */\n      dup5\n      mstore\n      swap2\n      swap1\n      mstore\n      dup2\n      keccak256\n        /* \"source/Marketplace.sol\":54105:54149  _collectionTokensCount[lotInfo.collection]++ */\n      dup1\n      sload\n      swap2\n      tag_595\n      dup4\n      tag_201\n      jump\t// in\n    tag_595:\n      swap1\n      swap2\n      sstore\n      pop\n      pop\n        /* \"source/Marketplace.sol\":54177:54191  lotInfo.seller */\n      0x40\n      dup1\n      dup3\n      add\n      mload\n        /* \"source/Marketplace.sol\":54160:54192  _userTokensCount[lotInfo.seller] */\n      0xffffffffffffffffffffffffffffffffffffffff\n      and\n      0x00\n      swap1\n      dup2\n      mstore\n        /* \"source/Marketplace.sol\":54160:54176  _userTokensCount */\n      0x07\n        /* \"source/Marketplace.sol\":54160:54192  _userTokensCount[lotInfo.seller] */\n      0x20\n      mstore\n      swap1\n      dup2\n      keccak256\n        /* \"source/Marketplace.sol\":54160:54194  _userTokensCount[lotInfo.seller]++ */\n      dup1\n      sload\n      swap2\n      tag_596\n      dup4\n      tag_201\n      jump\t// in\n    tag_596:\n      swap1\n      swap2\n      sstore\n      pop\n      pop\n        /* \"source/Marketplace.sol\":54235:54249  lotInfo.seller */\n      0x40\n      dup1\n      dup3\n      add\n      mload\n        /* \"source/Marketplace.sol\":54205:54250  _userTokensCountByCollections[lotInfo.seller] */\n      0xffffffffffffffffffffffffffffffffffffffff\n      swap1\n      dup2\n      and\n      0x00\n      swap1\n      dup2\n      mstore\n        /* \"source/Marketplace.sol\":54205:54234  _userTokensCountByCollections */\n      0x08\n        /* \"source/Marketplace.sol\":54205:54250  _userTokensCountByCollections[lotInfo.seller] */\n      0x20\n      swap1\n      dup2\n      mstore\n      dup4\n      dup3\n      keccak256\n        /* \"source/Marketplace.sol\":54251:54269  lotInfo.collection */\n      dup6\n      mload\n        /* \"source/Marketplace.sol\":54205:54270  _userTokensCountByCollections[lotInfo.seller][lotInfo.collection] */\n      swap1\n      swap4\n      and\n      dup3\n      mstore\n      swap2\n      swap1\n      swap2\n      mstore\n      swap1\n      dup2\n      keccak256\n        /* \"source/Marketplace.sol\":54205:54272  _userTokensCountByCollections[lotInfo.seller][lotInfo.collection]++ */\n      dup1\n      sload\n      swap2\n      tag_597\n      dup4\n      tag_201\n      jump\t// in\n    tag_597:\n      swap2\n      swap1\n      pop\n      sstore\n      pop\n        /* \"source/Marketplace.sol\":53995:54280  function _marketTokensAdd(SelledNFT memory lotInfo) internal {... */\n      pop\n      jump\t// out\n        /* \"source/Marketplace.sol\":9231:9947  function _callOptionalReturn(IERC20 token, bytes memory data) private {... */\n    tag_533:\n        /* \"source/Marketplace.sol\":9655:9678  bytes memory returndata */\n      0x00\n        /* \"source/Marketplace.sol\":9681:9750  address(token).functionCall(data, \"SafeERC20: low-level call failed\") */\n      tag_600\n        /* \"source/Marketplace.sol\":9709:9713  data */\n      dup3\n        /* \"source/Marketplace.sol\":9681:9750  address(token).functionCall(data, \"SafeERC20: low-level call failed\") */\n      mload(0x40)\n      dup1\n      0x40\n      add\n      0x40\n      mstore\n      dup1\n      0x20\n      dup2\n      mstore\n      0x20\n      add\n      0x5361666545524332303a206c6f772d6c6576656c2063616c6c206661696c6564\n      dup2\n      mstore\n      pop\n        /* \"source/Marketplace.sol\":9689:9694  token */\n      dup6\n        /* \"source/Marketplace.sol\":9681:9708  address(token).functionCall */\n      0xffffffffffffffffffffffffffffffffffffffff\n      and\n      tag_601\n      swap1\n        /* \"source/Marketplace.sol\":9681:9750  address(token).functionCall(data, \"SafeERC20: low-level call failed\") */\n      swap3\n      swap2\n      swap1\n      0xffffffff\n      and\n      jump\t// in\n    tag_600:\n        /* \"source/Marketplace.sol\":9765:9782  returndata.length */\n      dup1\n      mload\n        /* \"source/Marketplace.sol\":9655:9750  bytes memory returndata = address(token).functionCall(data, \"SafeERC20: low-level call failed\") */\n      swap1\n      swap2\n      pop\n        /* \"source/Marketplace.sol\":9765:9786  returndata.length > 0 */\n      iszero\n        /* \"source/Marketplace.sol\":9761:9940  if (returndata.length > 0) {... */\n      tag_562\n      jumpi\n        /* \"source/Marketplace.sol\":9862:9872  returndata */\n      dup1\n        /* \"source/Marketplace.sol\":9851:9881  abi.decode(returndata, (bool)) */\n      dup1\n      0x20\n      add\n      swap1\n      mload\n      dup2\n      add\n      swap1\n      tag_603\n      swap2\n      swap1\n      tag_512\n      jump\t// in\n    tag_603:\n        /* \"source/Marketplace.sol\":9843:9928  require(abi.decode(returndata, (bool)), \"SafeERC20: ERC20 operation did not succeed\") */\n      tag_562\n      jumpi\n      mload(0x40)\n      0x08c379a000000000000000000000000000000000000000000000000000000000\n      dup2\n      mstore\n        /* \"#utility.yul\":19678:19680   */\n      0x20\n        /* \"source/Marketplace.sol\":9843:9928  require(abi.decode(returndata, (bool)), \"SafeERC20: ERC20 operation did not succeed\") */\n      0x04\n      dup3\n      add\n        /* \"#utility.yul\":19660:19681   */\n      mstore\n        /* \"#utility.yul\":19717:19719   */\n      0x2a\n        /* \"#utility.yul\":19697:19715   */\n      0x24\n      dup3\n      add\n        /* \"#utility.yul\":19690:19720   */\n      mstore\n        /* \"#utility.yul\":19756:19790   */\n      0x5361666545524332303a204552433230206f7065726174696f6e20646964206e\n        /* \"#utility.yul\":19736:19754   */\n      0x44\n      dup3\n      add\n        /* \"#utility.yul\":19729:19791   */\n      mstore\n        /* \"#utility.yul\":19827:19839   */\n      0x6f74207375636365656400000000000000000000000000000000000000000000\n        /* \"#utility.yul\":19807:19825   */\n      0x64\n      dup3\n      add\n        /* \"#utility.yul\":19800:19840   */\n      mstore\n        /* \"#utility.yul\":19857:19876   */\n      0x84\n      add\n        /* \"source/Marketplace.sol\":9843:9928  require(abi.decode(returndata, (bool)), \"SafeERC20: ERC20 operation did not succeed\") */\n      tag_216\n        /* \"#utility.yul\":19476:19882   */\n      jump\n        /* \"source/Marketplace.sol\":42812:43041  function functionCall(... */\n    tag_601:\n        /* \"source/Marketplace.sol\":42949:42961  bytes memory */\n      0x60\n        /* \"source/Marketplace.sol\":42981:43033  functionCallWithValue(target, data, 0, errorMessage) */\n      tag_608\n        /* \"source/Marketplace.sol\":43003:43009  target */\n      dup5\n        /* \"source/Marketplace.sol\":43011:43015  data */\n      dup5\n        /* \"source/Marketplace.sol\":43017:43018  0 */\n      0x00\n        /* \"source/Marketplace.sol\":43020:43032  errorMessage */\n      dup6\n        /* \"source/Marketplace.sol\":42981:43002  functionCallWithValue */\n      tag_609\n        /* \"source/Marketplace.sol\":42981:43033  functionCallWithValue(target, data, 0, errorMessage) */\n      jump\t// in\n    tag_608:\n        /* \"source/Marketplace.sol\":42974:43033  return functionCallWithValue(target, data, 0, errorMessage) */\n      swap5\n        /* \"source/Marketplace.sol\":42812:43041  function functionCall(... */\n      swap4\n      pop\n      pop\n      pop\n      pop\n      jump\t// out\n        /* \"source/Marketplace.sol\":43898:44353  function functionCallWithValue(... */\n    tag_609:\n        /* \"source/Marketplace.sol\":44068:44080  bytes memory */\n      0x60\n        /* \"source/Marketplace.sol\":44126:44131  value */\n      dup3\n        /* \"source/Marketplace.sol\":44101:44122  address(this).balance */\n      selfbalance\n        /* \"source/Marketplace.sol\":44101:44131  address(this).balance >= value */\n      lt\n      iszero\n        /* \"source/Marketplace.sol\":44093:44174  require(address(this).balance >= value, \"Address: insufficient balance for call\") */\n      tag_611\n      jumpi\n      mload(0x40)\n      0x08c379a000000000000000000000000000000000000000000000000000000000\n      dup2\n      mstore\n        /* \"#utility.yul\":20089:20091   */\n      0x20\n        /* \"source/Marketplace.sol\":44093:44174  require(address(this).balance >= value, \"Address: insufficient balance for call\") */\n      0x04\n      dup3\n      add\n        /* \"#utility.yul\":20071:20092   */\n      mstore\n        /* \"#utility.yul\":20128:20130   */\n      0x26\n        /* \"#utility.yul\":20108:20126   */\n      0x24\n      dup3\n      add\n        /* \"#utility.yul\":20101:20131   */\n      mstore\n        /* \"#utility.yul\":20167:20201   */\n      0x416464726573733a20696e73756666696369656e742062616c616e636520666f\n        /* \"#utility.yul\":20147:20165   */\n      0x44\n      dup3\n      add\n        /* \"#utility.yul\":20140:20202   */\n      mstore\n        /* \"#utility.yul\":20238:20246   */\n      0x722063616c6c0000000000000000000000000000000000000000000000000000\n        /* \"#utility.yul\":20218:20236   */\n      0x64\n      dup3\n      add\n        /* \"#utility.yul\":20211:20247   */\n      mstore\n        /* \"#utility.yul\":20264:20283   */\n      0x84\n      add\n        /* \"source/Marketplace.sol\":44093:44174  require(address(this).balance >= value, \"Address: insufficient balance for call\") */\n      tag_216\n        /* \"#utility.yul\":19887:20289   */\n      jump\n        /* \"source/Marketplace.sol\":44093:44174  require(address(this).balance >= value, \"Address: insufficient balance for call\") */\n    tag_611:\n        /* \"source/Marketplace.sol\":44186:44198  bool success */\n      0x00\n        /* \"source/Marketplace.sol\":44200:44223  bytes memory returndata */\n      dup1\n        /* \"source/Marketplace.sol\":44227:44233  target */\n      dup7\n        /* \"source/Marketplace.sol\":44227:44238  target.call */\n      0xffffffffffffffffffffffffffffffffffffffff\n      and\n        /* \"source/Marketplace.sol\":44246:44251  value */\n      dup6\n        /* \"source/Marketplace.sol\":44253:44257  data */\n      dup8\n        /* \"source/Marketplace.sol\":44227:44258  target.call{value: value}(data) */\n      mload(0x40)\n      tag_614\n      swap2\n      swap1\n      tag_615\n      jump\t// in\n    tag_614:\n      0x00\n      mload(0x40)\n      dup1\n      dup4\n      sub\n      dup2\n      dup6\n      dup8\n      gas\n      call\n      swap3\n      pop\n      pop\n      pop\n      returndatasize\n      dup1\n      0x00\n      dup2\n      eq\n      tag_618\n      jumpi\n      mload(0x40)\n      swap2\n      pop\n      and(add(returndatasize, 0x3f), not(0x1f))\n      dup3\n      add\n      0x40\n      mstore\n      returndatasize\n      dup3\n      mstore\n      returndatasize\n      0x00\n      0x20\n      dup5\n      add\n      returndatacopy\n      jump(tag_617)\n    tag_618:\n      0x60\n      swap2\n      pop\n    tag_617:\n      pop\n        /* \"source/Marketplace.sol\":44185:44258  (bool success, bytes memory returndata) = target.call{value: value}(data) */\n      swap2\n      pop\n      swap2\n      pop\n        /* \"source/Marketplace.sol\":44276:44345  verifyCallResultFromTarget(target, success, returndata, errorMessage) */\n      tag_619\n        /* \"source/Marketplace.sol\":44303:44309  target */\n      dup8\n        /* \"source/Marketplace.sol\":44311:44318  success */\n      dup4\n        /* \"source/Marketplace.sol\":44320:44330  returndata */\n      dup4\n        /* \"source/Marketplace.sol\":44332:44344  errorMessage */\n      dup8\n        /* \"source/Marketplace.sol\":44276:44302  verifyCallResultFromTarget */\n      tag_620\n        /* \"source/Marketplace.sol\":44276:44345  verifyCallResultFromTarget(target, success, returndata, errorMessage) */\n      jump\t// in\n    tag_619:\n        /* \"source/Marketplace.sol\":44269:44345  return verifyCallResultFromTarget(target, success, returndata, errorMessage) */\n      swap8\n        /* \"source/Marketplace.sol\":43898:44353  function functionCallWithValue(... */\n      swap7\n      pop\n      pop\n      pop\n      pop\n      pop\n      pop\n      pop\n      jump\t// out\n        /* \"source/Marketplace.sol\":46471:47115  function verifyCallResultFromTarget(... */\n    tag_620:\n        /* \"source/Marketplace.sol\":46656:46668  bytes memory */\n      0x60\n        /* \"source/Marketplace.sol\":46685:46692  success */\n      dup4\n        /* \"source/Marketplace.sol\":46681:47108  if (success) {... */\n      iszero\n      tag_622\n      jumpi\n        /* \"source/Marketplace.sol\":46713:46723  returndata */\n      dup3\n        /* \"source/Marketplace.sol\":46713:46730  returndata.length */\n      mload\n        /* \"source/Marketplace.sol\":46734:46735  0 */\n      0x00\n        /* \"source/Marketplace.sol\":46713:46735  returndata.length == 0 */\n      sub\n        /* \"source/Marketplace.sol\":46709:46999  if (returndata.length == 0) {... */\n      tag_626\n      jumpi\n        /* \"source/Marketplace.sol\":40351:40370  account.code.length */\n      0xffffffffffffffffffffffffffffffffffffffff\n      dup6\n      and\n      extcodesize\n        /* \"source/Marketplace.sol\":46923:46983  require(isContract(target), \"Address: call to non-contract\") */\n      tag_626\n      jumpi\n      mload(0x40)\n      0x08c379a000000000000000000000000000000000000000000000000000000000\n      dup2\n      mstore\n        /* \"#utility.yul\":21043:21045   */\n      0x20\n        /* \"source/Marketplace.sol\":46923:46983  require(isContract(target), \"Address: call to non-contract\") */\n      0x04\n      dup3\n      add\n        /* \"#utility.yul\":21025:21046   */\n      mstore\n        /* \"#utility.yul\":21082:21084   */\n      0x1d\n        /* \"#utility.yul\":21062:21080   */\n      0x24\n      dup3\n      add\n        /* \"#utility.yul\":21055:21085   */\n      mstore\n        /* \"#utility.yul\":21121:21152   */\n      0x416464726573733a2063616c6c20746f206e6f6e2d636f6e7472616374000000\n        /* \"#utility.yul\":21101:21119   */\n      0x44\n      dup3\n      add\n        /* \"#utility.yul\":21094:21153   */\n      mstore\n        /* \"#utility.yul\":21170:21188   */\n      0x64\n      add\n        /* \"source/Marketplace.sol\":46923:46983  require(isContract(target), \"Address: call to non-contract\") */\n      tag_216\n        /* \"#utility.yul\":20841:21194   */\n      jump\n        /* \"source/Marketplace.sol\":46923:46983  require(isContract(target), \"Address: call to non-contract\") */\n    tag_626:\n      pop\n        /* \"source/Marketplace.sol\":47020:47030  returndata */\n      dup2\n        /* \"source/Marketplace.sol\":47013:47030  return returndata */\n      jump(tag_608)\n        /* \"source/Marketplace.sol\":46681:47108  if (success) {... */\n    tag_622:\n        /* \"source/Marketplace.sol\":47063:47096  _revert(returndata, errorMessage) */\n      tag_608\n        /* \"source/Marketplace.sol\":47071:47081  returndata */\n      dup4\n        /* \"source/Marketplace.sol\":47083:47095  errorMessage */\n      dup4\n        /* \"source/Marketplace.sol\":47818:47835  returndata.length */\n      dup2\n      mload\n        /* \"source/Marketplace.sol\":47818:47839  returndata.length > 0 */\n      iszero\n        /* \"source/Marketplace.sol\":47814:48202  if (returndata.length > 0) {... */\n      tag_634\n      jumpi\n        /* \"source/Marketplace.sol\":48050:48060  returndata */\n      dup2\n        /* \"source/Marketplace.sol\":48044:48061  mload(returndata) */\n      mload\n        /* \"source/Marketplace.sol\":48107:48122  returndata_size */\n      dup1\n        /* \"source/Marketplace.sol\":48094:48104  returndata */\n      dup4\n        /* \"source/Marketplace.sol\":48090:48092  32 */\n      0x20\n        /* \"source/Marketplace.sol\":48086:48105  add(32, returndata) */\n      add\n        /* \"source/Marketplace.sol\":48079:48123  revert(add(32, returndata), returndata_size) */\n      revert\n        /* \"source/Marketplace.sol\":47814:48202  if (returndata.length > 0) {... */\n    tag_634:\n        /* \"source/Marketplace.sol\":48177:48189  errorMessage */\n      dup1\n        /* \"source/Marketplace.sol\":48170:48190  revert(errorMessage) */\n      mload(0x40)\n      0x08c379a000000000000000000000000000000000000000000000000000000000\n      dup2\n      mstore\n      0x04\n      add\n      tag_216\n      swap2\n      swap1\n      tag_637\n      jump\t// in\n    tag_203:\n      pop\n      dup1\n      sload\n      0x00\n      dup3\n      sstore\n      swap1\n      0x00\n      mstore\n      keccak256(0x00, 0x20)\n      swap1\n      dup2\n      add\n      swap1\n      tag_499\n      swap2\n      swap1\n      tag_640\n      jump\t// in\n    tag_489:\n      dup3\n      dup1\n      sload\n      dup3\n      dup3\n      sstore\n      swap1\n      0x00\n      mstore\n      keccak256(0x00, 0x20)\n      swap1\n      dup2\n      add\n      swap3\n      dup3\n      iszero\n      tag_643\n      jumpi\n      swap2\n      0x20\n      mul\n      dup3\n      add\n    tag_642:\n      dup3\n      dup2\n      gt\n      iszero\n      tag_643\n      jumpi\n      dup3\n      mload\n      dup3\n      sload\n      0xffffffffffffffffffffffff0000000000000000000000000000000000000000\n      and\n      0xffffffffffffffffffffffffffffffffffffffff\n      swap1\n      swap2\n      and\n      or\n      dup3\n      sstore\n      0x20\n      swap1\n      swap3\n      add\n      swap2\n      0x01\n      swap1\n      swap2\n      add\n      swap1\n      jump(tag_642)\n    tag_643:\n      pop\n      tag_401\n      swap3\n      swap2\n      pop\n    tag_640:\n    tag_645:\n      dup1\n      dup3\n      gt\n      iszero\n      tag_401\n      jumpi\n      0x00\n      dup2\n      sstore\n      0x01\n      add\n      jump(tag_645)\n        /* \"#utility.yul\":14:194   */\n    tag_43:\n        /* \"#utility.yul\":73:79   */\n      0x00\n        /* \"#utility.yul\":126:128   */\n      0x20\n        /* \"#utility.yul\":114:123   */\n      dup3\n        /* \"#utility.yul\":105:112   */\n      dup5\n        /* \"#utility.yul\":101:124   */\n      sub\n        /* \"#utility.yul\":97:129   */\n      slt\n        /* \"#utility.yul\":94:146   */\n      iszero\n      tag_654\n      jumpi\n        /* \"#utility.yul\":142:143   */\n      0x00\n        /* \"#utility.yul\":139:140   */\n      dup1\n        /* \"#utility.yul\":132:144   */\n      revert\n        /* \"#utility.yul\":94:146   */\n    tag_654:\n      pop\n        /* \"#utility.yul\":165:188   */\n      calldataload\n      swap2\n        /* \"#utility.yul\":14:194   */\n      swap1\n      pop\n      jump\t// out\n        /* \"#utility.yul\":199:383   */\n    tag_267:\n        /* \"#utility.yul\":251:328   */\n      0x4e487b7100000000000000000000000000000000000000000000000000000000\n        /* \"#utility.yul\":248:249   */\n      0x00\n        /* \"#utility.yul\":241:329   */\n      mstore\n        /* \"#utility.yul\":348:352   */\n      0x41\n        /* \"#utility.yul\":345:346   */\n      0x04\n        /* \"#utility.yul\":338:353   */\n      mstore\n        /* \"#utility.yul\":372:376   */\n      0x24\n        /* \"#utility.yul\":369:370   */\n      0x00\n        /* \"#utility.yul\":362:377   */\n      revert\n        /* \"#utility.yul\":388:542   */\n    tag_647:\n        /* \"#utility.yul\":474:516   */\n      0xffffffffffffffffffffffffffffffffffffffff\n        /* \"#utility.yul\":467:472   */\n      dup2\n        /* \"#utility.yul\":463:517   */\n      and\n        /* \"#utility.yul\":456:461   */\n      dup2\n        /* \"#utility.yul\":453:518   */\n      eq\n        /* \"#utility.yul\":443:536   */\n      tag_499\n      jumpi\n        /* \"#utility.yul\":532:533   */\n      0x00\n        /* \"#utility.yul\":529:530   */\n      dup1\n        /* \"#utility.yul\":522:534   */\n      revert\n        /* \"#utility.yul\":547:681   */\n    tag_648:\n        /* \"#utility.yul\":615:635   */\n      dup1\n      calldataload\n        /* \"#utility.yul\":644:675   */\n      tag_659\n        /* \"#utility.yul\":615:635   */\n      dup2\n        /* \"#utility.yul\":644:675   */\n      tag_647\n      jump\t// in\n    tag_659:\n        /* \"#utility.yul\":547:681   */\n      swap2\n      swap1\n      pop\n      jump\t// out\n        /* \"#utility.yul\":686:1866   */\n    tag_48:\n        /* \"#utility.yul\":770:776   */\n      0x00\n        /* \"#utility.yul\":801:803   */\n      0x20\n        /* \"#utility.yul\":844:846   */\n      dup1\n        /* \"#utility.yul\":832:841   */\n      dup4\n        /* \"#utility.yul\":823:830   */\n      dup6\n        /* \"#utility.yul\":819:842   */\n      sub\n        /* \"#utility.yul\":815:847   */\n      slt\n        /* \"#utility.yul\":812:864   */\n      iszero\n      tag_661\n      jumpi\n        /* \"#utility.yul\":860:861   */\n      0x00\n        /* \"#utility.yul\":857:858   */\n      dup1\n        /* \"#utility.yul\":850:862   */\n      revert\n        /* \"#utility.yul\":812:864   */\n    tag_661:\n        /* \"#utility.yul\":900:909   */\n      dup3\n        /* \"#utility.yul\":887:910   */\n      calldataload\n        /* \"#utility.yul\":929:947   */\n      0xffffffffffffffff\n        /* \"#utility.yul\":970:972   */\n      dup1\n        /* \"#utility.yul\":962:968   */\n      dup3\n        /* \"#utility.yul\":959:973   */\n      gt\n        /* \"#utility.yul\":956:990   */\n      iszero\n      tag_662\n      jumpi\n        /* \"#utility.yul\":986:987   */\n      0x00\n        /* \"#utility.yul\":983:984   */\n      dup1\n        /* \"#utility.yul\":976:988   */\n      revert\n        /* \"#utility.yul\":956:990   */\n    tag_662:\n        /* \"#utility.yul\":1024:1030   */\n      dup2\n        /* \"#utility.yul\":1013:1022   */\n      dup6\n        /* \"#utility.yul\":1009:1031   */\n      add\n        /* \"#utility.yul\":999:1031   */\n      swap2\n      pop\n        /* \"#utility.yul\":1069:1076   */\n      dup6\n        /* \"#utility.yul\":1062:1066   */\n      0x1f\n        /* \"#utility.yul\":1058:1060   */\n      dup4\n        /* \"#utility.yul\":1054:1067   */\n      add\n        /* \"#utility.yul\":1050:1077   */\n      slt\n        /* \"#utility.yul\":1040:1095   */\n      tag_663\n      jumpi\n        /* \"#utility.yul\":1091:1092   */\n      0x00\n        /* \"#utility.yul\":1088:1089   */\n      dup1\n        /* \"#utility.yul\":1081:1093   */\n      revert\n        /* \"#utility.yul\":1040:1095   */\n    tag_663:\n        /* \"#utility.yul\":1127:1129   */\n      dup2\n        /* \"#utility.yul\":1114:1130   */\n      calldataload\n        /* \"#utility.yul\":1149:1151   */\n      dup2\n        /* \"#utility.yul\":1145:1147   */\n      dup2\n        /* \"#utility.yul\":1142:1152   */\n      gt\n        /* \"#utility.yul\":1139:1175   */\n      iszero\n      tag_665\n      jumpi\n        /* \"#utility.yul\":1155:1173   */\n      tag_665\n      tag_267\n      jump\t// in\n    tag_665:\n        /* \"#utility.yul\":1201:1203   */\n      dup1\n        /* \"#utility.yul\":1198:1199   */\n      0x05\n        /* \"#utility.yul\":1194:1204   */\n      shl\n        /* \"#utility.yul\":1233:1235   */\n      0x40\n        /* \"#utility.yul\":1227:1236   */\n      mload\n        /* \"#utility.yul\":1292:1358   */\n      0xffffffffffffffffffffffffffffffffffffffffffffffffffffffffffffffe0\n        /* \"#utility.yul\":1287:1289   */\n      0x3f\n        /* \"#utility.yul\":1283:1285   */\n      dup4\n        /* \"#utility.yul\":1279:1290   */\n      add\n        /* \"#utility.yul\":1275:1359   */\n      and\n        /* \"#utility.yul\":1267:1273   */\n      dup2\n        /* \"#utility.yul\":1263:1360   */\n      add\n        /* \"#utility.yul\":1410:1416   */\n      dup2\n        /* \"#utility.yul\":1398:1408   */\n      dup2\n        /* \"#utility.yul\":1395:1417   */\n      lt\n        /* \"#utility.yul\":1390:1392   */\n      dup6\n        /* \"#utility.yul\":1378:1388   */\n      dup3\n        /* \"#utility.yul\":1375:1393   */\n      gt\n        /* \"#utility.yul\":1372:1418   */\n      or\n        /* \"#utility.yul\":1369:1441   */\n      iszero\n      tag_667\n      jumpi\n        /* \"#utility.yul\":1421:1439   */\n      tag_667\n      tag_267\n      jump\t// in\n    tag_667:\n        /* \"#utility.yul\":1457:1459   */\n      0x40\n        /* \"#utility.yul\":1450:1472   */\n      mstore\n        /* \"#utility.yul\":1507:1525   */\n      swap2\n      dup3\n      mstore\n        /* \"#utility.yul\":1541:1556   */\n      dup5\n      dup3\n      add\n      swap3\n      pop\n        /* \"#utility.yul\":1583:1594   */\n      dup4\n      dup2\n      add\n        /* \"#utility.yul\":1579:1599   */\n      dup6\n      add\n      swap2\n        /* \"#utility.yul\":1611:1630   */\n      dup9\n      dup4\n      gt\n        /* \"#utility.yul\":1608:1647   */\n      iszero\n      tag_668\n      jumpi\n        /* \"#utility.yul\":1643:1644   */\n      0x00\n        /* \"#utility.yul\":1640:1641   */\n      dup1\n        /* \"#utility.yul\":1633:1645   */\n      revert\n        /* \"#utility.yul\":1608:1647   */\n    tag_668:\n        /* \"#utility.yul\":1667:1678   */\n      swap4\n      dup6\n      add\n      swap4\n        /* \"#utility.yul\":1687:1835   */\n    tag_669:\n        /* \"#utility.yul\":1703:1709   */\n      dup3\n        /* \"#utility.yul\":1698:1701   */\n      dup6\n        /* \"#utility.yul\":1695:1710   */\n      lt\n        /* \"#utility.yul\":1687:1835   */\n      iszero\n      tag_671\n      jumpi\n        /* \"#utility.yul\":1769:1792   */\n      tag_672\n        /* \"#utility.yul\":1788:1791   */\n      dup6\n        /* \"#utility.yul\":1769:1792   */\n      tag_648\n      jump\t// in\n    tag_672:\n        /* \"#utility.yul\":1757:1793   */\n      dup5\n      mstore\n        /* \"#utility.yul\":1720:1732   */\n      swap4\n      dup6\n      add\n      swap4\n        /* \"#utility.yul\":1813:1825   */\n      swap3\n      dup6\n      add\n      swap3\n        /* \"#utility.yul\":1687:1835   */\n      jump(tag_669)\n    tag_671:\n        /* \"#utility.yul\":1854:1860   */\n      swap9\n        /* \"#utility.yul\":686:1866   */\n      swap8\n      pop\n      pop\n      pop\n      pop\n      pop\n      pop\n      pop\n      pop\n      jump\t// out\n        /* \"#utility.yul\":1871:2186   */\n    tag_53:\n        /* \"#utility.yul\":1939:1945   */\n      0x00\n        /* \"#utility.yul\":1947:1953   */\n      dup1\n        /* \"#utility.yul\":2000:2002   */\n      0x40\n        /* \"#utility.yul\":1988:1997   */\n      dup4\n        /* \"#utility.yul\":1979:1986   */\n      dup6\n        /* \"#utility.yul\":1975:1998   */\n      sub\n        /* \"#utility.yul\":1971:2003   */\n      slt\n        /* \"#utility.yul\":1968:2020   */\n      iszero\n      tag_674\n      jumpi\n        /* \"#utility.yul\":2016:2017   */\n      0x00\n        /* \"#utility.yul\":2013:2014   */\n      dup1\n        /* \"#utility.yul\":2006:2018   */\n      revert\n        /* \"#utility.yul\":1968:2020   */\n    tag_674:\n        /* \"#utility.yul\":2055:2064   */\n      dup3\n        /* \"#utility.yul\":2042:2065   */\n      calldataload\n        /* \"#utility.yul\":2074:2105   */\n      tag_675\n        /* \"#utility.yul\":2099:2104   */\n      dup2\n        /* \"#utility.yul\":2074:2105   */\n      tag_647\n      jump\t// in\n    tag_675:\n        /* \"#utility.yul\":2124:2129   */\n      swap5\n        /* \"#utility.yul\":2176:2178   */\n      0x20\n        /* \"#utility.yul\":2161:2179   */\n      swap4\n      swap1\n      swap4\n      add\n        /* \"#utility.yul\":2148:2180   */\n      calldataload\n      swap4\n      pop\n      pop\n      pop\n        /* \"#utility.yul\":1871:2186   */\n      jump\t// out\n        /* \"#utility.yul\":2191:2574   */\n    tag_58:\n        /* \"#utility.yul\":2268:2274   */\n      0x00\n        /* \"#utility.yul\":2276:2282   */\n      dup1\n        /* \"#utility.yul\":2284:2290   */\n      0x00\n        /* \"#utility.yul\":2337:2339   */\n      0x60\n        /* \"#utility.yul\":2325:2334   */\n      dup5\n        /* \"#utility.yul\":2316:2323   */\n      dup7\n        /* \"#utility.yul\":2312:2335   */\n      sub\n        /* \"#utility.yul\":2308:2340   */\n      slt\n        /* \"#utility.yul\":2305:2357   */\n      iszero\n      tag_677\n      jumpi\n        /* \"#utility.yul\":2353:2354   */\n      0x00\n        /* \"#utility.yul\":2350:2351   */\n      dup1\n        /* \"#utility.yul\":2343:2355   */\n      revert\n        /* \"#utility.yul\":2305:2357   */\n    tag_677:\n        /* \"#utility.yul\":2392:2401   */\n      dup4\n        /* \"#utility.yul\":2379:2402   */\n      calldataload\n        /* \"#utility.yul\":2411:2442   */\n      tag_678\n        /* \"#utility.yul\":2436:2441   */\n      dup2\n        /* \"#utility.yul\":2411:2442   */\n      tag_647\n      jump\t// in\n    tag_678:\n        /* \"#utility.yul\":2461:2466   */\n      swap6\n        /* \"#utility.yul\":2513:2515   */\n      0x20\n        /* \"#utility.yul\":2498:2516   */\n      dup6\n      add\n        /* \"#utility.yul\":2485:2517   */\n      calldataload\n      swap6\n      pop\n        /* \"#utility.yul\":2564:2566   */\n      0x40\n        /* \"#utility.yul\":2549:2567   */\n      swap1\n      swap5\n      add\n        /* \"#utility.yul\":2536:2568   */\n      calldataload\n      swap4\n        /* \"#utility.yul\":2191:2574   */\n      swap3\n      pop\n      pop\n      pop\n      jump\t// out\n        /* \"#utility.yul\":3046:3755   */\n    tag_61:\n        /* \"#utility.yul\":3271:3273   */\n      0x20\n        /* \"#utility.yul\":3323:3344   */\n      dup1\n      dup3\n      mstore\n        /* \"#utility.yul\":3393:3406   */\n      dup3\n      mload\n        /* \"#utility.yul\":3296:3314   */\n      dup3\n      dup3\n      add\n        /* \"#utility.yul\":3415:3437   */\n      dup2\n      swap1\n      mstore\n        /* \"#utility.yul\":3242:3246   */\n      0x00\n      swap2\n        /* \"#utility.yul\":3271:3273   */\n      swap1\n        /* \"#utility.yul\":3494:3509   */\n      dup5\n      dup3\n      add\n      swap1\n        /* \"#utility.yul\":3468:3470   */\n      0x40\n        /* \"#utility.yul\":3453:3471   */\n      dup6\n      add\n      swap1\n        /* \"#utility.yul\":3242:3246   */\n      dup5\n        /* \"#utility.yul\":3537:3729   */\n    tag_681:\n        /* \"#utility.yul\":3551:3557   */\n      dup2\n        /* \"#utility.yul\":3548:3549   */\n      dup2\n        /* \"#utility.yul\":3545:3558   */\n      lt\n        /* \"#utility.yul\":3537:3729   */\n      iszero\n      tag_683\n      jumpi\n        /* \"#utility.yul\":3600:3647   */\n      tag_684\n        /* \"#utility.yul\":3643:3646   */\n      dup4\n        /* \"#utility.yul\":3634:3640   */\n      dup6\n        /* \"#utility.yul\":3628:3641   */\n      mload\n        /* \"#utility.yul\":2652:2694   */\n      0xffffffffffffffffffffffffffffffffffffffff\n        /* \"#utility.yul\":2733:2735   */\n      dup1\n        /* \"#utility.yul\":2725:2730   */\n      dup3\n        /* \"#utility.yul\":2719:2731   */\n      mload\n        /* \"#utility.yul\":2715:2736   */\n      and\n        /* \"#utility.yul\":2710:2713   */\n      dup4\n        /* \"#utility.yul\":2703:2737   */\n      mstore\n        /* \"#utility.yul\":2786:2790   */\n      0x20\n        /* \"#utility.yul\":2779:2784   */\n      dup3\n        /* \"#utility.yul\":2775:2791   */\n      add\n        /* \"#utility.yul\":2769:2792   */\n      mload\n        /* \"#utility.yul\":2762:2766   */\n      0x20\n        /* \"#utility.yul\":2757:2760   */\n      dup5\n        /* \"#utility.yul\":2753:2767   */\n      add\n        /* \"#utility.yul\":2746:2793   */\n      mstore\n        /* \"#utility.yul\":2854:2856   */\n      dup1\n        /* \"#utility.yul\":2846:2850   */\n      0x40\n        /* \"#utility.yul\":2839:2844   */\n      dup4\n        /* \"#utility.yul\":2835:2851   */\n      add\n        /* \"#utility.yul\":2829:2852   */\n      mload\n        /* \"#utility.yul\":2825:2857   */\n      and\n        /* \"#utility.yul\":2818:2822   */\n      0x40\n        /* \"#utility.yul\":2813:2816   */\n      dup5\n        /* \"#utility.yul\":2809:2823   */\n      add\n        /* \"#utility.yul\":2802:2858   */\n      mstore\n        /* \"#utility.yul\":2907:2911   */\n      0x60\n        /* \"#utility.yul\":2900:2905   */\n      dup3\n        /* \"#utility.yul\":2896:2912   */\n      add\n        /* \"#utility.yul\":2890:2913   */\n      mload\n        /* \"#utility.yul\":2883:2887   */\n      0x60\n        /* \"#utility.yul\":2878:2881   */\n      dup5\n        /* \"#utility.yul\":2874:2888   */\n      add\n        /* \"#utility.yul\":2867:2914   */\n      mstore\n        /* \"#utility.yul\":2975:2977   */\n      dup1\n        /* \"#utility.yul\":2967:2971   */\n      0x80\n        /* \"#utility.yul\":2960:2965   */\n      dup4\n        /* \"#utility.yul\":2956:2972   */\n      add\n        /* \"#utility.yul\":2950:2973   */\n      mload\n        /* \"#utility.yul\":2946:2978   */\n      and\n        /* \"#utility.yul\":2939:2943   */\n      0x80\n        /* \"#utility.yul\":2934:2937   */\n      dup5\n        /* \"#utility.yul\":2930:2944   */\n      add\n        /* \"#utility.yul\":2923:2979   */\n      mstore\n      pop\n        /* \"#utility.yul\":3028:3032   */\n      0xa0\n        /* \"#utility.yul\":3021:3026   */\n      dup2\n        /* \"#utility.yul\":3017:3033   */\n      add\n        /* \"#utility.yul\":3011:3034   */\n      mload\n        /* \"#utility.yul\":3004:3008   */\n      0xa0\n        /* \"#utility.yul\":2999:3002   */\n      dup4\n        /* \"#utility.yul\":2995:3009   */\n      add\n        /* \"#utility.yul\":2988:3035   */\n      mstore\n        /* \"#utility.yul\":2579:3041   */\n      pop\n      pop\n      jump\n        /* \"#utility.yul\":3600:3647   */\n    tag_684:\n        /* \"#utility.yul\":3704:3719   */\n      swap3\n      dup5\n      add\n      swap3\n        /* \"#utility.yul\":3676:3680   */\n      0xc0\n        /* \"#utility.yul\":3667:3681   */\n      swap3\n      swap1\n      swap3\n      add\n      swap2\n        /* \"#utility.yul\":3573:3574   */\n      0x01\n        /* \"#utility.yul\":3566:3575   */\n      add\n        /* \"#utility.yul\":3537:3729   */\n      jump(tag_681)\n    tag_683:\n      pop\n        /* \"#utility.yul\":3746:3749   */\n      swap1\n      swap7\n        /* \"#utility.yul\":3046:3755   */\n      swap6\n      pop\n      pop\n      pop\n      pop\n      pop\n      pop\n      jump\t// out\n        /* \"#utility.yul\":3760:4456   */\n    tag_66:\n        /* \"#utility.yul\":3946:3948   */\n      0x20\n        /* \"#utility.yul\":3998:4019   */\n      dup1\n      dup3\n      mstore\n        /* \"#utility.yul\":4068:4081   */\n      dup3\n      mload\n        /* \"#utility.yul\":3971:3989   */\n      dup3\n      dup3\n      add\n        /* \"#utility.yul\":4090:4112   */\n      dup2\n      swap1\n      mstore\n        /* \"#utility.yul\":3917:3921   */\n      0x00\n      swap2\n        /* \"#utility.yul\":3946:3948   */\n      swap1\n        /* \"#utility.yul\":4169:4184   */\n      dup5\n      dup3\n      add\n      swap1\n        /* \"#utility.yul\":4143:4145   */\n      0x40\n        /* \"#utility.yul\":4128:4146   */\n      dup6\n      add\n      swap1\n        /* \"#utility.yul\":3917:3921   */\n      dup5\n        /* \"#utility.yul\":4212:4430   */\n    tag_686:\n        /* \"#utility.yul\":4226:4232   */\n      dup2\n        /* \"#utility.yul\":4223:4224   */\n      dup2\n        /* \"#utility.yul\":4220:4233   */\n      lt\n        /* \"#utility.yul\":4212:4430   */\n      iszero\n      tag_683\n      jumpi\n        /* \"#utility.yul\":4291:4304   */\n      dup4\n      mload\n        /* \"#utility.yul\":4306:4348   */\n      0xffffffffffffffffffffffffffffffffffffffff\n        /* \"#utility.yul\":4287:4349   */\n      and\n        /* \"#utility.yul\":4275:4350   */\n      dup4\n      mstore\n        /* \"#utility.yul\":4405:4420   */\n      swap3\n      dup5\n      add\n      swap3\n        /* \"#utility.yul\":4370:4382   */\n      swap2\n      dup5\n      add\n      swap2\n        /* \"#utility.yul\":4248:4249   */\n      0x01\n        /* \"#utility.yul\":4241:4250   */\n      add\n        /* \"#utility.yul\":4212:4430   */\n      jump(tag_686)\n        /* \"#utility.yul\":4461:4708   */\n    tag_70:\n        /* \"#utility.yul\":4520:4526   */\n      0x00\n        /* \"#utility.yul\":4573:4575   */\n      0x20\n        /* \"#utility.yul\":4561:4570   */\n      dup3\n        /* \"#utility.yul\":4552:4559   */\n      dup5\n        /* \"#utility.yul\":4548:4571   */\n      sub\n        /* \"#utility.yul\":4544:4576   */\n      slt\n        /* \"#utility.yul\":4541:4593   */\n      iszero\n      tag_690\n      jumpi\n        /* \"#utility.yul\":4589:4590   */\n      0x00\n        /* \"#utility.yul\":4586:4587   */\n      dup1\n        /* \"#utility.yul\":4579:4591   */\n      revert\n        /* \"#utility.yul\":4541:4593   */\n    tag_690:\n        /* \"#utility.yul\":4628:4637   */\n      dup2\n        /* \"#utility.yul\":4615:4638   */\n      calldataload\n        /* \"#utility.yul\":4647:4678   */\n      tag_264\n        /* \"#utility.yul\":4672:4677   */\n      dup2\n        /* \"#utility.yul\":4647:4678   */\n      tag_647\n      jump\t// in\n        /* \"#utility.yul\":4713:5576   */\n    tag_73:\n        /* \"#utility.yul\":4960:4962   */\n      0x20\n        /* \"#utility.yul\":5012:5033   */\n      dup1\n      dup3\n      mstore\n        /* \"#utility.yul\":5082:5095   */\n      dup3\n      mload\n        /* \"#utility.yul\":4985:5003   */\n      dup3\n      dup3\n      add\n        /* \"#utility.yul\":5104:5126   */\n      dup2\n      swap1\n      mstore\n        /* \"#utility.yul\":4931:4935   */\n      0x00\n      swap2\n        /* \"#utility.yul\":4960:4962   */\n      swap1\n        /* \"#utility.yul\":5145:5147   */\n      0x40\n      swap1\n        /* \"#utility.yul\":5163:5181   */\n      dup2\n      dup6\n      add\n      swap1\n        /* \"#utility.yul\":5204:5219   */\n      dup7\n      dup5\n      add\n        /* \"#utility.yul\":4931:4935   */\n      dup6\n        /* \"#utility.yul\":5247:5550   */\n    tag_693:\n        /* \"#utility.yul\":5261:5267   */\n      dup3\n        /* \"#utility.yul\":5258:5259   */\n      dup2\n        /* \"#utility.yul\":5255:5268   */\n      lt\n        /* \"#utility.yul\":5247:5550   */\n      iszero\n      tag_695\n      jumpi\n        /* \"#utility.yul\":5320:5333   */\n      dup2\n      mload\n        /* \"#utility.yul\":5362:5371   */\n      dup1\n      mload\n        /* \"#utility.yul\":5373:5415   */\n      0xffffffffffffffffffffffffffffffffffffffff\n        /* \"#utility.yul\":5358:5416   */\n      and\n        /* \"#utility.yul\":5346:5417   */\n      dup6\n      mstore\n        /* \"#utility.yul\":5457:5468   */\n      dup7\n      add\n        /* \"#utility.yul\":5451:5469   */\n      mload\n        /* \"#utility.yul\":5437:5449   */\n      dup7\n      dup6\n      add\n        /* \"#utility.yul\":5430:5470   */\n      mstore\n        /* \"#utility.yul\":5490:5502   */\n      swap3\n      dup5\n      add\n      swap3\n        /* \"#utility.yul\":5525:5540   */\n      swap1\n      dup6\n      add\n      swap1\n        /* \"#utility.yul\":5283:5284   */\n      0x01\n        /* \"#utility.yul\":5276:5285   */\n      add\n        /* \"#utility.yul\":5247:5550   */\n      jump(tag_693)\n    tag_695:\n      pop\n        /* \"#utility.yul\":5567:5570   */\n      swap2\n      swap8\n        /* \"#utility.yul\":4713:5576   */\n      swap7\n      pop\n      pop\n      pop\n      pop\n      pop\n      pop\n      pop\n      jump\t// out\n        /* \"#utility.yul\":5955:6203   */\n    tag_95:\n        /* \"#utility.yul\":6023:6029   */\n      0x00\n        /* \"#utility.yul\":6031:6037   */\n      dup1\n        /* \"#utility.yul\":6084:6086   */\n      0x40\n        /* \"#utility.yul\":6072:6081   */\n      dup4\n        /* \"#utility.yul\":6063:6070   */\n      dup6\n        /* \"#utility.yul\":6059:6082   */\n      sub\n        /* \"#utility.yul\":6055:6087   */\n      slt\n        /* \"#utility.yul\":6052:6104   */\n      iszero\n      tag_699\n      jumpi\n        /* \"#utility.yul\":6100:6101   */\n      0x00\n        /* \"#utility.yul\":6097:6098   */\n      dup1\n        /* \"#utility.yul\":6090:6102   */\n      revert\n        /* \"#utility.yul\":6052:6104   */\n    tag_699:\n      pop\n      pop\n        /* \"#utility.yul\":6123:6146   */\n      dup1\n      calldataload\n      swap3\n        /* \"#utility.yul\":6193:6195   */\n      0x20\n        /* \"#utility.yul\":6178:6196   */\n      swap1\n      swap2\n      add\n        /* \"#utility.yul\":6165:6197   */\n      calldataload\n      swap2\n      pop\n        /* \"#utility.yul\":5955:6203   */\n      jump\t// out\n        /* \"#utility.yul\":6208:6461   */\n    tag_107:\n        /* \"#utility.yul\":6396:6399   */\n      0xc0\n        /* \"#utility.yul\":6381:6400   */\n      dup2\n      add\n        /* \"#utility.yul\":6409:6455   */\n      tag_317\n        /* \"#utility.yul\":6385:6394   */\n      dup3\n        /* \"#utility.yul\":6437:6443   */\n      dup5\n        /* \"#utility.yul\":2652:2694   */\n      0xffffffffffffffffffffffffffffffffffffffff\n        /* \"#utility.yul\":2733:2735   */\n      dup1\n        /* \"#utility.yul\":2725:2730   */\n      dup3\n        /* \"#utility.yul\":2719:2731   */\n      mload\n        /* \"#utility.yul\":2715:2736   */\n      and\n        /* \"#utility.yul\":2710:2713   */\n      dup4\n        /* \"#utility.yul\":2703:2737   */\n      mstore\n        /* \"#utility.yul\":2786:2790   */\n      0x20\n        /* \"#utility.yul\":2779:2784   */\n      dup3\n        /* \"#utility.yul\":2775:2791   */\n      add\n        /* \"#utility.yul\":2769:2792   */\n      mload\n        /* \"#utility.yul\":2762:2766   */\n      0x20\n        /* \"#utility.yul\":2757:2760   */\n      dup5\n        /* \"#utility.yul\":2753:2767   */\n      add\n        /* \"#utility.yul\":2746:2793   */\n      mstore\n        /* \"#utility.yul\":2854:2856   */\n      dup1\n        /* \"#utility.yul\":2846:2850   */\n      0x40\n        /* \"#utility.yul\":2839:2844   */\n      dup4\n        /* \"#utility.yul\":2835:2851   */\n      add\n        /* \"#utility.yul\":2829:2852   */\n      mload\n        /* \"#utility.yul\":2825:2857   */\n      and\n        /* \"#utility.yul\":2818:2822   */\n      0x40\n        /* \"#utility.yul\":2813:2816   */\n      dup5\n        /* \"#utility.yul\":2809:2823   */\n      add\n        /* \"#utility.yul\":2802:2858   */\n      mstore\n        /* \"#utility.yul\":2907:2911   */\n      0x60\n        /* \"#utility.yul\":2900:2905   */\n      dup3\n        /* \"#utility.yul\":2896:2912   */\n      add\n        /* \"#utility.yul\":2890:2913   */\n      mload\n        /* \"#utility.yul\":2883:2887   */\n      0x60\n        /* \"#utility.yul\":2878:2881   */\n      dup5\n        /* \"#utility.yul\":2874:2888   */\n      add\n        /* \"#utility.yul\":2867:2914   */\n      mstore\n        /* \"#utility.yul\":2975:2977   */\n      dup1\n        /* \"#utility.yul\":2967:2971   */\n      0x80\n        /* \"#utility.yul\":2960:2965   */\n      dup4\n        /* \"#utility.yul\":2956:2972   */\n      add\n        /* \"#utility.yul\":2950:2973   */\n      mload\n        /* \"#utility.yul\":2946:2978   */\n      and\n        /* \"#utility.yul\":2939:2943   */\n      0x80\n        /* \"#utility.yul\":2934:2937   */\n      dup5\n        /* \"#utility.yul\":2930:2944   */\n      add\n        /* \"#utility.yul\":2923:2979   */\n      mstore\n      pop\n        /* \"#utility.yul\":3028:3032   */\n      0xa0\n        /* \"#utility.yul\":3021:3026   */\n      dup2\n        /* \"#utility.yul\":3017:3033   */\n      add\n        /* \"#utility.yul\":3011:3034   */\n      mload\n        /* \"#utility.yul\":3004:3008   */\n      0xa0\n        /* \"#utility.yul\":2999:3002   */\n      dup4\n        /* \"#utility.yul\":2995:3009   */\n      add\n        /* \"#utility.yul\":2988:3035   */\n      mstore\n        /* \"#utility.yul\":2579:3041   */\n      pop\n      pop\n      jump\n        /* \"#utility.yul\":7383:7908   */\n    tag_133:\n        /* \"#utility.yul\":7469:7475   */\n      0x00\n        /* \"#utility.yul\":7477:7483   */\n      dup1\n        /* \"#utility.yul\":7485:7491   */\n      0x00\n        /* \"#utility.yul\":7493:7499   */\n      dup1\n        /* \"#utility.yul\":7546:7549   */\n      0x80\n        /* \"#utility.yul\":7534:7543   */\n      dup6\n        /* \"#utility.yul\":7525:7532   */\n      dup8\n        /* \"#utility.yul\":7521:7544   */\n      sub\n        /* \"#utility.yul\":7517:7550   */\n      slt\n        /* \"#utility.yul\":7514:7567   */\n      iszero\n      tag_708\n      jumpi\n        /* \"#utility.yul\":7563:7564   */\n      0x00\n        /* \"#utility.yul\":7560:7561   */\n      dup1\n        /* \"#utility.yul\":7553:7565   */\n      revert\n        /* \"#utility.yul\":7514:7567   */\n    tag_708:\n        /* \"#utility.yul\":7602:7611   */\n      dup5\n        /* \"#utility.yul\":7589:7612   */\n      calldataload\n        /* \"#utility.yul\":7621:7652   */\n      tag_709\n        /* \"#utility.yul\":7646:7651   */\n      dup2\n        /* \"#utility.yul\":7621:7652   */\n      tag_647\n      jump\t// in\n    tag_709:\n        /* \"#utility.yul\":7671:7676   */\n      swap4\n      pop\n        /* \"#utility.yul\":7723:7725   */\n      0x20\n        /* \"#utility.yul\":7708:7726   */\n      dup6\n      add\n        /* \"#utility.yul\":7695:7727   */\n      calldataload\n      swap3\n      pop\n        /* \"#utility.yul\":7774:7776   */\n      0x40\n        /* \"#utility.yul\":7759:7777   */\n      dup6\n      add\n        /* \"#utility.yul\":7746:7778   */\n      calldataload\n      swap2\n      pop\n        /* \"#utility.yul\":7830:7832   */\n      0x60\n        /* \"#utility.yul\":7815:7833   */\n      dup6\n      add\n        /* \"#utility.yul\":7802:7834   */\n      calldataload\n        /* \"#utility.yul\":7843:7876   */\n      tag_710\n        /* \"#utility.yul\":7802:7834   */\n      dup2\n        /* \"#utility.yul\":7843:7876   */\n      tag_647\n      jump\t// in\n    tag_710:\n        /* \"#utility.yul\":7383:7908   */\n      swap4\n      swap7\n      swap3\n      swap6\n      pop\n      swap1\n      swap4\n      pop\n      pop\n      jump\t// out\n        /* \"#utility.yul\":7913:8301   */\n    tag_150:\n        /* \"#utility.yul\":7981:7987   */\n      0x00\n        /* \"#utility.yul\":7989:7995   */\n      dup1\n        /* \"#utility.yul\":8042:8044   */\n      0x40\n        /* \"#utility.yul\":8030:8039   */\n      dup4\n        /* \"#utility.yul\":8021:8028   */\n      dup6\n        /* \"#utility.yul\":8017:8040   */\n      sub\n        /* \"#utility.yul\":8013:8045   */\n      slt\n        /* \"#utility.yul\":8010:8062   */\n      iszero\n      tag_712\n      jumpi\n        /* \"#utility.yul\":8058:8059   */\n      0x00\n        /* \"#utility.yul\":8055:8056   */\n      dup1\n        /* \"#utility.yul\":8048:8060   */\n      revert\n        /* \"#utility.yul\":8010:8062   */\n    tag_712:\n        /* \"#utility.yul\":8097:8106   */\n      dup3\n        /* \"#utility.yul\":8084:8107   */\n      calldataload\n        /* \"#utility.yul\":8116:8147   */\n      tag_713\n        /* \"#utility.yul\":8141:8146   */\n      dup2\n        /* \"#utility.yul\":8116:8147   */\n      tag_647\n      jump\t// in\n    tag_713:\n        /* \"#utility.yul\":8166:8171   */\n      swap2\n      pop\n        /* \"#utility.yul\":8223:8225   */\n      0x20\n        /* \"#utility.yul\":8208:8226   */\n      dup4\n      add\n        /* \"#utility.yul\":8195:8227   */\n      calldataload\n        /* \"#utility.yul\":8236:8269   */\n      tag_714\n        /* \"#utility.yul\":8195:8227   */\n      dup2\n        /* \"#utility.yul\":8236:8269   */\n      tag_647\n      jump\t// in\n    tag_714:\n        /* \"#utility.yul\":8288:8295   */\n      dup1\n        /* \"#utility.yul\":8278:8295   */\n      swap2\n      pop\n      pop\n        /* \"#utility.yul\":7913:8301   */\n      swap3\n      pop\n      swap3\n      swap1\n      pop\n      jump\t// out\n        /* \"#utility.yul\":8306:8490   */\n    tag_198:\n        /* \"#utility.yul\":8358:8435   */\n      0x4e487b7100000000000000000000000000000000000000000000000000000000\n        /* \"#utility.yul\":8355:8356   */\n      0x00\n        /* \"#utility.yul\":8348:8436   */\n      mstore\n        /* \"#utility.yul\":8455:8459   */\n      0x32\n        /* \"#utility.yul\":8452:8453   */\n      0x04\n        /* \"#utility.yul\":8445:8460   */\n      mstore\n        /* \"#utility.yul\":8479:8483   */\n      0x24\n        /* \"#utility.yul\":8476:8477   */\n      0x00\n        /* \"#utility.yul\":8469:8484   */\n      revert\n        /* \"#utility.yul\":8495:8679   */\n    tag_650:\n        /* \"#utility.yul\":8547:8624   */\n      0x4e487b7100000000000000000000000000000000000000000000000000000000\n        /* \"#utility.yul\":8544:8545   */\n      0x00\n        /* \"#utility.yul\":8537:8625   */\n      mstore\n        /* \"#utility.yul\":8644:8648   */\n      0x11\n        /* \"#utility.yul\":8641:8642   */\n      0x04\n        /* \"#utility.yul\":8634:8649   */\n      mstore\n        /* \"#utility.yul\":8668:8672   */\n      0x24\n        /* \"#utility.yul\":8665:8666   */\n      0x00\n        /* \"#utility.yul\":8658:8673   */\n      revert\n        /* \"#utility.yul\":8684:8879   */\n    tag_201:\n        /* \"#utility.yul\":8723:8726   */\n      0x00\n        /* \"#utility.yul\":8754:8820   */\n      0xffffffffffffffffffffffffffffffffffffffffffffffffffffffffffffffff\n        /* \"#utility.yul\":8747:8752   */\n      dup3\n        /* \"#utility.yul\":8744:8821   */\n      sub\n        /* \"#utility.yul\":8741:8844   */\n      tag_719\n      jumpi\n        /* \"#utility.yul\":8824:8842   */\n      tag_719\n      tag_650\n      jump\t// in\n    tag_719:\n      pop\n        /* \"#utility.yul\":8871:8872   */\n      0x01\n        /* \"#utility.yul\":8860:8873   */\n      add\n      swap1\n        /* \"#utility.yul\":8684:8879   */\n      jump\t// out\n        /* \"#utility.yul\":9943:10127   */\n    tag_230:\n        /* \"#utility.yul\":10013:10019   */\n      0x00\n        /* \"#utility.yul\":10066:10068   */\n      0x20\n        /* \"#utility.yul\":10054:10063   */\n      dup3\n        /* \"#utility.yul\":10045:10052   */\n      dup5\n        /* \"#utility.yul\":10041:10064   */\n      sub\n        /* \"#utility.yul\":10037:10069   */\n      slt\n        /* \"#utility.yul\":10034:10086   */\n      iszero\n      tag_724\n      jumpi\n        /* \"#utility.yul\":10082:10083   */\n      0x00\n        /* \"#utility.yul\":10079:10080   */\n      dup1\n        /* \"#utility.yul\":10072:10084   */\n      revert\n        /* \"#utility.yul\":10034:10086   */\n    tag_724:\n      pop\n        /* \"#utility.yul\":10105:10121   */\n      mload\n      swap2\n        /* \"#utility.yul\":9943:10127   */\n      swap1\n      pop\n      jump\t// out\n        /* \"#utility.yul\":13009:13260   */\n    tag_370:\n        /* \"#utility.yul\":13079:13085   */\n      0x00\n        /* \"#utility.yul\":13132:13134   */\n      0x20\n        /* \"#utility.yul\":13120:13129   */\n      dup3\n        /* \"#utility.yul\":13111:13118   */\n      dup5\n        /* \"#utility.yul\":13107:13130   */\n      sub\n        /* \"#utility.yul\":13103:13135   */\n      slt\n        /* \"#utility.yul\":13100:13152   */\n      iszero\n      tag_733\n      jumpi\n        /* \"#utility.yul\":13148:13149   */\n      0x00\n        /* \"#utility.yul\":13145:13146   */\n      dup1\n        /* \"#utility.yul\":13138:13150   */\n      revert\n        /* \"#utility.yul\":13100:13152   */\n    tag_733:\n        /* \"#utility.yul\":13180:13189   */\n      dup2\n        /* \"#utility.yul\":13174:13190   */\n      mload\n        /* \"#utility.yul\":13199:13230   */\n      tag_264\n        /* \"#utility.yul\":13224:13229   */\n      dup2\n        /* \"#utility.yul\":13199:13230   */\n      tag_647\n      jump\t// in\n        /* \"#utility.yul\":17858:18135   */\n    tag_512:\n        /* \"#utility.yul\":17925:17931   */\n      0x00\n        /* \"#utility.yul\":17978:17980   */\n      0x20\n        /* \"#utility.yul\":17966:17975   */\n      dup3\n        /* \"#utility.yul\":17957:17964   */\n      dup5\n        /* \"#utility.yul\":17953:17976   */\n      sub\n        /* \"#utility.yul\":17949:17981   */\n      slt\n        /* \"#utility.yul\":17946:17998   */\n      iszero\n      tag_747\n      jumpi\n        /* \"#utility.yul\":17994:17995   */\n      0x00\n        /* \"#utility.yul\":17991:17992   */\n      dup1\n        /* \"#utility.yul\":17984:17996   */\n      revert\n        /* \"#utility.yul\":17946:17998   */\n    tag_747:\n        /* \"#utility.yul\":18026:18035   */\n      dup2\n        /* \"#utility.yul\":18020:18036   */\n      mload\n        /* \"#utility.yul\":18079:18084   */\n      dup1\n        /* \"#utility.yul\":18072:18085   */\n      iszero\n        /* \"#utility.yul\":18065:18086   */\n      iszero\n        /* \"#utility.yul\":18058:18063   */\n      dup2\n        /* \"#utility.yul\":18055:18087   */\n      eq\n        /* \"#utility.yul\":18045:18105   */\n      tag_264\n      jumpi\n        /* \"#utility.yul\":18101:18102   */\n      0x00\n        /* \"#utility.yul\":18098:18099   */\n      dup1\n        /* \"#utility.yul\":18091:18103   */\n      revert\n        /* \"#utility.yul\":18501:18775   */\n    tag_523:\n        /* \"#utility.yul\":18541:18542   */\n      0x00\n        /* \"#utility.yul\":18567:18568   */\n      dup3\n        /* \"#utility.yul\":18557:18746   */\n      tag_751\n      jumpi\n        /* \"#utility.yul\":18602:18679   */\n      0x4e487b7100000000000000000000000000000000000000000000000000000000\n        /* \"#utility.yul\":18599:18600   */\n      0x00\n        /* \"#utility.yul\":18592:18680   */\n      mstore\n        /* \"#utility.yul\":18703:18707   */\n      0x12\n        /* \"#utility.yul\":18700:18701   */\n      0x04\n        /* \"#utility.yul\":18693:18708   */\n      mstore\n        /* \"#utility.yul\":18731:18735   */\n      0x24\n        /* \"#utility.yul\":18728:18729   */\n      0x00\n        /* \"#utility.yul\":18721:18736   */\n      revert\n        /* \"#utility.yul\":18557:18746   */\n    tag_751:\n      pop\n        /* \"#utility.yul\":18760:18769   */\n      div\n      swap1\n        /* \"#utility.yul\":18501:18775   */\n      jump\t// out\n        /* \"#utility.yul\":18780:18948   */\n    tag_526:\n        /* \"#utility.yul\":18853:18862   */\n      dup1\n      dup3\n      mul\n        /* \"#utility.yul\":18884:18893   */\n      dup2\n      iszero\n        /* \"#utility.yul\":18901:18916   */\n      dup3\n      dup3\n      div\n        /* \"#utility.yul\":18895:18917   */\n      dup5\n      eq\n        /* \"#utility.yul\":18881:18918   */\n      or\n        /* \"#utility.yul\":18871:18942   */\n      tag_317\n      jumpi\n        /* \"#utility.yul\":18922:18940   */\n      tag_317\n      tag_650\n      jump\t// in\n        /* \"#utility.yul\":18953:19081   */\n    tag_529:\n        /* \"#utility.yul\":19020:19029   */\n      dup2\n      dup2\n      sub\n        /* \"#utility.yul\":19041:19052   */\n      dup2\n      dup2\n      gt\n        /* \"#utility.yul\":19038:19075   */\n      iszero\n      tag_317\n      jumpi\n        /* \"#utility.yul\":19055:19073   */\n      tag_317\n      tag_650\n      jump\t// in\n        /* \"#utility.yul\":19086:19282   */\n    tag_550:\n        /* \"#utility.yul\":19125:19128   */\n      0x00\n        /* \"#utility.yul\":19153:19158   */\n      dup2\n        /* \"#utility.yul\":19143:19182   */\n      tag_760\n      jumpi\n        /* \"#utility.yul\":19162:19180   */\n      tag_760\n      tag_650\n      jump\t// in\n    tag_760:\n      pop\n        /* \"#utility.yul\":19209:19275   */\n      0xffffffffffffffffffffffffffffffffffffffffffffffffffffffffffffffff\n        /* \"#utility.yul\":19198:19276   */\n      add\n      swap1\n        /* \"#utility.yul\":19086:19282   */\n      jump\t// out\n        /* \"#utility.yul\":19287:19471   */\n    tag_559:\n        /* \"#utility.yul\":19339:19416   */\n      0x4e487b7100000000000000000000000000000000000000000000000000000000\n        /* \"#utility.yul\":19336:19337   */\n      0x00\n        /* \"#utility.yul\":19329:19417   */\n      mstore\n        /* \"#utility.yul\":19436:19440   */\n      0x31\n        /* \"#utility.yul\":19433:19434   */\n      0x04\n        /* \"#utility.yul\":19426:19441   */\n      mstore\n        /* \"#utility.yul\":19460:19464   */\n      0x24\n        /* \"#utility.yul\":19457:19458   */\n      0x00\n        /* \"#utility.yul\":19450:19465   */\n      revert\n        /* \"#utility.yul\":20294:20544   */\n    tag_651:\n        /* \"#utility.yul\":20379:20380   */\n      0x00\n        /* \"#utility.yul\":20389:20502   */\n    tag_765:\n        /* \"#utility.yul\":20403:20409   */\n      dup4\n        /* \"#utility.yul\":20400:20401   */\n      dup2\n        /* \"#utility.yul\":20397:20410   */\n      lt\n        /* \"#utility.yul\":20389:20502   */\n      iszero\n      tag_767\n      jumpi\n        /* \"#utility.yul\":20479:20490   */\n      dup2\n      dup2\n      add\n        /* \"#utility.yul\":20473:20491   */\n      mload\n        /* \"#utility.yul\":20460:20471   */\n      dup4\n      dup3\n      add\n        /* \"#utility.yul\":20453:20492   */\n      mstore\n        /* \"#utility.yul\":20425:20427   */\n      0x20\n        /* \"#utility.yul\":20418:20428   */\n      add\n        /* \"#utility.yul\":20389:20502   */\n      jump(tag_765)\n    tag_767:\n      pop\n      pop\n        /* \"#utility.yul\":20536:20537   */\n      0x00\n        /* \"#utility.yul\":20518:20534   */\n      swap2\n      add\n        /* \"#utility.yul\":20511:20538   */\n      mstore\n        /* \"#utility.yul\":20294:20544   */\n      jump\t// out\n        /* \"#utility.yul\":20549:20836   */\n    tag_615:\n        /* \"#utility.yul\":20678:20681   */\n      0x00\n        /* \"#utility.yul\":20716:20722   */\n      dup3\n        /* \"#utility.yul\":20710:20723   */\n      mload\n        /* \"#utility.yul\":20732:20798   */\n      tag_769\n        /* \"#utility.yul\":20791:20797   */\n      dup2\n        /* \"#utility.yul\":20786:20789   */\n      dup5\n        /* \"#utility.yul\":20779:20783   */\n      0x20\n        /* \"#utility.yul\":20771:20777   */\n      dup8\n        /* \"#utility.yul\":20767:20784   */\n      add\n        /* \"#utility.yul\":20732:20798   */\n      tag_651\n      jump\t// in\n    tag_769:\n        /* \"#utility.yul\":20814:20830   */\n      swap2\n      swap1\n      swap2\n      add\n      swap3\n        /* \"#utility.yul\":20549:20836   */\n      swap2\n      pop\n      pop\n      jump\t// out\n        /* \"#utility.yul\":21199:21654   */\n    tag_637:\n        /* \"#utility.yul\":21348:21350   */\n      0x20\n        /* \"#utility.yul\":21337:21346   */\n      dup2\n        /* \"#utility.yul\":21330:21351   */\n      mstore\n        /* \"#utility.yul\":21311:21315   */\n      0x00\n        /* \"#utility.yul\":21380:21386   */\n      dup3\n        /* \"#utility.yul\":21374:21387   */\n      mload\n        /* \"#utility.yul\":21423:21429   */\n      dup1\n        /* \"#utility.yul\":21418:21420   */\n      0x20\n        /* \"#utility.yul\":21407:21416   */\n      dup5\n        /* \"#utility.yul\":21403:21421   */\n      add\n        /* \"#utility.yul\":21396:21430   */\n      mstore\n        /* \"#utility.yul\":21439:21518   */\n      tag_772\n        /* \"#utility.yul\":21511:21517   */\n      dup2\n        /* \"#utility.yul\":21506:21508   */\n      0x40\n        /* \"#utility.yul\":21495:21504   */\n      dup6\n        /* \"#utility.yul\":21491:21509   */\n      add\n        /* \"#utility.yul\":21486:21488   */\n      0x20\n        /* \"#utility.yul\":21478:21484   */\n      dup8\n        /* \"#utility.yul\":21474:21489   */\n      add\n        /* \"#utility.yul\":21439:21518   */\n      tag_651\n      jump\t// in\n    tag_772:\n        /* \"#utility.yul\":21570:21572   */\n      0x1f\n        /* \"#utility.yul\":21558:21573   */\n      add\n        /* \"#utility.yul\":21575:21641   */\n      0xffffffffffffffffffffffffffffffffffffffffffffffffffffffffffffffe0\n        /* \"#utility.yul\":21554:21642   */\n      and\n        /* \"#utility.yul\":21539:21643   */\n      swap2\n      swap1\n      swap2\n      add\n        /* \"#utility.yul\":21645:21647   */\n      0x40\n        /* \"#utility.yul\":21535:21648   */\n      add\n      swap3\n        /* \"#utility.yul\":21199:21654   */\n      swap2\n      pop\n      pop\n      jump\t// out\n\n    auxdata: 0xa26469706673582212204e7c2659d9e1d6d925ebc85e34c394a08c34ef326f6cfa47d80ad8c8d0c3ae3c64736f6c63430008120033\n}\n",
				"bytecode": {
					"linkReferences": {},
					"object": "608060405260006001553480156200001657600080fd5b5060405162003f4f38038062003f4f83398101604081905262000039916200032d565b62000044336200017c565b6000805460ff60a01b191681555b84518110156200011d57600160036000878481518110620000775762000077620003b3565b60200260200101516001600160a01b03166001600160a01b0316815260200190815260200160002060006101000a81548160ff0219169083151502179055506002858281518110620000cd57620000cd620003b3565b60209081029190910181015182546001810184556000938452919092200180546001600160a01b0319166001600160a01b03909216919091179055806200011481620003c9565b91505062000052565b506001600160a01b0383161562000135578262000137565b335b600980546001600160a01b0319166001600160a01b03929092169190911790556001829055805162000171906004906020840190620001cc565b5050505050620003f1565b600080546001600160a01b038381166001600160a01b0319831681178455604051919092169283917f8be0079c531659141344cd1fd0a4f28419497f9722a3daafe3b4186f6b6457e09190a35050565b82805482825590600052602060002090810192821562000224579160200282015b828111156200022457825182546001600160a01b0319166001600160a01b03909116178255602090920191600190910190620001ed565b506200023292915062000236565b5090565b5b8082111562000232576000815560010162000237565b634e487b7160e01b600052604160045260246000fd5b80516001600160a01b03811681146200027b57600080fd5b919050565b600082601f8301126200029257600080fd5b815160206001600160401b0380831115620002b157620002b16200024d565b8260051b604051601f19603f83011681018181108482111715620002d957620002d96200024d565b604052938452858101830193838101925087851115620002f857600080fd5b83870191505b848210156200032257620003128262000263565b83529183019190830190620002fe565b979650505050505050565b600080600080608085870312156200034457600080fd5b84516001600160401b03808211156200035c57600080fd5b6200036a8883890162000280565b95506200037a6020880162000263565b94506040870151935060608701519150808211156200039857600080fd5b50620003a78782880162000280565b91505092959194509250565b634e487b7160e01b600052603260045260246000fd5b600060018201620003ea57634e487b7160e01b600052601160045260246000fd5b5060010190565b613b4e80620004016000396000f3fe6080604052600436106101d85760003560e01c8063785fa7ce11610102578063c8f7789911610095578063e9e4e16011610064578063e9e4e160146105c2578063efdcd974146105e2578063f2fde38b14610602578063f4f3b2001461062257600080fd5b8063c8f7789914610542578063cb4ca91914610557578063da24548a14610577578063e8a353921461059757600080fd5b8063a7c9197a116100d1578063a7c9197a146104a7578063a82ba76f146104bc578063b7b7b8ff146104cf578063c8d8101c146104ef57600080fd5b8063785fa7ce146104065780638da5cb5b14610426578063952977f51461047257806398f748bd1461048757600080fd5b8063527f29021161017a5780635c975abb116101495780635c975abb1461037f5780636629e913146103af57806369c57352146103dc578063715018a6146103f157600080fd5b8063527f2902146102d957806354fd4d50146102f95780635b4e7add1461031c5780635b87f0f21461035f57600080fd5b80632ca38df5116101b65780632ca38df51461023f5780633a51f383146102755780633eac63ed146102975780635211ac2e146102c457600080fd5b806310603023146101dd57806327713536146101ff5780632b205d141461021f575b600080fd5b3480156101e957600080fd5b506101fd6101f836600461349f565b610642565b005b34801561020b57600080fd5b506101fd61021a366004613519565b61064f565b34801561022b57600080fd5b506101fd61023a3660046135fc565b610807565b34801561024b57600080fd5b5061025f61025a366004613628565b610e06565b60405161026c919061365d565b60405180910390f35b34801561028157600080fd5b5061028a61102c565b60405161026c91906136fc565b3480156102a357600080fd5b506102b76102b236600461374a565b61109b565b60405161026c9190613767565b3480156102d057600080fd5b506101fd6111e9565b3480156102e557600080fd5b5060015b604051901515815260200161026c565b34801561030557600080fd5b5061030e600181565b60405190815260200161026c565b34801561032857600080fd5b5061030e61033736600461374a565b73ffffffffffffffffffffffffffffffffffffffff1660009081526006602052604090205490565b34801561036b57600080fd5b5061025f61037a3660046137cc565b61125d565b34801561038b57600080fd5b5060005474010000000000000000000000000000000000000000900460ff166102e9565b3480156103bb57600080fd5b506103cf6103ca3660046135fc565b611311565b60405161026c91906137ee565b3480156103e857600080fd5b5061028a61147e565b3480156103fd57600080fd5b506101fd6114eb565b34801561041257600080fd5b506102e961042136600461374a565b6114ff565b34801561043257600080fd5b5060005473ffffffffffffffffffffffffffffffffffffffff165b60405173ffffffffffffffffffffffffffffffffffffffff909116815260200161026c565b34801561047e57600080fd5b5060015461030e565b34801561049357600080fd5b506101fd6104a236600461384d565b611570565b3480156104b357600080fd5b506102b7611a64565b6101fd6104ca3660046135fc565b611bbc565b3480156104db57600080fd5b5061025f6104ea366004613628565b61201b565b3480156104fb57600080fd5b5061030e61050a366004613897565b73ffffffffffffffffffffffffffffffffffffffff918216600090815260086020908152604080832093909416825291909152205490565b34801561054e57600080fd5b5060055461030e565b34801561056357600080fd5b5061025f6105723660046137cc565b612234565b34801561058357600080fd5b506101fd6105923660046135fc565b612241565b3480156105a357600080fd5b5060095473ffffffffffffffffffffffffffffffffffffffff1661044d565b3480156105ce57600080fd5b506101fd6105dd366004613519565b6124a0565b3480156105ee57600080fd5b506101fd6105fd36600461374a565b6124bb565b34801561060e57600080fd5b506101fd61061d36600461374a565b61250a565b34801561062e57600080fd5b506101fd61063d36600461374a565b6125c1565b61064a612783565b600155565b610657612783565b60005b6002548110156106ee576000600360006002848154811061067d5761067d6138d0565b60009182526020808320919091015473ffffffffffffffffffffffffffffffffffffffff168352820192909252604001902080547fffffffffffffffffffffffffffffffffffffffffffffffffffffffffffffff0016911515919091179055806106e68161392e565b91505061065a565b506106fb600260006133ea565b60005b815181101561080357600282828151811061071b5761071b6138d0565b60209081029190910181015182546001808201855560009485529284200180547fffffffffffffffffffffffff00000000000000000000000000000000000000001673ffffffffffffffffffffffffffffffffffffffff90921691909117905583519091600391859085908110610794576107946138d0565b60209081029190910181015173ffffffffffffffffffffffffffffffffffffffff16825281019190915260400160002080547fffffffffffffffffffffffffffffffffffffffffffffffffffffffffffffff0016911515919091179055806107fb8161392e565b9150506106fe565b5050565b60005474010000000000000000000000000000000000000000900460ff1615610891576040517f08c379a000000000000000000000000000000000000000000000000000000000815260206004820152601060248201527f5061757361626c653a207061757365640000000000000000000000000000000060448201526064015b60405180910390fd5b600061089d8383611311565b805190915073ffffffffffffffffffffffffffffffffffffffff1661091e576040517f08c379a000000000000000000000000000000000000000000000000000000000815260206004820152601860248201527f54686973204e4654206973206e6f7420666f722073616c6500000000000000006044820152606401610888565b608081015173ffffffffffffffffffffffffffffffffffffffff1661099f576040517f08c379a000000000000000000000000000000000000000000000000000000000815260206004820181905260248201527f5468697320746f6b656e2073656c6c6564206279204e617469766520636f696e6044820152606401610888565b60808101516040517f70a0823100000000000000000000000000000000000000000000000000000000815233600482015260009073ffffffffffffffffffffffffffffffffffffffff8316906370a0823190602401602060405180830381865afa158015610a11573d6000803e3d6000fd5b505050506040513d601f19601f82011682018060405250810190610a359190613966565b90508260600151811015610acb576040517f08c379a000000000000000000000000000000000000000000000000000000000815260206004820152603460248201527f596f7520646f206e6f74206861766520656e6f75676820746f6b656e73206f6e60448201527f20796f75722062616c616e636520746f207061790000000000000000000000006064820152608401610888565b6040517fdd62ed3e00000000000000000000000000000000000000000000000000000000815233600482015230602482015260009073ffffffffffffffffffffffffffffffffffffffff84169063dd62ed3e90604401602060405180830381865afa158015610b3e573d6000803e3d6000fd5b505050506040513d601f19601f82011682018060405250810190610b629190613966565b90508360600151811015610bf8576040517f08c379a000000000000000000000000000000000000000000000000000000000815260206004820152603a60248201527f596f7520646964206e6f7420616c6c6f772074686520636f6e7472616374207460448201527f6f2073656e642074686520707572636861736520616d6f756e740000000000006064820152608401610888565b60608401516000610c15610c0d836064612804565b600154612810565b9050610c3660005473ffffffffffffffffffffffffffffffffffffffff1690565b73ffffffffffffffffffffffffffffffffffffffff16866040015173ffffffffffffffffffffffffffffffffffffffff1603610c70575060005b6000610c7c838361281c565b6040880151909150610ca89073ffffffffffffffffffffffffffffffffffffffff881690339084612828565b8115610cd757600954610cd79073ffffffffffffffffffffffffffffffffffffffff8881169133911685612828565b865160208801516040517f23b872dd000000000000000000000000000000000000000000000000000000008152306004820152336024820152604481019190915273ffffffffffffffffffffffffffffffffffffffff909116906323b872dd90606401600060405180830381600087803b158015610d5457600080fd5b505af1158015610d68573d6000803e3d6000fd5b50505050610d7689896128c3565b60408781015188516020808b01516080808d01516060808f0151885173ffffffffffffffffffffffffffffffffffffffff988916815233968101969096529587168589015284019290925293169281019290925260a082015290517fa3d27cc8ac4e1915b6a89ce3e468d87aeb3caf011a47e236db61d098e452870c9181900360c00190a1505050505050505050565b73ffffffffffffffffffffffffffffffffffffffff8316600090815260076020526040902054606090156110255773ffffffffffffffffffffffffffffffffffffffff841660009081526007602052604090205467ffffffffffffffff811115610e7257610e726134b8565b604051908082528060200260200182016040528015610ef057816020015b6040805160c08101825260008082526020808301829052928201819052606082018190526080820181905260a082015282527fffffffffffffffffffffffffffffffffffffffffffffffffffffffffffffffff909201910181610e905790505b5090506000805b600554811015611022578573ffffffffffffffffffffffffffffffffffffffff1660058281548110610f2b57610f2b6138d0565b600091825260209091206002600690920201015473ffffffffffffffffffffffffffffffffffffffff16036110105760058181548110610f6d57610f6d6138d0565b60009182526020918290206040805160c0810182526006909302909101805473ffffffffffffffffffffffffffffffffffffffff90811684526001820154948401949094526002810154841691830191909152600381015460608301526004810154909216608082015260059091015460a08201528351849084908110610ff657610ff66138d0565b6020026020010181905250818061100c9061392e565b9250505b8061101a8161392e565b915050610ef7565b50505b9392505050565b6060600280548060200260200160405190810160405280929190818152602001828054801561109157602002820191906000526020600020905b815473ffffffffffffffffffffffffffffffffffffffff168152600190910190602001808311611066575b5050505050905090565b60025460609067ffffffffffffffff8111156110b9576110b96134b8565b6040519080825280602002602001820160405280156110fe57816020015b60408051808201909152600080825260208201528152602001906001900390816110d75790505b50905060005b6002548110156111e35760405180604001604052806002838154811061112c5761112c6138d0565b600091825260208083209091015473ffffffffffffffffffffffffffffffffffffffff9081168452871682526008815260408220600280549490920193909291908690811061117d5761117d6138d0565b600091825260208083209091015473ffffffffffffffffffffffffffffffffffffffff168352820192909252604001902054905282518390839081106111c5576111c56138d0565b602002602001018190525080806111db9061392e565b915050611104565b50919050565b6111f1612783565b6040514790339082156108fc029083906000818181858888f19350505050158015611220573d6000803e3d6000fd5b5060408051338152602081018390527f2f15b7a52fc8a006876377705647acbd22eed72dec9b154aa290e286c06a3cd4910160405180910390a150565b60606005805480602002602001604051908101604052809291908181526020016000905b828210156113045760008481526020908190206040805160c08101825260068602909201805473ffffffffffffffffffffffffffffffffffffffff90811684526001808301548587015260028301548216938501939093526003820154606085015260048201541660808401526005015460a08301529083529092019101611281565b5050505090505b92915050565b6040805160c081018252600080825260208201819052918101829052606081018290526080810182905260a08101829052905b600554811015611477578373ffffffffffffffffffffffffffffffffffffffff1660058281548110611378576113786138d0565b600091825260209091206006909102015473ffffffffffffffffffffffffffffffffffffffff161480156113cf575082600582815481106113bb576113bb6138d0565b906000526020600020906006020160010154145b1561146557600581815481106113e7576113e76138d0565b60009182526020918290206040805160c0810182526006909302909101805473ffffffffffffffffffffffffffffffffffffffff90811684526001820154948401949094526002810154841691830191909152600381015460608301526004810154909216608082015260059091015460a0820152915061130b9050565b8061146f8161392e565b915050611344565b5092915050565b606060048054806020026020016040519081016040528092919081815260200182805480156110915760200282019190600052602060002090815473ffffffffffffffffffffffffffffffffffffffff168152600190910190602001808311611066575050505050905090565b6114f3612783565b6114fd6000612e4f565b565b6000805b6004548110156115675760048181548110611520576115206138d0565b60009182526020909120015473ffffffffffffffffffffffffffffffffffffffff908116908416036115555750600192915050565b8061155f8161392e565b915050611503565b50600092915050565b60005474010000000000000000000000000000000000000000900460ff16156115f5576040517f08c379a000000000000000000000000000000000000000000000000000000000815260206004820152601060248201527f5061757361626c653a20706175736564000000000000000000000000000000006044820152606401610888565b73ffffffffffffffffffffffffffffffffffffffff841660009081526003602052604090205460ff16611684576040517f08c379a000000000000000000000000000000000000000000000000000000000815260206004820152601a60248201527f4e6f7420616c6c6f776564204e465420636f6c6c656374696f6e0000000000006044820152606401610888565b6040517f6352211e00000000000000000000000000000000000000000000000000000000815260048101849052339073ffffffffffffffffffffffffffffffffffffffff861690636352211e90602401602060405180830381865afa1580156116f1573d6000803e3d6000fd5b505050506040513d601f19601f82011682018060405250810190611715919061397f565b73ffffffffffffffffffffffffffffffffffffffff1614611792576040517f08c379a000000000000000000000000000000000000000000000000000000000815260206004820152601960248201527f596f7520646f6e2774206f776e207468697320746f6b656e21000000000000006044820152606401610888565b600082116117fc576040517f08c379a000000000000000000000000000000000000000000000000000000000815260206004820152601f60248201527f5072696365206d7573742062652067726561746572207468616e207a65726f006044820152606401610888565b73ffffffffffffffffffffffffffffffffffffffff8116156118b257611821816114ff565b15156001146118b2576040517f08c379a000000000000000000000000000000000000000000000000000000000815260206004820152602c60248201527f54686973204552433230206e6f7420616c6c6f7765642061732061207472616460448201527f696e672063757272656e637900000000000000000000000000000000000000006064820152608401610888565b6040805160c08101825273ffffffffffffffffffffffffffffffffffffffff86811680835260208301879052338385018190526060840187905291851660808401524260a084015292517f23b872dd0000000000000000000000000000000000000000000000000000000081526004810191909152306024820152604481018690529091906323b872dd90606401600060405180830381600087803b15801561195a57600080fd5b505af115801561196e573d6000803e3d6000fd5b5050505061197b81612ec4565b73ffffffffffffffffffffffffffffffffffffffff82166119ff576040805133815273ffffffffffffffffffffffffffffffffffffffff8781166020830152818301879052841660608201526080810185905290517f44f716b281fa3e96fbd6ef888a275ef2fdf8914960a4c57c0bef6ccaebf0df319181900360a00190a1611a5d565b6040805133815273ffffffffffffffffffffffffffffffffffffffff87166020820152908101859052606081018490527fc68dc1f889fa3a215dcdd97178af6bd67fab7b34138eef18f4313aac53f5b3649060800160405180910390a15b5050505050565b60025460609067ffffffffffffffff811115611a8257611a826134b8565b604051908082528060200260200182016040528015611ac757816020015b6040805180820190915260008082526020820152815260200190600190039081611aa05790505b50905060005b600254811015611bb857604051806040016040528060028381548110611af557611af56138d0565b9060005260206000200160009054906101000a900473ffffffffffffffffffffffffffffffffffffffff1673ffffffffffffffffffffffffffffffffffffffff1681526020016006600060028581548110611b5257611b526138d0565b600091825260208083209091015473ffffffffffffffffffffffffffffffffffffffff16835282019290925260400190205490528251839083908110611b9a57611b9a6138d0565b60200260200101819052508080611bb09061392e565b915050611acd565b5090565b60005474010000000000000000000000000000000000000000900460ff1615611c41576040517f08c379a000000000000000000000000000000000000000000000000000000000815260206004820152601060248201527f5061757361626c653a20706175736564000000000000000000000000000000006044820152606401610888565b6000611c4d8383611311565b805190915073ffffffffffffffffffffffffffffffffffffffff16611cce576040517f08c379a000000000000000000000000000000000000000000000000000000000815260206004820152601860248201527f54686973204e4654206973206e6f7420666f722073616c6500000000000000006044820152606401610888565b8060600151341015611d62576040517f08c379a000000000000000000000000000000000000000000000000000000000815260206004820152602660248201527f596f752068617665206e6f74207061696420656e6f75676820666f722074686960448201527f73206974656d00000000000000000000000000000000000000000000000000006064820152608401610888565b608081015173ffffffffffffffffffffffffffffffffffffffff1615611de4576040517f08c379a000000000000000000000000000000000000000000000000000000000815260206004820152601a60248201527f5468697320746f6b656e2073656c6c65642062792045524332300000000000006044820152606401610888565b346000611df5610c0d836064612804565b9050611e1660005473ffffffffffffffffffffffffffffffffffffffff1690565b73ffffffffffffffffffffffffffffffffffffffff16836040015173ffffffffffffffffffffffffffffffffffffffff1603611e50575060005b6000611e5c838361281c565b9050836040015173ffffffffffffffffffffffffffffffffffffffff166108fc829081150290604051600060405180830381858888f19350505050158015611ea8573d6000803e3d6000fd5b508115611ef85760095460405173ffffffffffffffffffffffffffffffffffffffff9091169083156108fc029084906000818181858888f19350505050158015611ef6573d6000803e3d6000fd5b505b835160208501516040517f23b872dd000000000000000000000000000000000000000000000000000000008152306004820152336024820152604481019190915273ffffffffffffffffffffffffffffffffffffffff909116906323b872dd90606401600060405180830381600087803b158015611f7557600080fd5b505af1158015611f89573d6000803e3d6000fd5b50505050611f9786866128c3565b60408085015185516020808801516060808a0151865173ffffffffffffffffffffffffffffffffffffffff9687168152339481019490945294909316948201949094529081019290925260808201527fbab4aa6b2d5c0935e0e2937d1f73655848f670d43bf6f0c7e9e11e635bb5d86f9060a00160405180910390a1505050505050565b73ffffffffffffffffffffffffffffffffffffffff8316600090815260066020526040902054606090156110255773ffffffffffffffffffffffffffffffffffffffff841660009081526006602052604090205467ffffffffffffffff811115612087576120876134b8565b60405190808252806020026020018201604052801561210557816020015b6040805160c08101825260008082526020808301829052928201819052606082018190526080820181905260a082015282527fffffffffffffffffffffffffffffffffffffffffffffffffffffffffffffffff9092019101816120a55790505b5090506000805b600554811015611022578573ffffffffffffffffffffffffffffffffffffffff1660058281548110612140576121406138d0565b600091825260209091206006909102015473ffffffffffffffffffffffffffffffffffffffff1603612222576005818154811061217f5761217f6138d0565b60009182526020918290206040805160c0810182526006909302909101805473ffffffffffffffffffffffffffffffffffffffff90811684526001820154948401949094526002810154841691830191909152600381015460608301526004810154909216608082015260059091015460a08201528351849084908110612208576122086138d0565b6020026020010181905250818061221e9061392e565b9250505b8061222c8161392e565b91505061210c565b6060611025338484610e06565b600061224d8383611311565b805190915073ffffffffffffffffffffffffffffffffffffffff166122ce576040517f08c379a000000000000000000000000000000000000000000000000000000000815260206004820181905260248201527f546f6b656e206e6f7420666f756e646564206174206d61726b6574706c6163656044820152606401610888565b60005473ffffffffffffffffffffffffffffffffffffffff16331461238657806040015173ffffffffffffffffffffffffffffffffffffffff163373ffffffffffffffffffffffffffffffffffffffff1614612386576040517f08c379a000000000000000000000000000000000000000000000000000000000815260206004820152601460248201527f54686973206973206e6f7420796f7572204e46540000000000000000000000006044820152606401610888565b8051604080830151602084015191517f23b872dd00000000000000000000000000000000000000000000000000000000815230600482015273ffffffffffffffffffffffffffffffffffffffff91821660248201526044810192909252909116906323b872dd90606401600060405180830381600087803b15801561240a57600080fd5b505af115801561241e573d6000803e3d6000fd5b50505050612434816000015182602001516128c3565b6040818101518251602080850151845173ffffffffffffffffffffffffffffffffffffffff94851681529390921690830152918101919091527fcfd975662262e48e8c2b68605e79d409da1b108bdc941f32d355c4cf11d35925906060015b60405180910390a1505050565b6124a8612783565b8051610803906004906020840190613408565b6124c3612783565b600980547fffffffffffffffffffffffff00000000000000000000000000000000000000001673ffffffffffffffffffffffffffffffffffffffff92909216919091179055565b612512612783565b73ffffffffffffffffffffffffffffffffffffffff81166125b5576040517f08c379a000000000000000000000000000000000000000000000000000000000815260206004820152602660248201527f4f776e61626c653a206e6577206f776e657220697320746865207a65726f206160448201527f64647265737300000000000000000000000000000000000000000000000000006064820152608401610888565b6125be81612e4f565b50565b6125c9612783565b6040517f70a08231000000000000000000000000000000000000000000000000000000008152306004820152819060009073ffffffffffffffffffffffffffffffffffffffff8316906370a0823190602401602060405180830381865afa158015612638573d6000803e3d6000fd5b505050506040513d601f19601f8201168201806040525081019061265c9190613966565b90508173ffffffffffffffffffffffffffffffffffffffff1663a9059cbb61269960005473ffffffffffffffffffffffffffffffffffffffff1690565b6040517fffffffff0000000000000000000000000000000000000000000000000000000060e084901b16815273ffffffffffffffffffffffffffffffffffffffff9091166004820152602481018490526044016020604051808303816000875af115801561270b573d6000803e3d6000fd5b505050506040513d601f19601f8201168201806040525081019061272f919061399c565b506040805133815273ffffffffffffffffffffffffffffffffffffffff851660208201529081018290527f33c35f9541201e342d5e7467016e65a0a06182eb12a5f17103f71cec95b6cb2990606001612493565b60005473ffffffffffffffffffffffffffffffffffffffff1633146114fd576040517f08c379a000000000000000000000000000000000000000000000000000000000815260206004820181905260248201527f4f776e61626c653a2063616c6c6572206973206e6f7420746865206f776e65726044820152606401610888565b600061102582846139be565b600061102582846139f9565b60006110258284613a10565b6040805173ffffffffffffffffffffffffffffffffffffffff85811660248301528416604482015260648082018490528251808303909101815260849091019091526020810180517bffffffffffffffffffffffffffffffffffffffffffffffffffffffff167f23b872dd000000000000000000000000000000000000000000000000000000001790526128bd9085906130cf565b50505050565b6005805473ffffffffffffffffffffffffffffffffffffffff841691906128ec90600190613a10565b815481106128fc576128fc6138d0565b600091825260209091206006909102015473ffffffffffffffffffffffffffffffffffffffff1614801561296257506005805482919061293e90600190613a10565b8154811061294e5761294e6138d0565b906000526020600020906006020160010154145b15612b25576005805460079160009161297d90600190613a10565b8154811061298d5761298d6138d0565b600091825260208083206002600690930201919091015473ffffffffffffffffffffffffffffffffffffffff16835282019290925260400181208054916129d383613a23565b9091555050600580546008916000916129ee90600190613a10565b815481106129fe576129fe6138d0565b600091825260208083206002600690930201919091015473ffffffffffffffffffffffffffffffffffffffff908116845283820194909452604092830182209386168252929092528120805491612a5483613a23565b909155505073ffffffffffffffffffffffffffffffffffffffff82166000908152600660205260408120805491612a8a83613a23565b91905055506005805480612aa057612aa0613a58565b60008281526020812060067fffffffffffffffffffffffffffffffffffffffffffffffffffffffffffffffff9093019283020180547fffffffffffffffffffffffff0000000000000000000000000000000000000000908116825560018201839055600282018054821690556003820183905560048201805490911690556005015590555b60005b600554811015612e4a578273ffffffffffffffffffffffffffffffffffffffff1660058281548110612b5c57612b5c6138d0565b600091825260209091206006909102015473ffffffffffffffffffffffffffffffffffffffff16148015612bb357508160058281548110612b9f57612b9f6138d0565b906000526020600020906006020160010154145b15612e38576007600060058381548110612bcf57612bcf6138d0565b600091825260208083206002600690930201919091015473ffffffffffffffffffffffffffffffffffffffff1683528201929092526040018120805491612c1583613a23565b91905055506008600060058381548110612c3157612c316138d0565b600091825260208083206002600690930201919091015473ffffffffffffffffffffffffffffffffffffffff908116845283820194909452604092830182209387168252929092528120805491612c8783613a23565b909155505073ffffffffffffffffffffffffffffffffffffffff83166000908152600660205260408120805491612cbd83613a23565b909155505060058054612cd290600190613a10565b81548110612ce257612ce26138d0565b906000526020600020906006020160058281548110612d0357612d036138d0565b600091825260209091208254600690920201805473ffffffffffffffffffffffffffffffffffffffff9283167fffffffffffffffffffffffff00000000000000000000000000000000000000009182161782556001808501549083015560028085015490830180549185169183169190911790556003808501549083015560048085015490830180549190941691161790915560059182015490820155805480612daf57612daf613a58565b60008281526020812060067fffffffffffffffffffffffffffffffffffffffffffffffffffffffffffffffff9093019283020180547fffffffffffffffffffffffff000000000000000000000000000000000000000090811682556001820183905560028201805482169055600382018390556004820180549091169055600501559055505050565b80612e428161392e565b915050612b28565b505050565b6000805473ffffffffffffffffffffffffffffffffffffffff8381167fffffffffffffffffffffffff0000000000000000000000000000000000000000831681178455604051919092169283917f8be0079c531659141344cd1fd0a4f28419497f9722a3daafe3b4186f6b6457e09190a35050565b600580546001810182556000918252825160069182027f036b6384b5eca791c62761152d0c79bb0604c104a5fb6f4eb0703f3154bb3db08101805473ffffffffffffffffffffffffffffffffffffffff9384167fffffffffffffffffffffffff000000000000000000000000000000000000000091821681179092556020808801517f036b6384b5eca791c62761152d0c79bb0604c104a5fb6f4eb0703f3154bb3db18501556040808901517f036b6384b5eca791c62761152d0c79bb0604c104a5fb6f4eb0703f3154bb3db28601805491881691851691909117905560608901517f036b6384b5eca791c62761152d0c79bb0604c104a5fb6f4eb0703f3154bb3db386015560808901517f036b6384b5eca791c62761152d0c79bb0604c104a5fb6f4eb0703f3154bb3db4860180549190971693169290921790945560a08701517f036b6384b5eca791c62761152d0c79bb0604c104a5fb6f4eb0703f3154bb3db590930192909255845291905281208054916130418361392e565b909155505060408082015173ffffffffffffffffffffffffffffffffffffffff166000908152600760205290812080549161307b8361392e565b909155505060408082015173ffffffffffffffffffffffffffffffffffffffff90811660009081526008602090815283822085519093168252919091529081208054916130c78361392e565b919050555050565b6000613131826040518060400160405280602081526020017f5361666545524332303a206c6f772d6c6576656c2063616c6c206661696c65648152508573ffffffffffffffffffffffffffffffffffffffff166131db9092919063ffffffff16565b805190915015612e4a578080602001905181019061314f919061399c565b612e4a576040517f08c379a000000000000000000000000000000000000000000000000000000000815260206004820152602a60248201527f5361666545524332303a204552433230206f7065726174696f6e20646964206e60448201527f6f742073756363656564000000000000000000000000000000000000000000006064820152608401610888565b60606131ea84846000856131f2565b949350505050565b606082471015613284576040517f08c379a000000000000000000000000000000000000000000000000000000000815260206004820152602660248201527f416464726573733a20696e73756666696369656e742062616c616e636520666f60448201527f722063616c6c00000000000000000000000000000000000000000000000000006064820152608401610888565b6000808673ffffffffffffffffffffffffffffffffffffffff1685876040516132ad9190613aab565b60006040518083038185875af1925050503d80600081146132ea576040519150601f19603f3d011682016040523d82523d6000602084013e6132ef565b606091505b50915091506133008783838761330b565b979650505050505050565b606083156133a157825160000361339a5773ffffffffffffffffffffffffffffffffffffffff85163b61339a576040517f08c379a000000000000000000000000000000000000000000000000000000000815260206004820152601d60248201527f416464726573733a2063616c6c20746f206e6f6e2d636f6e74726163740000006044820152606401610888565b50816131ea565b6131ea83838151156133b65781518083602001fd5b806040517f08c379a00000000000000000000000000000000000000000000000000000000081526004016108889190613ac7565b50805460008255906000526020600020908101906125be919061348a565b828054828255906000526020600020908101928215613482579160200282015b8281111561348257825182547fffffffffffffffffffffffff00000000000000000000000000000000000000001673ffffffffffffffffffffffffffffffffffffffff909116178255602090920191600190910190613428565b50611bb89291505b5b80821115611bb8576000815560010161348b565b6000602082840312156134b157600080fd5b5035919050565b7f4e487b7100000000000000000000000000000000000000000000000000000000600052604160045260246000fd5b73ffffffffffffffffffffffffffffffffffffffff811681146125be57600080fd5b8035613514816134e7565b919050565b6000602080838503121561352c57600080fd5b823567ffffffffffffffff8082111561354457600080fd5b818501915085601f83011261355857600080fd5b81358181111561356a5761356a6134b8565b8060051b6040517fffffffffffffffffffffffffffffffffffffffffffffffffffffffffffffffe0603f830116810181811085821117156135ad576135ad6134b8565b6040529182528482019250838101850191888311156135cb57600080fd5b938501935b828510156135f0576135e185613509565b845293850193928501926135d0565b98975050505050505050565b6000806040838503121561360f57600080fd5b823561361a816134e7565b946020939093013593505050565b60008060006060848603121561363d57600080fd5b8335613648816134e7565b95602085013595506040909401359392505050565b6020808252825182820181905260009190848201906040850190845b818110156136f0576136dd83855173ffffffffffffffffffffffffffffffffffffffff80825116835260208201516020840152806040830151166040840152606082015160608401528060808301511660808401525060a081015160a08301525050565b9284019260c09290920191600101613679565b50909695505050505050565b6020808252825182820181905260009190848201906040850190845b818110156136f057835173ffffffffffffffffffffffffffffffffffffffff1683529284019291840191600101613718565b60006020828403121561375c57600080fd5b8135611025816134e7565b602080825282518282018190526000919060409081850190868401855b828110156137bf578151805173ffffffffffffffffffffffffffffffffffffffff168552860151868501529284019290850190600101613784565b5091979650505050505050565b600080604083850312156137df57600080fd5b50508035926020909101359150565b60c0810161130b828473ffffffffffffffffffffffffffffffffffffffff80825116835260208201516020840152806040830151166040840152606082015160608401528060808301511660808401525060a081015160a08301525050565b6000806000806080858703121561386357600080fd5b843561386e816134e7565b93506020850135925060408501359150606085013561388c816134e7565b939692955090935050565b600080604083850312156138aa57600080fd5b82356138b5816134e7565b915060208301356138c5816134e7565b809150509250929050565b7f4e487b7100000000000000000000000000000000000000000000000000000000600052603260045260246000fd5b7f4e487b7100000000000000000000000000000000000000000000000000000000600052601160045260246000fd5b60007fffffffffffffffffffffffffffffffffffffffffffffffffffffffffffffffff820361395f5761395f6138ff565b5060010190565b60006020828403121561397857600080fd5b5051919050565b60006020828403121561399157600080fd5b8151611025816134e7565b6000602082840312156139ae57600080fd5b8151801515811461102557600080fd5b6000826139f4577f4e487b7100000000000000000000000000000000000000000000000000000000600052601260045260246000fd5b500490565b808202811582820484141761130b5761130b6138ff565b8181038181111561130b5761130b6138ff565b600081613a3257613a326138ff565b507fffffffffffffffffffffffffffffffffffffffffffffffffffffffffffffffff0190565b7f4e487b7100000000000000000000000000000000000000000000000000000000600052603160045260246000fd5b60005b83811015613aa2578181015183820152602001613a8a565b50506000910152565b60008251613abd818460208701613a87565b9190910192915050565b6020815260008251806020840152613ae6816040850160208701613a87565b601f017fffffffffffffffffffffffffffffffffffffffffffffffffffffffffffffffe016919091016040019291505056fea26469706673582212204e7c2659d9e1d6d925ebc85e34c394a08c34ef326f6cfa47d80ad8c8d0c3ae3c64736f6c63430008120033",
					"opcodes": "PUSH1 0x80 PUSH1 0x40 MSTORE PUSH1 0x0 PUSH1 0x1 SSTORE CALLVALUE DUP1 ISZERO PUSH3 0x16 JUMPI PUSH1 0x0 DUP1 REVERT JUMPDEST POP PUSH1 0x40 MLOAD PUSH3 0x3F4F CODESIZE SUB DUP1 PUSH3 0x3F4F DUP4 CODECOPY DUP2 ADD PUSH1 0x40 DUP2 SWAP1 MSTORE PUSH3 0x39 SWAP2 PUSH3 0x32D JUMP JUMPDEST PUSH3 0x44 CALLER PUSH3 0x17C JUMP JUMPDEST PUSH1 0x0 DUP1 SLOAD PUSH1 0xFF PUSH1 0xA0 SHL NOT AND DUP2 SSTORE JUMPDEST DUP5 MLOAD DUP2 LT ISZERO PUSH3 0x11D JUMPI PUSH1 0x1 PUSH1 0x3 PUSH1 0x0 DUP8 DUP5 DUP2 MLOAD DUP2 LT PUSH3 0x77 JUMPI PUSH3 0x77 PUSH3 0x3B3 JUMP JUMPDEST PUSH1 0x20 MUL PUSH1 0x20 ADD ADD MLOAD PUSH1 0x1 PUSH1 0x1 PUSH1 0xA0 SHL SUB AND PUSH1 0x1 PUSH1 0x1 PUSH1 0xA0 SHL SUB AND DUP2 MSTORE PUSH1 0x20 ADD SWAP1 DUP2 MSTORE PUSH1 0x20 ADD PUSH1 0x0 KECCAK256 PUSH1 0x0 PUSH2 0x100 EXP DUP2 SLOAD DUP2 PUSH1 0xFF MUL NOT AND SWAP1 DUP4 ISZERO ISZERO MUL OR SWAP1 SSTORE POP PUSH1 0x2 DUP6 DUP3 DUP2 MLOAD DUP2 LT PUSH3 0xCD JUMPI PUSH3 0xCD PUSH3 0x3B3 JUMP JUMPDEST PUSH1 0x20 SWAP1 DUP2 MUL SWAP2 SWAP1 SWAP2 ADD DUP2 ADD MLOAD DUP3 SLOAD PUSH1 0x1 DUP2 ADD DUP5 SSTORE PUSH1 0x0 SWAP4 DUP5 MSTORE SWAP2 SWAP1 SWAP3 KECCAK256 ADD DUP1 SLOAD PUSH1 0x1 PUSH1 0x1 PUSH1 0xA0 SHL SUB NOT AND PUSH1 0x1 PUSH1 0x1 PUSH1 0xA0 SHL SUB SWAP1 SWAP3 AND SWAP2 SWAP1 SWAP2 OR SWAP1 SSTORE DUP1 PUSH3 0x114 DUP2 PUSH3 0x3C9 JUMP JUMPDEST SWAP2 POP POP PUSH3 0x52 JUMP JUMPDEST POP PUSH1 0x1 PUSH1 0x1 PUSH1 0xA0 SHL SUB DUP4 AND ISZERO PUSH3 0x135 JUMPI DUP3 PUSH3 0x137 JUMP JUMPDEST CALLER JUMPDEST PUSH1 0x9 DUP1 SLOAD PUSH1 0x1 PUSH1 0x1 PUSH1 0xA0 SHL SUB NOT AND PUSH1 0x1 PUSH1 0x1 PUSH1 0xA0 SHL SUB SWAP3 SWAP1 SWAP3 AND SWAP2 SWAP1 SWAP2 OR SWAP1 SSTORE PUSH1 0x1 DUP3 SWAP1 SSTORE DUP1 MLOAD PUSH3 0x171 SWAP1 PUSH1 0x4 SWAP1 PUSH1 0x20 DUP5 ADD SWAP1 PUSH3 0x1CC JUMP JUMPDEST POP POP POP POP POP PUSH3 0x3F1 JUMP JUMPDEST PUSH1 0x0 DUP1 SLOAD PUSH1 0x1 PUSH1 0x1 PUSH1 0xA0 SHL SUB DUP4 DUP2 AND PUSH1 0x1 PUSH1 0x1 PUSH1 0xA0 SHL SUB NOT DUP4 AND DUP2 OR DUP5 SSTORE PUSH1 0x40 MLOAD SWAP2 SWAP1 SWAP3 AND SWAP3 DUP4 SWAP2 PUSH32 0x8BE0079C531659141344CD1FD0A4F28419497F9722A3DAAFE3B4186F6B6457E0 SWAP2 SWAP1 LOG3 POP POP JUMP JUMPDEST DUP3 DUP1 SLOAD DUP3 DUP3 SSTORE SWAP1 PUSH1 0x0 MSTORE PUSH1 0x20 PUSH1 0x0 KECCAK256 SWAP1 DUP2 ADD SWAP3 DUP3 ISZERO PUSH3 0x224 JUMPI SWAP2 PUSH1 0x20 MUL DUP3 ADD JUMPDEST DUP3 DUP2 GT ISZERO PUSH3 0x224 JUMPI DUP3 MLOAD DUP3 SLOAD PUSH1 0x1 PUSH1 0x1 PUSH1 0xA0 SHL SUB NOT AND PUSH1 0x1 PUSH1 0x1 PUSH1 0xA0 SHL SUB SWAP1 SWAP2 AND OR DUP3 SSTORE PUSH1 0x20 SWAP1 SWAP3 ADD SWAP2 PUSH1 0x1 SWAP1 SWAP2 ADD SWAP1 PUSH3 0x1ED JUMP JUMPDEST POP PUSH3 0x232 SWAP3 SWAP2 POP PUSH3 0x236 JUMP JUMPDEST POP SWAP1 JUMP JUMPDEST JUMPDEST DUP1 DUP3 GT ISZERO PUSH3 0x232 JUMPI PUSH1 0x0 DUP2 SSTORE PUSH1 0x1 ADD PUSH3 0x237 JUMP JUMPDEST PUSH4 0x4E487B71 PUSH1 0xE0 SHL PUSH1 0x0 MSTORE PUSH1 0x41 PUSH1 0x4 MSTORE PUSH1 0x24 PUSH1 0x0 REVERT JUMPDEST DUP1 MLOAD PUSH1 0x1 PUSH1 0x1 PUSH1 0xA0 SHL SUB DUP2 AND DUP2 EQ PUSH3 0x27B JUMPI PUSH1 0x0 DUP1 REVERT JUMPDEST SWAP2 SWAP1 POP JUMP JUMPDEST PUSH1 0x0 DUP3 PUSH1 0x1F DUP4 ADD SLT PUSH3 0x292 JUMPI PUSH1 0x0 DUP1 REVERT JUMPDEST DUP2 MLOAD PUSH1 0x20 PUSH1 0x1 PUSH1 0x1 PUSH1 0x40 SHL SUB DUP1 DUP4 GT ISZERO PUSH3 0x2B1 JUMPI PUSH3 0x2B1 PUSH3 0x24D JUMP JUMPDEST DUP3 PUSH1 0x5 SHL PUSH1 0x40 MLOAD PUSH1 0x1F NOT PUSH1 0x3F DUP4 ADD AND DUP2 ADD DUP2 DUP2 LT DUP5 DUP3 GT OR ISZERO PUSH3 0x2D9 JUMPI PUSH3 0x2D9 PUSH3 0x24D JUMP JUMPDEST PUSH1 0x40 MSTORE SWAP4 DUP5 MSTORE DUP6 DUP2 ADD DUP4 ADD SWAP4 DUP4 DUP2 ADD SWAP3 POP DUP8 DUP6 GT ISZERO PUSH3 0x2F8 JUMPI PUSH1 0x0 DUP1 REVERT JUMPDEST DUP4 DUP8 ADD SWAP2 POP JUMPDEST DUP5 DUP3 LT ISZERO PUSH3 0x322 JUMPI PUSH3 0x312 DUP3 PUSH3 0x263 JUMP JUMPDEST DUP4 MSTORE SWAP2 DUP4 ADD SWAP2 SWAP1 DUP4 ADD SWAP1 PUSH3 0x2FE JUMP JUMPDEST SWAP8 SWAP7 POP POP POP POP POP POP POP JUMP JUMPDEST PUSH1 0x0 DUP1 PUSH1 0x0 DUP1 PUSH1 0x80 DUP6 DUP8 SUB SLT ISZERO PUSH3 0x344 JUMPI PUSH1 0x0 DUP1 REVERT JUMPDEST DUP5 MLOAD PUSH1 0x1 PUSH1 0x1 PUSH1 0x40 SHL SUB DUP1 DUP3 GT ISZERO PUSH3 0x35C JUMPI PUSH1 0x0 DUP1 REVERT JUMPDEST PUSH3 0x36A DUP9 DUP4 DUP10 ADD PUSH3 0x280 JUMP JUMPDEST SWAP6 POP PUSH3 0x37A PUSH1 0x20 DUP9 ADD PUSH3 0x263 JUMP JUMPDEST SWAP5 POP PUSH1 0x40 DUP8 ADD MLOAD SWAP4 POP PUSH1 0x60 DUP8 ADD MLOAD SWAP2 POP DUP1 DUP3 GT ISZERO PUSH3 0x398 JUMPI PUSH1 0x0 DUP1 REVERT JUMPDEST POP PUSH3 0x3A7 DUP8 DUP3 DUP9 ADD PUSH3 0x280 JUMP JUMPDEST SWAP2 POP POP SWAP3 SWAP6 SWAP2 SWAP5 POP SWAP3 POP JUMP JUMPDEST PUSH4 0x4E487B71 PUSH1 0xE0 SHL PUSH1 0x0 MSTORE PUSH1 0x32 PUSH1 0x4 MSTORE PUSH1 0x24 PUSH1 0x0 REVERT JUMPDEST PUSH1 0x0 PUSH1 0x1 DUP3 ADD PUSH3 0x3EA JUMPI PUSH4 0x4E487B71 PUSH1 0xE0 SHL PUSH1 0x0 MSTORE PUSH1 0x11 PUSH1 0x4 MSTORE PUSH1 0x24 PUSH1 0x0 REVERT JUMPDEST POP PUSH1 0x1 ADD SWAP1 JUMP JUMPDEST PUSH2 0x3B4E DUP1 PUSH3 0x401 PUSH1 0x0 CODECOPY PUSH1 0x0 RETURN INVALID PUSH1 0x80 PUSH1 0x40 MSTORE PUSH1 0x4 CALLDATASIZE LT PUSH2 0x1D8 JUMPI PUSH1 0x0 CALLDATALOAD PUSH1 0xE0 SHR DUP1 PUSH4 0x785FA7CE GT PUSH2 0x102 JUMPI DUP1 PUSH4 0xC8F77899 GT PUSH2 0x95 JUMPI DUP1 PUSH4 0xE9E4E160 GT PUSH2 0x64 JUMPI DUP1 PUSH4 0xE9E4E160 EQ PUSH2 0x5C2 JUMPI DUP1 PUSH4 0xEFDCD974 EQ PUSH2 0x5E2 JUMPI DUP1 PUSH4 0xF2FDE38B EQ PUSH2 0x602 JUMPI DUP1 PUSH4 0xF4F3B200 EQ PUSH2 0x622 JUMPI PUSH1 0x0 DUP1 REVERT JUMPDEST DUP1 PUSH4 0xC8F77899 EQ PUSH2 0x542 JUMPI DUP1 PUSH4 0xCB4CA919 EQ PUSH2 0x557 JUMPI DUP1 PUSH4 0xDA24548A EQ PUSH2 0x577 JUMPI DUP1 PUSH4 0xE8A35392 EQ PUSH2 0x597 JUMPI PUSH1 0x0 DUP1 REVERT JUMPDEST DUP1 PUSH4 0xA7C9197A GT PUSH2 0xD1 JUMPI DUP1 PUSH4 0xA7C9197A EQ PUSH2 0x4A7 JUMPI DUP1 PUSH4 0xA82BA76F EQ PUSH2 0x4BC JUMPI DUP1 PUSH4 0xB7B7B8FF EQ PUSH2 0x4CF JUMPI DUP1 PUSH4 0xC8D8101C EQ PUSH2 0x4EF JUMPI PUSH1 0x0 DUP1 REVERT JUMPDEST DUP1 PUSH4 0x785FA7CE EQ PUSH2 0x406 JUMPI DUP1 PUSH4 0x8DA5CB5B EQ PUSH2 0x426 JUMPI DUP1 PUSH4 0x952977F5 EQ PUSH2 0x472 JUMPI DUP1 PUSH4 0x98F748BD EQ PUSH2 0x487 JUMPI PUSH1 0x0 DUP1 REVERT JUMPDEST DUP1 PUSH4 0x527F2902 GT PUSH2 0x17A JUMPI DUP1 PUSH4 0x5C975ABB GT PUSH2 0x149 JUMPI DUP1 PUSH4 0x5C975ABB EQ PUSH2 0x37F JUMPI DUP1 PUSH4 0x6629E913 EQ PUSH2 0x3AF JUMPI DUP1 PUSH4 0x69C57352 EQ PUSH2 0x3DC JUMPI DUP1 PUSH4 0x715018A6 EQ PUSH2 0x3F1 JUMPI PUSH1 0x0 DUP1 REVERT JUMPDEST DUP1 PUSH4 0x527F2902 EQ PUSH2 0x2D9 JUMPI DUP1 PUSH4 0x54FD4D50 EQ PUSH2 0x2F9 JUMPI DUP1 PUSH4 0x5B4E7ADD EQ PUSH2 0x31C JUMPI DUP1 PUSH4 0x5B87F0F2 EQ PUSH2 0x35F JUMPI PUSH1 0x0 DUP1 REVERT JUMPDEST DUP1 PUSH4 0x2CA38DF5 GT PUSH2 0x1B6 JUMPI DUP1 PUSH4 0x2CA38DF5 EQ PUSH2 0x23F JUMPI DUP1 PUSH4 0x3A51F383 EQ PUSH2 0x275 JUMPI DUP1 PUSH4 0x3EAC63ED EQ PUSH2 0x297 JUMPI DUP1 PUSH4 0x5211AC2E EQ PUSH2 0x2C4 JUMPI PUSH1 0x0 DUP1 REVERT JUMPDEST DUP1 PUSH4 0x10603023 EQ PUSH2 0x1DD JUMPI DUP1 PUSH4 0x27713536 EQ PUSH2 0x1FF JUMPI DUP1 PUSH4 0x2B205D14 EQ PUSH2 0x21F JUMPI JUMPDEST PUSH1 0x0 DUP1 REVERT JUMPDEST CALLVALUE DUP1 ISZERO PUSH2 0x1E9 JUMPI PUSH1 0x0 DUP1 REVERT JUMPDEST POP PUSH2 0x1FD PUSH2 0x1F8 CALLDATASIZE PUSH1 0x4 PUSH2 0x349F JUMP JUMPDEST PUSH2 0x642 JUMP JUMPDEST STOP JUMPDEST CALLVALUE DUP1 ISZERO PUSH2 0x20B JUMPI PUSH1 0x0 DUP1 REVERT JUMPDEST POP PUSH2 0x1FD PUSH2 0x21A CALLDATASIZE PUSH1 0x4 PUSH2 0x3519 JUMP JUMPDEST PUSH2 0x64F JUMP JUMPDEST CALLVALUE DUP1 ISZERO PUSH2 0x22B JUMPI PUSH1 0x0 DUP1 REVERT JUMPDEST POP PUSH2 0x1FD PUSH2 0x23A CALLDATASIZE PUSH1 0x4 PUSH2 0x35FC JUMP JUMPDEST PUSH2 0x807 JUMP JUMPDEST CALLVALUE DUP1 ISZERO PUSH2 0x24B JUMPI PUSH1 0x0 DUP1 REVERT JUMPDEST POP PUSH2 0x25F PUSH2 0x25A CALLDATASIZE PUSH1 0x4 PUSH2 0x3628 JUMP JUMPDEST PUSH2 0xE06 JUMP JUMPDEST PUSH1 0x40 MLOAD PUSH2 0x26C SWAP2 SWAP1 PUSH2 0x365D JUMP JUMPDEST PUSH1 0x40 MLOAD DUP1 SWAP2 SUB SWAP1 RETURN JUMPDEST CALLVALUE DUP1 ISZERO PUSH2 0x281 JUMPI PUSH1 0x0 DUP1 REVERT JUMPDEST POP PUSH2 0x28A PUSH2 0x102C JUMP JUMPDEST PUSH1 0x40 MLOAD PUSH2 0x26C SWAP2 SWAP1 PUSH2 0x36FC JUMP JUMPDEST CALLVALUE DUP1 ISZERO PUSH2 0x2A3 JUMPI PUSH1 0x0 DUP1 REVERT JUMPDEST POP PUSH2 0x2B7 PUSH2 0x2B2 CALLDATASIZE PUSH1 0x4 PUSH2 0x374A JUMP JUMPDEST PUSH2 0x109B JUMP JUMPDEST PUSH1 0x40 MLOAD PUSH2 0x26C SWAP2 SWAP1 PUSH2 0x3767 JUMP JUMPDEST CALLVALUE DUP1 ISZERO PUSH2 0x2D0 JUMPI PUSH1 0x0 DUP1 REVERT JUMPDEST POP PUSH2 0x1FD PUSH2 0x11E9 JUMP JUMPDEST CALLVALUE DUP1 ISZERO PUSH2 0x2E5 JUMPI PUSH1 0x0 DUP1 REVERT JUMPDEST POP PUSH1 0x1 JUMPDEST PUSH1 0x40 MLOAD SWAP1 ISZERO ISZERO DUP2 MSTORE PUSH1 0x20 ADD PUSH2 0x26C JUMP JUMPDEST CALLVALUE DUP1 ISZERO PUSH2 0x305 JUMPI PUSH1 0x0 DUP1 REVERT JUMPDEST POP PUSH2 0x30E PUSH1 0x1 DUP2 JUMP JUMPDEST PUSH1 0x40 MLOAD SWAP1 DUP2 MSTORE PUSH1 0x20 ADD PUSH2 0x26C JUMP JUMPDEST CALLVALUE DUP1 ISZERO PUSH2 0x328 JUMPI PUSH1 0x0 DUP1 REVERT JUMPDEST POP PUSH2 0x30E PUSH2 0x337 CALLDATASIZE PUSH1 0x4 PUSH2 0x374A JUMP JUMPDEST PUSH20 0xFFFFFFFFFFFFFFFFFFFFFFFFFFFFFFFFFFFFFFFF AND PUSH1 0x0 SWAP1 DUP2 MSTORE PUSH1 0x6 PUSH1 0x20 MSTORE PUSH1 0x40 SWAP1 KECCAK256 SLOAD SWAP1 JUMP JUMPDEST CALLVALUE DUP1 ISZERO PUSH2 0x36B JUMPI PUSH1 0x0 DUP1 REVERT JUMPDEST POP PUSH2 0x25F PUSH2 0x37A CALLDATASIZE PUSH1 0x4 PUSH2 0x37CC JUMP JUMPDEST PUSH2 0x125D JUMP JUMPDEST CALLVALUE DUP1 ISZERO PUSH2 0x38B JUMPI PUSH1 0x0 DUP1 REVERT JUMPDEST POP PUSH1 0x0 SLOAD PUSH21 0x10000000000000000000000000000000000000000 SWAP1 DIV PUSH1 0xFF AND PUSH2 0x2E9 JUMP JUMPDEST CALLVALUE DUP1 ISZERO PUSH2 0x3BB JUMPI PUSH1 0x0 DUP1 REVERT JUMPDEST POP PUSH2 0x3CF PUSH2 0x3CA CALLDATASIZE PUSH1 0x4 PUSH2 0x35FC JUMP JUMPDEST PUSH2 0x1311 JUMP JUMPDEST PUSH1 0x40 MLOAD PUSH2 0x26C SWAP2 SWAP1 PUSH2 0x37EE JUMP JUMPDEST CALLVALUE DUP1 ISZERO PUSH2 0x3E8 JUMPI PUSH1 0x0 DUP1 REVERT JUMPDEST POP PUSH2 0x28A PUSH2 0x147E JUMP JUMPDEST CALLVALUE DUP1 ISZERO PUSH2 0x3FD JUMPI PUSH1 0x0 DUP1 REVERT JUMPDEST POP PUSH2 0x1FD PUSH2 0x14EB JUMP JUMPDEST CALLVALUE DUP1 ISZERO PUSH2 0x412 JUMPI PUSH1 0x0 DUP1 REVERT JUMPDEST POP PUSH2 0x2E9 PUSH2 0x421 CALLDATASIZE PUSH1 0x4 PUSH2 0x374A JUMP JUMPDEST PUSH2 0x14FF JUMP JUMPDEST CALLVALUE DUP1 ISZERO PUSH2 0x432 JUMPI PUSH1 0x0 DUP1 REVERT JUMPDEST POP PUSH1 0x0 SLOAD PUSH20 0xFFFFFFFFFFFFFFFFFFFFFFFFFFFFFFFFFFFFFFFF AND JUMPDEST PUSH1 0x40 MLOAD PUSH20 0xFFFFFFFFFFFFFFFFFFFFFFFFFFFFFFFFFFFFFFFF SWAP1 SWAP2 AND DUP2 MSTORE PUSH1 0x20 ADD PUSH2 0x26C JUMP JUMPDEST CALLVALUE DUP1 ISZERO PUSH2 0x47E JUMPI PUSH1 0x0 DUP1 REVERT JUMPDEST POP PUSH1 0x1 SLOAD PUSH2 0x30E JUMP JUMPDEST CALLVALUE DUP1 ISZERO PUSH2 0x493 JUMPI PUSH1 0x0 DUP1 REVERT JUMPDEST POP PUSH2 0x1FD PUSH2 0x4A2 CALLDATASIZE PUSH1 0x4 PUSH2 0x384D JUMP JUMPDEST PUSH2 0x1570 JUMP JUMPDEST CALLVALUE DUP1 ISZERO PUSH2 0x4B3 JUMPI PUSH1 0x0 DUP1 REVERT JUMPDEST POP PUSH2 0x2B7 PUSH2 0x1A64 JUMP JUMPDEST PUSH2 0x1FD PUSH2 0x4CA CALLDATASIZE PUSH1 0x4 PUSH2 0x35FC JUMP JUMPDEST PUSH2 0x1BBC JUMP JUMPDEST CALLVALUE DUP1 ISZERO PUSH2 0x4DB JUMPI PUSH1 0x0 DUP1 REVERT JUMPDEST POP PUSH2 0x25F PUSH2 0x4EA CALLDATASIZE PUSH1 0x4 PUSH2 0x3628 JUMP JUMPDEST PUSH2 0x201B JUMP JUMPDEST CALLVALUE DUP1 ISZERO PUSH2 0x4FB JUMPI PUSH1 0x0 DUP1 REVERT JUMPDEST POP PUSH2 0x30E PUSH2 0x50A CALLDATASIZE PUSH1 0x4 PUSH2 0x3897 JUMP JUMPDEST PUSH20 0xFFFFFFFFFFFFFFFFFFFFFFFFFFFFFFFFFFFFFFFF SWAP2 DUP3 AND PUSH1 0x0 SWAP1 DUP2 MSTORE PUSH1 0x8 PUSH1 0x20 SWAP1 DUP2 MSTORE PUSH1 0x40 DUP1 DUP4 KECCAK256 SWAP4 SWAP1 SWAP5 AND DUP3 MSTORE SWAP2 SWAP1 SWAP2 MSTORE KECCAK256 SLOAD SWAP1 JUMP JUMPDEST CALLVALUE DUP1 ISZERO PUSH2 0x54E JUMPI PUSH1 0x0 DUP1 REVERT JUMPDEST POP PUSH1 0x5 SLOAD PUSH2 0x30E JUMP JUMPDEST CALLVALUE DUP1 ISZERO PUSH2 0x563 JUMPI PUSH1 0x0 DUP1 REVERT JUMPDEST POP PUSH2 0x25F PUSH2 0x572 CALLDATASIZE PUSH1 0x4 PUSH2 0x37CC JUMP JUMPDEST PUSH2 0x2234 JUMP JUMPDEST CALLVALUE DUP1 ISZERO PUSH2 0x583 JUMPI PUSH1 0x0 DUP1 REVERT JUMPDEST POP PUSH2 0x1FD PUSH2 0x592 CALLDATASIZE PUSH1 0x4 PUSH2 0x35FC JUMP JUMPDEST PUSH2 0x2241 JUMP JUMPDEST CALLVALUE DUP1 ISZERO PUSH2 0x5A3 JUMPI PUSH1 0x0 DUP1 REVERT JUMPDEST POP PUSH1 0x9 SLOAD PUSH20 0xFFFFFFFFFFFFFFFFFFFFFFFFFFFFFFFFFFFFFFFF AND PUSH2 0x44D JUMP JUMPDEST CALLVALUE DUP1 ISZERO PUSH2 0x5CE JUMPI PUSH1 0x0 DUP1 REVERT JUMPDEST POP PUSH2 0x1FD PUSH2 0x5DD CALLDATASIZE PUSH1 0x4 PUSH2 0x3519 JUMP JUMPDEST PUSH2 0x24A0 JUMP JUMPDEST CALLVALUE DUP1 ISZERO PUSH2 0x5EE JUMPI PUSH1 0x0 DUP1 REVERT JUMPDEST POP PUSH2 0x1FD PUSH2 0x5FD CALLDATASIZE PUSH1 0x4 PUSH2 0x374A JUMP JUMPDEST PUSH2 0x24BB JUMP JUMPDEST CALLVALUE DUP1 ISZERO PUSH2 0x60E JUMPI PUSH1 0x0 DUP1 REVERT JUMPDEST POP PUSH2 0x1FD PUSH2 0x61D CALLDATASIZE PUSH1 0x4 PUSH2 0x374A JUMP JUMPDEST PUSH2 0x250A JUMP JUMPDEST CALLVALUE DUP1 ISZERO PUSH2 0x62E JUMPI PUSH1 0x0 DUP1 REVERT JUMPDEST POP PUSH2 0x1FD PUSH2 0x63D CALLDATASIZE PUSH1 0x4 PUSH2 0x374A JUMP JUMPDEST PUSH2 0x25C1 JUMP JUMPDEST PUSH2 0x64A PUSH2 0x2783 JUMP JUMPDEST PUSH1 0x1 SSTORE JUMP JUMPDEST PUSH2 0x657 PUSH2 0x2783 JUMP JUMPDEST PUSH1 0x0 JUMPDEST PUSH1 0x2 SLOAD DUP2 LT ISZERO PUSH2 0x6EE JUMPI PUSH1 0x0 PUSH1 0x3 PUSH1 0x0 PUSH1 0x2 DUP5 DUP2 SLOAD DUP2 LT PUSH2 0x67D JUMPI PUSH2 0x67D PUSH2 0x38D0 JUMP JUMPDEST PUSH1 0x0 SWAP2 DUP3 MSTORE PUSH1 0x20 DUP1 DUP4 KECCAK256 SWAP2 SWAP1 SWAP2 ADD SLOAD PUSH20 0xFFFFFFFFFFFFFFFFFFFFFFFFFFFFFFFFFFFFFFFF AND DUP4 MSTORE DUP3 ADD SWAP3 SWAP1 SWAP3 MSTORE PUSH1 0x40 ADD SWAP1 KECCAK256 DUP1 SLOAD PUSH32 0xFFFFFFFFFFFFFFFFFFFFFFFFFFFFFFFFFFFFFFFFFFFFFFFFFFFFFFFFFFFFFF00 AND SWAP2 ISZERO ISZERO SWAP2 SWAP1 SWAP2 OR SWAP1 SSTORE DUP1 PUSH2 0x6E6 DUP2 PUSH2 0x392E JUMP JUMPDEST SWAP2 POP POP PUSH2 0x65A JUMP JUMPDEST POP PUSH2 0x6FB PUSH1 0x2 PUSH1 0x0 PUSH2 0x33EA JUMP JUMPDEST PUSH1 0x0 JUMPDEST DUP2 MLOAD DUP2 LT ISZERO PUSH2 0x803 JUMPI PUSH1 0x2 DUP3 DUP3 DUP2 MLOAD DUP2 LT PUSH2 0x71B JUMPI PUSH2 0x71B PUSH2 0x38D0 JUMP JUMPDEST PUSH1 0x20 SWAP1 DUP2 MUL SWAP2 SWAP1 SWAP2 ADD DUP2 ADD MLOAD DUP3 SLOAD PUSH1 0x1 DUP1 DUP3 ADD DUP6 SSTORE PUSH1 0x0 SWAP5 DUP6 MSTORE SWAP3 DUP5 KECCAK256 ADD DUP1 SLOAD PUSH32 0xFFFFFFFFFFFFFFFFFFFFFFFF0000000000000000000000000000000000000000 AND PUSH20 0xFFFFFFFFFFFFFFFFFFFFFFFFFFFFFFFFFFFFFFFF SWAP1 SWAP3 AND SWAP2 SWAP1 SWAP2 OR SWAP1 SSTORE DUP4 MLOAD SWAP1 SWAP2 PUSH1 0x3 SWAP2 DUP6 SWAP1 DUP6 SWAP1 DUP2 LT PUSH2 0x794 JUMPI PUSH2 0x794 PUSH2 0x38D0 JUMP JUMPDEST PUSH1 0x20 SWAP1 DUP2 MUL SWAP2 SWAP1 SWAP2 ADD DUP2 ADD MLOAD PUSH20 0xFFFFFFFFFFFFFFFFFFFFFFFFFFFFFFFFFFFFFFFF AND DUP3 MSTORE DUP2 ADD SWAP2 SWAP1 SWAP2 MSTORE PUSH1 0x40 ADD PUSH1 0x0 KECCAK256 DUP1 SLOAD PUSH32 0xFFFFFFFFFFFFFFFFFFFFFFFFFFFFFFFFFFFFFFFFFFFFFFFFFFFFFFFFFFFFFF00 AND SWAP2 ISZERO ISZERO SWAP2 SWAP1 SWAP2 OR SWAP1 SSTORE DUP1 PUSH2 0x7FB DUP2 PUSH2 0x392E JUMP JUMPDEST SWAP2 POP POP PUSH2 0x6FE JUMP JUMPDEST POP POP JUMP JUMPDEST PUSH1 0x0 SLOAD PUSH21 0x10000000000000000000000000000000000000000 SWAP1 DIV PUSH1 0xFF AND ISZERO PUSH2 0x891 JUMPI PUSH1 0x40 MLOAD PUSH32 0x8C379A000000000000000000000000000000000000000000000000000000000 DUP2 MSTORE PUSH1 0x20 PUSH1 0x4 DUP3 ADD MSTORE PUSH1 0x10 PUSH1 0x24 DUP3 ADD MSTORE PUSH32 0x5061757361626C653A2070617573656400000000000000000000000000000000 PUSH1 0x44 DUP3 ADD MSTORE PUSH1 0x64 ADD JUMPDEST PUSH1 0x40 MLOAD DUP1 SWAP2 SUB SWAP1 REVERT JUMPDEST PUSH1 0x0 PUSH2 0x89D DUP4 DUP4 PUSH2 0x1311 JUMP JUMPDEST DUP1 MLOAD SWAP1 SWAP2 POP PUSH20 0xFFFFFFFFFFFFFFFFFFFFFFFFFFFFFFFFFFFFFFFF AND PUSH2 0x91E JUMPI PUSH1 0x40 MLOAD PUSH32 0x8C379A000000000000000000000000000000000000000000000000000000000 DUP2 MSTORE PUSH1 0x20 PUSH1 0x4 DUP3 ADD MSTORE PUSH1 0x18 PUSH1 0x24 DUP3 ADD MSTORE PUSH32 0x54686973204E4654206973206E6F7420666F722073616C650000000000000000 PUSH1 0x44 DUP3 ADD MSTORE PUSH1 0x64 ADD PUSH2 0x888 JUMP JUMPDEST PUSH1 0x80 DUP2 ADD MLOAD PUSH20 0xFFFFFFFFFFFFFFFFFFFFFFFFFFFFFFFFFFFFFFFF AND PUSH2 0x99F JUMPI PUSH1 0x40 MLOAD PUSH32 0x8C379A000000000000000000000000000000000000000000000000000000000 DUP2 MSTORE PUSH1 0x20 PUSH1 0x4 DUP3 ADD DUP2 SWAP1 MSTORE PUSH1 0x24 DUP3 ADD MSTORE PUSH32 0x5468697320746F6B656E2073656C6C6564206279204E617469766520636F696E PUSH1 0x44 DUP3 ADD MSTORE PUSH1 0x64 ADD PUSH2 0x888 JUMP JUMPDEST PUSH1 0x80 DUP2 ADD MLOAD PUSH1 0x40 MLOAD PUSH32 0x70A0823100000000000000000000000000000000000000000000000000000000 DUP2 MSTORE CALLER PUSH1 0x4 DUP3 ADD MSTORE PUSH1 0x0 SWAP1 PUSH20 0xFFFFFFFFFFFFFFFFFFFFFFFFFFFFFFFFFFFFFFFF DUP4 AND SWAP1 PUSH4 0x70A08231 SWAP1 PUSH1 0x24 ADD PUSH1 0x20 PUSH1 0x40 MLOAD DUP1 DUP4 SUB DUP2 DUP7 GAS STATICCALL ISZERO DUP1 ISZERO PUSH2 0xA11 JUMPI RETURNDATASIZE PUSH1 0x0 DUP1 RETURNDATACOPY RETURNDATASIZE PUSH1 0x0 REVERT JUMPDEST POP POP POP POP PUSH1 0x40 MLOAD RETURNDATASIZE PUSH1 0x1F NOT PUSH1 0x1F DUP3 ADD AND DUP3 ADD DUP1 PUSH1 0x40 MSTORE POP DUP2 ADD SWAP1 PUSH2 0xA35 SWAP2 SWAP1 PUSH2 0x3966 JUMP JUMPDEST SWAP1 POP DUP3 PUSH1 0x60 ADD MLOAD DUP2 LT ISZERO PUSH2 0xACB JUMPI PUSH1 0x40 MLOAD PUSH32 0x8C379A000000000000000000000000000000000000000000000000000000000 DUP2 MSTORE PUSH1 0x20 PUSH1 0x4 DUP3 ADD MSTORE PUSH1 0x34 PUSH1 0x24 DUP3 ADD MSTORE PUSH32 0x596F7520646F206E6F74206861766520656E6F75676820746F6B656E73206F6E PUSH1 0x44 DUP3 ADD MSTORE PUSH32 0x20796F75722062616C616E636520746F20706179000000000000000000000000 PUSH1 0x64 DUP3 ADD MSTORE PUSH1 0x84 ADD PUSH2 0x888 JUMP JUMPDEST PUSH1 0x40 MLOAD PUSH32 0xDD62ED3E00000000000000000000000000000000000000000000000000000000 DUP2 MSTORE CALLER PUSH1 0x4 DUP3 ADD MSTORE ADDRESS PUSH1 0x24 DUP3 ADD MSTORE PUSH1 0x0 SWAP1 PUSH20 0xFFFFFFFFFFFFFFFFFFFFFFFFFFFFFFFFFFFFFFFF DUP5 AND SWAP1 PUSH4 0xDD62ED3E SWAP1 PUSH1 0x44 ADD PUSH1 0x20 PUSH1 0x40 MLOAD DUP1 DUP4 SUB DUP2 DUP7 GAS STATICCALL ISZERO DUP1 ISZERO PUSH2 0xB3E JUMPI RETURNDATASIZE PUSH1 0x0 DUP1 RETURNDATACOPY RETURNDATASIZE PUSH1 0x0 REVERT JUMPDEST POP POP POP POP PUSH1 0x40 MLOAD RETURNDATASIZE PUSH1 0x1F NOT PUSH1 0x1F DUP3 ADD AND DUP3 ADD DUP1 PUSH1 0x40 MSTORE POP DUP2 ADD SWAP1 PUSH2 0xB62 SWAP2 SWAP1 PUSH2 0x3966 JUMP JUMPDEST SWAP1 POP DUP4 PUSH1 0x60 ADD MLOAD DUP2 LT ISZERO PUSH2 0xBF8 JUMPI PUSH1 0x40 MLOAD PUSH32 0x8C379A000000000000000000000000000000000000000000000000000000000 DUP2 MSTORE PUSH1 0x20 PUSH1 0x4 DUP3 ADD MSTORE PUSH1 0x3A PUSH1 0x24 DUP3 ADD MSTORE PUSH32 0x596F7520646964206E6F7420616C6C6F772074686520636F6E74726163742074 PUSH1 0x44 DUP3 ADD MSTORE PUSH32 0x6F2073656E642074686520707572636861736520616D6F756E74000000000000 PUSH1 0x64 DUP3 ADD MSTORE PUSH1 0x84 ADD PUSH2 0x888 JUMP JUMPDEST PUSH1 0x60 DUP5 ADD MLOAD PUSH1 0x0 PUSH2 0xC15 PUSH2 0xC0D DUP4 PUSH1 0x64 PUSH2 0x2804 JUMP JUMPDEST PUSH1 0x1 SLOAD PUSH2 0x2810 JUMP JUMPDEST SWAP1 POP PUSH2 0xC36 PUSH1 0x0 SLOAD PUSH20 0xFFFFFFFFFFFFFFFFFFFFFFFFFFFFFFFFFFFFFFFF AND SWAP1 JUMP JUMPDEST PUSH20 0xFFFFFFFFFFFFFFFFFFFFFFFFFFFFFFFFFFFFFFFF AND DUP7 PUSH1 0x40 ADD MLOAD PUSH20 0xFFFFFFFFFFFFFFFFFFFFFFFFFFFFFFFFFFFFFFFF AND SUB PUSH2 0xC70 JUMPI POP PUSH1 0x0 JUMPDEST PUSH1 0x0 PUSH2 0xC7C DUP4 DUP4 PUSH2 0x281C JUMP JUMPDEST PUSH1 0x40 DUP9 ADD MLOAD SWAP1 SWAP2 POP PUSH2 0xCA8 SWAP1 PUSH20 0xFFFFFFFFFFFFFFFFFFFFFFFFFFFFFFFFFFFFFFFF DUP9 AND SWAP1 CALLER SWAP1 DUP5 PUSH2 0x2828 JUMP JUMPDEST DUP2 ISZERO PUSH2 0xCD7 JUMPI PUSH1 0x9 SLOAD PUSH2 0xCD7 SWAP1 PUSH20 0xFFFFFFFFFFFFFFFFFFFFFFFFFFFFFFFFFFFFFFFF DUP9 DUP2 AND SWAP2 CALLER SWAP2 AND DUP6 PUSH2 0x2828 JUMP JUMPDEST DUP7 MLOAD PUSH1 0x20 DUP9 ADD MLOAD PUSH1 0x40 MLOAD PUSH32 0x23B872DD00000000000000000000000000000000000000000000000000000000 DUP2 MSTORE ADDRESS PUSH1 0x4 DUP3 ADD MSTORE CALLER PUSH1 0x24 DUP3 ADD MSTORE PUSH1 0x44 DUP2 ADD SWAP2 SWAP1 SWAP2 MSTORE PUSH20 0xFFFFFFFFFFFFFFFFFFFFFFFFFFFFFFFFFFFFFFFF SWAP1 SWAP2 AND SWAP1 PUSH4 0x23B872DD SWAP1 PUSH1 0x64 ADD PUSH1 0x0 PUSH1 0x40 MLOAD DUP1 DUP4 SUB DUP2 PUSH1 0x0 DUP8 DUP1 EXTCODESIZE ISZERO DUP1 ISZERO PUSH2 0xD54 JUMPI PUSH1 0x0 DUP1 REVERT JUMPDEST POP GAS CALL ISZERO DUP1 ISZERO PUSH2 0xD68 JUMPI RETURNDATASIZE PUSH1 0x0 DUP1 RETURNDATACOPY RETURNDATASIZE PUSH1 0x0 REVERT JUMPDEST POP POP POP POP PUSH2 0xD76 DUP10 DUP10 PUSH2 0x28C3 JUMP JUMPDEST PUSH1 0x40 DUP8 DUP2 ADD MLOAD DUP9 MLOAD PUSH1 0x20 DUP1 DUP12 ADD MLOAD PUSH1 0x80 DUP1 DUP14 ADD MLOAD PUSH1 0x60 DUP1 DUP16 ADD MLOAD DUP9 MLOAD PUSH20 0xFFFFFFFFFFFFFFFFFFFFFFFFFFFFFFFFFFFFFFFF SWAP9 DUP10 AND DUP2 MSTORE CALLER SWAP7 DUP2 ADD SWAP7 SWAP1 SWAP7 MSTORE SWAP6 DUP8 AND DUP6 DUP10 ADD MSTORE DUP5 ADD SWAP3 SWAP1 SWAP3 MSTORE SWAP4 AND SWAP3 DUP2 ADD SWAP3 SWAP1 SWAP3 MSTORE PUSH1 0xA0 DUP3 ADD MSTORE SWAP1 MLOAD PUSH32 0xA3D27CC8AC4E1915B6A89CE3E468D87AEB3CAF011A47E236DB61D098E452870C SWAP2 DUP2 SWAP1 SUB PUSH1 0xC0 ADD SWAP1 LOG1 POP POP POP POP POP POP POP POP POP JUMP JUMPDEST PUSH20 0xFFFFFFFFFFFFFFFFFFFFFFFFFFFFFFFFFFFFFFFF DUP4 AND PUSH1 0x0 SWAP1 DUP2 MSTORE PUSH1 0x7 PUSH1 0x20 MSTORE PUSH1 0x40 SWAP1 KECCAK256 SLOAD PUSH1 0x60 SWAP1 ISZERO PUSH2 0x1025 JUMPI PUSH20 0xFFFFFFFFFFFFFFFFFFFFFFFFFFFFFFFFFFFFFFFF DUP5 AND PUSH1 0x0 SWAP1 DUP2 MSTORE PUSH1 0x7 PUSH1 0x20 MSTORE PUSH1 0x40 SWAP1 KECCAK256 SLOAD PUSH8 0xFFFFFFFFFFFFFFFF DUP2 GT ISZERO PUSH2 0xE72 JUMPI PUSH2 0xE72 PUSH2 0x34B8 JUMP JUMPDEST PUSH1 0x40 MLOAD SWAP1 DUP1 DUP3 MSTORE DUP1 PUSH1 0x20 MUL PUSH1 0x20 ADD DUP3 ADD PUSH1 0x40 MSTORE DUP1 ISZERO PUSH2 0xEF0 JUMPI DUP2 PUSH1 0x20 ADD JUMPDEST PUSH1 0x40 DUP1 MLOAD PUSH1 0xC0 DUP2 ADD DUP3 MSTORE PUSH1 0x0 DUP1 DUP3 MSTORE PUSH1 0x20 DUP1 DUP4 ADD DUP3 SWAP1 MSTORE SWAP3 DUP3 ADD DUP2 SWAP1 MSTORE PUSH1 0x60 DUP3 ADD DUP2 SWAP1 MSTORE PUSH1 0x80 DUP3 ADD DUP2 SWAP1 MSTORE PUSH1 0xA0 DUP3 ADD MSTORE DUP3 MSTORE PUSH32 0xFFFFFFFFFFFFFFFFFFFFFFFFFFFFFFFFFFFFFFFFFFFFFFFFFFFFFFFFFFFFFFFF SWAP1 SWAP3 ADD SWAP2 ADD DUP2 PUSH2 0xE90 JUMPI SWAP1 POP JUMPDEST POP SWAP1 POP PUSH1 0x0 DUP1 JUMPDEST PUSH1 0x5 SLOAD DUP2 LT ISZERO PUSH2 0x1022 JUMPI DUP6 PUSH20 0xFFFFFFFFFFFFFFFFFFFFFFFFFFFFFFFFFFFFFFFF AND PUSH1 0x5 DUP3 DUP2 SLOAD DUP2 LT PUSH2 0xF2B JUMPI PUSH2 0xF2B PUSH2 0x38D0 JUMP JUMPDEST PUSH1 0x0 SWAP2 DUP3 MSTORE PUSH1 0x20 SWAP1 SWAP2 KECCAK256 PUSH1 0x2 PUSH1 0x6 SWAP1 SWAP3 MUL ADD ADD SLOAD PUSH20 0xFFFFFFFFFFFFFFFFFFFFFFFFFFFFFFFFFFFFFFFF AND SUB PUSH2 0x1010 JUMPI PUSH1 0x5 DUP2 DUP2 SLOAD DUP2 LT PUSH2 0xF6D JUMPI PUSH2 0xF6D PUSH2 0x38D0 JUMP JUMPDEST PUSH1 0x0 SWAP2 DUP3 MSTORE PUSH1 0x20 SWAP2 DUP3 SWAP1 KECCAK256 PUSH1 0x40 DUP1 MLOAD PUSH1 0xC0 DUP2 ADD DUP3 MSTORE PUSH1 0x6 SWAP1 SWAP4 MUL SWAP1 SWAP2 ADD DUP1 SLOAD PUSH20 0xFFFFFFFFFFFFFFFFFFFFFFFFFFFFFFFFFFFFFFFF SWAP1 DUP2 AND DUP5 MSTORE PUSH1 0x1 DUP3 ADD SLOAD SWAP5 DUP5 ADD SWAP5 SWAP1 SWAP5 MSTORE PUSH1 0x2 DUP2 ADD SLOAD DUP5 AND SWAP2 DUP4 ADD SWAP2 SWAP1 SWAP2 MSTORE PUSH1 0x3 DUP2 ADD SLOAD PUSH1 0x60 DUP4 ADD MSTORE PUSH1 0x4 DUP2 ADD SLOAD SWAP1 SWAP3 AND PUSH1 0x80 DUP3 ADD MSTORE PUSH1 0x5 SWAP1 SWAP2 ADD SLOAD PUSH1 0xA0 DUP3 ADD MSTORE DUP4 MLOAD DUP5 SWAP1 DUP5 SWAP1 DUP2 LT PUSH2 0xFF6 JUMPI PUSH2 0xFF6 PUSH2 0x38D0 JUMP JUMPDEST PUSH1 0x20 MUL PUSH1 0x20 ADD ADD DUP2 SWAP1 MSTORE POP DUP2 DUP1 PUSH2 0x100C SWAP1 PUSH2 0x392E JUMP JUMPDEST SWAP3 POP POP JUMPDEST DUP1 PUSH2 0x101A DUP2 PUSH2 0x392E JUMP JUMPDEST SWAP2 POP POP PUSH2 0xEF7 JUMP JUMPDEST POP POP JUMPDEST SWAP4 SWAP3 POP POP POP JUMP JUMPDEST PUSH1 0x60 PUSH1 0x2 DUP1 SLOAD DUP1 PUSH1 0x20 MUL PUSH1 0x20 ADD PUSH1 0x40 MLOAD SWAP1 DUP2 ADD PUSH1 0x40 MSTORE DUP1 SWAP3 SWAP2 SWAP1 DUP2 DUP2 MSTORE PUSH1 0x20 ADD DUP3 DUP1 SLOAD DUP1 ISZERO PUSH2 0x1091 JUMPI PUSH1 0x20 MUL DUP3 ADD SWAP2 SWAP1 PUSH1 0x0 MSTORE PUSH1 0x20 PUSH1 0x0 KECCAK256 SWAP1 JUMPDEST DUP2 SLOAD PUSH20 0xFFFFFFFFFFFFFFFFFFFFFFFFFFFFFFFFFFFFFFFF AND DUP2 MSTORE PUSH1 0x1 SWAP1 SWAP2 ADD SWAP1 PUSH1 0x20 ADD DUP1 DUP4 GT PUSH2 0x1066 JUMPI JUMPDEST POP POP POP POP POP SWAP1 POP SWAP1 JUMP JUMPDEST PUSH1 0x2 SLOAD PUSH1 0x60 SWAP1 PUSH8 0xFFFFFFFFFFFFFFFF DUP2 GT ISZERO PUSH2 0x10B9 JUMPI PUSH2 0x10B9 PUSH2 0x34B8 JUMP JUMPDEST PUSH1 0x40 MLOAD SWAP1 DUP1 DUP3 MSTORE DUP1 PUSH1 0x20 MUL PUSH1 0x20 ADD DUP3 ADD PUSH1 0x40 MSTORE DUP1 ISZERO PUSH2 0x10FE JUMPI DUP2 PUSH1 0x20 ADD JUMPDEST PUSH1 0x40 DUP1 MLOAD DUP1 DUP3 ADD SWAP1 SWAP2 MSTORE PUSH1 0x0 DUP1 DUP3 MSTORE PUSH1 0x20 DUP3 ADD MSTORE DUP2 MSTORE PUSH1 0x20 ADD SWAP1 PUSH1 0x1 SWAP1 SUB SWAP1 DUP2 PUSH2 0x10D7 JUMPI SWAP1 POP JUMPDEST POP SWAP1 POP PUSH1 0x0 JUMPDEST PUSH1 0x2 SLOAD DUP2 LT ISZERO PUSH2 0x11E3 JUMPI PUSH1 0x40 MLOAD DUP1 PUSH1 0x40 ADD PUSH1 0x40 MSTORE DUP1 PUSH1 0x2 DUP4 DUP2 SLOAD DUP2 LT PUSH2 0x112C JUMPI PUSH2 0x112C PUSH2 0x38D0 JUMP JUMPDEST PUSH1 0x0 SWAP2 DUP3 MSTORE PUSH1 0x20 DUP1 DUP4 KECCAK256 SWAP1 SWAP2 ADD SLOAD PUSH20 0xFFFFFFFFFFFFFFFFFFFFFFFFFFFFFFFFFFFFFFFF SWAP1 DUP2 AND DUP5 MSTORE DUP8 AND DUP3 MSTORE PUSH1 0x8 DUP2 MSTORE PUSH1 0x40 DUP3 KECCAK256 PUSH1 0x2 DUP1 SLOAD SWAP5 SWAP1 SWAP3 ADD SWAP4 SWAP1 SWAP3 SWAP2 SWAP1 DUP7 SWAP1 DUP2 LT PUSH2 0x117D JUMPI PUSH2 0x117D PUSH2 0x38D0 JUMP JUMPDEST PUSH1 0x0 SWAP2 DUP3 MSTORE PUSH1 0x20 DUP1 DUP4 KECCAK256 SWAP1 SWAP2 ADD SLOAD PUSH20 0xFFFFFFFFFFFFFFFFFFFFFFFFFFFFFFFFFFFFFFFF AND DUP4 MSTORE DUP3 ADD SWAP3 SWAP1 SWAP3 MSTORE PUSH1 0x40 ADD SWAP1 KECCAK256 SLOAD SWAP1 MSTORE DUP3 MLOAD DUP4 SWAP1 DUP4 SWAP1 DUP2 LT PUSH2 0x11C5 JUMPI PUSH2 0x11C5 PUSH2 0x38D0 JUMP JUMPDEST PUSH1 0x20 MUL PUSH1 0x20 ADD ADD DUP2 SWAP1 MSTORE POP DUP1 DUP1 PUSH2 0x11DB SWAP1 PUSH2 0x392E JUMP JUMPDEST SWAP2 POP POP PUSH2 0x1104 JUMP JUMPDEST POP SWAP2 SWAP1 POP JUMP JUMPDEST PUSH2 0x11F1 PUSH2 0x2783 JUMP JUMPDEST PUSH1 0x40 MLOAD SELFBALANCE SWAP1 CALLER SWAP1 DUP3 ISZERO PUSH2 0x8FC MUL SWAP1 DUP4 SWAP1 PUSH1 0x0 DUP2 DUP2 DUP2 DUP6 DUP9 DUP9 CALL SWAP4 POP POP POP POP ISZERO DUP1 ISZERO PUSH2 0x1220 JUMPI RETURNDATASIZE PUSH1 0x0 DUP1 RETURNDATACOPY RETURNDATASIZE PUSH1 0x0 REVERT JUMPDEST POP PUSH1 0x40 DUP1 MLOAD CALLER DUP2 MSTORE PUSH1 0x20 DUP2 ADD DUP4 SWAP1 MSTORE PUSH32 0x2F15B7A52FC8A006876377705647ACBD22EED72DEC9B154AA290E286C06A3CD4 SWAP2 ADD PUSH1 0x40 MLOAD DUP1 SWAP2 SUB SWAP1 LOG1 POP JUMP JUMPDEST PUSH1 0x60 PUSH1 0x5 DUP1 SLOAD DUP1 PUSH1 0x20 MUL PUSH1 0x20 ADD PUSH1 0x40 MLOAD SWAP1 DUP2 ADD PUSH1 0x40 MSTORE DUP1 SWAP3 SWAP2 SWAP1 DUP2 DUP2 MSTORE PUSH1 0x20 ADD PUSH1 0x0 SWAP1 JUMPDEST DUP3 DUP3 LT ISZERO PUSH2 0x1304 JUMPI PUSH1 0x0 DUP5 DUP2 MSTORE PUSH1 0x20 SWAP1 DUP2 SWAP1 KECCAK256 PUSH1 0x40 DUP1 MLOAD PUSH1 0xC0 DUP2 ADD DUP3 MSTORE PUSH1 0x6 DUP7 MUL SWAP1 SWAP3 ADD DUP1 SLOAD PUSH20 0xFFFFFFFFFFFFFFFFFFFFFFFFFFFFFFFFFFFFFFFF SWAP1 DUP2 AND DUP5 MSTORE PUSH1 0x1 DUP1 DUP4 ADD SLOAD DUP6 DUP8 ADD MSTORE PUSH1 0x2 DUP4 ADD SLOAD DUP3 AND SWAP4 DUP6 ADD SWAP4 SWAP1 SWAP4 MSTORE PUSH1 0x3 DUP3 ADD SLOAD PUSH1 0x60 DUP6 ADD MSTORE PUSH1 0x4 DUP3 ADD SLOAD AND PUSH1 0x80 DUP5 ADD MSTORE PUSH1 0x5 ADD SLOAD PUSH1 0xA0 DUP4 ADD MSTORE SWAP1 DUP4 MSTORE SWAP1 SWAP3 ADD SWAP2 ADD PUSH2 0x1281 JUMP JUMPDEST POP POP POP POP SWAP1 POP JUMPDEST SWAP3 SWAP2 POP POP JUMP JUMPDEST PUSH1 0x40 DUP1 MLOAD PUSH1 0xC0 DUP2 ADD DUP3 MSTORE PUSH1 0x0 DUP1 DUP3 MSTORE PUSH1 0x20 DUP3 ADD DUP2 SWAP1 MSTORE SWAP2 DUP2 ADD DUP3 SWAP1 MSTORE PUSH1 0x60 DUP2 ADD DUP3 SWAP1 MSTORE PUSH1 0x80 DUP2 ADD DUP3 SWAP1 MSTORE PUSH1 0xA0 DUP2 ADD DUP3 SWAP1 MSTORE SWAP1 JUMPDEST PUSH1 0x5 SLOAD DUP2 LT ISZERO PUSH2 0x1477 JUMPI DUP4 PUSH20 0xFFFFFFFFFFFFFFFFFFFFFFFFFFFFFFFFFFFFFFFF AND PUSH1 0x5 DUP3 DUP2 SLOAD DUP2 LT PUSH2 0x1378 JUMPI PUSH2 0x1378 PUSH2 0x38D0 JUMP JUMPDEST PUSH1 0x0 SWAP2 DUP3 MSTORE PUSH1 0x20 SWAP1 SWAP2 KECCAK256 PUSH1 0x6 SWAP1 SWAP2 MUL ADD SLOAD PUSH20 0xFFFFFFFFFFFFFFFFFFFFFFFFFFFFFFFFFFFFFFFF AND EQ DUP1 ISZERO PUSH2 0x13CF JUMPI POP DUP3 PUSH1 0x5 DUP3 DUP2 SLOAD DUP2 LT PUSH2 0x13BB JUMPI PUSH2 0x13BB PUSH2 0x38D0 JUMP JUMPDEST SWAP1 PUSH1 0x0 MSTORE PUSH1 0x20 PUSH1 0x0 KECCAK256 SWAP1 PUSH1 0x6 MUL ADD PUSH1 0x1 ADD SLOAD EQ JUMPDEST ISZERO PUSH2 0x1465 JUMPI PUSH1 0x5 DUP2 DUP2 SLOAD DUP2 LT PUSH2 0x13E7 JUMPI PUSH2 0x13E7 PUSH2 0x38D0 JUMP JUMPDEST PUSH1 0x0 SWAP2 DUP3 MSTORE PUSH1 0x20 SWAP2 DUP3 SWAP1 KECCAK256 PUSH1 0x40 DUP1 MLOAD PUSH1 0xC0 DUP2 ADD DUP3 MSTORE PUSH1 0x6 SWAP1 SWAP4 MUL SWAP1 SWAP2 ADD DUP1 SLOAD PUSH20 0xFFFFFFFFFFFFFFFFFFFFFFFFFFFFFFFFFFFFFFFF SWAP1 DUP2 AND DUP5 MSTORE PUSH1 0x1 DUP3 ADD SLOAD SWAP5 DUP5 ADD SWAP5 SWAP1 SWAP5 MSTORE PUSH1 0x2 DUP2 ADD SLOAD DUP5 AND SWAP2 DUP4 ADD SWAP2 SWAP1 SWAP2 MSTORE PUSH1 0x3 DUP2 ADD SLOAD PUSH1 0x60 DUP4 ADD MSTORE PUSH1 0x4 DUP2 ADD SLOAD SWAP1 SWAP3 AND PUSH1 0x80 DUP3 ADD MSTORE PUSH1 0x5 SWAP1 SWAP2 ADD SLOAD PUSH1 0xA0 DUP3 ADD MSTORE SWAP2 POP PUSH2 0x130B SWAP1 POP JUMP JUMPDEST DUP1 PUSH2 0x146F DUP2 PUSH2 0x392E JUMP JUMPDEST SWAP2 POP POP PUSH2 0x1344 JUMP JUMPDEST POP SWAP3 SWAP2 POP POP JUMP JUMPDEST PUSH1 0x60 PUSH1 0x4 DUP1 SLOAD DUP1 PUSH1 0x20 MUL PUSH1 0x20 ADD PUSH1 0x40 MLOAD SWAP1 DUP2 ADD PUSH1 0x40 MSTORE DUP1 SWAP3 SWAP2 SWAP1 DUP2 DUP2 MSTORE PUSH1 0x20 ADD DUP3 DUP1 SLOAD DUP1 ISZERO PUSH2 0x1091 JUMPI PUSH1 0x20 MUL DUP3 ADD SWAP2 SWAP1 PUSH1 0x0 MSTORE PUSH1 0x20 PUSH1 0x0 KECCAK256 SWAP1 DUP2 SLOAD PUSH20 0xFFFFFFFFFFFFFFFFFFFFFFFFFFFFFFFFFFFFFFFF AND DUP2 MSTORE PUSH1 0x1 SWAP1 SWAP2 ADD SWAP1 PUSH1 0x20 ADD DUP1 DUP4 GT PUSH2 0x1066 JUMPI POP POP POP POP POP SWAP1 POP SWAP1 JUMP JUMPDEST PUSH2 0x14F3 PUSH2 0x2783 JUMP JUMPDEST PUSH2 0x14FD PUSH1 0x0 PUSH2 0x2E4F JUMP JUMPDEST JUMP JUMPDEST PUSH1 0x0 DUP1 JUMPDEST PUSH1 0x4 SLOAD DUP2 LT ISZERO PUSH2 0x1567 JUMPI PUSH1 0x4 DUP2 DUP2 SLOAD DUP2 LT PUSH2 0x1520 JUMPI PUSH2 0x1520 PUSH2 0x38D0 JUMP JUMPDEST PUSH1 0x0 SWAP2 DUP3 MSTORE PUSH1 0x20 SWAP1 SWAP2 KECCAK256 ADD SLOAD PUSH20 0xFFFFFFFFFFFFFFFFFFFFFFFFFFFFFFFFFFFFFFFF SWAP1 DUP2 AND SWAP1 DUP5 AND SUB PUSH2 0x1555 JUMPI POP PUSH1 0x1 SWAP3 SWAP2 POP POP JUMP JUMPDEST DUP1 PUSH2 0x155F DUP2 PUSH2 0x392E JUMP JUMPDEST SWAP2 POP POP PUSH2 0x1503 JUMP JUMPDEST POP PUSH1 0x0 SWAP3 SWAP2 POP POP JUMP JUMPDEST PUSH1 0x0 SLOAD PUSH21 0x10000000000000000000000000000000000000000 SWAP1 DIV PUSH1 0xFF AND ISZERO PUSH2 0x15F5 JUMPI PUSH1 0x40 MLOAD PUSH32 0x8C379A000000000000000000000000000000000000000000000000000000000 DUP2 MSTORE PUSH1 0x20 PUSH1 0x4 DUP3 ADD MSTORE PUSH1 0x10 PUSH1 0x24 DUP3 ADD MSTORE PUSH32 0x5061757361626C653A2070617573656400000000000000000000000000000000 PUSH1 0x44 DUP3 ADD MSTORE PUSH1 0x64 ADD PUSH2 0x888 JUMP JUMPDEST PUSH20 0xFFFFFFFFFFFFFFFFFFFFFFFFFFFFFFFFFFFFFFFF DUP5 AND PUSH1 0x0 SWAP1 DUP2 MSTORE PUSH1 0x3 PUSH1 0x20 MSTORE PUSH1 0x40 SWAP1 KECCAK256 SLOAD PUSH1 0xFF AND PUSH2 0x1684 JUMPI PUSH1 0x40 MLOAD PUSH32 0x8C379A000000000000000000000000000000000000000000000000000000000 DUP2 MSTORE PUSH1 0x20 PUSH1 0x4 DUP3 ADD MSTORE PUSH1 0x1A PUSH1 0x24 DUP3 ADD MSTORE PUSH32 0x4E6F7420616C6C6F776564204E465420636F6C6C656374696F6E000000000000 PUSH1 0x44 DUP3 ADD MSTORE PUSH1 0x64 ADD PUSH2 0x888 JUMP JUMPDEST PUSH1 0x40 MLOAD PUSH32 0x6352211E00000000000000000000000000000000000000000000000000000000 DUP2 MSTORE PUSH1 0x4 DUP2 ADD DUP5 SWAP1 MSTORE CALLER SWAP1 PUSH20 0xFFFFFFFFFFFFFFFFFFFFFFFFFFFFFFFFFFFFFFFF DUP7 AND SWAP1 PUSH4 0x6352211E SWAP1 PUSH1 0x24 ADD PUSH1 0x20 PUSH1 0x40 MLOAD DUP1 DUP4 SUB DUP2 DUP7 GAS STATICCALL ISZERO DUP1 ISZERO PUSH2 0x16F1 JUMPI RETURNDATASIZE PUSH1 0x0 DUP1 RETURNDATACOPY RETURNDATASIZE PUSH1 0x0 REVERT JUMPDEST POP POP POP POP PUSH1 0x40 MLOAD RETURNDATASIZE PUSH1 0x1F NOT PUSH1 0x1F DUP3 ADD AND DUP3 ADD DUP1 PUSH1 0x40 MSTORE POP DUP2 ADD SWAP1 PUSH2 0x1715 SWAP2 SWAP1 PUSH2 0x397F JUMP JUMPDEST PUSH20 0xFFFFFFFFFFFFFFFFFFFFFFFFFFFFFFFFFFFFFFFF AND EQ PUSH2 0x1792 JUMPI PUSH1 0x40 MLOAD PUSH32 0x8C379A000000000000000000000000000000000000000000000000000000000 DUP2 MSTORE PUSH1 0x20 PUSH1 0x4 DUP3 ADD MSTORE PUSH1 0x19 PUSH1 0x24 DUP3 ADD MSTORE PUSH32 0x596F7520646F6E2774206F776E207468697320746F6B656E2100000000000000 PUSH1 0x44 DUP3 ADD MSTORE PUSH1 0x64 ADD PUSH2 0x888 JUMP JUMPDEST PUSH1 0x0 DUP3 GT PUSH2 0x17FC JUMPI PUSH1 0x40 MLOAD PUSH32 0x8C379A000000000000000000000000000000000000000000000000000000000 DUP2 MSTORE PUSH1 0x20 PUSH1 0x4 DUP3 ADD MSTORE PUSH1 0x1F PUSH1 0x24 DUP3 ADD MSTORE PUSH32 0x5072696365206D7573742062652067726561746572207468616E207A65726F00 PUSH1 0x44 DUP3 ADD MSTORE PUSH1 0x64 ADD PUSH2 0x888 JUMP JUMPDEST PUSH20 0xFFFFFFFFFFFFFFFFFFFFFFFFFFFFFFFFFFFFFFFF DUP2 AND ISZERO PUSH2 0x18B2 JUMPI PUSH2 0x1821 DUP2 PUSH2 0x14FF JUMP JUMPDEST ISZERO ISZERO PUSH1 0x1 EQ PUSH2 0x18B2 JUMPI PUSH1 0x40 MLOAD PUSH32 0x8C379A000000000000000000000000000000000000000000000000000000000 DUP2 MSTORE PUSH1 0x20 PUSH1 0x4 DUP3 ADD MSTORE PUSH1 0x2C PUSH1 0x24 DUP3 ADD MSTORE PUSH32 0x54686973204552433230206E6F7420616C6C6F77656420617320612074726164 PUSH1 0x44 DUP3 ADD MSTORE PUSH32 0x696E672063757272656E63790000000000000000000000000000000000000000 PUSH1 0x64 DUP3 ADD MSTORE PUSH1 0x84 ADD PUSH2 0x888 JUMP JUMPDEST PUSH1 0x40 DUP1 MLOAD PUSH1 0xC0 DUP2 ADD DUP3 MSTORE PUSH20 0xFFFFFFFFFFFFFFFFFFFFFFFFFFFFFFFFFFFFFFFF DUP7 DUP2 AND DUP1 DUP4 MSTORE PUSH1 0x20 DUP4 ADD DUP8 SWAP1 MSTORE CALLER DUP4 DUP6 ADD DUP2 SWAP1 MSTORE PUSH1 0x60 DUP5 ADD DUP8 SWAP1 MSTORE SWAP2 DUP6 AND PUSH1 0x80 DUP5 ADD MSTORE TIMESTAMP PUSH1 0xA0 DUP5 ADD MSTORE SWAP3 MLOAD PUSH32 0x23B872DD00000000000000000000000000000000000000000000000000000000 DUP2 MSTORE PUSH1 0x4 DUP2 ADD SWAP2 SWAP1 SWAP2 MSTORE ADDRESS PUSH1 0x24 DUP3 ADD MSTORE PUSH1 0x44 DUP2 ADD DUP7 SWAP1 MSTORE SWAP1 SWAP2 SWAP1 PUSH4 0x23B872DD SWAP1 PUSH1 0x64 ADD PUSH1 0x0 PUSH1 0x40 MLOAD DUP1 DUP4 SUB DUP2 PUSH1 0x0 DUP8 DUP1 EXTCODESIZE ISZERO DUP1 ISZERO PUSH2 0x195A JUMPI PUSH1 0x0 DUP1 REVERT JUMPDEST POP GAS CALL ISZERO DUP1 ISZERO PUSH2 0x196E JUMPI RETURNDATASIZE PUSH1 0x0 DUP1 RETURNDATACOPY RETURNDATASIZE PUSH1 0x0 REVERT JUMPDEST POP POP POP POP PUSH2 0x197B DUP2 PUSH2 0x2EC4 JUMP JUMPDEST PUSH20 0xFFFFFFFFFFFFFFFFFFFFFFFFFFFFFFFFFFFFFFFF DUP3 AND PUSH2 0x19FF JUMPI PUSH1 0x40 DUP1 MLOAD CALLER DUP2 MSTORE PUSH20 0xFFFFFFFFFFFFFFFFFFFFFFFFFFFFFFFFFFFFFFFF DUP8 DUP2 AND PUSH1 0x20 DUP4 ADD MSTORE DUP2 DUP4 ADD DUP8 SWAP1 MSTORE DUP5 AND PUSH1 0x60 DUP3 ADD MSTORE PUSH1 0x80 DUP2 ADD DUP6 SWAP1 MSTORE SWAP1 MLOAD PUSH32 0x44F716B281FA3E96FBD6EF888A275EF2FDF8914960A4C57C0BEF6CCAEBF0DF31 SWAP2 DUP2 SWAP1 SUB PUSH1 0xA0 ADD SWAP1 LOG1 PUSH2 0x1A5D JUMP JUMPDEST PUSH1 0x40 DUP1 MLOAD CALLER DUP2 MSTORE PUSH20 0xFFFFFFFFFFFFFFFFFFFFFFFFFFFFFFFFFFFFFFFF DUP8 AND PUSH1 0x20 DUP3 ADD MSTORE SWAP1 DUP2 ADD DUP6 SWAP1 MSTORE PUSH1 0x60 DUP2 ADD DUP5 SWAP1 MSTORE PUSH32 0xC68DC1F889FA3A215DCDD97178AF6BD67FAB7B34138EEF18F4313AAC53F5B364 SWAP1 PUSH1 0x80 ADD PUSH1 0x40 MLOAD DUP1 SWAP2 SUB SWAP1 LOG1 JUMPDEST POP POP POP POP POP JUMP JUMPDEST PUSH1 0x2 SLOAD PUSH1 0x60 SWAP1 PUSH8 0xFFFFFFFFFFFFFFFF DUP2 GT ISZERO PUSH2 0x1A82 JUMPI PUSH2 0x1A82 PUSH2 0x34B8 JUMP JUMPDEST PUSH1 0x40 MLOAD SWAP1 DUP1 DUP3 MSTORE DUP1 PUSH1 0x20 MUL PUSH1 0x20 ADD DUP3 ADD PUSH1 0x40 MSTORE DUP1 ISZERO PUSH2 0x1AC7 JUMPI DUP2 PUSH1 0x20 ADD JUMPDEST PUSH1 0x40 DUP1 MLOAD DUP1 DUP3 ADD SWAP1 SWAP2 MSTORE PUSH1 0x0 DUP1 DUP3 MSTORE PUSH1 0x20 DUP3 ADD MSTORE DUP2 MSTORE PUSH1 0x20 ADD SWAP1 PUSH1 0x1 SWAP1 SUB SWAP1 DUP2 PUSH2 0x1AA0 JUMPI SWAP1 POP JUMPDEST POP SWAP1 POP PUSH1 0x0 JUMPDEST PUSH1 0x2 SLOAD DUP2 LT ISZERO PUSH2 0x1BB8 JUMPI PUSH1 0x40 MLOAD DUP1 PUSH1 0x40 ADD PUSH1 0x40 MSTORE DUP1 PUSH1 0x2 DUP4 DUP2 SLOAD DUP2 LT PUSH2 0x1AF5 JUMPI PUSH2 0x1AF5 PUSH2 0x38D0 JUMP JUMPDEST SWAP1 PUSH1 0x0 MSTORE PUSH1 0x20 PUSH1 0x0 KECCAK256 ADD PUSH1 0x0 SWAP1 SLOAD SWAP1 PUSH2 0x100 EXP SWAP1 DIV PUSH20 0xFFFFFFFFFFFFFFFFFFFFFFFFFFFFFFFFFFFFFFFF AND PUSH20 0xFFFFFFFFFFFFFFFFFFFFFFFFFFFFFFFFFFFFFFFF AND DUP2 MSTORE PUSH1 0x20 ADD PUSH1 0x6 PUSH1 0x0 PUSH1 0x2 DUP6 DUP2 SLOAD DUP2 LT PUSH2 0x1B52 JUMPI PUSH2 0x1B52 PUSH2 0x38D0 JUMP JUMPDEST PUSH1 0x0 SWAP2 DUP3 MSTORE PUSH1 0x20 DUP1 DUP4 KECCAK256 SWAP1 SWAP2 ADD SLOAD PUSH20 0xFFFFFFFFFFFFFFFFFFFFFFFFFFFFFFFFFFFFFFFF AND DUP4 MSTORE DUP3 ADD SWAP3 SWAP1 SWAP3 MSTORE PUSH1 0x40 ADD SWAP1 KECCAK256 SLOAD SWAP1 MSTORE DUP3 MLOAD DUP4 SWAP1 DUP4 SWAP1 DUP2 LT PUSH2 0x1B9A JUMPI PUSH2 0x1B9A PUSH2 0x38D0 JUMP JUMPDEST PUSH1 0x20 MUL PUSH1 0x20 ADD ADD DUP2 SWAP1 MSTORE POP DUP1 DUP1 PUSH2 0x1BB0 SWAP1 PUSH2 0x392E JUMP JUMPDEST SWAP2 POP POP PUSH2 0x1ACD JUMP JUMPDEST POP SWAP1 JUMP JUMPDEST PUSH1 0x0 SLOAD PUSH21 0x10000000000000000000000000000000000000000 SWAP1 DIV PUSH1 0xFF AND ISZERO PUSH2 0x1C41 JUMPI PUSH1 0x40 MLOAD PUSH32 0x8C379A000000000000000000000000000000000000000000000000000000000 DUP2 MSTORE PUSH1 0x20 PUSH1 0x4 DUP3 ADD MSTORE PUSH1 0x10 PUSH1 0x24 DUP3 ADD MSTORE PUSH32 0x5061757361626C653A2070617573656400000000000000000000000000000000 PUSH1 0x44 DUP3 ADD MSTORE PUSH1 0x64 ADD PUSH2 0x888 JUMP JUMPDEST PUSH1 0x0 PUSH2 0x1C4D DUP4 DUP4 PUSH2 0x1311 JUMP JUMPDEST DUP1 MLOAD SWAP1 SWAP2 POP PUSH20 0xFFFFFFFFFFFFFFFFFFFFFFFFFFFFFFFFFFFFFFFF AND PUSH2 0x1CCE JUMPI PUSH1 0x40 MLOAD PUSH32 0x8C379A000000000000000000000000000000000000000000000000000000000 DUP2 MSTORE PUSH1 0x20 PUSH1 0x4 DUP3 ADD MSTORE PUSH1 0x18 PUSH1 0x24 DUP3 ADD MSTORE PUSH32 0x54686973204E4654206973206E6F7420666F722073616C650000000000000000 PUSH1 0x44 DUP3 ADD MSTORE PUSH1 0x64 ADD PUSH2 0x888 JUMP JUMPDEST DUP1 PUSH1 0x60 ADD MLOAD CALLVALUE LT ISZERO PUSH2 0x1D62 JUMPI PUSH1 0x40 MLOAD PUSH32 0x8C379A000000000000000000000000000000000000000000000000000000000 DUP2 MSTORE PUSH1 0x20 PUSH1 0x4 DUP3 ADD MSTORE PUSH1 0x26 PUSH1 0x24 DUP3 ADD MSTORE PUSH32 0x596F752068617665206E6F74207061696420656E6F75676820666F7220746869 PUSH1 0x44 DUP3 ADD MSTORE PUSH32 0x73206974656D0000000000000000000000000000000000000000000000000000 PUSH1 0x64 DUP3 ADD MSTORE PUSH1 0x84 ADD PUSH2 0x888 JUMP JUMPDEST PUSH1 0x80 DUP2 ADD MLOAD PUSH20 0xFFFFFFFFFFFFFFFFFFFFFFFFFFFFFFFFFFFFFFFF AND ISZERO PUSH2 0x1DE4 JUMPI PUSH1 0x40 MLOAD PUSH32 0x8C379A000000000000000000000000000000000000000000000000000000000 DUP2 MSTORE PUSH1 0x20 PUSH1 0x4 DUP3 ADD MSTORE PUSH1 0x1A PUSH1 0x24 DUP3 ADD MSTORE PUSH32 0x5468697320746F6B656E2073656C6C6564206279204552433230000000000000 PUSH1 0x44 DUP3 ADD MSTORE PUSH1 0x64 ADD PUSH2 0x888 JUMP JUMPDEST CALLVALUE PUSH1 0x0 PUSH2 0x1DF5 PUSH2 0xC0D DUP4 PUSH1 0x64 PUSH2 0x2804 JUMP JUMPDEST SWAP1 POP PUSH2 0x1E16 PUSH1 0x0 SLOAD PUSH20 0xFFFFFFFFFFFFFFFFFFFFFFFFFFFFFFFFFFFFFFFF AND SWAP1 JUMP JUMPDEST PUSH20 0xFFFFFFFFFFFFFFFFFFFFFFFFFFFFFFFFFFFFFFFF AND DUP4 PUSH1 0x40 ADD MLOAD PUSH20 0xFFFFFFFFFFFFFFFFFFFFFFFFFFFFFFFFFFFFFFFF AND SUB PUSH2 0x1E50 JUMPI POP PUSH1 0x0 JUMPDEST PUSH1 0x0 PUSH2 0x1E5C DUP4 DUP4 PUSH2 0x281C JUMP JUMPDEST SWAP1 POP DUP4 PUSH1 0x40 ADD MLOAD PUSH20 0xFFFFFFFFFFFFFFFFFFFFFFFFFFFFFFFFFFFFFFFF AND PUSH2 0x8FC DUP3 SWAP1 DUP2 ISZERO MUL SWAP1 PUSH1 0x40 MLOAD PUSH1 0x0 PUSH1 0x40 MLOAD DUP1 DUP4 SUB DUP2 DUP6 DUP9 DUP9 CALL SWAP4 POP POP POP POP ISZERO DUP1 ISZERO PUSH2 0x1EA8 JUMPI RETURNDATASIZE PUSH1 0x0 DUP1 RETURNDATACOPY RETURNDATASIZE PUSH1 0x0 REVERT JUMPDEST POP DUP2 ISZERO PUSH2 0x1EF8 JUMPI PUSH1 0x9 SLOAD PUSH1 0x40 MLOAD PUSH20 0xFFFFFFFFFFFFFFFFFFFFFFFFFFFFFFFFFFFFFFFF SWAP1 SWAP2 AND SWAP1 DUP4 ISZERO PUSH2 0x8FC MUL SWAP1 DUP5 SWAP1 PUSH1 0x0 DUP2 DUP2 DUP2 DUP6 DUP9 DUP9 CALL SWAP4 POP POP POP POP ISZERO DUP1 ISZERO PUSH2 0x1EF6 JUMPI RETURNDATASIZE PUSH1 0x0 DUP1 RETURNDATACOPY RETURNDATASIZE PUSH1 0x0 REVERT JUMPDEST POP JUMPDEST DUP4 MLOAD PUSH1 0x20 DUP6 ADD MLOAD PUSH1 0x40 MLOAD PUSH32 0x23B872DD00000000000000000000000000000000000000000000000000000000 DUP2 MSTORE ADDRESS PUSH1 0x4 DUP3 ADD MSTORE CALLER PUSH1 0x24 DUP3 ADD MSTORE PUSH1 0x44 DUP2 ADD SWAP2 SWAP1 SWAP2 MSTORE PUSH20 0xFFFFFFFFFFFFFFFFFFFFFFFFFFFFFFFFFFFFFFFF SWAP1 SWAP2 AND SWAP1 PUSH4 0x23B872DD SWAP1 PUSH1 0x64 ADD PUSH1 0x0 PUSH1 0x40 MLOAD DUP1 DUP4 SUB DUP2 PUSH1 0x0 DUP8 DUP1 EXTCODESIZE ISZERO DUP1 ISZERO PUSH2 0x1F75 JUMPI PUSH1 0x0 DUP1 REVERT JUMPDEST POP GAS CALL ISZERO DUP1 ISZERO PUSH2 0x1F89 JUMPI RETURNDATASIZE PUSH1 0x0 DUP1 RETURNDATACOPY RETURNDATASIZE PUSH1 0x0 REVERT JUMPDEST POP POP POP POP PUSH2 0x1F97 DUP7 DUP7 PUSH2 0x28C3 JUMP JUMPDEST PUSH1 0x40 DUP1 DUP6 ADD MLOAD DUP6 MLOAD PUSH1 0x20 DUP1 DUP9 ADD MLOAD PUSH1 0x60 DUP1 DUP11 ADD MLOAD DUP7 MLOAD PUSH20 0xFFFFFFFFFFFFFFFFFFFFFFFFFFFFFFFFFFFFFFFF SWAP7 DUP8 AND DUP2 MSTORE CALLER SWAP5 DUP2 ADD SWAP5 SWAP1 SWAP5 MSTORE SWAP5 SWAP1 SWAP4 AND SWAP5 DUP3 ADD SWAP5 SWAP1 SWAP5 MSTORE SWAP1 DUP2 ADD SWAP3 SWAP1 SWAP3 MSTORE PUSH1 0x80 DUP3 ADD MSTORE PUSH32 0xBAB4AA6B2D5C0935E0E2937D1F73655848F670D43BF6F0C7E9E11E635BB5D86F SWAP1 PUSH1 0xA0 ADD PUSH1 0x40 MLOAD DUP1 SWAP2 SUB SWAP1 LOG1 POP POP POP POP POP POP JUMP JUMPDEST PUSH20 0xFFFFFFFFFFFFFFFFFFFFFFFFFFFFFFFFFFFFFFFF DUP4 AND PUSH1 0x0 SWAP1 DUP2 MSTORE PUSH1 0x6 PUSH1 0x20 MSTORE PUSH1 0x40 SWAP1 KECCAK256 SLOAD PUSH1 0x60 SWAP1 ISZERO PUSH2 0x1025 JUMPI PUSH20 0xFFFFFFFFFFFFFFFFFFFFFFFFFFFFFFFFFFFFFFFF DUP5 AND PUSH1 0x0 SWAP1 DUP2 MSTORE PUSH1 0x6 PUSH1 0x20 MSTORE PUSH1 0x40 SWAP1 KECCAK256 SLOAD PUSH8 0xFFFFFFFFFFFFFFFF DUP2 GT ISZERO PUSH2 0x2087 JUMPI PUSH2 0x2087 PUSH2 0x34B8 JUMP JUMPDEST PUSH1 0x40 MLOAD SWAP1 DUP1 DUP3 MSTORE DUP1 PUSH1 0x20 MUL PUSH1 0x20 ADD DUP3 ADD PUSH1 0x40 MSTORE DUP1 ISZERO PUSH2 0x2105 JUMPI DUP2 PUSH1 0x20 ADD JUMPDEST PUSH1 0x40 DUP1 MLOAD PUSH1 0xC0 DUP2 ADD DUP3 MSTORE PUSH1 0x0 DUP1 DUP3 MSTORE PUSH1 0x20 DUP1 DUP4 ADD DUP3 SWAP1 MSTORE SWAP3 DUP3 ADD DUP2 SWAP1 MSTORE PUSH1 0x60 DUP3 ADD DUP2 SWAP1 MSTORE PUSH1 0x80 DUP3 ADD DUP2 SWAP1 MSTORE PUSH1 0xA0 DUP3 ADD MSTORE DUP3 MSTORE PUSH32 0xFFFFFFFFFFFFFFFFFFFFFFFFFFFFFFFFFFFFFFFFFFFFFFFFFFFFFFFFFFFFFFFF SWAP1 SWAP3 ADD SWAP2 ADD DUP2 PUSH2 0x20A5 JUMPI SWAP1 POP JUMPDEST POP SWAP1 POP PUSH1 0x0 DUP1 JUMPDEST PUSH1 0x5 SLOAD DUP2 LT ISZERO PUSH2 0x1022 JUMPI DUP6 PUSH20 0xFFFFFFFFFFFFFFFFFFFFFFFFFFFFFFFFFFFFFFFF AND PUSH1 0x5 DUP3 DUP2 SLOAD DUP2 LT PUSH2 0x2140 JUMPI PUSH2 0x2140 PUSH2 0x38D0 JUMP JUMPDEST PUSH1 0x0 SWAP2 DUP3 MSTORE PUSH1 0x20 SWAP1 SWAP2 KECCAK256 PUSH1 0x6 SWAP1 SWAP2 MUL ADD SLOAD PUSH20 0xFFFFFFFFFFFFFFFFFFFFFFFFFFFFFFFFFFFFFFFF AND SUB PUSH2 0x2222 JUMPI PUSH1 0x5 DUP2 DUP2 SLOAD DUP2 LT PUSH2 0x217F JUMPI PUSH2 0x217F PUSH2 0x38D0 JUMP JUMPDEST PUSH1 0x0 SWAP2 DUP3 MSTORE PUSH1 0x20 SWAP2 DUP3 SWAP1 KECCAK256 PUSH1 0x40 DUP1 MLOAD PUSH1 0xC0 DUP2 ADD DUP3 MSTORE PUSH1 0x6 SWAP1 SWAP4 MUL SWAP1 SWAP2 ADD DUP1 SLOAD PUSH20 0xFFFFFFFFFFFFFFFFFFFFFFFFFFFFFFFFFFFFFFFF SWAP1 DUP2 AND DUP5 MSTORE PUSH1 0x1 DUP3 ADD SLOAD SWAP5 DUP5 ADD SWAP5 SWAP1 SWAP5 MSTORE PUSH1 0x2 DUP2 ADD SLOAD DUP5 AND SWAP2 DUP4 ADD SWAP2 SWAP1 SWAP2 MSTORE PUSH1 0x3 DUP2 ADD SLOAD PUSH1 0x60 DUP4 ADD MSTORE PUSH1 0x4 DUP2 ADD SLOAD SWAP1 SWAP3 AND PUSH1 0x80 DUP3 ADD MSTORE PUSH1 0x5 SWAP1 SWAP2 ADD SLOAD PUSH1 0xA0 DUP3 ADD MSTORE DUP4 MLOAD DUP5 SWAP1 DUP5 SWAP1 DUP2 LT PUSH2 0x2208 JUMPI PUSH2 0x2208 PUSH2 0x38D0 JUMP JUMPDEST PUSH1 0x20 MUL PUSH1 0x20 ADD ADD DUP2 SWAP1 MSTORE POP DUP2 DUP1 PUSH2 0x221E SWAP1 PUSH2 0x392E JUMP JUMPDEST SWAP3 POP POP JUMPDEST DUP1 PUSH2 0x222C DUP2 PUSH2 0x392E JUMP JUMPDEST SWAP2 POP POP PUSH2 0x210C JUMP JUMPDEST PUSH1 0x60 PUSH2 0x1025 CALLER DUP5 DUP5 PUSH2 0xE06 JUMP JUMPDEST PUSH1 0x0 PUSH2 0x224D DUP4 DUP4 PUSH2 0x1311 JUMP JUMPDEST DUP1 MLOAD SWAP1 SWAP2 POP PUSH20 0xFFFFFFFFFFFFFFFFFFFFFFFFFFFFFFFFFFFFFFFF AND PUSH2 0x22CE JUMPI PUSH1 0x40 MLOAD PUSH32 0x8C379A000000000000000000000000000000000000000000000000000000000 DUP2 MSTORE PUSH1 0x20 PUSH1 0x4 DUP3 ADD DUP2 SWAP1 MSTORE PUSH1 0x24 DUP3 ADD MSTORE PUSH32 0x546F6B656E206E6F7420666F756E646564206174206D61726B6574706C616365 PUSH1 0x44 DUP3 ADD MSTORE PUSH1 0x64 ADD PUSH2 0x888 JUMP JUMPDEST PUSH1 0x0 SLOAD PUSH20 0xFFFFFFFFFFFFFFFFFFFFFFFFFFFFFFFFFFFFFFFF AND CALLER EQ PUSH2 0x2386 JUMPI DUP1 PUSH1 0x40 ADD MLOAD PUSH20 0xFFFFFFFFFFFFFFFFFFFFFFFFFFFFFFFFFFFFFFFF AND CALLER PUSH20 0xFFFFFFFFFFFFFFFFFFFFFFFFFFFFFFFFFFFFFFFF AND EQ PUSH2 0x2386 JUMPI PUSH1 0x40 MLOAD PUSH32 0x8C379A000000000000000000000000000000000000000000000000000000000 DUP2 MSTORE PUSH1 0x20 PUSH1 0x4 DUP3 ADD MSTORE PUSH1 0x14 PUSH1 0x24 DUP3 ADD MSTORE PUSH32 0x54686973206973206E6F7420796F7572204E4654000000000000000000000000 PUSH1 0x44 DUP3 ADD MSTORE PUSH1 0x64 ADD PUSH2 0x888 JUMP JUMPDEST DUP1 MLOAD PUSH1 0x40 DUP1 DUP4 ADD MLOAD PUSH1 0x20 DUP5 ADD MLOAD SWAP2 MLOAD PUSH32 0x23B872DD00000000000000000000000000000000000000000000000000000000 DUP2 MSTORE ADDRESS PUSH1 0x4 DUP3 ADD MSTORE PUSH20 0xFFFFFFFFFFFFFFFFFFFFFFFFFFFFFFFFFFFFFFFF SWAP2 DUP3 AND PUSH1 0x24 DUP3 ADD MSTORE PUSH1 0x44 DUP2 ADD SWAP3 SWAP1 SWAP3 MSTORE SWAP1 SWAP2 AND SWAP1 PUSH4 0x23B872DD SWAP1 PUSH1 0x64 ADD PUSH1 0x0 PUSH1 0x40 MLOAD DUP1 DUP4 SUB DUP2 PUSH1 0x0 DUP8 DUP1 EXTCODESIZE ISZERO DUP1 ISZERO PUSH2 0x240A JUMPI PUSH1 0x0 DUP1 REVERT JUMPDEST POP GAS CALL ISZERO DUP1 ISZERO PUSH2 0x241E JUMPI RETURNDATASIZE PUSH1 0x0 DUP1 RETURNDATACOPY RETURNDATASIZE PUSH1 0x0 REVERT JUMPDEST POP POP POP POP PUSH2 0x2434 DUP2 PUSH1 0x0 ADD MLOAD DUP3 PUSH1 0x20 ADD MLOAD PUSH2 0x28C3 JUMP JUMPDEST PUSH1 0x40 DUP2 DUP2 ADD MLOAD DUP3 MLOAD PUSH1 0x20 DUP1 DUP6 ADD MLOAD DUP5 MLOAD PUSH20 0xFFFFFFFFFFFFFFFFFFFFFFFFFFFFFFFFFFFFFFFF SWAP5 DUP6 AND DUP2 MSTORE SWAP4 SWAP1 SWAP3 AND SWAP1 DUP4 ADD MSTORE SWAP2 DUP2 ADD SWAP2 SWAP1 SWAP2 MSTORE PUSH32 0xCFD975662262E48E8C2B68605E79D409DA1B108BDC941F32D355C4CF11D35925 SWAP1 PUSH1 0x60 ADD JUMPDEST PUSH1 0x40 MLOAD DUP1 SWAP2 SUB SWAP1 LOG1 POP POP POP JUMP JUMPDEST PUSH2 0x24A8 PUSH2 0x2783 JUMP JUMPDEST DUP1 MLOAD PUSH2 0x803 SWAP1 PUSH1 0x4 SWAP1 PUSH1 0x20 DUP5 ADD SWAP1 PUSH2 0x3408 JUMP JUMPDEST PUSH2 0x24C3 PUSH2 0x2783 JUMP JUMPDEST PUSH1 0x9 DUP1 SLOAD PUSH32 0xFFFFFFFFFFFFFFFFFFFFFFFF0000000000000000000000000000000000000000 AND PUSH20 0xFFFFFFFFFFFFFFFFFFFFFFFFFFFFFFFFFFFFFFFF SWAP3 SWAP1 SWAP3 AND SWAP2 SWAP1 SWAP2 OR SWAP1 SSTORE JUMP JUMPDEST PUSH2 0x2512 PUSH2 0x2783 JUMP JUMPDEST PUSH20 0xFFFFFFFFFFFFFFFFFFFFFFFFFFFFFFFFFFFFFFFF DUP2 AND PUSH2 0x25B5 JUMPI PUSH1 0x40 MLOAD PUSH32 0x8C379A000000000000000000000000000000000000000000000000000000000 DUP2 MSTORE PUSH1 0x20 PUSH1 0x4 DUP3 ADD MSTORE PUSH1 0x26 PUSH1 0x24 DUP3 ADD MSTORE PUSH32 0x4F776E61626C653A206E6577206F776E657220697320746865207A65726F2061 PUSH1 0x44 DUP3 ADD MSTORE PUSH32 0x6464726573730000000000000000000000000000000000000000000000000000 PUSH1 0x64 DUP3 ADD MSTORE PUSH1 0x84 ADD PUSH2 0x888 JUMP JUMPDEST PUSH2 0x25BE DUP2 PUSH2 0x2E4F JUMP JUMPDEST POP JUMP JUMPDEST PUSH2 0x25C9 PUSH2 0x2783 JUMP JUMPDEST PUSH1 0x40 MLOAD PUSH32 0x70A0823100000000000000000000000000000000000000000000000000000000 DUP2 MSTORE ADDRESS PUSH1 0x4 DUP3 ADD MSTORE DUP2 SWAP1 PUSH1 0x0 SWAP1 PUSH20 0xFFFFFFFFFFFFFFFFFFFFFFFFFFFFFFFFFFFFFFFF DUP4 AND SWAP1 PUSH4 0x70A08231 SWAP1 PUSH1 0x24 ADD PUSH1 0x20 PUSH1 0x40 MLOAD DUP1 DUP4 SUB DUP2 DUP7 GAS STATICCALL ISZERO DUP1 ISZERO PUSH2 0x2638 JUMPI RETURNDATASIZE PUSH1 0x0 DUP1 RETURNDATACOPY RETURNDATASIZE PUSH1 0x0 REVERT JUMPDEST POP POP POP POP PUSH1 0x40 MLOAD RETURNDATASIZE PUSH1 0x1F NOT PUSH1 0x1F DUP3 ADD AND DUP3 ADD DUP1 PUSH1 0x40 MSTORE POP DUP2 ADD SWAP1 PUSH2 0x265C SWAP2 SWAP1 PUSH2 0x3966 JUMP JUMPDEST SWAP1 POP DUP2 PUSH20 0xFFFFFFFFFFFFFFFFFFFFFFFFFFFFFFFFFFFFFFFF AND PUSH4 0xA9059CBB PUSH2 0x2699 PUSH1 0x0 SLOAD PUSH20 0xFFFFFFFFFFFFFFFFFFFFFFFFFFFFFFFFFFFFFFFF AND SWAP1 JUMP JUMPDEST PUSH1 0x40 MLOAD PUSH32 0xFFFFFFFF00000000000000000000000000000000000000000000000000000000 PUSH1 0xE0 DUP5 SWAP1 SHL AND DUP2 MSTORE PUSH20 0xFFFFFFFFFFFFFFFFFFFFFFFFFFFFFFFFFFFFFFFF SWAP1 SWAP2 AND PUSH1 0x4 DUP3 ADD MSTORE PUSH1 0x24 DUP2 ADD DUP5 SWAP1 MSTORE PUSH1 0x44 ADD PUSH1 0x20 PUSH1 0x40 MLOAD DUP1 DUP4 SUB DUP2 PUSH1 0x0 DUP8 GAS CALL ISZERO DUP1 ISZERO PUSH2 0x270B JUMPI RETURNDATASIZE PUSH1 0x0 DUP1 RETURNDATACOPY RETURNDATASIZE PUSH1 0x0 REVERT JUMPDEST POP POP POP POP PUSH1 0x40 MLOAD RETURNDATASIZE PUSH1 0x1F NOT PUSH1 0x1F DUP3 ADD AND DUP3 ADD DUP1 PUSH1 0x40 MSTORE POP DUP2 ADD SWAP1 PUSH2 0x272F SWAP2 SWAP1 PUSH2 0x399C JUMP JUMPDEST POP PUSH1 0x40 DUP1 MLOAD CALLER DUP2 MSTORE PUSH20 0xFFFFFFFFFFFFFFFFFFFFFFFFFFFFFFFFFFFFFFFF DUP6 AND PUSH1 0x20 DUP3 ADD MSTORE SWAP1 DUP2 ADD DUP3 SWAP1 MSTORE PUSH32 0x33C35F9541201E342D5E7467016E65A0A06182EB12A5F17103F71CEC95B6CB29 SWAP1 PUSH1 0x60 ADD PUSH2 0x2493 JUMP JUMPDEST PUSH1 0x0 SLOAD PUSH20 0xFFFFFFFFFFFFFFFFFFFFFFFFFFFFFFFFFFFFFFFF AND CALLER EQ PUSH2 0x14FD JUMPI PUSH1 0x40 MLOAD PUSH32 0x8C379A000000000000000000000000000000000000000000000000000000000 DUP2 MSTORE PUSH1 0x20 PUSH1 0x4 DUP3 ADD DUP2 SWAP1 MSTORE PUSH1 0x24 DUP3 ADD MSTORE PUSH32 0x4F776E61626C653A2063616C6C6572206973206E6F7420746865206F776E6572 PUSH1 0x44 DUP3 ADD MSTORE PUSH1 0x64 ADD PUSH2 0x888 JUMP JUMPDEST PUSH1 0x0 PUSH2 0x1025 DUP3 DUP5 PUSH2 0x39BE JUMP JUMPDEST PUSH1 0x0 PUSH2 0x1025 DUP3 DUP5 PUSH2 0x39F9 JUMP JUMPDEST PUSH1 0x0 PUSH2 0x1025 DUP3 DUP5 PUSH2 0x3A10 JUMP JUMPDEST PUSH1 0x40 DUP1 MLOAD PUSH20 0xFFFFFFFFFFFFFFFFFFFFFFFFFFFFFFFFFFFFFFFF DUP6 DUP2 AND PUSH1 0x24 DUP4 ADD MSTORE DUP5 AND PUSH1 0x44 DUP3 ADD MSTORE PUSH1 0x64 DUP1 DUP3 ADD DUP5 SWAP1 MSTORE DUP3 MLOAD DUP1 DUP4 SUB SWAP1 SWAP2 ADD DUP2 MSTORE PUSH1 0x84 SWAP1 SWAP2 ADD SWAP1 SWAP2 MSTORE PUSH1 0x20 DUP2 ADD DUP1 MLOAD PUSH28 0xFFFFFFFFFFFFFFFFFFFFFFFFFFFFFFFFFFFFFFFFFFFFFFFFFFFFFFFF AND PUSH32 0x23B872DD00000000000000000000000000000000000000000000000000000000 OR SWAP1 MSTORE PUSH2 0x28BD SWAP1 DUP6 SWAP1 PUSH2 0x30CF JUMP JUMPDEST POP POP POP POP JUMP JUMPDEST PUSH1 0x5 DUP1 SLOAD PUSH20 0xFFFFFFFFFFFFFFFFFFFFFFFFFFFFFFFFFFFFFFFF DUP5 AND SWAP2 SWAP1 PUSH2 0x28EC SWAP1 PUSH1 0x1 SWAP1 PUSH2 0x3A10 JUMP JUMPDEST DUP2 SLOAD DUP2 LT PUSH2 0x28FC JUMPI PUSH2 0x28FC PUSH2 0x38D0 JUMP JUMPDEST PUSH1 0x0 SWAP2 DUP3 MSTORE PUSH1 0x20 SWAP1 SWAP2 KECCAK256 PUSH1 0x6 SWAP1 SWAP2 MUL ADD SLOAD PUSH20 0xFFFFFFFFFFFFFFFFFFFFFFFFFFFFFFFFFFFFFFFF AND EQ DUP1 ISZERO PUSH2 0x2962 JUMPI POP PUSH1 0x5 DUP1 SLOAD DUP3 SWAP2 SWAP1 PUSH2 0x293E SWAP1 PUSH1 0x1 SWAP1 PUSH2 0x3A10 JUMP JUMPDEST DUP2 SLOAD DUP2 LT PUSH2 0x294E JUMPI PUSH2 0x294E PUSH2 0x38D0 JUMP JUMPDEST SWAP1 PUSH1 0x0 MSTORE PUSH1 0x20 PUSH1 0x0 KECCAK256 SWAP1 PUSH1 0x6 MUL ADD PUSH1 0x1 ADD SLOAD EQ JUMPDEST ISZERO PUSH2 0x2B25 JUMPI PUSH1 0x5 DUP1 SLOAD PUSH1 0x7 SWAP2 PUSH1 0x0 SWAP2 PUSH2 0x297D SWAP1 PUSH1 0x1 SWAP1 PUSH2 0x3A10 JUMP JUMPDEST DUP2 SLOAD DUP2 LT PUSH2 0x298D JUMPI PUSH2 0x298D PUSH2 0x38D0 JUMP JUMPDEST PUSH1 0x0 SWAP2 DUP3 MSTORE PUSH1 0x20 DUP1 DUP4 KECCAK256 PUSH1 0x2 PUSH1 0x6 SWAP1 SWAP4 MUL ADD SWAP2 SWAP1 SWAP2 ADD SLOAD PUSH20 0xFFFFFFFFFFFFFFFFFFFFFFFFFFFFFFFFFFFFFFFF AND DUP4 MSTORE DUP3 ADD SWAP3 SWAP1 SWAP3 MSTORE PUSH1 0x40 ADD DUP2 KECCAK256 DUP1 SLOAD SWAP2 PUSH2 0x29D3 DUP4 PUSH2 0x3A23 JUMP JUMPDEST SWAP1 SWAP2 SSTORE POP POP PUSH1 0x5 DUP1 SLOAD PUSH1 0x8 SWAP2 PUSH1 0x0 SWAP2 PUSH2 0x29EE SWAP1 PUSH1 0x1 SWAP1 PUSH2 0x3A10 JUMP JUMPDEST DUP2 SLOAD DUP2 LT PUSH2 0x29FE JUMPI PUSH2 0x29FE PUSH2 0x38D0 JUMP JUMPDEST PUSH1 0x0 SWAP2 DUP3 MSTORE PUSH1 0x20 DUP1 DUP4 KECCAK256 PUSH1 0x2 PUSH1 0x6 SWAP1 SWAP4 MUL ADD SWAP2 SWAP1 SWAP2 ADD SLOAD PUSH20 0xFFFFFFFFFFFFFFFFFFFFFFFFFFFFFFFFFFFFFFFF SWAP1 DUP2 AND DUP5 MSTORE DUP4 DUP3 ADD SWAP5 SWAP1 SWAP5 MSTORE PUSH1 0x40 SWAP3 DUP4 ADD DUP3 KECCAK256 SWAP4 DUP7 AND DUP3 MSTORE SWAP3 SWAP1 SWAP3 MSTORE DUP2 KECCAK256 DUP1 SLOAD SWAP2 PUSH2 0x2A54 DUP4 PUSH2 0x3A23 JUMP JUMPDEST SWAP1 SWAP2 SSTORE POP POP PUSH20 0xFFFFFFFFFFFFFFFFFFFFFFFFFFFFFFFFFFFFFFFF DUP3 AND PUSH1 0x0 SWAP1 DUP2 MSTORE PUSH1 0x6 PUSH1 0x20 MSTORE PUSH1 0x40 DUP2 KECCAK256 DUP1 SLOAD SWAP2 PUSH2 0x2A8A DUP4 PUSH2 0x3A23 JUMP JUMPDEST SWAP2 SWAP1 POP SSTORE POP PUSH1 0x5 DUP1 SLOAD DUP1 PUSH2 0x2AA0 JUMPI PUSH2 0x2AA0 PUSH2 0x3A58 JUMP JUMPDEST PUSH1 0x0 DUP3 DUP2 MSTORE PUSH1 0x20 DUP2 KECCAK256 PUSH1 0x6 PUSH32 0xFFFFFFFFFFFFFFFFFFFFFFFFFFFFFFFFFFFFFFFFFFFFFFFFFFFFFFFFFFFFFFFF SWAP1 SWAP4 ADD SWAP3 DUP4 MUL ADD DUP1 SLOAD PUSH32 0xFFFFFFFFFFFFFFFFFFFFFFFF0000000000000000000000000000000000000000 SWAP1 DUP2 AND DUP3 SSTORE PUSH1 0x1 DUP3 ADD DUP4 SWAP1 SSTORE PUSH1 0x2 DUP3 ADD DUP1 SLOAD DUP3 AND SWAP1 SSTORE PUSH1 0x3 DUP3 ADD DUP4 SWAP1 SSTORE PUSH1 0x4 DUP3 ADD DUP1 SLOAD SWAP1 SWAP2 AND SWAP1 SSTORE PUSH1 0x5 ADD SSTORE SWAP1 SSTORE JUMPDEST PUSH1 0x0 JUMPDEST PUSH1 0x5 SLOAD DUP2 LT ISZERO PUSH2 0x2E4A JUMPI DUP3 PUSH20 0xFFFFFFFFFFFFFFFFFFFFFFFFFFFFFFFFFFFFFFFF AND PUSH1 0x5 DUP3 DUP2 SLOAD DUP2 LT PUSH2 0x2B5C JUMPI PUSH2 0x2B5C PUSH2 0x38D0 JUMP JUMPDEST PUSH1 0x0 SWAP2 DUP3 MSTORE PUSH1 0x20 SWAP1 SWAP2 KECCAK256 PUSH1 0x6 SWAP1 SWAP2 MUL ADD SLOAD PUSH20 0xFFFFFFFFFFFFFFFFFFFFFFFFFFFFFFFFFFFFFFFF AND EQ DUP1 ISZERO PUSH2 0x2BB3 JUMPI POP DUP2 PUSH1 0x5 DUP3 DUP2 SLOAD DUP2 LT PUSH2 0x2B9F JUMPI PUSH2 0x2B9F PUSH2 0x38D0 JUMP JUMPDEST SWAP1 PUSH1 0x0 MSTORE PUSH1 0x20 PUSH1 0x0 KECCAK256 SWAP1 PUSH1 0x6 MUL ADD PUSH1 0x1 ADD SLOAD EQ JUMPDEST ISZERO PUSH2 0x2E38 JUMPI PUSH1 0x7 PUSH1 0x0 PUSH1 0x5 DUP4 DUP2 SLOAD DUP2 LT PUSH2 0x2BCF JUMPI PUSH2 0x2BCF PUSH2 0x38D0 JUMP JUMPDEST PUSH1 0x0 SWAP2 DUP3 MSTORE PUSH1 0x20 DUP1 DUP4 KECCAK256 PUSH1 0x2 PUSH1 0x6 SWAP1 SWAP4 MUL ADD SWAP2 SWAP1 SWAP2 ADD SLOAD PUSH20 0xFFFFFFFFFFFFFFFFFFFFFFFFFFFFFFFFFFFFFFFF AND DUP4 MSTORE DUP3 ADD SWAP3 SWAP1 SWAP3 MSTORE PUSH1 0x40 ADD DUP2 KECCAK256 DUP1 SLOAD SWAP2 PUSH2 0x2C15 DUP4 PUSH2 0x3A23 JUMP JUMPDEST SWAP2 SWAP1 POP SSTORE POP PUSH1 0x8 PUSH1 0x0 PUSH1 0x5 DUP4 DUP2 SLOAD DUP2 LT PUSH2 0x2C31 JUMPI PUSH2 0x2C31 PUSH2 0x38D0 JUMP JUMPDEST PUSH1 0x0 SWAP2 DUP3 MSTORE PUSH1 0x20 DUP1 DUP4 KECCAK256 PUSH1 0x2 PUSH1 0x6 SWAP1 SWAP4 MUL ADD SWAP2 SWAP1 SWAP2 ADD SLOAD PUSH20 0xFFFFFFFFFFFFFFFFFFFFFFFFFFFFFFFFFFFFFFFF SWAP1 DUP2 AND DUP5 MSTORE DUP4 DUP3 ADD SWAP5 SWAP1 SWAP5 MSTORE PUSH1 0x40 SWAP3 DUP4 ADD DUP3 KECCAK256 SWAP4 DUP8 AND DUP3 MSTORE SWAP3 SWAP1 SWAP3 MSTORE DUP2 KECCAK256 DUP1 SLOAD SWAP2 PUSH2 0x2C87 DUP4 PUSH2 0x3A23 JUMP JUMPDEST SWAP1 SWAP2 SSTORE POP POP PUSH20 0xFFFFFFFFFFFFFFFFFFFFFFFFFFFFFFFFFFFFFFFF DUP4 AND PUSH1 0x0 SWAP1 DUP2 MSTORE PUSH1 0x6 PUSH1 0x20 MSTORE PUSH1 0x40 DUP2 KECCAK256 DUP1 SLOAD SWAP2 PUSH2 0x2CBD DUP4 PUSH2 0x3A23 JUMP JUMPDEST SWAP1 SWAP2 SSTORE POP POP PUSH1 0x5 DUP1 SLOAD PUSH2 0x2CD2 SWAP1 PUSH1 0x1 SWAP1 PUSH2 0x3A10 JUMP JUMPDEST DUP2 SLOAD DUP2 LT PUSH2 0x2CE2 JUMPI PUSH2 0x2CE2 PUSH2 0x38D0 JUMP JUMPDEST SWAP1 PUSH1 0x0 MSTORE PUSH1 0x20 PUSH1 0x0 KECCAK256 SWAP1 PUSH1 0x6 MUL ADD PUSH1 0x5 DUP3 DUP2 SLOAD DUP2 LT PUSH2 0x2D03 JUMPI PUSH2 0x2D03 PUSH2 0x38D0 JUMP JUMPDEST PUSH1 0x0 SWAP2 DUP3 MSTORE PUSH1 0x20 SWAP1 SWAP2 KECCAK256 DUP3 SLOAD PUSH1 0x6 SWAP1 SWAP3 MUL ADD DUP1 SLOAD PUSH20 0xFFFFFFFFFFFFFFFFFFFFFFFFFFFFFFFFFFFFFFFF SWAP3 DUP4 AND PUSH32 0xFFFFFFFFFFFFFFFFFFFFFFFF0000000000000000000000000000000000000000 SWAP2 DUP3 AND OR DUP3 SSTORE PUSH1 0x1 DUP1 DUP6 ADD SLOAD SWAP1 DUP4 ADD SSTORE PUSH1 0x2 DUP1 DUP6 ADD SLOAD SWAP1 DUP4 ADD DUP1 SLOAD SWAP2 DUP6 AND SWAP2 DUP4 AND SWAP2 SWAP1 SWAP2 OR SWAP1 SSTORE PUSH1 0x3 DUP1 DUP6 ADD SLOAD SWAP1 DUP4 ADD SSTORE PUSH1 0x4 DUP1 DUP6 ADD SLOAD SWAP1 DUP4 ADD DUP1 SLOAD SWAP2 SWAP1 SWAP5 AND SWAP2 AND OR SWAP1 SWAP2 SSTORE PUSH1 0x5 SWAP2 DUP3 ADD SLOAD SWAP1 DUP3 ADD SSTORE DUP1 SLOAD DUP1 PUSH2 0x2DAF JUMPI PUSH2 0x2DAF PUSH2 0x3A58 JUMP JUMPDEST PUSH1 0x0 DUP3 DUP2 MSTORE PUSH1 0x20 DUP2 KECCAK256 PUSH1 0x6 PUSH32 0xFFFFFFFFFFFFFFFFFFFFFFFFFFFFFFFFFFFFFFFFFFFFFFFFFFFFFFFFFFFFFFFF SWAP1 SWAP4 ADD SWAP3 DUP4 MUL ADD DUP1 SLOAD PUSH32 0xFFFFFFFFFFFFFFFFFFFFFFFF0000000000000000000000000000000000000000 SWAP1 DUP2 AND DUP3 SSTORE PUSH1 0x1 DUP3 ADD DUP4 SWAP1 SSTORE PUSH1 0x2 DUP3 ADD DUP1 SLOAD DUP3 AND SWAP1 SSTORE PUSH1 0x3 DUP3 ADD DUP4 SWAP1 SSTORE PUSH1 0x4 DUP3 ADD DUP1 SLOAD SWAP1 SWAP2 AND SWAP1 SSTORE PUSH1 0x5 ADD SSTORE SWAP1 SSTORE POP POP POP JUMP JUMPDEST DUP1 PUSH2 0x2E42 DUP2 PUSH2 0x392E JUMP JUMPDEST SWAP2 POP POP PUSH2 0x2B28 JUMP JUMPDEST POP POP POP JUMP JUMPDEST PUSH1 0x0 DUP1 SLOAD PUSH20 0xFFFFFFFFFFFFFFFFFFFFFFFFFFFFFFFFFFFFFFFF DUP4 DUP2 AND PUSH32 0xFFFFFFFFFFFFFFFFFFFFFFFF0000000000000000000000000000000000000000 DUP4 AND DUP2 OR DUP5 SSTORE PUSH1 0x40 MLOAD SWAP2 SWAP1 SWAP3 AND SWAP3 DUP4 SWAP2 PUSH32 0x8BE0079C531659141344CD1FD0A4F28419497F9722A3DAAFE3B4186F6B6457E0 SWAP2 SWAP1 LOG3 POP POP JUMP JUMPDEST PUSH1 0x5 DUP1 SLOAD PUSH1 0x1 DUP2 ADD DUP3 SSTORE PUSH1 0x0 SWAP2 DUP3 MSTORE DUP3 MLOAD PUSH1 0x6 SWAP2 DUP3 MUL PUSH32 0x36B6384B5ECA791C62761152D0C79BB0604C104A5FB6F4EB0703F3154BB3DB0 DUP2 ADD DUP1 SLOAD PUSH20 0xFFFFFFFFFFFFFFFFFFFFFFFFFFFFFFFFFFFFFFFF SWAP4 DUP5 AND PUSH32 0xFFFFFFFFFFFFFFFFFFFFFFFF0000000000000000000000000000000000000000 SWAP2 DUP3 AND DUP2 OR SWAP1 SWAP3 SSTORE PUSH1 0x20 DUP1 DUP9 ADD MLOAD PUSH32 0x36B6384B5ECA791C62761152D0C79BB0604C104A5FB6F4EB0703F3154BB3DB1 DUP6 ADD SSTORE PUSH1 0x40 DUP1 DUP10 ADD MLOAD PUSH32 0x36B6384B5ECA791C62761152D0C79BB0604C104A5FB6F4EB0703F3154BB3DB2 DUP7 ADD DUP1 SLOAD SWAP2 DUP9 AND SWAP2 DUP6 AND SWAP2 SWAP1 SWAP2 OR SWAP1 SSTORE PUSH1 0x60 DUP10 ADD MLOAD PUSH32 0x36B6384B5ECA791C62761152D0C79BB0604C104A5FB6F4EB0703F3154BB3DB3 DUP7 ADD SSTORE PUSH1 0x80 DUP10 ADD MLOAD PUSH32 0x36B6384B5ECA791C62761152D0C79BB0604C104A5FB6F4EB0703F3154BB3DB4 DUP7 ADD DUP1 SLOAD SWAP2 SWAP1 SWAP8 AND SWAP4 AND SWAP3 SWAP1 SWAP3 OR SWAP1 SWAP5 SSTORE PUSH1 0xA0 DUP8 ADD MLOAD PUSH32 0x36B6384B5ECA791C62761152D0C79BB0604C104A5FB6F4EB0703F3154BB3DB5 SWAP1 SWAP4 ADD SWAP3 SWAP1 SWAP3 SSTORE DUP5 MSTORE SWAP2 SWAP1 MSTORE DUP2 KECCAK256 DUP1 SLOAD SWAP2 PUSH2 0x3041 DUP4 PUSH2 0x392E JUMP JUMPDEST SWAP1 SWAP2 SSTORE POP POP PUSH1 0x40 DUP1 DUP3 ADD MLOAD PUSH20 0xFFFFFFFFFFFFFFFFFFFFFFFFFFFFFFFFFFFFFFFF AND PUSH1 0x0 SWAP1 DUP2 MSTORE PUSH1 0x7 PUSH1 0x20 MSTORE SWAP1 DUP2 KECCAK256 DUP1 SLOAD SWAP2 PUSH2 0x307B DUP4 PUSH2 0x392E JUMP JUMPDEST SWAP1 SWAP2 SSTORE POP POP PUSH1 0x40 DUP1 DUP3 ADD MLOAD PUSH20 0xFFFFFFFFFFFFFFFFFFFFFFFFFFFFFFFFFFFFFFFF SWAP1 DUP2 AND PUSH1 0x0 SWAP1 DUP2 MSTORE PUSH1 0x8 PUSH1 0x20 SWAP1 DUP2 MSTORE DUP4 DUP3 KECCAK256 DUP6 MLOAD SWAP1 SWAP4 AND DUP3 MSTORE SWAP2 SWAP1 SWAP2 MSTORE SWAP1 DUP2 KECCAK256 DUP1 SLOAD SWAP2 PUSH2 0x30C7 DUP4 PUSH2 0x392E JUMP JUMPDEST SWAP2 SWAP1 POP SSTORE POP POP JUMP JUMPDEST PUSH1 0x0 PUSH2 0x3131 DUP3 PUSH1 0x40 MLOAD DUP1 PUSH1 0x40 ADD PUSH1 0x40 MSTORE DUP1 PUSH1 0x20 DUP2 MSTORE PUSH1 0x20 ADD PUSH32 0x5361666545524332303A206C6F772D6C6576656C2063616C6C206661696C6564 DUP2 MSTORE POP DUP6 PUSH20 0xFFFFFFFFFFFFFFFFFFFFFFFFFFFFFFFFFFFFFFFF AND PUSH2 0x31DB SWAP1 SWAP3 SWAP2 SWAP1 PUSH4 0xFFFFFFFF AND JUMP JUMPDEST DUP1 MLOAD SWAP1 SWAP2 POP ISZERO PUSH2 0x2E4A JUMPI DUP1 DUP1 PUSH1 0x20 ADD SWAP1 MLOAD DUP2 ADD SWAP1 PUSH2 0x314F SWAP2 SWAP1 PUSH2 0x399C JUMP JUMPDEST PUSH2 0x2E4A JUMPI PUSH1 0x40 MLOAD PUSH32 0x8C379A000000000000000000000000000000000000000000000000000000000 DUP2 MSTORE PUSH1 0x20 PUSH1 0x4 DUP3 ADD MSTORE PUSH1 0x2A PUSH1 0x24 DUP3 ADD MSTORE PUSH32 0x5361666545524332303A204552433230206F7065726174696F6E20646964206E PUSH1 0x44 DUP3 ADD MSTORE PUSH32 0x6F74207375636365656400000000000000000000000000000000000000000000 PUSH1 0x64 DUP3 ADD MSTORE PUSH1 0x84 ADD PUSH2 0x888 JUMP JUMPDEST PUSH1 0x60 PUSH2 0x31EA DUP5 DUP5 PUSH1 0x0 DUP6 PUSH2 0x31F2 JUMP JUMPDEST SWAP5 SWAP4 POP POP POP POP JUMP JUMPDEST PUSH1 0x60 DUP3 SELFBALANCE LT ISZERO PUSH2 0x3284 JUMPI PUSH1 0x40 MLOAD PUSH32 0x8C379A000000000000000000000000000000000000000000000000000000000 DUP2 MSTORE PUSH1 0x20 PUSH1 0x4 DUP3 ADD MSTORE PUSH1 0x26 PUSH1 0x24 DUP3 ADD MSTORE PUSH32 0x416464726573733A20696E73756666696369656E742062616C616E636520666F PUSH1 0x44 DUP3 ADD MSTORE PUSH32 0x722063616C6C0000000000000000000000000000000000000000000000000000 PUSH1 0x64 DUP3 ADD MSTORE PUSH1 0x84 ADD PUSH2 0x888 JUMP JUMPDEST PUSH1 0x0 DUP1 DUP7 PUSH20 0xFFFFFFFFFFFFFFFFFFFFFFFFFFFFFFFFFFFFFFFF AND DUP6 DUP8 PUSH1 0x40 MLOAD PUSH2 0x32AD SWAP2 SWAP1 PUSH2 0x3AAB JUMP JUMPDEST PUSH1 0x0 PUSH1 0x40 MLOAD DUP1 DUP4 SUB DUP2 DUP6 DUP8 GAS CALL SWAP3 POP POP POP RETURNDATASIZE DUP1 PUSH1 0x0 DUP2 EQ PUSH2 0x32EA JUMPI PUSH1 0x40 MLOAD SWAP2 POP PUSH1 0x1F NOT PUSH1 0x3F RETURNDATASIZE ADD AND DUP3 ADD PUSH1 0x40 MSTORE RETURNDATASIZE DUP3 MSTORE RETURNDATASIZE PUSH1 0x0 PUSH1 0x20 DUP5 ADD RETURNDATACOPY PUSH2 0x32EF JUMP JUMPDEST PUSH1 0x60 SWAP2 POP JUMPDEST POP SWAP2 POP SWAP2 POP PUSH2 0x3300 DUP8 DUP4 DUP4 DUP8 PUSH2 0x330B JUMP JUMPDEST SWAP8 SWAP7 POP POP POP POP POP POP POP JUMP JUMPDEST PUSH1 0x60 DUP4 ISZERO PUSH2 0x33A1 JUMPI DUP3 MLOAD PUSH1 0x0 SUB PUSH2 0x339A JUMPI PUSH20 0xFFFFFFFFFFFFFFFFFFFFFFFFFFFFFFFFFFFFFFFF DUP6 AND EXTCODESIZE PUSH2 0x339A JUMPI PUSH1 0x40 MLOAD PUSH32 0x8C379A000000000000000000000000000000000000000000000000000000000 DUP2 MSTORE PUSH1 0x20 PUSH1 0x4 DUP3 ADD MSTORE PUSH1 0x1D PUSH1 0x24 DUP3 ADD MSTORE PUSH32 0x416464726573733A2063616C6C20746F206E6F6E2D636F6E7472616374000000 PUSH1 0x44 DUP3 ADD MSTORE PUSH1 0x64 ADD PUSH2 0x888 JUMP JUMPDEST POP DUP2 PUSH2 0x31EA JUMP JUMPDEST PUSH2 0x31EA DUP4 DUP4 DUP2 MLOAD ISZERO PUSH2 0x33B6 JUMPI DUP2 MLOAD DUP1 DUP4 PUSH1 0x20 ADD REVERT JUMPDEST DUP1 PUSH1 0x40 MLOAD PUSH32 0x8C379A000000000000000000000000000000000000000000000000000000000 DUP2 MSTORE PUSH1 0x4 ADD PUSH2 0x888 SWAP2 SWAP1 PUSH2 0x3AC7 JUMP JUMPDEST POP DUP1 SLOAD PUSH1 0x0 DUP3 SSTORE SWAP1 PUSH1 0x0 MSTORE PUSH1 0x20 PUSH1 0x0 KECCAK256 SWAP1 DUP2 ADD SWAP1 PUSH2 0x25BE SWAP2 SWAP1 PUSH2 0x348A JUMP JUMPDEST DUP3 DUP1 SLOAD DUP3 DUP3 SSTORE SWAP1 PUSH1 0x0 MSTORE PUSH1 0x20 PUSH1 0x0 KECCAK256 SWAP1 DUP2 ADD SWAP3 DUP3 ISZERO PUSH2 0x3482 JUMPI SWAP2 PUSH1 0x20 MUL DUP3 ADD JUMPDEST DUP3 DUP2 GT ISZERO PUSH2 0x3482 JUMPI DUP3 MLOAD DUP3 SLOAD PUSH32 0xFFFFFFFFFFFFFFFFFFFFFFFF0000000000000000000000000000000000000000 AND PUSH20 0xFFFFFFFFFFFFFFFFFFFFFFFFFFFFFFFFFFFFFFFF SWAP1 SWAP2 AND OR DUP3 SSTORE PUSH1 0x20 SWAP1 SWAP3 ADD SWAP2 PUSH1 0x1 SWAP1 SWAP2 ADD SWAP1 PUSH2 0x3428 JUMP JUMPDEST POP PUSH2 0x1BB8 SWAP3 SWAP2 POP JUMPDEST JUMPDEST DUP1 DUP3 GT ISZERO PUSH2 0x1BB8 JUMPI PUSH1 0x0 DUP2 SSTORE PUSH1 0x1 ADD PUSH2 0x348B JUMP JUMPDEST PUSH1 0x0 PUSH1 0x20 DUP3 DUP5 SUB SLT ISZERO PUSH2 0x34B1 JUMPI PUSH1 0x0 DUP1 REVERT JUMPDEST POP CALLDATALOAD SWAP2 SWAP1 POP JUMP JUMPDEST PUSH32 0x4E487B7100000000000000000000000000000000000000000000000000000000 PUSH1 0x0 MSTORE PUSH1 0x41 PUSH1 0x4 MSTORE PUSH1 0x24 PUSH1 0x0 REVERT JUMPDEST PUSH20 0xFFFFFFFFFFFFFFFFFFFFFFFFFFFFFFFFFFFFFFFF DUP2 AND DUP2 EQ PUSH2 0x25BE JUMPI PUSH1 0x0 DUP1 REVERT JUMPDEST DUP1 CALLDATALOAD PUSH2 0x3514 DUP2 PUSH2 0x34E7 JUMP JUMPDEST SWAP2 SWAP1 POP JUMP JUMPDEST PUSH1 0x0 PUSH1 0x20 DUP1 DUP4 DUP6 SUB SLT ISZERO PUSH2 0x352C JUMPI PUSH1 0x0 DUP1 REVERT JUMPDEST DUP3 CALLDATALOAD PUSH8 0xFFFFFFFFFFFFFFFF DUP1 DUP3 GT ISZERO PUSH2 0x3544 JUMPI PUSH1 0x0 DUP1 REVERT JUMPDEST DUP2 DUP6 ADD SWAP2 POP DUP6 PUSH1 0x1F DUP4 ADD SLT PUSH2 0x3558 JUMPI PUSH1 0x0 DUP1 REVERT JUMPDEST DUP2 CALLDATALOAD DUP2 DUP2 GT ISZERO PUSH2 0x356A JUMPI PUSH2 0x356A PUSH2 0x34B8 JUMP JUMPDEST DUP1 PUSH1 0x5 SHL PUSH1 0x40 MLOAD PUSH32 0xFFFFFFFFFFFFFFFFFFFFFFFFFFFFFFFFFFFFFFFFFFFFFFFFFFFFFFFFFFFFFFE0 PUSH1 0x3F DUP4 ADD AND DUP2 ADD DUP2 DUP2 LT DUP6 DUP3 GT OR ISZERO PUSH2 0x35AD JUMPI PUSH2 0x35AD PUSH2 0x34B8 JUMP JUMPDEST PUSH1 0x40 MSTORE SWAP2 DUP3 MSTORE DUP5 DUP3 ADD SWAP3 POP DUP4 DUP2 ADD DUP6 ADD SWAP2 DUP9 DUP4 GT ISZERO PUSH2 0x35CB JUMPI PUSH1 0x0 DUP1 REVERT JUMPDEST SWAP4 DUP6 ADD SWAP4 JUMPDEST DUP3 DUP6 LT ISZERO PUSH2 0x35F0 JUMPI PUSH2 0x35E1 DUP6 PUSH2 0x3509 JUMP JUMPDEST DUP5 MSTORE SWAP4 DUP6 ADD SWAP4 SWAP3 DUP6 ADD SWAP3 PUSH2 0x35D0 JUMP JUMPDEST SWAP9 SWAP8 POP POP POP POP POP POP POP POP JUMP JUMPDEST PUSH1 0x0 DUP1 PUSH1 0x40 DUP4 DUP6 SUB SLT ISZERO PUSH2 0x360F JUMPI PUSH1 0x0 DUP1 REVERT JUMPDEST DUP3 CALLDATALOAD PUSH2 0x361A DUP2 PUSH2 0x34E7 JUMP JUMPDEST SWAP5 PUSH1 0x20 SWAP4 SWAP1 SWAP4 ADD CALLDATALOAD SWAP4 POP POP POP JUMP JUMPDEST PUSH1 0x0 DUP1 PUSH1 0x0 PUSH1 0x60 DUP5 DUP7 SUB SLT ISZERO PUSH2 0x363D JUMPI PUSH1 0x0 DUP1 REVERT JUMPDEST DUP4 CALLDATALOAD PUSH2 0x3648 DUP2 PUSH2 0x34E7 JUMP JUMPDEST SWAP6 PUSH1 0x20 DUP6 ADD CALLDATALOAD SWAP6 POP PUSH1 0x40 SWAP1 SWAP5 ADD CALLDATALOAD SWAP4 SWAP3 POP POP POP JUMP JUMPDEST PUSH1 0x20 DUP1 DUP3 MSTORE DUP3 MLOAD DUP3 DUP3 ADD DUP2 SWAP1 MSTORE PUSH1 0x0 SWAP2 SWAP1 DUP5 DUP3 ADD SWAP1 PUSH1 0x40 DUP6 ADD SWAP1 DUP5 JUMPDEST DUP2 DUP2 LT ISZERO PUSH2 0x36F0 JUMPI PUSH2 0x36DD DUP4 DUP6 MLOAD PUSH20 0xFFFFFFFFFFFFFFFFFFFFFFFFFFFFFFFFFFFFFFFF DUP1 DUP3 MLOAD AND DUP4 MSTORE PUSH1 0x20 DUP3 ADD MLOAD PUSH1 0x20 DUP5 ADD MSTORE DUP1 PUSH1 0x40 DUP4 ADD MLOAD AND PUSH1 0x40 DUP5 ADD MSTORE PUSH1 0x60 DUP3 ADD MLOAD PUSH1 0x60 DUP5 ADD MSTORE DUP1 PUSH1 0x80 DUP4 ADD MLOAD AND PUSH1 0x80 DUP5 ADD MSTORE POP PUSH1 0xA0 DUP2 ADD MLOAD PUSH1 0xA0 DUP4 ADD MSTORE POP POP JUMP JUMPDEST SWAP3 DUP5 ADD SWAP3 PUSH1 0xC0 SWAP3 SWAP1 SWAP3 ADD SWAP2 PUSH1 0x1 ADD PUSH2 0x3679 JUMP JUMPDEST POP SWAP1 SWAP7 SWAP6 POP POP POP POP POP POP JUMP JUMPDEST PUSH1 0x20 DUP1 DUP3 MSTORE DUP3 MLOAD DUP3 DUP3 ADD DUP2 SWAP1 MSTORE PUSH1 0x0 SWAP2 SWAP1 DUP5 DUP3 ADD SWAP1 PUSH1 0x40 DUP6 ADD SWAP1 DUP5 JUMPDEST DUP2 DUP2 LT ISZERO PUSH2 0x36F0 JUMPI DUP4 MLOAD PUSH20 0xFFFFFFFFFFFFFFFFFFFFFFFFFFFFFFFFFFFFFFFF AND DUP4 MSTORE SWAP3 DUP5 ADD SWAP3 SWAP2 DUP5 ADD SWAP2 PUSH1 0x1 ADD PUSH2 0x3718 JUMP JUMPDEST PUSH1 0x0 PUSH1 0x20 DUP3 DUP5 SUB SLT ISZERO PUSH2 0x375C JUMPI PUSH1 0x0 DUP1 REVERT JUMPDEST DUP2 CALLDATALOAD PUSH2 0x1025 DUP2 PUSH2 0x34E7 JUMP JUMPDEST PUSH1 0x20 DUP1 DUP3 MSTORE DUP3 MLOAD DUP3 DUP3 ADD DUP2 SWAP1 MSTORE PUSH1 0x0 SWAP2 SWAP1 PUSH1 0x40 SWAP1 DUP2 DUP6 ADD SWAP1 DUP7 DUP5 ADD DUP6 JUMPDEST DUP3 DUP2 LT ISZERO PUSH2 0x37BF JUMPI DUP2 MLOAD DUP1 MLOAD PUSH20 0xFFFFFFFFFFFFFFFFFFFFFFFFFFFFFFFFFFFFFFFF AND DUP6 MSTORE DUP7 ADD MLOAD DUP7 DUP6 ADD MSTORE SWAP3 DUP5 ADD SWAP3 SWAP1 DUP6 ADD SWAP1 PUSH1 0x1 ADD PUSH2 0x3784 JUMP JUMPDEST POP SWAP2 SWAP8 SWAP7 POP POP POP POP POP POP POP JUMP JUMPDEST PUSH1 0x0 DUP1 PUSH1 0x40 DUP4 DUP6 SUB SLT ISZERO PUSH2 0x37DF JUMPI PUSH1 0x0 DUP1 REVERT JUMPDEST POP POP DUP1 CALLDATALOAD SWAP3 PUSH1 0x20 SWAP1 SWAP2 ADD CALLDATALOAD SWAP2 POP JUMP JUMPDEST PUSH1 0xC0 DUP2 ADD PUSH2 0x130B DUP3 DUP5 PUSH20 0xFFFFFFFFFFFFFFFFFFFFFFFFFFFFFFFFFFFFFFFF DUP1 DUP3 MLOAD AND DUP4 MSTORE PUSH1 0x20 DUP3 ADD MLOAD PUSH1 0x20 DUP5 ADD MSTORE DUP1 PUSH1 0x40 DUP4 ADD MLOAD AND PUSH1 0x40 DUP5 ADD MSTORE PUSH1 0x60 DUP3 ADD MLOAD PUSH1 0x60 DUP5 ADD MSTORE DUP1 PUSH1 0x80 DUP4 ADD MLOAD AND PUSH1 0x80 DUP5 ADD MSTORE POP PUSH1 0xA0 DUP2 ADD MLOAD PUSH1 0xA0 DUP4 ADD MSTORE POP POP JUMP JUMPDEST PUSH1 0x0 DUP1 PUSH1 0x0 DUP1 PUSH1 0x80 DUP6 DUP8 SUB SLT ISZERO PUSH2 0x3863 JUMPI PUSH1 0x0 DUP1 REVERT JUMPDEST DUP5 CALLDATALOAD PUSH2 0x386E DUP2 PUSH2 0x34E7 JUMP JUMPDEST SWAP4 POP PUSH1 0x20 DUP6 ADD CALLDATALOAD SWAP3 POP PUSH1 0x40 DUP6 ADD CALLDATALOAD SWAP2 POP PUSH1 0x60 DUP6 ADD CALLDATALOAD PUSH2 0x388C DUP2 PUSH2 0x34E7 JUMP JUMPDEST SWAP4 SWAP7 SWAP3 SWAP6 POP SWAP1 SWAP4 POP POP JUMP JUMPDEST PUSH1 0x0 DUP1 PUSH1 0x40 DUP4 DUP6 SUB SLT ISZERO PUSH2 0x38AA JUMPI PUSH1 0x0 DUP1 REVERT JUMPDEST DUP3 CALLDATALOAD PUSH2 0x38B5 DUP2 PUSH2 0x34E7 JUMP JUMPDEST SWAP2 POP PUSH1 0x20 DUP4 ADD CALLDATALOAD PUSH2 0x38C5 DUP2 PUSH2 0x34E7 JUMP JUMPDEST DUP1 SWAP2 POP POP SWAP3 POP SWAP3 SWAP1 POP JUMP JUMPDEST PUSH32 0x4E487B7100000000000000000000000000000000000000000000000000000000 PUSH1 0x0 MSTORE PUSH1 0x32 PUSH1 0x4 MSTORE PUSH1 0x24 PUSH1 0x0 REVERT JUMPDEST PUSH32 0x4E487B7100000000000000000000000000000000000000000000000000000000 PUSH1 0x0 MSTORE PUSH1 0x11 PUSH1 0x4 MSTORE PUSH1 0x24 PUSH1 0x0 REVERT JUMPDEST PUSH1 0x0 PUSH32 0xFFFFFFFFFFFFFFFFFFFFFFFFFFFFFFFFFFFFFFFFFFFFFFFFFFFFFFFFFFFFFFFF DUP3 SUB PUSH2 0x395F JUMPI PUSH2 0x395F PUSH2 0x38FF JUMP JUMPDEST POP PUSH1 0x1 ADD SWAP1 JUMP JUMPDEST PUSH1 0x0 PUSH1 0x20 DUP3 DUP5 SUB SLT ISZERO PUSH2 0x3978 JUMPI PUSH1 0x0 DUP1 REVERT JUMPDEST POP MLOAD SWAP2 SWAP1 POP JUMP JUMPDEST PUSH1 0x0 PUSH1 0x20 DUP3 DUP5 SUB SLT ISZERO PUSH2 0x3991 JUMPI PUSH1 0x0 DUP1 REVERT JUMPDEST DUP2 MLOAD PUSH2 0x1025 DUP2 PUSH2 0x34E7 JUMP JUMPDEST PUSH1 0x0 PUSH1 0x20 DUP3 DUP5 SUB SLT ISZERO PUSH2 0x39AE JUMPI PUSH1 0x0 DUP1 REVERT JUMPDEST DUP2 MLOAD DUP1 ISZERO ISZERO DUP2 EQ PUSH2 0x1025 JUMPI PUSH1 0x0 DUP1 REVERT JUMPDEST PUSH1 0x0 DUP3 PUSH2 0x39F4 JUMPI PUSH32 0x4E487B7100000000000000000000000000000000000000000000000000000000 PUSH1 0x0 MSTORE PUSH1 0x12 PUSH1 0x4 MSTORE PUSH1 0x24 PUSH1 0x0 REVERT JUMPDEST POP DIV SWAP1 JUMP JUMPDEST DUP1 DUP3 MUL DUP2 ISZERO DUP3 DUP3 DIV DUP5 EQ OR PUSH2 0x130B JUMPI PUSH2 0x130B PUSH2 0x38FF JUMP JUMPDEST DUP2 DUP2 SUB DUP2 DUP2 GT ISZERO PUSH2 0x130B JUMPI PUSH2 0x130B PUSH2 0x38FF JUMP JUMPDEST PUSH1 0x0 DUP2 PUSH2 0x3A32 JUMPI PUSH2 0x3A32 PUSH2 0x38FF JUMP JUMPDEST POP PUSH32 0xFFFFFFFFFFFFFFFFFFFFFFFFFFFFFFFFFFFFFFFFFFFFFFFFFFFFFFFFFFFFFFFF ADD SWAP1 JUMP JUMPDEST PUSH32 0x4E487B7100000000000000000000000000000000000000000000000000000000 PUSH1 0x0 MSTORE PUSH1 0x31 PUSH1 0x4 MSTORE PUSH1 0x24 PUSH1 0x0 REVERT JUMPDEST PUSH1 0x0 JUMPDEST DUP4 DUP2 LT ISZERO PUSH2 0x3AA2 JUMPI DUP2 DUP2 ADD MLOAD DUP4 DUP3 ADD MSTORE PUSH1 0x20 ADD PUSH2 0x3A8A JUMP JUMPDEST POP POP PUSH1 0x0 SWAP2 ADD MSTORE JUMP JUMPDEST PUSH1 0x0 DUP3 MLOAD PUSH2 0x3ABD DUP2 DUP5 PUSH1 0x20 DUP8 ADD PUSH2 0x3A87 JUMP JUMPDEST SWAP2 SWAP1 SWAP2 ADD SWAP3 SWAP2 POP POP JUMP JUMPDEST PUSH1 0x20 DUP2 MSTORE PUSH1 0x0 DUP3 MLOAD DUP1 PUSH1 0x20 DUP5 ADD MSTORE PUSH2 0x3AE6 DUP2 PUSH1 0x40 DUP6 ADD PUSH1 0x20 DUP8 ADD PUSH2 0x3A87 JUMP JUMPDEST PUSH1 0x1F ADD PUSH32 0xFFFFFFFFFFFFFFFFFFFFFFFFFFFFFFFFFFFFFFFFFFFFFFFFFFFFFFFFFFFFFFE0 AND SWAP2 SWAP1 SWAP2 ADD PUSH1 0x40 ADD SWAP3 SWAP2 POP POP JUMP INVALID LOG2 PUSH5 0x6970667358 0x22 SLT KECCAK256 0x4E PUSH29 0x2659D9E1D6D925EBC85E34C394A08C34EF326F6CFA47D80AD8C8D0C3AE EXTCODECOPY PUSH5 0x736F6C6343 STOP ADDMOD SLT STOP CALLER "
				},
				"gasEstimates": {
					"creation": {
						"codeDepositCost": "3036400",
						"executionCost": "infinite",
						"totalCost": "infinite"
					},
					"external": {
						"buyNFT(address,uint256)": "infinite",
						"buyNFTbyERC20(address,uint256)": "infinite",
						"deSellNFT(address,uint256)": "infinite",
						"getAllowedCollections()": "infinite",
						"getAllowedERC20()": "infinite",
						"getCollectionTokensAtSale(address,uint256,uint256)": "infinite",
						"getCollectionsTokensCount()": "infinite",
						"getColletionTokensCount(address)": "2597",
						"getFeeReceiver()": "2418",
						"getMyTokensAtSale(uint256,uint256)": "infinite",
						"getTokensAtSale(uint256,uint256)": "infinite",
						"getTokensAtSaleCount()": "2337",
						"getTradeFee()": "2382",
						"getUserCollectionTokensCount(address,address)": "infinite",
						"getUserCollectionsTokenCount(address)": "infinite",
						"getUserTokensAtSale(address,uint256,uint256)": "infinite",
						"isAllowedERC20(address)": "infinite",
						"isMarketPlaceContract()": "233",
						"marketTokensGet(address,uint256)": "infinite",
						"owner()": "2364",
						"paused()": "2360",
						"renounceOwnership()": "infinite",
						"sellNFT(address,uint256,uint256,address)": "infinite",
						"setAllowedCollections(address[])": "infinite",
						"setAllowedERC20(address[])": "infinite",
						"setFeeReceiver(address)": "26744",
						"setTradeFee(uint256)": "24523",
						"transferOwnership(address)": "infinite",
						"version()": "263",
						"withdrawERC20(address)": "infinite",
						"withdrawWei()": "infinite"
					},
					"internal": {
						"_marketTokensAdd(struct Marketplace.SelledNFT memory)": "infinite",
						"_marketTokensDel(address,uint256)": "infinite"
					}
				},
				"methodIdentifiers": {
					"buyNFT(address,uint256)": "a82ba76f",
					"buyNFTbyERC20(address,uint256)": "2b205d14",
					"deSellNFT(address,uint256)": "da24548a",
					"getAllowedCollections()": "3a51f383",
					"getAllowedERC20()": "69c57352",
					"getCollectionTokensAtSale(address,uint256,uint256)": "b7b7b8ff",
					"getCollectionsTokensCount()": "a7c9197a",
					"getColletionTokensCount(address)": "5b4e7add",
					"getFeeReceiver()": "e8a35392",
					"getMyTokensAtSale(uint256,uint256)": "cb4ca919",
					"getTokensAtSale(uint256,uint256)": "5b87f0f2",
					"getTokensAtSaleCount()": "c8f77899",
					"getTradeFee()": "952977f5",
					"getUserCollectionTokensCount(address,address)": "c8d8101c",
					"getUserCollectionsTokenCount(address)": "3eac63ed",
					"getUserTokensAtSale(address,uint256,uint256)": "2ca38df5",
					"isAllowedERC20(address)": "785fa7ce",
					"isMarketPlaceContract()": "527f2902",
					"marketTokensGet(address,uint256)": "6629e913",
					"owner()": "8da5cb5b",
					"paused()": "5c975abb",
					"renounceOwnership()": "715018a6",
					"sellNFT(address,uint256,uint256,address)": "98f748bd",
					"setAllowedCollections(address[])": "27713536",
					"setAllowedERC20(address[])": "e9e4e160",
					"setFeeReceiver(address)": "efdcd974",
					"setTradeFee(uint256)": "10603023",
					"transferOwnership(address)": "f2fde38b",
					"version()": "54fd4d50",
					"withdrawERC20(address)": "f4f3b200",
					"withdrawWei()": "5211ac2e"
				}
			},
			"storageLayout": {
				"storage": [
					{
						"astId": 26,
						"contract": "source/Marketplace.sol:Marketplace",
						"label": "_owner",
						"offset": 0,
						"slot": "0",
						"type": "t_address"
					},
					{
						"astId": 2258,
						"contract": "source/Marketplace.sol:Marketplace",
						"label": "_paused",
						"offset": 20,
						"slot": "0",
						"type": "t_bool"
					},
					{
						"astId": 2432,
						"contract": "source/Marketplace.sol:Marketplace",
						"label": "_tradeFee",
						"offset": 0,
						"slot": "1",
						"type": "t_uint256"
					},
					{
						"astId": 2444,
						"contract": "source/Marketplace.sol:Marketplace",
						"label": "_marketCollections",
						"offset": 0,
						"slot": "2",
						"type": "t_array(t_contract(IERC721)638)dyn_storage"
					},
					{
						"astId": 2448,
						"contract": "source/Marketplace.sol:Marketplace",
						"label": "_allowedCollections",
						"offset": 0,
						"slot": "3",
						"type": "t_mapping(t_address,t_bool)"
					},
					{
						"astId": 2451,
						"contract": "source/Marketplace.sol:Marketplace",
						"label": "_allowedERC20",
						"offset": 0,
						"slot": "4",
						"type": "t_array(t_address)dyn_storage"
					},
					{
						"astId": 2455,
						"contract": "source/Marketplace.sol:Marketplace",
						"label": "_marketTokens",
						"offset": 0,
						"slot": "5",
						"type": "t_array(t_struct(SelledNFT)2426_storage)dyn_storage"
					},
					{
						"astId": 2459,
						"contract": "source/Marketplace.sol:Marketplace",
						"label": "_collectionTokensCount",
						"offset": 0,
						"slot": "6",
						"type": "t_mapping(t_address,t_uint256)"
					},
					{
						"astId": 2463,
						"contract": "source/Marketplace.sol:Marketplace",
						"label": "_userTokensCount",
						"offset": 0,
						"slot": "7",
						"type": "t_mapping(t_address,t_uint256)"
					},
					{
						"astId": 2469,
						"contract": "source/Marketplace.sol:Marketplace",
						"label": "_userTokensCountByCollections",
						"offset": 0,
						"slot": "8",
						"type": "t_mapping(t_address,t_mapping(t_address,t_uint256))"
					},
					{
						"astId": 2471,
						"contract": "source/Marketplace.sol:Marketplace",
						"label": "_feeReceiver",
						"offset": 0,
						"slot": "9",
						"type": "t_address"
					}
				],
				"types": {
					"t_address": {
						"encoding": "inplace",
						"label": "address",
						"numberOfBytes": "20"
					},
					"t_array(t_address)dyn_storage": {
						"base": "t_address",
						"encoding": "dynamic_array",
						"label": "address[]",
						"numberOfBytes": "32"
					},
					"t_array(t_contract(IERC721)638)dyn_storage": {
						"base": "t_contract(IERC721)638",
						"encoding": "dynamic_array",
						"label": "contract IERC721[]",
						"numberOfBytes": "32"
					},
					"t_array(t_struct(SelledNFT)2426_storage)dyn_storage": {
						"base": "t_struct(SelledNFT)2426_storage",
						"encoding": "dynamic_array",
						"label": "struct Marketplace.SelledNFT[]",
						"numberOfBytes": "32"
					},
					"t_bool": {
						"encoding": "inplace",
						"label": "bool",
						"numberOfBytes": "1"
					},
					"t_contract(IERC721)638": {
						"encoding": "inplace",
						"label": "contract IERC721",
						"numberOfBytes": "20"
					},
					"t_mapping(t_address,t_bool)": {
						"encoding": "mapping",
						"key": "t_address",
						"label": "mapping(address => bool)",
						"numberOfBytes": "32",
						"value": "t_bool"
					},
					"t_mapping(t_address,t_mapping(t_address,t_uint256))": {
						"encoding": "mapping",
						"key": "t_address",
						"label": "mapping(address => mapping(address => uint256))",
						"numberOfBytes": "32",
						"value": "t_mapping(t_address,t_uint256)"
					},
					"t_mapping(t_address,t_uint256)": {
						"encoding": "mapping",
						"key": "t_address",
						"label": "mapping(address => uint256)",
						"numberOfBytes": "32",
						"value": "t_uint256"
					},
					"t_struct(SelledNFT)2426_storage": {
						"encoding": "inplace",
						"label": "struct Marketplace.SelledNFT",
						"members": [
							{
								"astId": 2415,
								"contract": "source/Marketplace.sol:Marketplace",
								"label": "collection",
								"offset": 0,
								"slot": "0",
								"type": "t_address"
							},
							{
								"astId": 2417,
								"contract": "source/Marketplace.sol:Marketplace",
								"label": "tokenId",
								"offset": 0,
								"slot": "1",
								"type": "t_uint256"
							},
							{
								"astId": 2419,
								"contract": "source/Marketplace.sol:Marketplace",
								"label": "seller",
								"offset": 0,
								"slot": "2",
								"type": "t_address"
							},
							{
								"astId": 2421,
								"contract": "source/Marketplace.sol:Marketplace",
								"label": "price",
								"offset": 0,
								"slot": "3",
								"type": "t_uint256"
							},
							{
								"astId": 2423,
								"contract": "source/Marketplace.sol:Marketplace",
								"label": "erc20",
								"offset": 0,
								"slot": "4",
								"type": "t_address"
							},
							{
								"astId": 2425,
								"contract": "source/Marketplace.sol:Marketplace",
								"label": "utx",
								"offset": 0,
								"slot": "5",
								"type": "t_uint256"
							}
						],
						"numberOfBytes": "192"
					},
					"t_uint256": {
						"encoding": "inplace",
						"label": "uint256",
						"numberOfBytes": "32"
					}
				}
			},
			"userdoc": {
				"kind": "user",
				"methods": {},
				"version": 1
			}
		}
	}
}