{
	"source/Storage.sol": {
		"Storage": {
			"abi": [
				{
					"inputs": [],
					"name": "allKeys",
					"outputs": [
						{
							"internalType": "string[]",
							"name": "",
							"type": "string[]"
						}
					],
					"stateMutability": "view",
					"type": "function"
				},
				{
					"inputs": [],
					"name": "allKeysData",
					"outputs": [
						{
							"components": [
								{
									"internalType": "address",
									"name": "owner",
									"type": "address"
								},
								{
									"internalType": "string",
									"name": "info",
									"type": "string"
								}
							],
							"internalType": "struct IStorage.Data[]",
							"name": "",
							"type": "tuple[]"
						}
					],
					"stateMutability": "view",
					"type": "function"
				},
				{
					"inputs": [
						{
							"internalType": "string",
							"name": "_key",
							"type": "string"
						}
					],
					"name": "clearKeyData",
					"outputs": [],
					"stateMutability": "nonpayable",
					"type": "function"
				},
				{
					"inputs": [
						{
							"internalType": "string[]",
							"name": "_keys",
							"type": "string[]"
						}
					],
					"name": "clearKeysData",
					"outputs": [],
					"stateMutability": "nonpayable",
					"type": "function"
				},
				{
					"inputs": [
						{
							"internalType": "string",
							"name": "_key",
							"type": "string"
						}
					],
					"name": "getData",
					"outputs": [
						{
							"components": [
								{
									"internalType": "address",
									"name": "owner",
									"type": "address"
								},
								{
									"internalType": "string",
									"name": "info",
									"type": "string"
								}
							],
							"internalType": "struct IStorage.Data",
							"name": "",
							"type": "tuple"
						}
					],
					"stateMutability": "view",
					"type": "function"
				},
				{
					"inputs": [
						{
							"internalType": "string",
							"name": "_key",
							"type": "string"
						},
						{
							"components": [
								{
									"internalType": "address",
									"name": "owner",
									"type": "address"
								},
								{
									"internalType": "string",
									"name": "info",
									"type": "string"
								}
							],
							"internalType": "struct IStorage.Data",
							"name": "_data",
							"type": "tuple"
						}
					],
					"name": "setKeyData",
					"outputs": [],
					"stateMutability": "nonpayable",
					"type": "function"
				},
				{
					"inputs": [
						{
							"components": [
								{
									"internalType": "string",
									"name": "key",
									"type": "string"
								},
								{
									"components": [
										{
											"internalType": "address",
											"name": "owner",
											"type": "address"
										},
										{
											"internalType": "string",
											"name": "info",
											"type": "string"
										}
									],
									"internalType": "struct IStorage.Data",
									"name": "data",
									"type": "tuple"
								}
							],
							"internalType": "struct IStorage.KeyData[]",
							"name": "_keysData",
							"type": "tuple[]"
						}
					],
					"name": "setKeysData",
					"outputs": [],
					"stateMutability": "nonpayable",
					"type": "function"
				}
			],
			"devdoc": {
				"kind": "dev",
				"methods": {},
				"version": 1
			},
			"evm": {
				"assembly": "    /* \"source/Storage.sol\":698:3726  contract Storage is IStorage {... */\n  mstore(0x40, 0x80)\n  callvalue\n  dup1\n  iszero\n  tag_1\n  jumpi\n  0x00\n  dup1\n  revert\ntag_1:\n  pop\n  dataSize(sub_0)\n  dup1\n  dataOffset(sub_0)\n  0x00\n  codecopy\n  0x00\n  return\nstop\n\nsub_0: assembly {\n        /* \"source/Storage.sol\":698:3726  contract Storage is IStorage {... */\n      mstore(0x40, 0x80)\n      callvalue\n      dup1\n      iszero\n      tag_1\n      jumpi\n      0x00\n      dup1\n      revert\n    tag_1:\n      pop\n      jumpi(tag_2, lt(calldatasize, 0x04))\n      shr(0xe0, calldataload(0x00))\n      dup1\n      0xae55c888\n      gt\n      tag_10\n      jumpi\n      dup1\n      0xae55c888\n      eq\n      tag_6\n      jumpi\n      dup1\n      0xbe05133c\n      eq\n      tag_7\n      jumpi\n      dup1\n      0xcb965ae9\n      eq\n      tag_8\n      jumpi\n      dup1\n      0xf14805c3\n      eq\n      tag_9\n      jumpi\n      0x00\n      dup1\n      revert\n    tag_10:\n      dup1\n      0x11d881b1\n      eq\n      tag_3\n      jumpi\n      dup1\n      0x28ce8638\n      eq\n      tag_4\n      jumpi\n      dup1\n      0xac193f1a\n      eq\n      tag_5\n      jumpi\n    tag_2:\n      0x00\n      dup1\n      revert\n        /* \"source/Storage.sol\":1416:1692  function allKeysData() external override view returns(Data[] memory) {... */\n    tag_3:\n      tag_11\n      tag_12\n      jump\t// in\n    tag_11:\n      mload(0x40)\n      tag_13\n      swap2\n      swap1\n      tag_14\n      jump\t// in\n    tag_13:\n      mload(0x40)\n      dup1\n      swap2\n      sub\n      swap1\n      return\n        /* \"source/Storage.sol\":2086:2184  function clearKeyData(string memory _key) external override {... */\n    tag_4:\n      tag_15\n      tag_16\n      calldatasize\n      0x04\n      tag_17\n      jump\t// in\n    tag_16:\n      tag_18\n      jump\t// in\n    tag_15:\n      stop\n        /* \"source/Storage.sol\":2192:2406  function clearKeysData(string[] memory _keys) external override {... */\n    tag_5:\n      tag_15\n      tag_20\n      calldatasize\n      0x04\n      tag_21\n      jump\t// in\n    tag_20:\n      tag_22\n      jump\t// in\n        /* \"source/Storage.sol\":1182:1303  function getData(string memory _key) external override view returns(Data memory) {... */\n    tag_6:\n      tag_23\n      tag_24\n      calldatasize\n      0x04\n      tag_17\n      jump\t// in\n    tag_24:\n      tag_25\n      jump\t// in\n    tag_23:\n      mload(0x40)\n      tag_13\n      swap2\n      swap1\n      tag_27\n      jump\t// in\n        /* \"source/Storage.sol\":1828:2078  function setKeysData(KeyData[] memory _keysData) external override {... */\n    tag_7:\n      tag_15\n      tag_29\n      calldatasize\n      0x04\n      tag_30\n      jump\t// in\n    tag_29:\n      tag_31\n      jump\t// in\n        /* \"source/Storage.sol\":1311:1408  function allKeys() external override view returns(string[] memory) {... */\n    tag_8:\n      tag_32\n      tag_33\n      jump\t// in\n    tag_32:\n      mload(0x40)\n      tag_13\n      swap2\n      swap1\n      tag_35\n      jump\t// in\n        /* \"source/Storage.sol\":1700:1820  function setKeyData(string memory _key, Data memory _data) external override {... */\n    tag_9:\n      tag_15\n      tag_37\n      calldatasize\n      0x04\n      tag_38\n      jump\t// in\n    tag_37:\n      tag_39\n      jump\t// in\n        /* \"source/Storage.sol\":1416:1692  function allKeysData() external override view returns(Data[] memory) {... */\n    tag_12:\n        /* \"source/Storage.sol\":1536:1540  keys */\n      0x01\n        /* \"source/Storage.sol\":1536:1547  keys.length */\n      sload\n        /* \"source/Storage.sol\":1470:1483  Data[] memory */\n      0x60\n      swap1\n        /* \"source/Storage.sol\":1496:1522  Data[] memory _allKeysData */\n      0x00\n      swap1\n        /* \"source/Storage.sol\":1525:1548  new Data[](keys.length) */\n      0xffffffffffffffff\n      dup2\n      gt\n      iszero\n      tag_42\n      jumpi\n      tag_42\n      tag_43\n      jump\t// in\n    tag_42:\n      mload(0x40)\n      swap1\n      dup1\n      dup3\n      mstore\n      dup1\n      0x20\n      mul\n      0x20\n      add\n      dup3\n      add\n      0x40\n      mstore\n      dup1\n      iszero\n      tag_44\n      jumpi\n      dup2\n      0x20\n      add\n    tag_45:\n      0x40\n      dup1\n      mload\n      dup1\n      dup3\n      add\n      swap1\n      swap2\n      mstore\n      0x00\n      dup2\n      mstore\n      0x60\n      0x20\n      dup3\n      add\n      mstore\n      dup2\n      mstore\n      0x20\n      add\n      swap1\n      0x01\n      swap1\n      sub\n      swap1\n      dup2\n      tag_45\n      jumpi\n      swap1\n      pop\n    tag_44:\n      pop\n        /* \"source/Storage.sol\":1496:1548  Data[] memory _allKeysData = new Data[](keys.length) */\n      swap1\n      pop\n        /* \"source/Storage.sol\":1563:1569  uint x */\n      0x00\n        /* \"source/Storage.sol\":1559:1655  for(uint x; x < keys.length; x++) {... */\n    tag_48:\n        /* \"source/Storage.sol\":1575:1579  keys */\n      0x01\n        /* \"source/Storage.sol\":1575:1586  keys.length */\n      sload\n        /* \"source/Storage.sol\":1571:1586  x < keys.length */\n      dup2\n      lt\n        /* \"source/Storage.sol\":1559:1655  for(uint x; x < keys.length; x++) {... */\n      iszero\n      tag_49\n      jumpi\n        /* \"source/Storage.sol\":1626:1643  _keyData(keys[x]) */\n      tag_51\n        /* \"source/Storage.sol\":1635:1639  keys */\n      0x01\n        /* \"source/Storage.sol\":1640:1641  x */\n      dup3\n        /* \"source/Storage.sol\":1635:1642  keys[x] */\n      dup2\n      sload\n      dup2\n      lt\n      tag_53\n      jumpi\n      tag_53\n      tag_54\n      jump\t// in\n    tag_53:\n      swap1\n      0x00\n      mstore\n      keccak256(0x00, 0x20)\n      add\n        /* \"source/Storage.sol\":1626:1643  _keyData(keys[x]) */\n      dup1\n      sload\n      tag_56\n      swap1\n      tag_57\n      jump\t// in\n    tag_56:\n      dup1\n      0x1f\n      add\n      0x20\n      dup1\n      swap2\n      div\n      mul\n      0x20\n      add\n      mload(0x40)\n      swap1\n      dup2\n      add\n      0x40\n      mstore\n      dup1\n      swap3\n      swap2\n      swap1\n      dup2\n      dup2\n      mstore\n      0x20\n      add\n      dup3\n      dup1\n      sload\n      tag_58\n      swap1\n      tag_57\n      jump\t// in\n    tag_58:\n      dup1\n      iszero\n      tag_59\n      jumpi\n      dup1\n      0x1f\n      lt\n      tag_60\n      jumpi\n      0x0100\n      dup1\n      dup4\n      sload\n      div\n      mul\n      dup4\n      mstore\n      swap2\n      0x20\n      add\n      swap2\n      jump(tag_59)\n    tag_60:\n      dup3\n      add\n      swap2\n      swap1\n      0x00\n      mstore\n      keccak256(0x00, 0x20)\n      swap1\n    tag_61:\n      dup2\n      sload\n      dup2\n      mstore\n      swap1\n      0x01\n      add\n      swap1\n      0x20\n      add\n      dup1\n      dup4\n      gt\n      tag_61\n      jumpi\n      dup3\n      swap1\n      sub\n      0x1f\n      and\n      dup3\n      add\n      swap2\n    tag_59:\n      pop\n      pop\n      pop\n      pop\n      pop\n        /* \"source/Storage.sol\":1626:1634  _keyData */\n      tag_62\n        /* \"source/Storage.sol\":1626:1643  _keyData(keys[x]) */\n      jump\t// in\n    tag_51:\n        /* \"source/Storage.sol\":1608:1620  _allKeysData */\n      dup3\n        /* \"source/Storage.sol\":1621:1622  x */\n      dup3\n        /* \"source/Storage.sol\":1608:1623  _allKeysData[x] */\n      dup2\n      mload\n      dup2\n      lt\n      tag_64\n      jumpi\n      tag_64\n      tag_54\n      jump\t// in\n    tag_64:\n      0x20\n      mul\n      0x20\n      add\n      add\n        /* \"source/Storage.sol\":1608:1643  _allKeysData[x] = _keyData(keys[x]) */\n      dup2\n      swap1\n      mstore\n      pop\n        /* \"source/Storage.sol\":1588:1591  x++ */\n      dup1\n      dup1\n      tag_65\n      swap1\n      tag_66\n      jump\t// in\n    tag_65:\n      swap2\n      pop\n      pop\n        /* \"source/Storage.sol\":1559:1655  for(uint x; x < keys.length; x++) {... */\n      jump(tag_48)\n    tag_49:\n      pop\n        /* \"source/Storage.sol\":1672:1684  _allKeysData */\n      swap2\n        /* \"source/Storage.sol\":1416:1692  function allKeysData() external override view returns(Data[] memory) {... */\n      swap1\n      pop\n      jump\t// out\n        /* \"source/Storage.sol\":2086:2184  function clearKeyData(string memory _key) external override {... */\n    tag_18:\n        /* \"source/Storage.sol\":2157:2176  _clearKeyData(_key) */\n      tag_68\n        /* \"source/Storage.sol\":2171:2175  _key */\n      dup2\n        /* \"source/Storage.sol\":2157:2170  _clearKeyData */\n      tag_69\n        /* \"source/Storage.sol\":2157:2176  _clearKeyData(_key) */\n      jump\t// in\n    tag_68:\n        /* \"source/Storage.sol\":2086:2184  function clearKeyData(string memory _key) external override {... */\n      pop\n      jump\t// out\n        /* \"source/Storage.sol\":2192:2406  function clearKeysData(string[] memory _keys) external override {... */\n    tag_22:\n        /* \"source/Storage.sol\":2290:2291  0 */\n      0x00\n        /* \"source/Storage.sol\":2275:2280  _keys */\n      dup2\n        /* \"source/Storage.sol\":2275:2287  _keys.length */\n      mload\n        /* \"source/Storage.sol\":2275:2291  _keys.length > 0 */\n      gt\n        /* \"source/Storage.sol\":2267:2303  require(_keys.length > 0, 'NO_KEYS') */\n      tag_71\n      jumpi\n      mload(0x40)\n      0x08c379a000000000000000000000000000000000000000000000000000000000\n      dup2\n      mstore\n        /* \"#utility.yul\":10224:10226   */\n      0x20\n        /* \"source/Storage.sol\":2267:2303  require(_keys.length > 0, 'NO_KEYS') */\n      0x04\n      dup3\n      add\n        /* \"#utility.yul\":10206:10227   */\n      mstore\n        /* \"#utility.yul\":10263:10264   */\n      0x07\n        /* \"#utility.yul\":10243:10261   */\n      0x24\n      dup3\n      add\n        /* \"#utility.yul\":10236:10265   */\n      mstore\n        /* \"#utility.yul\":10301:10310   */\n      0x4e4f5f4b45595300000000000000000000000000000000000000000000000000\n        /* \"#utility.yul\":10281:10299   */\n      0x44\n      dup3\n      add\n        /* \"#utility.yul\":10274:10311   */\n      mstore\n        /* \"#utility.yul\":10328:10346   */\n      0x64\n      add\n        /* \"source/Storage.sol\":2267:2303  require(_keys.length > 0, 'NO_KEYS') */\n    tag_72:\n      mload(0x40)\n      dup1\n      swap2\n      sub\n      swap1\n      revert\n    tag_71:\n        /* \"source/Storage.sol\":2318:2324  uint x */\n      0x00\n        /* \"source/Storage.sol\":2314:2399  for(uint x; x < _keys.length; x++) {... */\n    tag_74:\n        /* \"source/Storage.sol\":2330:2335  _keys */\n      dup2\n        /* \"source/Storage.sol\":2330:2342  _keys.length */\n      mload\n        /* \"source/Storage.sol\":2326:2327  x */\n      dup2\n        /* \"source/Storage.sol\":2326:2342  x < _keys.length */\n      lt\n        /* \"source/Storage.sol\":2314:2399  for(uint x; x < _keys.length; x++) {... */\n      iszero\n      tag_75\n      jumpi\n        /* \"source/Storage.sol\":2364:2387  _clearKeyData(_keys[x]) */\n      tag_77\n        /* \"source/Storage.sol\":2378:2383  _keys */\n      dup3\n        /* \"source/Storage.sol\":2384:2385  x */\n      dup3\n        /* \"source/Storage.sol\":2378:2386  _keys[x] */\n      dup2\n      mload\n      dup2\n      lt\n      tag_79\n      jumpi\n      tag_79\n      tag_54\n      jump\t// in\n    tag_79:\n      0x20\n      mul\n      0x20\n      add\n      add\n      mload\n        /* \"source/Storage.sol\":2364:2377  _clearKeyData */\n      tag_69\n        /* \"source/Storage.sol\":2364:2387  _clearKeyData(_keys[x]) */\n      jump\t// in\n    tag_77:\n        /* \"source/Storage.sol\":2344:2347  x++ */\n      dup1\n      tag_80\n      dup2\n      tag_66\n      jump\t// in\n    tag_80:\n      swap2\n      pop\n      pop\n        /* \"source/Storage.sol\":2314:2399  for(uint x; x < _keys.length; x++) {... */\n      jump(tag_74)\n    tag_75:\n      pop\n        /* \"source/Storage.sol\":2192:2406  function clearKeysData(string[] memory _keys) external override {... */\n      pop\n      jump\t// out\n        /* \"source/Storage.sol\":1182:1303  function getData(string memory _key) external override view returns(Data memory) {... */\n    tag_25:\n      0x40\n      dup1\n      mload\n      dup1\n      dup3\n      add\n      swap1\n      swap2\n      mstore\n      0x00\n      dup2\n      mstore\n      0x60\n      0x20\n      dup3\n      add\n      mstore\n        /* \"source/Storage.sol\":1281:1295  _keyData(_key) */\n      tag_83\n        /* \"source/Storage.sol\":1290:1294  _key */\n      dup3\n        /* \"source/Storage.sol\":1281:1289  _keyData */\n      tag_62\n        /* \"source/Storage.sol\":1281:1295  _keyData(_key) */\n      jump\t// in\n    tag_83:\n        /* \"source/Storage.sol\":1274:1295  return _keyData(_key) */\n      swap3\n        /* \"source/Storage.sol\":1182:1303  function getData(string memory _key) external override view returns(Data memory) {... */\n      swap2\n      pop\n      pop\n      jump\t// out\n        /* \"source/Storage.sol\":1828:2078  function setKeysData(KeyData[] memory _keysData) external override {... */\n    tag_31:\n        /* \"source/Storage.sol\":1933:1934  0 */\n      0x00\n        /* \"source/Storage.sol\":1914:1923  _keysData */\n      dup2\n        /* \"source/Storage.sol\":1914:1930  _keysData.length */\n      mload\n        /* \"source/Storage.sol\":1914:1934  _keysData.length > 0 */\n      gt\n        /* \"source/Storage.sol\":1906:1946  require(_keysData.length > 0, 'NO_DATA') */\n      tag_85\n      jumpi\n      mload(0x40)\n      0x08c379a000000000000000000000000000000000000000000000000000000000\n      dup2\n      mstore\n        /* \"#utility.yul\":10559:10561   */\n      0x20\n        /* \"source/Storage.sol\":1906:1946  require(_keysData.length > 0, 'NO_DATA') */\n      0x04\n      dup3\n      add\n        /* \"#utility.yul\":10541:10562   */\n      mstore\n        /* \"#utility.yul\":10598:10599   */\n      0x07\n        /* \"#utility.yul\":10578:10596   */\n      0x24\n      dup3\n      add\n        /* \"#utility.yul\":10571:10600   */\n      mstore\n        /* \"#utility.yul\":10636:10645   */\n      0x4e4f5f4441544100000000000000000000000000000000000000000000000000\n        /* \"#utility.yul\":10616:10634   */\n      0x44\n      dup3\n      add\n        /* \"#utility.yul\":10609:10646   */\n      mstore\n        /* \"#utility.yul\":10663:10681   */\n      0x64\n      add\n        /* \"source/Storage.sol\":1906:1946  require(_keysData.length > 0, 'NO_DATA') */\n      tag_72\n        /* \"#utility.yul\":10357:10687   */\n      jump\n        /* \"source/Storage.sol\":1906:1946  require(_keysData.length > 0, 'NO_DATA') */\n    tag_85:\n        /* \"source/Storage.sol\":1961:1967  uint x */\n      0x00\n        /* \"source/Storage.sol\":1957:2071  for(uint x; x < _keysData.length; x++) {... */\n    tag_88:\n        /* \"source/Storage.sol\":1973:1982  _keysData */\n      dup2\n        /* \"source/Storage.sol\":1973:1989  _keysData.length */\n      mload\n        /* \"source/Storage.sol\":1969:1970  x */\n      dup2\n        /* \"source/Storage.sol\":1969:1989  x < _keysData.length */\n      lt\n        /* \"source/Storage.sol\":1957:2071  for(uint x; x < _keysData.length; x++) {... */\n      iszero\n      tag_75\n      jumpi\n        /* \"source/Storage.sol\":2011:2059  _setKeyData(_keysData[x].key, _keysData[x].data) */\n      tag_91\n        /* \"source/Storage.sol\":2023:2032  _keysData */\n      dup3\n        /* \"source/Storage.sol\":2033:2034  x */\n      dup3\n        /* \"source/Storage.sol\":2023:2035  _keysData[x] */\n      dup2\n      mload\n      dup2\n      lt\n      tag_93\n      jumpi\n      tag_93\n      tag_54\n      jump\t// in\n    tag_93:\n      0x20\n      mul\n      0x20\n      add\n      add\n      mload\n        /* \"source/Storage.sol\":2023:2039  _keysData[x].key */\n      0x00\n      add\n      mload\n        /* \"source/Storage.sol\":2041:2050  _keysData */\n      dup4\n        /* \"source/Storage.sol\":2051:2052  x */\n      dup4\n        /* \"source/Storage.sol\":2041:2053  _keysData[x] */\n      dup2\n      mload\n      dup2\n      lt\n      tag_95\n      jumpi\n      tag_95\n      tag_54\n      jump\t// in\n    tag_95:\n      0x20\n      mul\n      0x20\n      add\n      add\n      mload\n        /* \"source/Storage.sol\":2041:2058  _keysData[x].data */\n      0x20\n      add\n      mload\n        /* \"source/Storage.sol\":2011:2022  _setKeyData */\n      tag_96\n        /* \"source/Storage.sol\":2011:2059  _setKeyData(_keysData[x].key, _keysData[x].data) */\n      jump\t// in\n    tag_91:\n        /* \"source/Storage.sol\":1991:1994  x++ */\n      dup1\n      tag_97\n      dup2\n      tag_66\n      jump\t// in\n    tag_97:\n      swap2\n      pop\n      pop\n        /* \"source/Storage.sol\":1957:2071  for(uint x; x < _keysData.length; x++) {... */\n      jump(tag_88)\n        /* \"source/Storage.sol\":1311:1408  function allKeys() external override view returns(string[] memory) {... */\n    tag_33:\n        /* \"source/Storage.sol\":1361:1376  string[] memory */\n      0x60\n        /* \"source/Storage.sol\":1396:1400  keys */\n      0x01\n        /* \"source/Storage.sol\":1389:1400  return keys */\n      dup1\n      sload\n      dup1\n      0x20\n      mul\n      0x20\n      add\n      mload(0x40)\n      swap1\n      dup2\n      add\n      0x40\n      mstore\n      dup1\n      swap3\n      swap2\n      swap1\n      dup2\n      dup2\n      mstore\n      0x20\n      add\n      0x00\n      swap1\n    tag_99:\n      dup3\n      dup3\n      lt\n      iszero\n      tag_100\n      jumpi\n      dup4\n      dup3\n      swap1\n      0x00\n      mstore\n      keccak256(0x00, 0x20)\n      add\n      dup1\n      sload\n      tag_102\n      swap1\n      tag_57\n      jump\t// in\n    tag_102:\n      dup1\n      0x1f\n      add\n      0x20\n      dup1\n      swap2\n      div\n      mul\n      0x20\n      add\n      mload(0x40)\n      swap1\n      dup2\n      add\n      0x40\n      mstore\n      dup1\n      swap3\n      swap2\n      swap1\n      dup2\n      dup2\n      mstore\n      0x20\n      add\n      dup3\n      dup1\n      sload\n      tag_103\n      swap1\n      tag_57\n      jump\t// in\n    tag_103:\n      dup1\n      iszero\n      tag_104\n      jumpi\n      dup1\n      0x1f\n      lt\n      tag_105\n      jumpi\n      0x0100\n      dup1\n      dup4\n      sload\n      div\n      mul\n      dup4\n      mstore\n      swap2\n      0x20\n      add\n      swap2\n      jump(tag_104)\n    tag_105:\n      dup3\n      add\n      swap2\n      swap1\n      0x00\n      mstore\n      keccak256(0x00, 0x20)\n      swap1\n    tag_106:\n      dup2\n      sload\n      dup2\n      mstore\n      swap1\n      0x01\n      add\n      swap1\n      0x20\n      add\n      dup1\n      dup4\n      gt\n      tag_106\n      jumpi\n      dup3\n      swap1\n      sub\n      0x1f\n      and\n      dup3\n      add\n      swap2\n    tag_104:\n      pop\n      pop\n      pop\n      pop\n      pop\n      dup2\n      mstore\n      0x20\n      add\n      swap1\n      0x01\n      add\n      swap1\n      jump(tag_99)\n    tag_100:\n      pop\n      pop\n      pop\n      pop\n      swap1\n      pop\n        /* \"source/Storage.sol\":1311:1408  function allKeys() external override view returns(string[] memory) {... */\n      swap1\n      jump\t// out\n        /* \"source/Storage.sol\":1700:1820  function setKeyData(string memory _key, Data memory _data) external override {... */\n    tag_39:\n        /* \"source/Storage.sol\":1788:1812  _setKeyData(_key, _data) */\n      tag_75\n        /* \"source/Storage.sol\":1800:1804  _key */\n      dup3\n        /* \"source/Storage.sol\":1806:1811  _data */\n      dup3\n        /* \"source/Storage.sol\":1788:1799  _setKeyData */\n      tag_96\n        /* \"source/Storage.sol\":1788:1812  _setKeyData(_key, _data) */\n      jump\t// in\n        /* \"source/Storage.sol\":2414:2631  function _keyData(string memory _key) private view notEmpty(_key) returns(Data memory _data) {... */\n    tag_62:\n      0x40\n      dup1\n      mload\n      dup1\n      dup3\n      add\n      swap1\n      swap2\n      mstore\n      0x00\n      dup2\n      mstore\n      0x60\n      0x20\n      dup3\n      add\n      mstore\n        /* \"source/Storage.sol\":1120:1136  byteValue.length */\n      dup2\n      mload\n        /* \"source/Storage.sol\":2474:2478  _key */\n      dup3\n      swap1\n      dup2\n      swap1\n        /* \"source/Storage.sol\":1063:1085  bytes memory byteValue */\n      0x00\n        /* \"source/Storage.sol\":1120:1141  byteValue.length != 0 */\n      sub\n        /* \"source/Storage.sol\":1112:1154  require(byteValue.length != 0, 'NO_VALUE') */\n      tag_111\n      jumpi\n      mload(0x40)\n      0x08c379a000000000000000000000000000000000000000000000000000000000\n      dup2\n      mstore\n        /* \"#utility.yul\":10894:10896   */\n      0x20\n        /* \"source/Storage.sol\":1112:1154  require(byteValue.length != 0, 'NO_VALUE') */\n      0x04\n      dup3\n      add\n        /* \"#utility.yul\":10876:10897   */\n      mstore\n        /* \"#utility.yul\":10933:10934   */\n      0x08\n        /* \"#utility.yul\":10913:10931   */\n      0x24\n      dup3\n      add\n        /* \"#utility.yul\":10906:10935   */\n      mstore\n        /* \"#utility.yul\":10971:10981   */\n      0x4e4f5f56414c5545000000000000000000000000000000000000000000000000\n        /* \"#utility.yul\":10951:10969   */\n      0x44\n      dup3\n      add\n        /* \"#utility.yul\":10944:10982   */\n      mstore\n        /* \"#utility.yul\":10999:11017   */\n      0x64\n      add\n        /* \"source/Storage.sol\":1112:1154  require(byteValue.length != 0, 'NO_VALUE') */\n      tag_72\n        /* \"#utility.yul\":10692:11023   */\n      jump\n        /* \"source/Storage.sol\":1112:1154  require(byteValue.length != 0, 'NO_VALUE') */\n    tag_111:\n        /* \"source/Storage.sol\":2526:2623  Data({... */\n      mload(0x40)\n      dup1\n      0x40\n      add\n      0x40\n      mstore\n      dup1\n        /* \"source/Storage.sol\":2553:2560  allData */\n      0x00\n        /* \"source/Storage.sol\":2561:2565  _key */\n      dup7\n        /* \"source/Storage.sol\":2553:2566  allData[_key] */\n      mload(0x40)\n      tag_115\n      swap2\n      swap1\n      tag_116\n      jump\t// in\n    tag_115:\n      swap1\n      dup2\n      mstore\n      0x40\n      dup1\n      mload\n      0x20\n      swap3\n      dup2\n      swap1\n      sub\n      dup4\n      add\n      swap1\n      keccak256\n        /* \"source/Storage.sol\":2553:2572  allData[_key].owner */\n      sload\n      0xffffffffffffffffffffffffffffffffffffffff\n      and\n        /* \"source/Storage.sol\":2526:2623  Data({... */\n      dup4\n      mstore\n        /* \"source/Storage.sol\":2593:2606  allData[_key] */\n      mload\n        /* \"source/Storage.sol\":2526:2623  Data({... */\n      swap2\n      add\n      swap1\n        /* \"source/Storage.sol\":2553:2572  allData[_key].owner */\n      0x00\n      swap1\n        /* \"source/Storage.sol\":2593:2606  allData[_key] */\n      tag_117\n      swap1\n        /* \"source/Storage.sol\":2601:2605  _key */\n      dup9\n      swap1\n        /* \"source/Storage.sol\":2593:2606  allData[_key] */\n      tag_116\n      jump\t// in\n    tag_117:\n      swap1\n      dup2\n      mstore\n      0x20\n      add\n      mload(0x40)\n      dup1\n      swap2\n      sub\n      swap1\n      keccak256\n        /* \"source/Storage.sol\":2593:2611  allData[_key].info */\n      0x01\n      add\n        /* \"source/Storage.sol\":2526:2623  Data({... */\n      dup1\n      sload\n      tag_118\n      swap1\n      tag_57\n      jump\t// in\n    tag_118:\n      dup1\n      0x1f\n      add\n      0x20\n      dup1\n      swap2\n      div\n      mul\n      0x20\n      add\n      mload(0x40)\n      swap1\n      dup2\n      add\n      0x40\n      mstore\n      dup1\n      swap3\n      swap2\n      swap1\n      dup2\n      dup2\n      mstore\n      0x20\n      add\n      dup3\n      dup1\n      sload\n      tag_119\n      swap1\n      tag_57\n      jump\t// in\n    tag_119:\n      dup1\n      iszero\n      tag_120\n      jumpi\n      dup1\n      0x1f\n      lt\n      tag_121\n      jumpi\n      0x0100\n      dup1\n      dup4\n      sload\n      div\n      mul\n      dup4\n      mstore\n      swap2\n      0x20\n      add\n      swap2\n      jump(tag_120)\n    tag_121:\n      dup3\n      add\n      swap2\n      swap1\n      0x00\n      mstore\n      keccak256(0x00, 0x20)\n      swap1\n    tag_122:\n      dup2\n      sload\n      dup2\n      mstore\n      swap1\n      0x01\n      add\n      swap1\n      0x20\n      add\n      dup1\n      dup4\n      gt\n      tag_122\n      jumpi\n      dup3\n      swap1\n      sub\n      0x1f\n      and\n      dup3\n      add\n      swap2\n    tag_120:\n      pop\n      pop\n      pop\n      pop\n      pop\n      dup2\n      mstore\n      pop\n        /* \"source/Storage.sol\":2518:2623  _data = Data({... */\n      swap3\n      pop\n        /* \"source/Storage.sol\":1052:1174  {... */\n      pop\n        /* \"source/Storage.sol\":2414:2631  function _keyData(string memory _key) private view notEmpty(_key) returns(Data memory _data) {... */\n      pop\n      swap2\n      swap1\n      pop\n      jump\t// out\n        /* \"source/Storage.sol\":3003:3723  function _clearKeyData(string memory _key) private notEmpty(_key) onlyDataOwner(_key) {... */\n    tag_69:\n        /* \"source/Storage.sol\":1120:1136  byteValue.length */\n      dup1\n      mload\n        /* \"source/Storage.sol\":3063:3067  _key */\n      dup2\n      swap1\n      dup2\n      swap1\n        /* \"source/Storage.sol\":1063:1085  bytes memory byteValue */\n      0x00\n        /* \"source/Storage.sol\":1120:1141  byteValue.length != 0 */\n      sub\n        /* \"source/Storage.sol\":1112:1154  require(byteValue.length != 0, 'NO_VALUE') */\n      tag_124\n      jumpi\n      mload(0x40)\n      0x08c379a000000000000000000000000000000000000000000000000000000000\n      dup2\n      mstore\n        /* \"#utility.yul\":10894:10896   */\n      0x20\n        /* \"source/Storage.sol\":1112:1154  require(byteValue.length != 0, 'NO_VALUE') */\n      0x04\n      dup3\n      add\n        /* \"#utility.yul\":10876:10897   */\n      mstore\n        /* \"#utility.yul\":10933:10934   */\n      0x08\n        /* \"#utility.yul\":10913:10931   */\n      0x24\n      dup3\n      add\n        /* \"#utility.yul\":10906:10935   */\n      mstore\n        /* \"#utility.yul\":10971:10981   */\n      0x4e4f5f56414c5545000000000000000000000000000000000000000000000000\n        /* \"#utility.yul\":10951:10969   */\n      0x44\n      dup3\n      add\n        /* \"#utility.yul\":10944:10982   */\n      mstore\n        /* \"#utility.yul\":10999:11017   */\n      0x64\n      add\n        /* \"source/Storage.sol\":1112:1154  require(byteValue.length != 0, 'NO_VALUE') */\n      tag_72\n        /* \"#utility.yul\":10692:11023   */\n      jump\n        /* \"source/Storage.sol\":1112:1154  require(byteValue.length != 0, 'NO_VALUE') */\n    tag_124:\n        /* \"source/Storage.sol\":3083:3087  _key */\n      dup3\n        /* \"source/Storage.sol\":903:904  0 */\n      0x00\n        /* \"source/Storage.sol\":872:905  allData[_key].owner != address(0) */\n      0xffffffffffffffffffffffffffffffffffffffff\n      and\n        /* \"source/Storage.sol\":872:879  allData */\n      0x00\n        /* \"source/Storage.sol\":880:884  _key */\n      dup3\n        /* \"source/Storage.sol\":872:885  allData[_key] */\n      mload(0x40)\n      tag_127\n      swap2\n      swap1\n      tag_116\n      jump\t// in\n    tag_127:\n      swap1\n      dup2\n      mstore\n      mload(0x40)\n      swap1\n      dup2\n      swap1\n      sub\n      0x20\n      add\n      swap1\n      keccak256\n        /* \"source/Storage.sol\":872:891  allData[_key].owner */\n      sload\n      0xffffffffffffffffffffffffffffffffffffffff\n      and\n        /* \"source/Storage.sol\":872:905  allData[_key].owner != address(0) */\n      sub\n        /* \"source/Storage.sol\":864:918  require(allData[_key].owner != address(0), 'NO_OWNER') */\n      tag_128\n      jumpi\n      mload(0x40)\n      0x08c379a000000000000000000000000000000000000000000000000000000000\n      dup2\n      mstore\n        /* \"#utility.yul\":11524:11526   */\n      0x20\n        /* \"source/Storage.sol\":864:918  require(allData[_key].owner != address(0), 'NO_OWNER') */\n      0x04\n      dup3\n      add\n        /* \"#utility.yul\":11506:11527   */\n      mstore\n        /* \"#utility.yul\":11563:11564   */\n      0x08\n        /* \"#utility.yul\":11543:11561   */\n      0x24\n      dup3\n      add\n        /* \"#utility.yul\":11536:11565   */\n      mstore\n        /* \"#utility.yul\":11601:11611   */\n      0x4e4f5f4f574e4552000000000000000000000000000000000000000000000000\n        /* \"#utility.yul\":11581:11599   */\n      0x44\n      dup3\n      add\n        /* \"#utility.yul\":11574:11612   */\n      mstore\n        /* \"#utility.yul\":11629:11647   */\n      0x64\n      add\n        /* \"source/Storage.sol\":864:918  require(allData[_key].owner != address(0), 'NO_OWNER') */\n      tag_72\n        /* \"#utility.yul\":11322:11653   */\n      jump\n        /* \"source/Storage.sol\":864:918  require(allData[_key].owner != address(0), 'NO_OWNER') */\n    tag_128:\n        /* \"source/Storage.sol\":951:958  allData */\n      0x00\n        /* \"source/Storage.sol\":959:963  _key */\n      dup2\n        /* \"source/Storage.sol\":951:964  allData[_key] */\n      mload(0x40)\n      tag_131\n      swap2\n      swap1\n      tag_116\n      jump\t// in\n    tag_131:\n      swap1\n      dup2\n      mstore\n      mload(0x40)\n      swap1\n      dup2\n      swap1\n      sub\n      0x20\n      add\n      swap1\n      keccak256\n        /* \"source/Storage.sol\":951:970  allData[_key].owner */\n      sload\n        /* \"source/Storage.sol\":937:947  msg.sender */\n      caller\n        /* \"source/Storage.sol\":951:970  allData[_key].owner */\n      0xffffffffffffffffffffffffffffffffffffffff\n      swap1\n      swap2\n      and\n        /* \"source/Storage.sol\":937:970  msg.sender == allData[_key].owner */\n      eq\n        /* \"source/Storage.sol\":929:984  require(msg.sender == allData[_key].owner, 'FORBIDDEN') */\n      tag_132\n      jumpi\n      mload(0x40)\n      0x08c379a000000000000000000000000000000000000000000000000000000000\n      dup2\n      mstore\n        /* \"#utility.yul\":11860:11862   */\n      0x20\n        /* \"source/Storage.sol\":929:984  require(msg.sender == allData[_key].owner, 'FORBIDDEN') */\n      0x04\n      dup3\n      add\n        /* \"#utility.yul\":11842:11863   */\n      mstore\n        /* \"#utility.yul\":11899:11900   */\n      0x09\n        /* \"#utility.yul\":11879:11897   */\n      0x24\n      dup3\n      add\n        /* \"#utility.yul\":11872:11901   */\n      mstore\n        /* \"#utility.yul\":11937:11948   */\n      0x464f5242494444454e0000000000000000000000000000000000000000000000\n        /* \"#utility.yul\":11917:11935   */\n      0x44\n      dup3\n      add\n        /* \"#utility.yul\":11910:11949   */\n      mstore\n        /* \"#utility.yul\":11966:11984   */\n      0x64\n      add\n        /* \"source/Storage.sol\":929:984  require(msg.sender == allData[_key].owner, 'FORBIDDEN') */\n      tag_72\n        /* \"#utility.yul\":11658:11990   */\n      jump\n        /* \"source/Storage.sol\":929:984  require(msg.sender == allData[_key].owner, 'FORBIDDEN') */\n    tag_132:\n        /* \"source/Storage.sol\":3107:3114  allData */\n      0x00\n        /* \"source/Storage.sol\":3115:3119  _key */\n      dup5\n        /* \"source/Storage.sol\":3107:3120  allData[_key] */\n      mload(0x40)\n      tag_136\n      swap2\n      swap1\n      tag_116\n      jump\t// in\n    tag_136:\n      swap1\n      dup2\n      mstore\n      mload(0x40)\n      swap1\n      dup2\n      swap1\n      sub\n      0x20\n      add\n      swap1\n      keccak256\n        /* \"source/Storage.sol\":3100:3120  delete allData[_key] */\n      dup1\n      sload\n      0xffffffffffffffffffffffff0000000000000000000000000000000000000000\n      and\n      dup2\n      sstore\n        /* \"source/Storage.sol\":3107:3120  allData[_key] */\n      0x00\n        /* \"source/Storage.sol\":3100:3120  delete allData[_key] */\n      tag_137\n      0x01\n      dup4\n      add\n        /* \"source/Storage.sol\":3107:3120  allData[_key] */\n      dup3\n        /* \"source/Storage.sol\":3100:3120  delete allData[_key] */\n      tag_138\n      jump\t// in\n    tag_137:\n      pop\n      pop\n        /* \"source/Storage.sol\":3135:3139  keys */\n      0x01\n        /* \"source/Storage.sol\":3135:3146  keys.length */\n      sload\n        /* \"source/Storage.sol\":3131:3160  if (keys.length == 0) return; */\n      iszero\n        /* \"source/Storage.sol\":3153:3160  return; */\n      tag_153\n        /* \"source/Storage.sol\":3131:3160  if (keys.length == 0) return; */\n      jumpi\n        /* \"source/Storage.sol\":3174:3178  keys */\n      0x01\n        /* \"source/Storage.sol\":3174:3185  keys.length */\n      dup1\n      sload\n        /* \"source/Storage.sol\":3174:3190  keys.length == 1 */\n      swap1\n      sub\n        /* \"source/Storage.sol\":3170:3716  if (keys.length == 1) {... */\n      tag_140\n      jumpi\n        /* \"source/Storage.sol\":3278:3282  _key */\n      dup4\n        /* \"source/Storage.sol\":3261:3283  abi.encodePacked(_key) */\n      add(0x20, mload(0x40))\n      tag_141\n      swap2\n      swap1\n      tag_116\n      jump\t// in\n    tag_141:\n      mload(0x40)\n      0x20\n      dup2\n      dup4\n      sub\n      sub\n      dup2\n      mstore\n      swap1\n      0x40\n      mstore\n        /* \"source/Storage.sol\":3251:3284  keccak256(abi.encodePacked(_key)) */\n      dup1\n      mload\n      swap1\n      0x20\n      add\n      keccak256\n        /* \"source/Storage.sol\":3238:3242  keys */\n      0x01\n        /* \"source/Storage.sol\":3243:3244  0 */\n      0x00\n        /* \"source/Storage.sol\":3238:3245  keys[0] */\n      dup2\n      sload\n      dup2\n      lt\n      tag_143\n      jumpi\n      tag_143\n      tag_54\n      jump\t// in\n    tag_143:\n      swap1\n      0x00\n      mstore\n      keccak256(0x00, 0x20)\n      add\n        /* \"source/Storage.sol\":3221:3246  abi.encodePacked(keys[0]) */\n      add(0x20, mload(0x40))\n      tag_145\n      swap2\n      swap1\n      tag_146\n      jump\t// in\n    tag_145:\n      mload(0x40)\n      0x20\n      dup2\n      dup4\n      sub\n      sub\n      dup2\n      mstore\n      swap1\n      0x40\n      mstore\n        /* \"source/Storage.sol\":3211:3247  keccak256(abi.encodePacked(keys[0])) */\n      dup1\n      mload\n      swap1\n      0x20\n      add\n      keccak256\n        /* \"source/Storage.sol\":3211:3284  keccak256(abi.encodePacked(keys[0])) == keccak256(abi.encodePacked(_key)) */\n      sub\n        /* \"source/Storage.sol\":3207:3331  if (keccak256(abi.encodePacked(keys[0])) == keccak256(abi.encodePacked(_key))) {... */\n      tag_147\n      jumpi\n        /* \"source/Storage.sol\":3305:3309  keys */\n      0x01\n        /* \"source/Storage.sol\":3305:3315  keys.pop() */\n      dup1\n      sload\n      dup1\n      tag_149\n      jumpi\n      tag_149\n      tag_150\n      jump\t// in\n    tag_149:\n      0x01\n      swap1\n      sub\n      dup2\n      dup2\n      swap1\n      0x00\n      mstore\n      keccak256(0x00, 0x20)\n      add\n      0x00\n      tag_152\n      swap2\n      swap1\n      tag_138\n      jump\t// in\n    tag_152:\n      swap1\n      sstore\n        /* \"source/Storage.sol\":3207:3331  if (keccak256(abi.encodePacked(keys[0])) == keccak256(abi.encodePacked(_key))) {... */\n    tag_147:\n        /* \"source/Storage.sol\":3170:3716  if (keys.length == 1) {... */\n      jump(tag_153)\n    tag_140:\n        /* \"source/Storage.sol\":3363:3379  bool arrayOffset */\n      0x00\n        /* \"source/Storage.sol\":3398:3404  uint x */\n      dup1\n        /* \"source/Storage.sol\":3394:3663  for(uint x; x < keys.length - 1; x++) {... */\n    tag_154:\n        /* \"source/Storage.sol\":3424:3425  1 */\n      0x01\n        /* \"source/Storage.sol\":3410:3421  keys.length */\n      dup1\n      sload\n        /* \"source/Storage.sol\":3410:3425  keys.length - 1 */\n      tag_157\n      swap2\n        /* \"source/Storage.sol\":3424:3425  1 */\n      swap1\n        /* \"source/Storage.sol\":3410:3425  keys.length - 1 */\n      tag_158\n      jump\t// in\n    tag_157:\n        /* \"source/Storage.sol\":3406:3407  x */\n      dup2\n        /* \"source/Storage.sol\":3406:3425  x < keys.length - 1 */\n      lt\n        /* \"source/Storage.sol\":3394:3663  for(uint x; x < keys.length - 1; x++) {... */\n      iszero\n      tag_155\n      jumpi\n        /* \"source/Storage.sol\":3522:3526  _key */\n      dup6\n        /* \"source/Storage.sol\":3505:3527  abi.encodePacked(_key) */\n      add(0x20, mload(0x40))\n      tag_159\n      swap2\n      swap1\n      tag_116\n      jump\t// in\n    tag_159:\n      mload(0x40)\n      0x20\n      dup2\n      dup4\n      sub\n      sub\n      dup2\n      mstore\n      swap1\n      0x40\n      mstore\n        /* \"source/Storage.sol\":3495:3528  keccak256(abi.encodePacked(_key)) */\n      dup1\n      mload\n      swap1\n      0x20\n      add\n      keccak256\n        /* \"source/Storage.sol\":3482:3486  keys */\n      0x01\n        /* \"source/Storage.sol\":3487:3488  x */\n      dup3\n        /* \"source/Storage.sol\":3482:3489  keys[x] */\n      dup2\n      sload\n      dup2\n      lt\n      tag_161\n      jumpi\n      tag_161\n      tag_54\n      jump\t// in\n    tag_161:\n      swap1\n      0x00\n      mstore\n      keccak256(0x00, 0x20)\n      add\n        /* \"source/Storage.sol\":3465:3490  abi.encodePacked(keys[x]) */\n      add(0x20, mload(0x40))\n      tag_163\n      swap2\n      swap1\n      tag_146\n      jump\t// in\n    tag_163:\n      mload(0x40)\n      0x20\n      dup2\n      dup4\n      sub\n      sub\n      dup2\n      mstore\n      swap1\n      0x40\n      mstore\n        /* \"source/Storage.sol\":3455:3491  keccak256(abi.encodePacked(keys[x])) */\n      dup1\n      mload\n      swap1\n      0x20\n      add\n      keccak256\n        /* \"source/Storage.sol\":3455:3528  keccak256(abi.encodePacked(keys[x])) == keccak256(abi.encodePacked(_key)) */\n      sub\n        /* \"source/Storage.sol\":3451:3591  if (keccak256(abi.encodePacked(keys[x])) == keccak256(abi.encodePacked(_key))) {... */\n      tag_164\n      jumpi\n        /* \"source/Storage.sol\":3567:3571  true */\n      0x01\n        /* \"source/Storage.sol\":3553:3571  arrayOffset = true */\n      swap2\n      pop\n        /* \"source/Storage.sol\":3451:3591  if (keccak256(abi.encodePacked(keys[x])) == keccak256(abi.encodePacked(_key))) {... */\n    tag_164:\n        /* \"source/Storage.sol\":3613:3624  arrayOffset */\n      dup2\n        /* \"source/Storage.sol\":3609:3647  if (arrayOffset) keys[x] = keys[x + 1] */\n      iszero\n      tag_165\n      jumpi\n        /* \"source/Storage.sol\":3636:3640  keys */\n      0x01\n        /* \"source/Storage.sol\":3641:3646  x + 1 */\n      tag_166\n        /* \"source/Storage.sol\":3641:3642  x */\n      dup3\n        /* \"source/Storage.sol\":3636:3640  keys */\n      dup3\n        /* \"source/Storage.sol\":3641:3646  x + 1 */\n      tag_167\n      jump\t// in\n    tag_166:\n        /* \"source/Storage.sol\":3636:3647  keys[x + 1] */\n      dup2\n      sload\n      dup2\n      lt\n      tag_169\n      jumpi\n      tag_169\n      tag_54\n      jump\t// in\n    tag_169:\n      swap1\n      0x00\n      mstore\n      keccak256(0x00, 0x20)\n      add\n        /* \"source/Storage.sol\":3626:3630  keys */\n      0x01\n        /* \"source/Storage.sol\":3631:3632  x */\n      dup3\n        /* \"source/Storage.sol\":3626:3633  keys[x] */\n      dup2\n      sload\n      dup2\n      lt\n      tag_172\n      jumpi\n      tag_172\n      tag_54\n      jump\t// in\n    tag_172:\n      swap1\n      0x00\n      mstore\n      keccak256(0x00, 0x20)\n      add\n        /* \"source/Storage.sol\":3626:3647  keys[x] = keys[x + 1] */\n      swap1\n      dup2\n      tag_174\n      swap2\n      swap1\n      tag_175\n      jump\t// in\n    tag_174:\n      pop\n        /* \"source/Storage.sol\":3609:3647  if (arrayOffset) keys[x] = keys[x + 1] */\n    tag_165:\n        /* \"source/Storage.sol\":3427:3430  x++ */\n      dup1\n      tag_176\n      dup2\n      tag_66\n      jump\t// in\n    tag_176:\n      swap2\n      pop\n      pop\n        /* \"source/Storage.sol\":3394:3663  for(uint x; x < keys.length - 1; x++) {... */\n      jump(tag_154)\n    tag_155:\n      pop\n        /* \"source/Storage.sol\":3681:3692  arrayOffset */\n      dup1\n        /* \"source/Storage.sol\":3677:3704  if (arrayOffset) keys.pop() */\n      iszero\n      tag_177\n      jumpi\n        /* \"source/Storage.sol\":3694:3698  keys */\n      0x01\n        /* \"source/Storage.sol\":3694:3704  keys.pop() */\n      dup1\n      sload\n      dup1\n      tag_179\n      jumpi\n      tag_179\n      tag_150\n      jump\t// in\n    tag_179:\n      0x01\n      swap1\n      sub\n      dup2\n      dup2\n      swap1\n      0x00\n      mstore\n      keccak256(0x00, 0x20)\n      add\n      0x00\n      tag_181\n      swap2\n      swap1\n      tag_138\n      jump\t// in\n    tag_181:\n      swap1\n      sstore\n        /* \"source/Storage.sol\":3677:3704  if (arrayOffset) keys.pop() */\n    tag_177:\n        /* \"source/Storage.sol\":3348:3716  {... */\n      pop\n        /* \"source/Storage.sol\":3170:3716  if (keys.length == 1) {... */\n    tag_153:\n        /* \"source/Storage.sol\":1165:1166  _ */\n      pop\n        /* \"source/Storage.sol\":1052:1174  {... */\n      pop\n        /* \"source/Storage.sol\":3003:3723  function _clearKeyData(string memory _key) private notEmpty(_key) onlyDataOwner(_key) {... */\n      pop\n      pop\n      jump\t// out\n        /* \"source/Storage.sol\":2639:2995  function _setKeyData(string memory _key, Data memory _data) private notEmpty(_key) {... */\n    tag_96:\n        /* \"source/Storage.sol\":1120:1136  byteValue.length */\n      dup2\n      mload\n        /* \"source/Storage.sol\":2716:2720  _key */\n      dup3\n      swap1\n      dup2\n      swap1\n        /* \"source/Storage.sol\":1063:1085  bytes memory byteValue */\n      0x00\n        /* \"source/Storage.sol\":1120:1141  byteValue.length != 0 */\n      sub\n        /* \"source/Storage.sol\":1112:1154  require(byteValue.length != 0, 'NO_VALUE') */\n      tag_183\n      jumpi\n      mload(0x40)\n      0x08c379a000000000000000000000000000000000000000000000000000000000\n      dup2\n      mstore\n        /* \"#utility.yul\":10894:10896   */\n      0x20\n        /* \"source/Storage.sol\":1112:1154  require(byteValue.length != 0, 'NO_VALUE') */\n      0x04\n      dup3\n      add\n        /* \"#utility.yul\":10876:10897   */\n      mstore\n        /* \"#utility.yul\":10933:10934   */\n      0x08\n        /* \"#utility.yul\":10913:10931   */\n      0x24\n      dup3\n      add\n        /* \"#utility.yul\":10906:10935   */\n      mstore\n        /* \"#utility.yul\":10971:10981   */\n      0x4e4f5f56414c5545000000000000000000000000000000000000000000000000\n        /* \"#utility.yul\":10951:10969   */\n      0x44\n      dup3\n      add\n        /* \"#utility.yul\":10944:10982   */\n      mstore\n        /* \"#utility.yul\":10999:11017   */\n      0x64\n      add\n        /* \"source/Storage.sol\":1112:1154  require(byteValue.length != 0, 'NO_VALUE') */\n      tag_72\n        /* \"#utility.yul\":10692:11023   */\n      jump\n        /* \"source/Storage.sol\":1112:1154  require(byteValue.length != 0, 'NO_VALUE') */\n    tag_183:\n        /* \"source/Storage.sol\":2768:2769  0 */\n      0x00\n        /* \"source/Storage.sol\":2737:2770  allData[_key].owner != address(0) */\n      0xffffffffffffffffffffffffffffffffffffffff\n      and\n        /* \"source/Storage.sol\":2737:2744  allData */\n      0x00\n        /* \"source/Storage.sol\":2745:2749  _key */\n      dup6\n        /* \"source/Storage.sol\":2737:2750  allData[_key] */\n      mload(0x40)\n      tag_186\n      swap2\n      swap1\n      tag_116\n      jump\t// in\n    tag_186:\n      swap1\n      dup2\n      mstore\n      mload(0x40)\n      swap1\n      dup2\n      swap1\n      sub\n      0x20\n      add\n      swap1\n      keccak256\n        /* \"source/Storage.sol\":2737:2756  allData[_key].owner */\n      sload\n      0xffffffffffffffffffffffffffffffffffffffff\n      and\n        /* \"source/Storage.sol\":2737:2770  allData[_key].owner != address(0) */\n      eq\n        /* \"source/Storage.sol\":2733:2902  if (allData[_key].owner != address(0)) {... */\n      tag_187\n      jumpi\n        /* \"source/Storage.sol\":2809:2816  allData */\n      0x00\n        /* \"source/Storage.sol\":2817:2821  _key */\n      dup5\n        /* \"source/Storage.sol\":2809:2822  allData[_key] */\n      mload(0x40)\n      tag_188\n      swap2\n      swap1\n      tag_116\n      jump\t// in\n    tag_188:\n      swap1\n      dup2\n      mstore\n      mload(0x40)\n      swap1\n      dup2\n      swap1\n      sub\n      0x20\n      add\n      swap1\n      keccak256\n        /* \"source/Storage.sol\":2809:2828  allData[_key].owner */\n      sload\n        /* \"source/Storage.sol\":2795:2805  msg.sender */\n      caller\n        /* \"source/Storage.sol\":2809:2828  allData[_key].owner */\n      0xffffffffffffffffffffffffffffffffffffffff\n      swap1\n      swap2\n      and\n        /* \"source/Storage.sol\":2795:2828  msg.sender == allData[_key].owner */\n      eq\n        /* \"source/Storage.sol\":2787:2842  require(msg.sender == allData[_key].owner, 'FORBIDDEN') */\n      tag_189\n      jumpi\n      mload(0x40)\n      0x08c379a000000000000000000000000000000000000000000000000000000000\n      dup2\n      mstore\n        /* \"#utility.yul\":11860:11862   */\n      0x20\n        /* \"source/Storage.sol\":2787:2842  require(msg.sender == allData[_key].owner, 'FORBIDDEN') */\n      0x04\n      dup3\n      add\n        /* \"#utility.yul\":11842:11863   */\n      mstore\n        /* \"#utility.yul\":11899:11900   */\n      0x09\n        /* \"#utility.yul\":11879:11897   */\n      0x24\n      dup3\n      add\n        /* \"#utility.yul\":11872:11901   */\n      mstore\n        /* \"#utility.yul\":11937:11948   */\n      0x464f5242494444454e0000000000000000000000000000000000000000000000\n        /* \"#utility.yul\":11917:11935   */\n      0x44\n      dup3\n      add\n        /* \"#utility.yul\":11910:11949   */\n      mstore\n        /* \"#utility.yul\":11966:11984   */\n      0x64\n      add\n        /* \"source/Storage.sol\":2787:2842  require(msg.sender == allData[_key].owner, 'FORBIDDEN') */\n      tag_72\n        /* \"#utility.yul\":11658:11990   */\n      jump\n        /* \"source/Storage.sol\":2787:2842  require(msg.sender == allData[_key].owner, 'FORBIDDEN') */\n    tag_189:\n        /* \"source/Storage.sol\":2733:2902  if (allData[_key].owner != address(0)) {... */\n      jump(tag_191)\n    tag_187:\n        /* \"source/Storage.sol\":2875:2879  keys */\n      0x01\n        /* \"source/Storage.sol\":2875:2890  keys.push(_key) */\n      dup1\n      sload\n      dup1\n      dup3\n      add\n      dup3\n      sstore\n      0x00\n      swap2\n      swap1\n      swap2\n      mstore\n      0xb10e2d527612073b26eecdfd717e6a320cf44b4afac2b0732d9fcbe2b7fa0cf6\n      add\n      tag_193\n        /* \"source/Storage.sol\":2885:2889  _key */\n      dup6\n        /* \"source/Storage.sol\":2875:2890  keys.push(_key) */\n      dup3\n      tag_194\n      jump\t// in\n    tag_193:\n      pop\n        /* \"source/Storage.sol\":2733:2902  if (allData[_key].owner != address(0)) {... */\n    tag_191:\n        /* \"source/Storage.sol\":2934:2945  _data.owner */\n      dup3\n      mload\n        /* \"source/Storage.sol\":2912:2925  allData[_key] */\n      mload(0x40)\n        /* \"source/Storage.sol\":2934:2945  _data.owner */\n      0x00\n      swap1\n        /* \"source/Storage.sol\":2912:2925  allData[_key] */\n      tag_195\n      swap1\n        /* \"source/Storage.sol\":2920:2924  _key */\n      dup8\n      swap1\n        /* \"source/Storage.sol\":2912:2925  allData[_key] */\n      tag_116\n      jump\t// in\n    tag_195:\n      swap1\n      dup2\n      mstore\n      0x20\n      add\n      mload(0x40)\n      dup1\n      swap2\n      sub\n      swap1\n      keccak256\n        /* \"source/Storage.sol\":2912:2931  allData[_key].owner */\n      0x00\n      add\n      0x00\n        /* \"source/Storage.sol\":2912:2945  allData[_key].owner = _data.owner */\n      0x0100\n      exp\n      dup2\n      sload\n      dup2\n      0xffffffffffffffffffffffffffffffffffffffff\n      mul\n      not\n      and\n      swap1\n      dup4\n      0xffffffffffffffffffffffffffffffffffffffff\n      and\n      mul\n      or\n      swap1\n      sstore\n      pop\n        /* \"source/Storage.sol\":2977:2982  _data */\n      dup3\n        /* \"source/Storage.sol\":2977:2987  _data.info */\n      0x20\n      add\n      mload\n        /* \"source/Storage.sol\":2956:2963  allData */\n      0x00\n        /* \"source/Storage.sol\":2964:2968  _key */\n      dup6\n        /* \"source/Storage.sol\":2956:2969  allData[_key] */\n      mload(0x40)\n      tag_196\n      swap2\n      swap1\n      tag_116\n      jump\t// in\n    tag_196:\n      swap1\n      dup2\n      mstore\n      0x20\n      add\n      mload(0x40)\n      dup1\n      swap2\n      sub\n      swap1\n      keccak256\n        /* \"source/Storage.sol\":2956:2974  allData[_key].info */\n      0x01\n      add\n        /* \"source/Storage.sol\":2956:2987  allData[_key].info = _data.info */\n      swap1\n      dup2\n      tag_177\n      swap2\n      swap1\n      tag_194\n      jump\t// in\n    tag_138:\n      pop\n      dup1\n      sload\n      tag_198\n      swap1\n      tag_57\n      jump\t// in\n    tag_198:\n      0x00\n      dup3\n      sstore\n      dup1\n      0x1f\n      lt\n      tag_200\n      jumpi\n      pop\n      pop\n      jump\t// out\n    tag_200:\n      0x1f\n      add\n      0x20\n      swap1\n      div\n      swap1\n      0x00\n      mstore\n      keccak256(0x00, 0x20)\n      swap1\n      dup2\n      add\n      swap1\n      tag_68\n      swap2\n      swap1\n    tag_203:\n      dup1\n      dup3\n      gt\n      iszero\n      tag_204\n      jumpi\n      0x00\n      dup2\n      sstore\n      0x01\n      add\n      jump(tag_203)\n    tag_204:\n      pop\n      swap1\n      jump\t// out\n        /* \"#utility.yul\":14:264   */\n    tag_205:\n        /* \"#utility.yul\":99:100   */\n      0x00\n        /* \"#utility.yul\":109:222   */\n    tag_219:\n        /* \"#utility.yul\":123:129   */\n      dup4\n        /* \"#utility.yul\":120:121   */\n      dup2\n        /* \"#utility.yul\":117:130   */\n      lt\n        /* \"#utility.yul\":109:222   */\n      iszero\n      tag_221\n      jumpi\n        /* \"#utility.yul\":199:210   */\n      dup2\n      dup2\n      add\n        /* \"#utility.yul\":193:211   */\n      mload\n        /* \"#utility.yul\":180:191   */\n      dup4\n      dup3\n      add\n        /* \"#utility.yul\":173:212   */\n      mstore\n        /* \"#utility.yul\":145:147   */\n      0x20\n        /* \"#utility.yul\":138:148   */\n      add\n        /* \"#utility.yul\":109:222   */\n      jump(tag_219)\n    tag_221:\n      pop\n      pop\n        /* \"#utility.yul\":256:257   */\n      0x00\n        /* \"#utility.yul\":238:254   */\n      swap2\n      add\n        /* \"#utility.yul\":231:258   */\n      mstore\n        /* \"#utility.yul\":14:264   */\n      jump\t// out\n        /* \"#utility.yul\":269:599   */\n    tag_206:\n        /* \"#utility.yul\":311:314   */\n      0x00\n        /* \"#utility.yul\":349:354   */\n      dup2\n        /* \"#utility.yul\":343:355   */\n      mload\n        /* \"#utility.yul\":376:382   */\n      dup1\n        /* \"#utility.yul\":371:374   */\n      dup5\n        /* \"#utility.yul\":364:383   */\n      mstore\n        /* \"#utility.yul\":392:468   */\n      tag_223\n        /* \"#utility.yul\":461:467   */\n      dup2\n        /* \"#utility.yul\":454:458   */\n      0x20\n        /* \"#utility.yul\":449:452   */\n      dup7\n        /* \"#utility.yul\":445:459   */\n      add\n        /* \"#utility.yul\":438:442   */\n      0x20\n        /* \"#utility.yul\":431:436   */\n      dup7\n        /* \"#utility.yul\":427:443   */\n      add\n        /* \"#utility.yul\":392:468   */\n      tag_205\n      jump\t// in\n    tag_223:\n        /* \"#utility.yul\":513:515   */\n      0x1f\n        /* \"#utility.yul\":501:516   */\n      add\n        /* \"#utility.yul\":518:584   */\n      0xffffffffffffffffffffffffffffffffffffffffffffffffffffffffffffffe0\n        /* \"#utility.yul\":497:585   */\n      and\n        /* \"#utility.yul\":488:586   */\n      swap3\n      swap1\n      swap3\n      add\n        /* \"#utility.yul\":588:592   */\n      0x20\n        /* \"#utility.yul\":484:593   */\n      add\n      swap3\n        /* \"#utility.yul\":269:599   */\n      swap2\n      pop\n      pop\n      jump\t// out\n        /* \"#utility.yul\":604:901   */\n    tag_207:\n        /* \"#utility.yul\":699:741   */\n      0xffffffffffffffffffffffffffffffffffffffff\n        /* \"#utility.yul\":691:696   */\n      dup2\n        /* \"#utility.yul\":685:697   */\n      mload\n        /* \"#utility.yul\":681:742   */\n      and\n        /* \"#utility.yul\":676:679   */\n      dup3\n        /* \"#utility.yul\":669:743   */\n      mstore\n        /* \"#utility.yul\":651:654   */\n      0x00\n        /* \"#utility.yul\":789:793   */\n      0x20\n        /* \"#utility.yul\":782:787   */\n      dup3\n        /* \"#utility.yul\":778:794   */\n      add\n        /* \"#utility.yul\":772:795   */\n      mload\n        /* \"#utility.yul\":827:831   */\n      0x40\n        /* \"#utility.yul\":820:824   */\n      0x20\n        /* \"#utility.yul\":815:818   */\n      dup6\n        /* \"#utility.yul\":811:825   */\n      add\n        /* \"#utility.yul\":804:832   */\n      mstore\n        /* \"#utility.yul\":848:895   */\n      tag_225\n        /* \"#utility.yul\":889:893   */\n      0x40\n        /* \"#utility.yul\":884:887   */\n      dup6\n        /* \"#utility.yul\":880:894   */\n      add\n        /* \"#utility.yul\":866:878   */\n      dup3\n        /* \"#utility.yul\":848:895   */\n      tag_206\n      jump\t// in\n    tag_225:\n        /* \"#utility.yul\":841:895   */\n      swap5\n        /* \"#utility.yul\":604:901   */\n      swap4\n      pop\n      pop\n      pop\n      pop\n      jump\t// out\n        /* \"#utility.yul\":906:1791   */\n    tag_14:\n        /* \"#utility.yul\":1086:1090   */\n      0x00\n        /* \"#utility.yul\":1115:1117   */\n      0x20\n        /* \"#utility.yul\":1155:1157   */\n      dup1\n        /* \"#utility.yul\":1144:1153   */\n      dup4\n        /* \"#utility.yul\":1140:1158   */\n      add\n        /* \"#utility.yul\":1185:1187   */\n      dup2\n        /* \"#utility.yul\":1174:1183   */\n      dup5\n        /* \"#utility.yul\":1167:1188   */\n      mstore\n        /* \"#utility.yul\":1208:1214   */\n      dup1\n        /* \"#utility.yul\":1243:1249   */\n      dup6\n        /* \"#utility.yul\":1237:1250   */\n      mload\n        /* \"#utility.yul\":1274:1280   */\n      dup1\n        /* \"#utility.yul\":1266:1272   */\n      dup4\n        /* \"#utility.yul\":1259:1281   */\n      mstore\n        /* \"#utility.yul\":1312:1314   */\n      0x40\n        /* \"#utility.yul\":1301:1310   */\n      dup7\n        /* \"#utility.yul\":1297:1315   */\n      add\n        /* \"#utility.yul\":1290:1315   */\n      swap2\n      pop\n        /* \"#utility.yul\":1374:1376   */\n      0x40\n        /* \"#utility.yul\":1364:1370   */\n      dup2\n        /* \"#utility.yul\":1361:1362   */\n      0x05\n        /* \"#utility.yul\":1357:1371   */\n      shl\n        /* \"#utility.yul\":1346:1355   */\n      dup8\n        /* \"#utility.yul\":1342:1372   */\n      add\n        /* \"#utility.yul\":1338:1377   */\n      add\n        /* \"#utility.yul\":1324:1377   */\n      swap3\n      pop\n        /* \"#utility.yul\":1412:1414   */\n      dup4\n        /* \"#utility.yul\":1404:1410   */\n      dup8\n        /* \"#utility.yul\":1400:1415   */\n      add\n        /* \"#utility.yul\":1433:1434   */\n      0x00\n        /* \"#utility.yul\":1443:1762   */\n    tag_227:\n        /* \"#utility.yul\":1457:1463   */\n      dup3\n        /* \"#utility.yul\":1454:1455   */\n      dup2\n        /* \"#utility.yul\":1451:1464   */\n      lt\n        /* \"#utility.yul\":1443:1762   */\n      iszero\n      tag_229\n      jumpi\n        /* \"#utility.yul\":1546:1612   */\n      0xffffffffffffffffffffffffffffffffffffffffffffffffffffffffffffffc0\n        /* \"#utility.yul\":1534:1543   */\n      dup9\n        /* \"#utility.yul\":1526:1532   */\n      dup7\n        /* \"#utility.yul\":1522:1544   */\n      sub\n        /* \"#utility.yul\":1518:1613   */\n      add\n        /* \"#utility.yul\":1513:1516   */\n      dup5\n        /* \"#utility.yul\":1506:1614   */\n      mstore\n        /* \"#utility.yul\":1637:1682   */\n      tag_230\n        /* \"#utility.yul\":1675:1681   */\n      dup6\n        /* \"#utility.yul\":1666:1672   */\n      dup4\n        /* \"#utility.yul\":1660:1673   */\n      mload\n        /* \"#utility.yul\":1637:1682   */\n      tag_207\n      jump\t// in\n    tag_230:\n        /* \"#utility.yul\":1627:1682   */\n      swap5\n      pop\n        /* \"#utility.yul\":1740:1752   */\n      swap3\n      dup6\n      add\n      swap3\n        /* \"#utility.yul\":1705:1720   */\n      swap1\n      dup6\n      add\n      swap1\n        /* \"#utility.yul\":1479:1480   */\n      0x01\n        /* \"#utility.yul\":1472:1481   */\n      add\n        /* \"#utility.yul\":1443:1762   */\n      jump(tag_227)\n    tag_229:\n      pop\n        /* \"#utility.yul\":1779:1785   */\n      swap3\n      swap8\n        /* \"#utility.yul\":906:1791   */\n      swap7\n      pop\n      pop\n      pop\n      pop\n      pop\n      pop\n      pop\n      jump\t// out\n        /* \"#utility.yul\":1796:1980   */\n    tag_43:\n        /* \"#utility.yul\":1848:1925   */\n      0x4e487b7100000000000000000000000000000000000000000000000000000000\n        /* \"#utility.yul\":1845:1846   */\n      0x00\n        /* \"#utility.yul\":1838:1926   */\n      mstore\n        /* \"#utility.yul\":1945:1949   */\n      0x41\n        /* \"#utility.yul\":1942:1943   */\n      0x04\n        /* \"#utility.yul\":1935:1950   */\n      mstore\n        /* \"#utility.yul\":1969:1973   */\n      0x24\n        /* \"#utility.yul\":1966:1967   */\n      0x00\n        /* \"#utility.yul\":1959:1974   */\n      revert\n        /* \"#utility.yul\":1985:2242   */\n    tag_208:\n        /* \"#utility.yul\":2057:2061   */\n      0x40\n        /* \"#utility.yul\":2051:2062   */\n      dup1\n      mload\n      swap1\n        /* \"#utility.yul\":2089:2106   */\n      dup2\n      add\n        /* \"#utility.yul\":2136:2154   */\n      0xffffffffffffffff\n        /* \"#utility.yul\":2121:2155   */\n      dup2\n      gt\n        /* \"#utility.yul\":2157:2179   */\n      dup3\n      dup3\n      lt\n        /* \"#utility.yul\":2118:2180   */\n      or\n        /* \"#utility.yul\":2115:2203   */\n      iszero\n      tag_234\n      jumpi\n        /* \"#utility.yul\":2183:2201   */\n      tag_234\n      tag_43\n      jump\t// in\n    tag_234:\n        /* \"#utility.yul\":2219:2223   */\n      0x40\n        /* \"#utility.yul\":2212:2236   */\n      mstore\n        /* \"#utility.yul\":1985:2242   */\n      swap1\n      jump\t// out\n        /* \"#utility.yul\":2247:2581   */\n    tag_209:\n        /* \"#utility.yul\":2318:2320   */\n      0x40\n        /* \"#utility.yul\":2312:2321   */\n      mload\n        /* \"#utility.yul\":2374:2376   */\n      0x1f\n        /* \"#utility.yul\":2364:2377   */\n      dup3\n      add\n        /* \"#utility.yul\":2379:2445   */\n      0xffffffffffffffffffffffffffffffffffffffffffffffffffffffffffffffe0\n        /* \"#utility.yul\":2360:2446   */\n      and\n        /* \"#utility.yul\":2348:2447   */\n      dup2\n      add\n        /* \"#utility.yul\":2477:2495   */\n      0xffffffffffffffff\n        /* \"#utility.yul\":2462:2496   */\n      dup2\n      gt\n        /* \"#utility.yul\":2498:2520   */\n      dup3\n      dup3\n      lt\n        /* \"#utility.yul\":2459:2521   */\n      or\n        /* \"#utility.yul\":2456:2544   */\n      iszero\n      tag_237\n      jumpi\n        /* \"#utility.yul\":2524:2542   */\n      tag_237\n      tag_43\n      jump\t// in\n    tag_237:\n        /* \"#utility.yul\":2560:2562   */\n      0x40\n        /* \"#utility.yul\":2553:2575   */\n      mstore\n        /* \"#utility.yul\":2247:2581   */\n      swap2\n      swap1\n      pop\n      jump\t// out\n        /* \"#utility.yul\":2586:3176   */\n    tag_210:\n        /* \"#utility.yul\":2629:2634   */\n      0x00\n        /* \"#utility.yul\":2682:2685   */\n      dup3\n        /* \"#utility.yul\":2675:2679   */\n      0x1f\n        /* \"#utility.yul\":2667:2673   */\n      dup4\n        /* \"#utility.yul\":2663:2680   */\n      add\n        /* \"#utility.yul\":2659:2686   */\n      slt\n        /* \"#utility.yul\":2649:2704   */\n      tag_239\n      jumpi\n        /* \"#utility.yul\":2700:2701   */\n      0x00\n        /* \"#utility.yul\":2697:2698   */\n      dup1\n        /* \"#utility.yul\":2690:2702   */\n      revert\n        /* \"#utility.yul\":2649:2704   */\n    tag_239:\n        /* \"#utility.yul\":2736:2742   */\n      dup2\n        /* \"#utility.yul\":2723:2743   */\n      calldataload\n        /* \"#utility.yul\":2762:2780   */\n      0xffffffffffffffff\n        /* \"#utility.yul\":2758:2760   */\n      dup2\n        /* \"#utility.yul\":2755:2781   */\n      gt\n        /* \"#utility.yul\":2752:2804   */\n      iszero\n      tag_241\n      jumpi\n        /* \"#utility.yul\":2784:2802   */\n      tag_241\n      tag_43\n      jump\t// in\n    tag_241:\n        /* \"#utility.yul\":2828:2942   */\n      tag_242\n        /* \"#utility.yul\":2936:2940   */\n      0x20\n        /* \"#utility.yul\":2867:2933   */\n      0xffffffffffffffffffffffffffffffffffffffffffffffffffffffffffffffe0\n        /* \"#utility.yul\":2860:2864   */\n      0x1f\n        /* \"#utility.yul\":2856:2858   */\n      dup5\n        /* \"#utility.yul\":2852:2865   */\n      add\n        /* \"#utility.yul\":2848:2934   */\n      and\n        /* \"#utility.yul\":2844:2941   */\n      add\n        /* \"#utility.yul\":2828:2942   */\n      tag_209\n      jump\t// in\n    tag_242:\n        /* \"#utility.yul\":2967:2969   */\n      dup2\n        /* \"#utility.yul\":2958:2965   */\n      dup2\n        /* \"#utility.yul\":2951:2970   */\n      mstore\n        /* \"#utility.yul\":3013:3016   */\n      dup5\n        /* \"#utility.yul\":3006:3010   */\n      0x20\n        /* \"#utility.yul\":3001:3003   */\n      dup4\n        /* \"#utility.yul\":2993:2999   */\n      dup7\n        /* \"#utility.yul\":2989:3004   */\n      add\n        /* \"#utility.yul\":2985:3011   */\n      add\n        /* \"#utility.yul\":2982:3017   */\n      gt\n        /* \"#utility.yul\":2979:3034   */\n      iszero\n      tag_243\n      jumpi\n        /* \"#utility.yul\":3030:3031   */\n      0x00\n        /* \"#utility.yul\":3027:3028   */\n      dup1\n        /* \"#utility.yul\":3020:3032   */\n      revert\n        /* \"#utility.yul\":2979:3034   */\n    tag_243:\n        /* \"#utility.yul\":3095:3097   */\n      dup2\n        /* \"#utility.yul\":3088:3092   */\n      0x20\n        /* \"#utility.yul\":3080:3086   */\n      dup6\n        /* \"#utility.yul\":3076:3093   */\n      add\n        /* \"#utility.yul\":3069:3073   */\n      0x20\n        /* \"#utility.yul\":3060:3067   */\n      dup4\n        /* \"#utility.yul\":3056:3074   */\n      add\n        /* \"#utility.yul\":3043:3098   */\n      calldatacopy\n        /* \"#utility.yul\":3143:3144   */\n      0x00\n        /* \"#utility.yul\":3118:3134   */\n      swap2\n      dup2\n      add\n        /* \"#utility.yul\":3136:3140   */\n      0x20\n        /* \"#utility.yul\":3114:3141   */\n      add\n        /* \"#utility.yul\":3107:3145   */\n      swap2\n      swap1\n      swap2\n      mstore\n        /* \"#utility.yul\":3122:3129   */\n      swap4\n        /* \"#utility.yul\":2586:3176   */\n      swap3\n      pop\n      pop\n      pop\n      jump\t// out\n        /* \"#utility.yul\":3181:3503   */\n    tag_17:\n        /* \"#utility.yul\":3250:3256   */\n      0x00\n        /* \"#utility.yul\":3303:3305   */\n      0x20\n        /* \"#utility.yul\":3291:3300   */\n      dup3\n        /* \"#utility.yul\":3282:3289   */\n      dup5\n        /* \"#utility.yul\":3278:3301   */\n      sub\n        /* \"#utility.yul\":3274:3306   */\n      slt\n        /* \"#utility.yul\":3271:3323   */\n      iszero\n      tag_245\n      jumpi\n        /* \"#utility.yul\":3319:3320   */\n      0x00\n        /* \"#utility.yul\":3316:3317   */\n      dup1\n        /* \"#utility.yul\":3309:3321   */\n      revert\n        /* \"#utility.yul\":3271:3323   */\n    tag_245:\n        /* \"#utility.yul\":3359:3368   */\n      dup2\n        /* \"#utility.yul\":3346:3369   */\n      calldataload\n        /* \"#utility.yul\":3392:3410   */\n      0xffffffffffffffff\n        /* \"#utility.yul\":3384:3390   */\n      dup2\n        /* \"#utility.yul\":3381:3411   */\n      gt\n        /* \"#utility.yul\":3378:3428   */\n      iszero\n      tag_246\n      jumpi\n        /* \"#utility.yul\":3424:3425   */\n      0x00\n        /* \"#utility.yul\":3421:3422   */\n      dup1\n        /* \"#utility.yul\":3414:3426   */\n      revert\n        /* \"#utility.yul\":3378:3428   */\n    tag_246:\n        /* \"#utility.yul\":3447:3497   */\n      tag_225\n        /* \"#utility.yul\":3489:3496   */\n      dup5\n        /* \"#utility.yul\":3480:3486   */\n      dup3\n        /* \"#utility.yul\":3469:3478   */\n      dup6\n        /* \"#utility.yul\":3465:3487   */\n      add\n        /* \"#utility.yul\":3447:3497   */\n      tag_210\n      jump\t// in\n        /* \"#utility.yul\":3508:3690   */\n    tag_211:\n        /* \"#utility.yul\":3567:3571   */\n      0x00\n        /* \"#utility.yul\":3600:3618   */\n      0xffffffffffffffff\n        /* \"#utility.yul\":3592:3598   */\n      dup3\n        /* \"#utility.yul\":3589:3619   */\n      gt\n        /* \"#utility.yul\":3586:3642   */\n      iszero\n      tag_250\n      jumpi\n        /* \"#utility.yul\":3622:3640   */\n      tag_250\n      tag_43\n      jump\t// in\n    tag_250:\n      pop\n        /* \"#utility.yul\":3667:3668   */\n      0x05\n        /* \"#utility.yul\":3663:3677   */\n      shl\n        /* \"#utility.yul\":3679:3683   */\n      0x20\n        /* \"#utility.yul\":3659:3684   */\n      add\n      swap1\n        /* \"#utility.yul\":3508:3690   */\n      jump\t// out\n        /* \"#utility.yul\":3695:4827   */\n    tag_21:\n        /* \"#utility.yul\":3789:3795   */\n      0x00\n        /* \"#utility.yul\":3820:3822   */\n      0x20\n        /* \"#utility.yul\":3863:3865   */\n      dup1\n        /* \"#utility.yul\":3851:3860   */\n      dup4\n        /* \"#utility.yul\":3842:3849   */\n      dup6\n        /* \"#utility.yul\":3838:3861   */\n      sub\n        /* \"#utility.yul\":3834:3866   */\n      slt\n        /* \"#utility.yul\":3831:3883   */\n      iszero\n      tag_252\n      jumpi\n        /* \"#utility.yul\":3879:3880   */\n      0x00\n        /* \"#utility.yul\":3876:3877   */\n      dup1\n        /* \"#utility.yul\":3869:3881   */\n      revert\n        /* \"#utility.yul\":3831:3883   */\n    tag_252:\n        /* \"#utility.yul\":3919:3928   */\n      dup3\n        /* \"#utility.yul\":3906:3929   */\n      calldataload\n        /* \"#utility.yul\":3948:3966   */\n      0xffffffffffffffff\n        /* \"#utility.yul\":3989:3991   */\n      dup1\n        /* \"#utility.yul\":3981:3987   */\n      dup3\n        /* \"#utility.yul\":3978:3992   */\n      gt\n        /* \"#utility.yul\":3975:4009   */\n      iszero\n      tag_253\n      jumpi\n        /* \"#utility.yul\":4005:4006   */\n      0x00\n        /* \"#utility.yul\":4002:4003   */\n      dup1\n        /* \"#utility.yul\":3995:4007   */\n      revert\n        /* \"#utility.yul\":3975:4009   */\n    tag_253:\n        /* \"#utility.yul\":4043:4049   */\n      dup2\n        /* \"#utility.yul\":4032:4041   */\n      dup6\n        /* \"#utility.yul\":4028:4050   */\n      add\n        /* \"#utility.yul\":4018:4050   */\n      swap2\n      pop\n        /* \"#utility.yul\":4088:4095   */\n      dup6\n        /* \"#utility.yul\":4081:4085   */\n      0x1f\n        /* \"#utility.yul\":4077:4079   */\n      dup4\n        /* \"#utility.yul\":4073:4086   */\n      add\n        /* \"#utility.yul\":4069:4096   */\n      slt\n        /* \"#utility.yul\":4059:4114   */\n      tag_254\n      jumpi\n        /* \"#utility.yul\":4110:4111   */\n      0x00\n        /* \"#utility.yul\":4107:4108   */\n      dup1\n        /* \"#utility.yul\":4100:4112   */\n      revert\n        /* \"#utility.yul\":4059:4114   */\n    tag_254:\n        /* \"#utility.yul\":4146:4148   */\n      dup2\n        /* \"#utility.yul\":4133:4149   */\n      calldataload\n        /* \"#utility.yul\":4169:4228   */\n      tag_255\n        /* \"#utility.yul\":4185:4227   */\n      tag_256\n        /* \"#utility.yul\":4224:4226   */\n      dup3\n        /* \"#utility.yul\":4185:4227   */\n      tag_211\n      jump\t// in\n    tag_256:\n        /* \"#utility.yul\":4169:4228   */\n      tag_209\n      jump\t// in\n    tag_255:\n        /* \"#utility.yul\":4262:4277   */\n      dup2\n      dup2\n      mstore\n        /* \"#utility.yul\":4344:4345   */\n      0x05\n        /* \"#utility.yul\":4340:4350   */\n      swap2\n      swap1\n      swap2\n      shl\n        /* \"#utility.yul\":4332:4351   */\n      dup4\n      add\n        /* \"#utility.yul\":4328:4356   */\n      dup5\n      add\n      swap1\n        /* \"#utility.yul\":4293:4305   */\n      dup5\n      dup2\n      add\n      swap1\n        /* \"#utility.yul\":4368:4387   */\n      dup9\n      dup4\n      gt\n        /* \"#utility.yul\":4365:4404   */\n      iszero\n      tag_257\n      jumpi\n        /* \"#utility.yul\":4400:4401   */\n      0x00\n        /* \"#utility.yul\":4397:4398   */\n      dup1\n        /* \"#utility.yul\":4390:4402   */\n      revert\n        /* \"#utility.yul\":4365:4404   */\n    tag_257:\n        /* \"#utility.yul\":4432:4434   */\n      dup6\n        /* \"#utility.yul\":4428:4430   */\n      dup6\n        /* \"#utility.yul\":4424:4435   */\n      add\n        /* \"#utility.yul\":4444:4797   */\n    tag_258:\n        /* \"#utility.yul\":4460:4466   */\n      dup4\n        /* \"#utility.yul\":4455:4458   */\n      dup2\n        /* \"#utility.yul\":4452:4467   */\n      lt\n        /* \"#utility.yul\":4444:4797   */\n      iszero\n      tag_260\n      jumpi\n        /* \"#utility.yul\":4546:4549   */\n      dup1\n        /* \"#utility.yul\":4533:4550   */\n      calldataload\n        /* \"#utility.yul\":4582:4584   */\n      dup6\n        /* \"#utility.yul\":4569:4580   */\n      dup2\n        /* \"#utility.yul\":4566:4585   */\n      gt\n        /* \"#utility.yul\":4563:4672   */\n      iszero\n      tag_261\n      jumpi\n        /* \"#utility.yul\":4626:4627   */\n      0x00\n        /* \"#utility.yul\":4655:4657   */\n      dup1\n        /* \"#utility.yul\":4651:4653   */\n      dup2\n        /* \"#utility.yul\":4644:4658   */\n      revert\n        /* \"#utility.yul\":4563:4672   */\n    tag_261:\n        /* \"#utility.yul\":4697:4754   */\n      tag_262\n        /* \"#utility.yul\":4746:4753   */\n      dup12\n        /* \"#utility.yul\":4741:4743   */\n      dup10\n        /* \"#utility.yul\":4727:4738   */\n      dup4\n        /* \"#utility.yul\":4723:4725   */\n      dup11\n        /* \"#utility.yul\":4719:4739   */\n      add\n        /* \"#utility.yul\":4715:4744   */\n      add\n        /* \"#utility.yul\":4697:4754   */\n      tag_210\n      jump\t// in\n    tag_262:\n        /* \"#utility.yul\":4685:4755   */\n      dup5\n      mstore\n      pop\n        /* \"#utility.yul\":4775:4787   */\n      swap2\n      dup7\n      add\n      swap2\n        /* \"#utility.yul\":4477:4489   */\n      dup7\n      add\n        /* \"#utility.yul\":4444:4797   */\n      jump(tag_258)\n    tag_260:\n      pop\n        /* \"#utility.yul\":4816:4821   */\n      swap9\n        /* \"#utility.yul\":3695:4827   */\n      swap8\n      pop\n      pop\n      pop\n      pop\n      pop\n      pop\n      pop\n      pop\n      jump\t// out\n        /* \"#utility.yul\":4832:5075   */\n    tag_27:\n        /* \"#utility.yul\":4999:5001   */\n      0x20\n        /* \"#utility.yul\":4988:4997   */\n      dup2\n        /* \"#utility.yul\":4981:5002   */\n      mstore\n        /* \"#utility.yul\":4962:4966   */\n      0x00\n        /* \"#utility.yul\":5019:5069   */\n      tag_264\n        /* \"#utility.yul\":5065:5067   */\n      0x20\n        /* \"#utility.yul\":5054:5063   */\n      dup4\n        /* \"#utility.yul\":5050:5068   */\n      add\n        /* \"#utility.yul\":5042:5048   */\n      dup5\n        /* \"#utility.yul\":5019:5069   */\n      tag_207\n      jump\t// in\n    tag_264:\n        /* \"#utility.yul\":5011:5069   */\n      swap4\n        /* \"#utility.yul\":4832:5075   */\n      swap3\n      pop\n      pop\n      pop\n      jump\t// out\n        /* \"#utility.yul\":5080:5624   */\n    tag_212:\n        /* \"#utility.yul\":5131:5136   */\n      0x00\n        /* \"#utility.yul\":5179:5183   */\n      0x40\n        /* \"#utility.yul\":5167:5176   */\n      dup3\n        /* \"#utility.yul\":5162:5165   */\n      dup5\n        /* \"#utility.yul\":5158:5177   */\n      sub\n        /* \"#utility.yul\":5154:5184   */\n      slt\n        /* \"#utility.yul\":5151:5201   */\n      iszero\n      tag_266\n      jumpi\n        /* \"#utility.yul\":5197:5198   */\n      0x00\n        /* \"#utility.yul\":5194:5195   */\n      dup1\n        /* \"#utility.yul\":5187:5199   */\n      revert\n        /* \"#utility.yul\":5151:5201   */\n    tag_266:\n        /* \"#utility.yul\":5219:5241   */\n      tag_267\n      tag_208\n      jump\t// in\n    tag_267:\n        /* \"#utility.yul\":5210:5241   */\n      swap1\n      pop\n        /* \"#utility.yul\":5278:5287   */\n      dup2\n        /* \"#utility.yul\":5265:5288   */\n      calldataload\n        /* \"#utility.yul\":5332:5374   */\n      0xffffffffffffffffffffffffffffffffffffffff\n        /* \"#utility.yul\":5323:5330   */\n      dup2\n        /* \"#utility.yul\":5319:5375   */\n      and\n        /* \"#utility.yul\":5310:5317   */\n      dup2\n        /* \"#utility.yul\":5307:5376   */\n      eq\n        /* \"#utility.yul\":5297:5394   */\n      tag_268\n      jumpi\n        /* \"#utility.yul\":5390:5391   */\n      0x00\n        /* \"#utility.yul\":5387:5388   */\n      dup1\n        /* \"#utility.yul\":5380:5392   */\n      revert\n        /* \"#utility.yul\":5297:5394   */\n    tag_268:\n        /* \"#utility.yul\":5403:5425   */\n      dup2\n      mstore\n        /* \"#utility.yul\":5476:5478   */\n      0x20\n        /* \"#utility.yul\":5461:5479   */\n      dup3\n      add\n        /* \"#utility.yul\":5448:5480   */\n      calldataload\n        /* \"#utility.yul\":5503:5521   */\n      0xffffffffffffffff\n        /* \"#utility.yul\":5492:5522   */\n      dup2\n      gt\n        /* \"#utility.yul\":5489:5539   */\n      iszero\n      tag_269\n      jumpi\n        /* \"#utility.yul\":5535:5536   */\n      0x00\n        /* \"#utility.yul\":5532:5533   */\n      dup1\n        /* \"#utility.yul\":5525:5537   */\n      revert\n        /* \"#utility.yul\":5489:5539   */\n    tag_269:\n        /* \"#utility.yul\":5571:5617   */\n      tag_270\n        /* \"#utility.yul\":5613:5616   */\n      dup5\n        /* \"#utility.yul\":5604:5610   */\n      dup3\n        /* \"#utility.yul\":5593:5602   */\n      dup6\n        /* \"#utility.yul\":5589:5611   */\n      add\n        /* \"#utility.yul\":5571:5617   */\n      tag_210\n      jump\t// in\n    tag_270:\n        /* \"#utility.yul\":5566:5568   */\n      0x20\n        /* \"#utility.yul\":5559:5564   */\n      dup4\n        /* \"#utility.yul\":5555:5569   */\n      add\n        /* \"#utility.yul\":5548:5618   */\n      mstore\n      pop\n        /* \"#utility.yul\":5080:5624   */\n      swap3\n      swap2\n      pop\n      pop\n      jump\t// out\n        /* \"#utility.yul\":5629:7568   */\n    tag_30:\n        /* \"#utility.yul\":5736:5742   */\n      0x00\n        /* \"#utility.yul\":5767:5769   */\n      0x20\n        /* \"#utility.yul\":5810:5812   */\n      dup1\n        /* \"#utility.yul\":5798:5807   */\n      dup4\n        /* \"#utility.yul\":5789:5796   */\n      dup6\n        /* \"#utility.yul\":5785:5808   */\n      sub\n        /* \"#utility.yul\":5781:5813   */\n      slt\n        /* \"#utility.yul\":5778:5830   */\n      iszero\n      tag_272\n      jumpi\n        /* \"#utility.yul\":5826:5827   */\n      0x00\n        /* \"#utility.yul\":5823:5824   */\n      dup1\n        /* \"#utility.yul\":5816:5828   */\n      revert\n        /* \"#utility.yul\":5778:5830   */\n    tag_272:\n        /* \"#utility.yul\":5866:5875   */\n      dup3\n        /* \"#utility.yul\":5853:5876   */\n      calldataload\n        /* \"#utility.yul\":5895:5913   */\n      0xffffffffffffffff\n        /* \"#utility.yul\":5936:5938   */\n      dup1\n        /* \"#utility.yul\":5928:5934   */\n      dup3\n        /* \"#utility.yul\":5925:5939   */\n      gt\n        /* \"#utility.yul\":5922:5956   */\n      iszero\n      tag_273\n      jumpi\n        /* \"#utility.yul\":5952:5953   */\n      0x00\n        /* \"#utility.yul\":5949:5950   */\n      dup1\n        /* \"#utility.yul\":5942:5954   */\n      revert\n        /* \"#utility.yul\":5922:5956   */\n    tag_273:\n        /* \"#utility.yul\":5990:5996   */\n      dup2\n        /* \"#utility.yul\":5979:5988   */\n      dup6\n        /* \"#utility.yul\":5975:5997   */\n      add\n        /* \"#utility.yul\":5965:5997   */\n      swap2\n      pop\n        /* \"#utility.yul\":6035:6042   */\n      dup6\n        /* \"#utility.yul\":6028:6032   */\n      0x1f\n        /* \"#utility.yul\":6024:6026   */\n      dup4\n        /* \"#utility.yul\":6020:6033   */\n      add\n        /* \"#utility.yul\":6016:6043   */\n      slt\n        /* \"#utility.yul\":6006:6061   */\n      tag_274\n      jumpi\n        /* \"#utility.yul\":6057:6058   */\n      0x00\n        /* \"#utility.yul\":6054:6055   */\n      dup1\n        /* \"#utility.yul\":6047:6059   */\n      revert\n        /* \"#utility.yul\":6006:6061   */\n    tag_274:\n        /* \"#utility.yul\":6093:6095   */\n      dup2\n        /* \"#utility.yul\":6080:6096   */\n      calldataload\n        /* \"#utility.yul\":6116:6175   */\n      tag_275\n        /* \"#utility.yul\":6132:6174   */\n      tag_256\n        /* \"#utility.yul\":6171:6173   */\n      dup3\n        /* \"#utility.yul\":6132:6174   */\n      tag_211\n      jump\t// in\n        /* \"#utility.yul\":6116:6175   */\n    tag_275:\n        /* \"#utility.yul\":6209:6224   */\n      dup2\n      dup2\n      mstore\n        /* \"#utility.yul\":6291:6292   */\n      0x05\n        /* \"#utility.yul\":6287:6297   */\n      swap2\n      swap1\n      swap2\n      shl\n        /* \"#utility.yul\":6279:6298   */\n      dup4\n      add\n        /* \"#utility.yul\":6275:6303   */\n      dup5\n      add\n      swap1\n        /* \"#utility.yul\":6240:6252   */\n      dup5\n      dup2\n      add\n      swap1\n        /* \"#utility.yul\":6315:6334   */\n      dup9\n      dup4\n      gt\n        /* \"#utility.yul\":6312:6351   */\n      iszero\n      tag_277\n      jumpi\n        /* \"#utility.yul\":6347:6348   */\n      0x00\n        /* \"#utility.yul\":6344:6345   */\n      dup1\n        /* \"#utility.yul\":6337:6349   */\n      revert\n        /* \"#utility.yul\":6312:6351   */\n    tag_277:\n        /* \"#utility.yul\":6379:6381   */\n      dup6\n        /* \"#utility.yul\":6375:6377   */\n      dup6\n        /* \"#utility.yul\":6371:6382   */\n      add\n        /* \"#utility.yul\":6391:7538   */\n    tag_278:\n        /* \"#utility.yul\":6407:6413   */\n      dup4\n        /* \"#utility.yul\":6402:6405   */\n      dup2\n        /* \"#utility.yul\":6399:6414   */\n      lt\n        /* \"#utility.yul\":6391:7538   */\n      iszero\n      tag_260\n      jumpi\n        /* \"#utility.yul\":6493:6496   */\n      dup1\n        /* \"#utility.yul\":6480:6497   */\n      calldataload\n        /* \"#utility.yul\":6529:6531   */\n      dup6\n        /* \"#utility.yul\":6516:6527   */\n      dup2\n        /* \"#utility.yul\":6513:6532   */\n      gt\n        /* \"#utility.yul\":6510:6619   */\n      iszero\n      tag_281\n      jumpi\n        /* \"#utility.yul\":6573:6574   */\n      0x00\n        /* \"#utility.yul\":6602:6604   */\n      dup1\n        /* \"#utility.yul\":6598:6600   */\n      dup2\n        /* \"#utility.yul\":6591:6605   */\n      revert\n        /* \"#utility.yul\":6510:6619   */\n    tag_281:\n        /* \"#utility.yul\":6642:6662   */\n      dup7\n      add\n        /* \"#utility.yul\":6685:6689   */\n      0x40\n        /* \"#utility.yul\":6713:6729   */\n      dup2\n      dup13\n      sub\n        /* \"#utility.yul\":6731:6797   */\n      0xffffffffffffffffffffffffffffffffffffffffffffffffffffffffffffffe0\n        /* \"#utility.yul\":6709:6798   */\n      add\n        /* \"#utility.yul\":6705:6803   */\n      dup2\n      sgt\n        /* \"#utility.yul\":6702:6890   */\n      iszero\n      tag_282\n      jumpi\n        /* \"#utility.yul\":6844:6845   */\n      0x00\n        /* \"#utility.yul\":6873:6875   */\n      dup1\n        /* \"#utility.yul\":6869:6871   */\n      dup2\n        /* \"#utility.yul\":6862:6876   */\n      revert\n        /* \"#utility.yul\":6702:6890   */\n    tag_282:\n        /* \"#utility.yul\":6916:6938   */\n      tag_283\n      tag_208\n      jump\t// in\n    tag_283:\n        /* \"#utility.yul\":6988:6990   */\n      dup10\n        /* \"#utility.yul\":6984:6986   */\n      dup4\n        /* \"#utility.yul\":6980:6991   */\n      add\n        /* \"#utility.yul\":6967:6992   */\n      calldataload\n        /* \"#utility.yul\":7021:7023   */\n      dup9\n        /* \"#utility.yul\":7011:7019   */\n      dup2\n        /* \"#utility.yul\":7008:7024   */\n      gt\n        /* \"#utility.yul\":7005:7111   */\n      iszero\n      tag_284\n      jumpi\n        /* \"#utility.yul\":7065:7066   */\n      0x00\n        /* \"#utility.yul\":7094:7096   */\n      dup1\n        /* \"#utility.yul\":7090:7092   */\n      dup2\n        /* \"#utility.yul\":7083:7097   */\n      revert\n        /* \"#utility.yul\":7005:7111   */\n    tag_284:\n        /* \"#utility.yul\":7138:7192   */\n      tag_285\n        /* \"#utility.yul\":7184:7191   */\n      dup15\n        /* \"#utility.yul\":7179:7181   */\n      dup13\n        /* \"#utility.yul\":7168:7176   */\n      dup4\n        /* \"#utility.yul\":7164:7166   */\n      dup8\n        /* \"#utility.yul\":7160:7177   */\n      add\n        /* \"#utility.yul\":7156:7182   */\n      add\n        /* \"#utility.yul\":7138:7192   */\n      tag_210\n      jump\t// in\n    tag_285:\n        /* \"#utility.yul\":7124:7193   */\n      dup3\n      mstore\n      pop\n        /* \"#utility.yul\":7235:7246   */\n      swap1\n      dup3\n      add\n        /* \"#utility.yul\":7222:7247   */\n      calldataload\n      swap1\n        /* \"#utility.yul\":7263:7279   */\n      dup8\n      dup3\n      gt\n        /* \"#utility.yul\":7260:7369   */\n      iszero\n      tag_286\n      jumpi\n        /* \"#utility.yul\":7321:7322   */\n      0x00\n        /* \"#utility.yul\":7351:7354   */\n      dup1\n        /* \"#utility.yul\":7346:7349   */\n      dup2\n        /* \"#utility.yul\":7339:7355   */\n      revert\n        /* \"#utility.yul\":7260:7369   */\n    tag_286:\n        /* \"#utility.yul\":7405:7464   */\n      tag_287\n        /* \"#utility.yul\":7456:7463   */\n      dup14\n        /* \"#utility.yul\":7451:7453   */\n      dup12\n        /* \"#utility.yul\":7440:7448   */\n      dup5\n        /* \"#utility.yul\":7436:7438   */\n      dup7\n        /* \"#utility.yul\":7432:7449   */\n      add\n        /* \"#utility.yul\":7428:7454   */\n      add\n        /* \"#utility.yul\":7405:7464   */\n      tag_212\n      jump\t// in\n    tag_287:\n        /* \"#utility.yul\":7389:7403   */\n      dup2\n      dup12\n      add\n        /* \"#utility.yul\":7382:7465   */\n      mstore\n        /* \"#utility.yul\":7478:7496   */\n      dup6\n      mstore\n      pop\n      pop\n        /* \"#utility.yul\":7516:7528   */\n      swap2\n      dup7\n      add\n      swap2\n        /* \"#utility.yul\":6424:6436   */\n      dup7\n      add\n        /* \"#utility.yul\":6391:7538   */\n      jump(tag_278)\n        /* \"#utility.yul\":7573:8435   */\n    tag_35:\n        /* \"#utility.yul\":7735:7739   */\n      0x00\n        /* \"#utility.yul\":7764:7766   */\n      0x20\n        /* \"#utility.yul\":7804:7806   */\n      dup1\n        /* \"#utility.yul\":7793:7802   */\n      dup4\n        /* \"#utility.yul\":7789:7807   */\n      add\n        /* \"#utility.yul\":7834:7836   */\n      dup2\n        /* \"#utility.yul\":7823:7832   */\n      dup5\n        /* \"#utility.yul\":7816:7837   */\n      mstore\n        /* \"#utility.yul\":7857:7863   */\n      dup1\n        /* \"#utility.yul\":7892:7898   */\n      dup6\n        /* \"#utility.yul\":7886:7899   */\n      mload\n        /* \"#utility.yul\":7923:7929   */\n      dup1\n        /* \"#utility.yul\":7915:7921   */\n      dup4\n        /* \"#utility.yul\":7908:7930   */\n      mstore\n        /* \"#utility.yul\":7961:7963   */\n      0x40\n        /* \"#utility.yul\":7950:7959   */\n      dup7\n        /* \"#utility.yul\":7946:7964   */\n      add\n        /* \"#utility.yul\":7939:7964   */\n      swap2\n      pop\n        /* \"#utility.yul\":8023:8025   */\n      0x40\n        /* \"#utility.yul\":8013:8019   */\n      dup2\n        /* \"#utility.yul\":8010:8011   */\n      0x05\n        /* \"#utility.yul\":8006:8020   */\n      shl\n        /* \"#utility.yul\":7995:8004   */\n      dup8\n        /* \"#utility.yul\":7991:8021   */\n      add\n        /* \"#utility.yul\":7987:8026   */\n      add\n        /* \"#utility.yul\":7973:8026   */\n      swap3\n      pop\n        /* \"#utility.yul\":8061:8063   */\n      dup4\n        /* \"#utility.yul\":8053:8059   */\n      dup8\n        /* \"#utility.yul\":8049:8064   */\n      add\n        /* \"#utility.yul\":8082:8083   */\n      0x00\n        /* \"#utility.yul\":8092:8406   */\n    tag_289:\n        /* \"#utility.yul\":8106:8112   */\n      dup3\n        /* \"#utility.yul\":8103:8104   */\n      dup2\n        /* \"#utility.yul\":8100:8113   */\n      lt\n        /* \"#utility.yul\":8092:8406   */\n      iszero\n      tag_229\n      jumpi\n        /* \"#utility.yul\":8195:8261   */\n      0xffffffffffffffffffffffffffffffffffffffffffffffffffffffffffffffc0\n        /* \"#utility.yul\":8183:8192   */\n      dup9\n        /* \"#utility.yul\":8175:8181   */\n      dup7\n        /* \"#utility.yul\":8171:8193   */\n      sub\n        /* \"#utility.yul\":8167:8262   */\n      add\n        /* \"#utility.yul\":8162:8165   */\n      dup5\n        /* \"#utility.yul\":8155:8263   */\n      mstore\n        /* \"#utility.yul\":8286:8326   */\n      tag_292\n        /* \"#utility.yul\":8319:8325   */\n      dup6\n        /* \"#utility.yul\":8310:8316   */\n      dup4\n        /* \"#utility.yul\":8304:8317   */\n      mload\n        /* \"#utility.yul\":8286:8326   */\n      tag_206\n      jump\t// in\n    tag_292:\n        /* \"#utility.yul\":8276:8326   */\n      swap5\n      pop\n        /* \"#utility.yul\":8384:8396   */\n      swap3\n      dup6\n      add\n      swap3\n        /* \"#utility.yul\":8349:8364   */\n      swap1\n      dup6\n      add\n      swap1\n        /* \"#utility.yul\":8128:8129   */\n      0x01\n        /* \"#utility.yul\":8121:8130   */\n      add\n        /* \"#utility.yul\":8092:8406   */\n      jump(tag_289)\n        /* \"#utility.yul\":8440:8997   */\n    tag_38:\n        /* \"#utility.yul\":8537:8543   */\n      0x00\n        /* \"#utility.yul\":8545:8551   */\n      dup1\n        /* \"#utility.yul\":8598:8600   */\n      0x40\n        /* \"#utility.yul\":8586:8595   */\n      dup4\n        /* \"#utility.yul\":8577:8584   */\n      dup6\n        /* \"#utility.yul\":8573:8596   */\n      sub\n        /* \"#utility.yul\":8569:8601   */\n      slt\n        /* \"#utility.yul\":8566:8618   */\n      iszero\n      tag_294\n      jumpi\n        /* \"#utility.yul\":8614:8615   */\n      0x00\n        /* \"#utility.yul\":8611:8612   */\n      dup1\n        /* \"#utility.yul\":8604:8616   */\n      revert\n        /* \"#utility.yul\":8566:8618   */\n    tag_294:\n        /* \"#utility.yul\":8654:8663   */\n      dup3\n        /* \"#utility.yul\":8641:8664   */\n      calldataload\n        /* \"#utility.yul\":8683:8701   */\n      0xffffffffffffffff\n        /* \"#utility.yul\":8724:8726   */\n      dup1\n        /* \"#utility.yul\":8716:8722   */\n      dup3\n        /* \"#utility.yul\":8713:8727   */\n      gt\n        /* \"#utility.yul\":8710:8744   */\n      iszero\n      tag_295\n      jumpi\n        /* \"#utility.yul\":8740:8741   */\n      0x00\n        /* \"#utility.yul\":8737:8738   */\n      dup1\n        /* \"#utility.yul\":8730:8742   */\n      revert\n        /* \"#utility.yul\":8710:8744   */\n    tag_295:\n        /* \"#utility.yul\":8763:8813   */\n      tag_296\n        /* \"#utility.yul\":8805:8812   */\n      dup7\n        /* \"#utility.yul\":8796:8802   */\n      dup4\n        /* \"#utility.yul\":8785:8794   */\n      dup8\n        /* \"#utility.yul\":8781:8803   */\n      add\n        /* \"#utility.yul\":8763:8813   */\n      tag_210\n      jump\t// in\n    tag_296:\n        /* \"#utility.yul\":8753:8813   */\n      swap4\n      pop\n        /* \"#utility.yul\":8866:8868   */\n      0x20\n        /* \"#utility.yul\":8855:8864   */\n      dup6\n        /* \"#utility.yul\":8851:8869   */\n      add\n        /* \"#utility.yul\":8838:8870   */\n      calldataload\n        /* \"#utility.yul\":8822:8870   */\n      swap2\n      pop\n        /* \"#utility.yul\":8895:8897   */\n      dup1\n        /* \"#utility.yul\":8885:8893   */\n      dup3\n        /* \"#utility.yul\":8882:8898   */\n      gt\n        /* \"#utility.yul\":8879:8915   */\n      iszero\n      tag_297\n      jumpi\n        /* \"#utility.yul\":8911:8912   */\n      0x00\n        /* \"#utility.yul\":8908:8909   */\n      dup1\n        /* \"#utility.yul\":8901:8913   */\n      revert\n        /* \"#utility.yul\":8879:8915   */\n    tag_297:\n      pop\n        /* \"#utility.yul\":8934:8991   */\n      tag_298\n        /* \"#utility.yul\":8983:8990   */\n      dup6\n        /* \"#utility.yul\":8972:8980   */\n      dup3\n        /* \"#utility.yul\":8961:8970   */\n      dup7\n        /* \"#utility.yul\":8957:8981   */\n      add\n        /* \"#utility.yul\":8934:8991   */\n      tag_212\n      jump\t// in\n    tag_298:\n        /* \"#utility.yul\":8924:8991   */\n      swap2\n      pop\n      pop\n        /* \"#utility.yul\":8440:8997   */\n      swap3\n      pop\n      swap3\n      swap1\n      pop\n      jump\t// out\n        /* \"#utility.yul\":9002:9186   */\n    tag_54:\n        /* \"#utility.yul\":9054:9131   */\n      0x4e487b7100000000000000000000000000000000000000000000000000000000\n        /* \"#utility.yul\":9051:9052   */\n      0x00\n        /* \"#utility.yul\":9044:9132   */\n      mstore\n        /* \"#utility.yul\":9151:9155   */\n      0x32\n        /* \"#utility.yul\":9148:9149   */\n      0x04\n        /* \"#utility.yul\":9141:9156   */\n      mstore\n        /* \"#utility.yul\":9175:9179   */\n      0x24\n        /* \"#utility.yul\":9172:9173   */\n      0x00\n        /* \"#utility.yul\":9165:9180   */\n      revert\n        /* \"#utility.yul\":9191:9628   */\n    tag_57:\n        /* \"#utility.yul\":9270:9271   */\n      0x01\n        /* \"#utility.yul\":9266:9278   */\n      dup2\n      dup2\n      shr\n      swap1\n        /* \"#utility.yul\":9313:9325   */\n      dup3\n      and\n      dup1\n        /* \"#utility.yul\":9334:9395   */\n      tag_301\n      jumpi\n        /* \"#utility.yul\":9388:9392   */\n      0x7f\n        /* \"#utility.yul\":9380:9386   */\n      dup3\n        /* \"#utility.yul\":9376:9393   */\n      and\n        /* \"#utility.yul\":9366:9393   */\n      swap2\n      pop\n        /* \"#utility.yul\":9334:9395   */\n    tag_301:\n        /* \"#utility.yul\":9441:9443   */\n      0x20\n        /* \"#utility.yul\":9433:9439   */\n      dup3\n        /* \"#utility.yul\":9430:9444   */\n      lt\n        /* \"#utility.yul\":9410:9428   */\n      dup2\n        /* \"#utility.yul\":9407:9445   */\n      sub\n        /* \"#utility.yul\":9404:9622   */\n      tag_49\n      jumpi\n        /* \"#utility.yul\":9478:9555   */\n      0x4e487b7100000000000000000000000000000000000000000000000000000000\n        /* \"#utility.yul\":9475:9476   */\n      0x00\n        /* \"#utility.yul\":9468:9556   */\n      mstore\n        /* \"#utility.yul\":9579:9583   */\n      0x22\n        /* \"#utility.yul\":9576:9577   */\n      0x04\n        /* \"#utility.yul\":9569:9584   */\n      mstore\n        /* \"#utility.yul\":9607:9611   */\n      0x24\n        /* \"#utility.yul\":9604:9605   */\n      0x00\n        /* \"#utility.yul\":9597:9612   */\n      revert\n        /* \"#utility.yul\":9633:9817   */\n    tag_213:\n        /* \"#utility.yul\":9685:9762   */\n      0x4e487b7100000000000000000000000000000000000000000000000000000000\n        /* \"#utility.yul\":9682:9683   */\n      0x00\n        /* \"#utility.yul\":9675:9763   */\n      mstore\n        /* \"#utility.yul\":9782:9786   */\n      0x11\n        /* \"#utility.yul\":9779:9780   */\n      0x04\n        /* \"#utility.yul\":9772:9787   */\n      mstore\n        /* \"#utility.yul\":9806:9810   */\n      0x24\n        /* \"#utility.yul\":9803:9804   */\n      0x00\n        /* \"#utility.yul\":9796:9811   */\n      revert\n        /* \"#utility.yul\":9822:10017   */\n    tag_66:\n        /* \"#utility.yul\":9861:9864   */\n      0x00\n        /* \"#utility.yul\":9892:9958   */\n      0xffffffffffffffffffffffffffffffffffffffffffffffffffffffffffffffff\n        /* \"#utility.yul\":9885:9890   */\n      dup3\n        /* \"#utility.yul\":9882:9959   */\n      sub\n        /* \"#utility.yul\":9879:9982   */\n      tag_306\n      jumpi\n        /* \"#utility.yul\":9962:9980   */\n      tag_306\n      tag_213\n      jump\t// in\n    tag_306:\n      pop\n        /* \"#utility.yul\":10009:10010   */\n      0x01\n        /* \"#utility.yul\":9998:10011   */\n      add\n      swap1\n        /* \"#utility.yul\":9822:10017   */\n      jump\t// out\n        /* \"#utility.yul\":11028:11317   */\n    tag_116:\n        /* \"#utility.yul\":11159:11162   */\n      0x00\n        /* \"#utility.yul\":11197:11203   */\n      dup3\n        /* \"#utility.yul\":11191:11204   */\n      mload\n        /* \"#utility.yul\":11213:11279   */\n      tag_311\n        /* \"#utility.yul\":11272:11278   */\n      dup2\n        /* \"#utility.yul\":11267:11270   */\n      dup5\n        /* \"#utility.yul\":11260:11264   */\n      0x20\n        /* \"#utility.yul\":11252:11258   */\n      dup8\n        /* \"#utility.yul\":11248:11265   */\n      add\n        /* \"#utility.yul\":11213:11279   */\n      tag_205\n      jump\t// in\n    tag_311:\n        /* \"#utility.yul\":11295:11311   */\n      swap2\n      swap1\n      swap2\n      add\n      swap3\n        /* \"#utility.yul\":11028:11317   */\n      swap2\n      pop\n      pop\n      jump\t// out\n        /* \"#utility.yul\":12121:13021   */\n    tag_146:\n        /* \"#utility.yul\":12249:12252   */\n      0x00\n        /* \"#utility.yul\":12278:12279   */\n      dup1\n        /* \"#utility.yul\":12311:12317   */\n      dup4\n        /* \"#utility.yul\":12305:12318   */\n      sload\n        /* \"#utility.yul\":12341:12377   */\n      tag_316\n        /* \"#utility.yul\":12367:12376   */\n      dup2\n        /* \"#utility.yul\":12341:12377   */\n      tag_57\n      jump\t// in\n    tag_316:\n        /* \"#utility.yul\":12396:12397   */\n      0x01\n        /* \"#utility.yul\":12413:12431   */\n      dup3\n      dup2\n      and\n        /* \"#utility.yul\":12440:12631   */\n      dup1\n      iszero\n      tag_318\n      jumpi\n        /* \"#utility.yul\":12645:12646   */\n      0x01\n        /* \"#utility.yul\":12640:12996   */\n      dup2\n      eq\n      tag_319\n      jumpi\n        /* \"#utility.yul\":12406:12996   */\n      jump(tag_317)\n        /* \"#utility.yul\":12440:12631   */\n    tag_318:\n        /* \"#utility.yul\":12488:12554   */\n      0xffffffffffffffffffffffffffffffffffffffffffffffffffffffffffffff00\n        /* \"#utility.yul\":12477:12486   */\n      dup5\n        /* \"#utility.yul\":12473:12555   */\n      and\n        /* \"#utility.yul\":12468:12471   */\n      dup8\n        /* \"#utility.yul\":12461:12556   */\n      mstore\n        /* \"#utility.yul\":12611:12617   */\n      dup3\n        /* \"#utility.yul\":12604:12618   */\n      iszero\n        /* \"#utility.yul\":12597:12619   */\n      iszero\n        /* \"#utility.yul\":12589:12595   */\n      dup4\n        /* \"#utility.yul\":12585:12620   */\n      mul\n        /* \"#utility.yul\":12580:12583   */\n      dup8\n        /* \"#utility.yul\":12576:12621   */\n      add\n        /* \"#utility.yul\":12569:12621   */\n      swap5\n      pop\n        /* \"#utility.yul\":12440:12631   */\n      jump(tag_317)\n        /* \"#utility.yul\":12640:12996   */\n    tag_319:\n        /* \"#utility.yul\":12671:12677   */\n      dup8\n        /* \"#utility.yul\":12668:12669   */\n      0x00\n        /* \"#utility.yul\":12661:12678   */\n      mstore\n        /* \"#utility.yul\":12701:12705   */\n      0x20\n        /* \"#utility.yul\":12746:12748   */\n      dup1\n        /* \"#utility.yul\":12743:12744   */\n      0x00\n        /* \"#utility.yul\":12733:12749   */\n      keccak256\n        /* \"#utility.yul\":12771:12772   */\n      0x00\n        /* \"#utility.yul\":12785:12950   */\n    tag_320:\n        /* \"#utility.yul\":12799:12805   */\n      dup6\n        /* \"#utility.yul\":12796:12797   */\n      dup2\n        /* \"#utility.yul\":12793:12806   */\n      lt\n        /* \"#utility.yul\":12785:12950   */\n      iszero\n      tag_322\n      jumpi\n        /* \"#utility.yul\":12877:12891   */\n      dup2\n      sload\n        /* \"#utility.yul\":12864:12875   */\n      dup11\n      dup3\n      add\n        /* \"#utility.yul\":12857:12892   */\n      mstore\n        /* \"#utility.yul\":12920:12936   */\n      swap1\n      dup5\n      add\n      swap1\n        /* \"#utility.yul\":12814:12824   */\n      dup3\n      add\n        /* \"#utility.yul\":12785:12950   */\n      jump(tag_320)\n    tag_322:\n        /* \"#utility.yul\":12789:12792   */\n      pop\n      pop\n      pop\n        /* \"#utility.yul\":12979:12985   */\n      dup3\n        /* \"#utility.yul\":12974:12977   */\n      dup8\n        /* \"#utility.yul\":12970:12986   */\n      add\n        /* \"#utility.yul\":12963:12986   */\n      swap5\n      pop\n        /* \"#utility.yul\":12406:12996   */\n    tag_317:\n      pop\n        /* \"#utility.yul\":13012:13015   */\n      swap3\n      swap7\n        /* \"#utility.yul\":12121:13021   */\n      swap6\n      pop\n      pop\n      pop\n      pop\n      pop\n      pop\n      jump\t// out\n        /* \"#utility.yul\":13026:13210   */\n    tag_150:\n        /* \"#utility.yul\":13078:13155   */\n      0x4e487b7100000000000000000000000000000000000000000000000000000000\n        /* \"#utility.yul\":13075:13076   */\n      0x00\n        /* \"#utility.yul\":13068:13156   */\n      mstore\n        /* \"#utility.yul\":13175:13179   */\n      0x31\n        /* \"#utility.yul\":13172:13173   */\n      0x04\n        /* \"#utility.yul\":13165:13180   */\n      mstore\n        /* \"#utility.yul\":13199:13203   */\n      0x24\n        /* \"#utility.yul\":13196:13197   */\n      0x00\n        /* \"#utility.yul\":13189:13204   */\n      revert\n        /* \"#utility.yul\":13215:13343   */\n    tag_158:\n        /* \"#utility.yul\":13282:13291   */\n      dup2\n      dup2\n      sub\n        /* \"#utility.yul\":13303:13314   */\n      dup2\n      dup2\n      gt\n        /* \"#utility.yul\":13300:13337   */\n      iszero\n      tag_83\n      jumpi\n        /* \"#utility.yul\":13317:13335   */\n      tag_83\n      tag_213\n      jump\t// in\n        /* \"#utility.yul\":13348:13473   */\n    tag_167:\n        /* \"#utility.yul\":13413:13422   */\n      dup1\n      dup3\n      add\n        /* \"#utility.yul\":13434:13444   */\n      dup1\n      dup3\n      gt\n        /* \"#utility.yul\":13431:13467   */\n      iszero\n      tag_83\n      jumpi\n        /* \"#utility.yul\":13447:13465   */\n      tag_83\n      tag_213\n      jump\t// in\n        /* \"#utility.yul\":13478:14023   */\n    tag_215:\n        /* \"#utility.yul\":13580:13582   */\n      0x1f\n        /* \"#utility.yul\":13575:13578   */\n      dup3\n        /* \"#utility.yul\":13572:13583   */\n      gt\n        /* \"#utility.yul\":13569:14017   */\n      iszero\n      tag_331\n      jumpi\n        /* \"#utility.yul\":13616:13617   */\n      0x00\n        /* \"#utility.yul\":13641:13646   */\n      dup2\n        /* \"#utility.yul\":13637:13639   */\n      dup2\n        /* \"#utility.yul\":13630:13647   */\n      mstore\n        /* \"#utility.yul\":13686:13690   */\n      0x20\n        /* \"#utility.yul\":13682:13684   */\n      dup2\n        /* \"#utility.yul\":13672:13691   */\n      keccak256\n        /* \"#utility.yul\":13756:13758   */\n      0x1f\n        /* \"#utility.yul\":13744:13754   */\n      dup6\n        /* \"#utility.yul\":13740:13759   */\n      add\n        /* \"#utility.yul\":13737:13738   */\n      0x05\n        /* \"#utility.yul\":13733:13760   */\n      shr\n        /* \"#utility.yul\":13727:13731   */\n      dup2\n        /* \"#utility.yul\":13723:13761   */\n      add\n        /* \"#utility.yul\":13792:13796   */\n      0x20\n        /* \"#utility.yul\":13780:13790   */\n      dup7\n        /* \"#utility.yul\":13777:13797   */\n      lt\n        /* \"#utility.yul\":13774:13821   */\n      iszero\n      tag_332\n      jumpi\n      pop\n        /* \"#utility.yul\":13815:13819   */\n      dup1\n        /* \"#utility.yul\":13774:13821   */\n    tag_332:\n        /* \"#utility.yul\":13870:13872   */\n      0x1f\n        /* \"#utility.yul\":13865:13868   */\n      dup6\n        /* \"#utility.yul\":13861:13873   */\n      add\n        /* \"#utility.yul\":13858:13859   */\n      0x05\n        /* \"#utility.yul\":13854:13874   */\n      shr\n        /* \"#utility.yul\":13848:13852   */\n      dup3\n        /* \"#utility.yul\":13844:13875   */\n      add\n        /* \"#utility.yul\":13834:13875   */\n      swap2\n      pop\n        /* \"#utility.yul\":13925:14007   */\n    tag_333:\n        /* \"#utility.yul\":13943:13945   */\n      dup2\n        /* \"#utility.yul\":13936:13941   */\n      dup2\n        /* \"#utility.yul\":13933:13946   */\n      lt\n        /* \"#utility.yul\":13925:14007   */\n      iszero\n      tag_335\n      jumpi\n        /* \"#utility.yul\":13988:14005   */\n      dup3\n      dup2\n      sstore\n        /* \"#utility.yul\":13969:13970   */\n      0x01\n        /* \"#utility.yul\":13958:13971   */\n      add\n        /* \"#utility.yul\":13925:14007   */\n      jump(tag_333)\n    tag_335:\n        /* \"#utility.yul\":13929:13932   */\n      pop\n      pop\n      pop\n        /* \"#utility.yul\":13569:14017   */\n    tag_331:\n        /* \"#utility.yul\":13478:14023   */\n      pop\n      pop\n      pop\n      jump\t// out\n        /* \"#utility.yul\":14259:15813   */\n    tag_175:\n        /* \"#utility.yul\":14378:14381   */\n      dup2\n        /* \"#utility.yul\":14372:14376   */\n      dup2\n        /* \"#utility.yul\":14369:14382   */\n      sub\n        /* \"#utility.yul\":14366:14392   */\n      tag_338\n      jumpi\n        /* \"#utility.yul\":14385:14390   */\n      pop\n      pop\n        /* \"#utility.yul\":14259:15813   */\n      jump\t// out\n        /* \"#utility.yul\":14366:14392   */\n    tag_338:\n        /* \"#utility.yul\":14415:14452   */\n      tag_339\n        /* \"#utility.yul\":14447:14450   */\n      dup3\n        /* \"#utility.yul\":14441:14451   */\n      sload\n        /* \"#utility.yul\":14415:14452   */\n      tag_57\n      jump\t// in\n    tag_339:\n        /* \"#utility.yul\":14475:14493   */\n      0xffffffffffffffff\n        /* \"#utility.yul\":14467:14473   */\n      dup2\n        /* \"#utility.yul\":14464:14494   */\n      gt\n        /* \"#utility.yul\":14461:14517   */\n      iszero\n      tag_341\n      jumpi\n        /* \"#utility.yul\":14497:14515   */\n      tag_341\n      tag_43\n      jump\t// in\n    tag_341:\n        /* \"#utility.yul\":14526:14623   */\n      tag_342\n        /* \"#utility.yul\":14616:14622   */\n      dup2\n        /* \"#utility.yul\":14576:14614   */\n      tag_343\n        /* \"#utility.yul\":14608:14612   */\n      dup5\n        /* \"#utility.yul\":14602:14613   */\n      sload\n        /* \"#utility.yul\":14576:14614   */\n      tag_57\n      jump\t// in\n    tag_343:\n        /* \"#utility.yul\":14570:14574   */\n      dup5\n        /* \"#utility.yul\":14526:14623   */\n      tag_215\n      jump\t// in\n    tag_342:\n        /* \"#utility.yul\":14649:14650   */\n      0x00\n        /* \"#utility.yul\":14677:14679   */\n      0x1f\n        /* \"#utility.yul\":14669:14675   */\n      dup3\n        /* \"#utility.yul\":14666:14680   */\n      gt\n        /* \"#utility.yul\":14694:14695   */\n      0x01\n        /* \"#utility.yul\":14689:15556   */\n      dup2\n      eq\n      tag_345\n      jumpi\n        /* \"#utility.yul\":15600:15601   */\n      0x00\n        /* \"#utility.yul\":15617:15623   */\n      dup4\n        /* \"#utility.yul\":15614:15703   */\n      iszero\n      tag_346\n      jumpi\n      pop\n        /* \"#utility.yul\":15669:15688   */\n      dup5\n      dup3\n      add\n        /* \"#utility.yul\":15663:15689   */\n      sload\n        /* \"#utility.yul\":15614:15703   */\n    tag_346:\n        /* \"#utility.yul\":14165:14231   */\n      0xffffffffffffffffffffffffffffffffffffffffffffffffffffffffffffffff\n        /* \"#utility.yul\":14156:14157   */\n      0x03\n        /* \"#utility.yul\":14152:14163   */\n      dup6\n      swap1\n      shl\n        /* \"#utility.yul\":14148:14232   */\n      shr\n        /* \"#utility.yul\":14144:14233   */\n      not\n        /* \"#utility.yul\":14134:14234   */\n      and\n        /* \"#utility.yul\":14240:14241   */\n      0x01\n        /* \"#utility.yul\":14236:14247   */\n      dup5\n      swap1\n      shl\n        /* \"#utility.yul\":14131:14248   */\n      or\n        /* \"#utility.yul\":15716:15797   */\n      dup5\n      sstore\n        /* \"#utility.yul\":14659:15807   */\n      jump(tag_177)\n        /* \"#utility.yul\":14689:15556   */\n    tag_345:\n        /* \"#utility.yul\":12068:12069   */\n      0x00\n        /* \"#utility.yul\":12061:12075   */\n      dup6\n      dup2\n      mstore\n        /* \"#utility.yul\":12105:12109   */\n      0x20\n        /* \"#utility.yul\":12092:12110   */\n      swap1\n      keccak256\n        /* \"#utility.yul\":14737:14803   */\n      0xffffffffffffffffffffffffffffffffffffffffffffffffffffffffffffffe0\n        /* \"#utility.yul\":14725:14804   */\n      dup5\n      and\n      swap1\n        /* \"#utility.yul\":12068:12069   */\n      0x00\n        /* \"#utility.yul\":12061:12075   */\n      dup7\n      dup2\n      mstore\n        /* \"#utility.yul\":12105:12109   */\n      0x20\n        /* \"#utility.yul\":12092:12110   */\n      swap1\n      keccak256\n        /* \"#utility.yul\":14948:14957   */\n      dup5\n        /* \"#utility.yul\":14970:15221   */\n    tag_350:\n        /* \"#utility.yul\":14984:14991   */\n      dup4\n        /* \"#utility.yul\":14981:14982   */\n      dup2\n        /* \"#utility.yul\":14978:14992   */\n      lt\n        /* \"#utility.yul\":14970:15221   */\n      iszero\n      tag_352\n      jumpi\n        /* \"#utility.yul\":15066:15087   */\n      dup3\n      dup7\n      add\n        /* \"#utility.yul\":15060:15088   */\n      sload\n        /* \"#utility.yul\":15045:15089   */\n      dup3\n      sstore\n        /* \"#utility.yul\":15116:15117   */\n      0x01\n        /* \"#utility.yul\":15189:15207   */\n      swap6\n      dup7\n      add\n      swap6\n        /* \"#utility.yul\":15144:15159   */\n      swap1\n      swap2\n      add\n      swap1\n        /* \"#utility.yul\":15007:15011   */\n      0x20\n        /* \"#utility.yul\":15000:15012   */\n      add\n        /* \"#utility.yul\":14970:15221   */\n      jump(tag_350)\n    tag_352:\n        /* \"#utility.yul\":14974:14977   */\n      pop\n        /* \"#utility.yul\":15249:15255   */\n      dup6\n        /* \"#utility.yul\":15240:15247   */\n      dup4\n        /* \"#utility.yul\":15237:15256   */\n      lt\n        /* \"#utility.yul\":15234:15497   */\n      iszero\n      tag_353\n      jumpi\n        /* \"#utility.yul\":15310:15331   */\n      dup2\n      dup6\n      add\n        /* \"#utility.yul\":15304:15332   */\n      sload\n        /* \"#utility.yul\":15413:15479   */\n      0xffffffffffffffffffffffffffffffffffffffffffffffffffffffffffffffff\n        /* \"#utility.yul\":15395:15396   */\n      0x03\n        /* \"#utility.yul\":15391:15405   */\n      dup9\n      swap1\n      shl\n        /* \"#utility.yul\":15407:15410   */\n      0xf8\n        /* \"#utility.yul\":15387:15411   */\n      and\n        /* \"#utility.yul\":15383:15480   */\n      shr\n        /* \"#utility.yul\":15379:15481   */\n      not\n        /* \"#utility.yul\":15364:15482   */\n      and\n        /* \"#utility.yul\":15349:15483   */\n      dup2\n      sstore\n        /* \"#utility.yul\":15234:15497   */\n    tag_353:\n      pop\n      pop\n      pop\n      pop\n      pop\n        /* \"#utility.yul\":15543:15544   */\n      0x01\n        /* \"#utility.yul\":15527:15541   */\n      swap1\n      dup2\n      shl\n        /* \"#utility.yul\":15523:15545   */\n      add\n        /* \"#utility.yul\":15510:15546   */\n      swap1\n      sstore\n      pop\n        /* \"#utility.yul\":14259:15813   */\n      jump\t// out\n        /* \"#utility.yul\":15818:17289   */\n    tag_194:\n        /* \"#utility.yul\":15944:15947   */\n      dup2\n        /* \"#utility.yul\":15938:15948   */\n      mload\n        /* \"#utility.yul\":15971:15989   */\n      0xffffffffffffffff\n        /* \"#utility.yul\":15963:15969   */\n      dup2\n        /* \"#utility.yul\":15960:15990   */\n      gt\n        /* \"#utility.yul\":15957:16013   */\n      iszero\n      tag_356\n      jumpi\n        /* \"#utility.yul\":15993:16011   */\n      tag_356\n      tag_43\n      jump\t// in\n    tag_356:\n        /* \"#utility.yul\":16022:16119   */\n      tag_357\n        /* \"#utility.yul\":16112:16118   */\n      dup2\n        /* \"#utility.yul\":16072:16110   */\n      tag_343\n        /* \"#utility.yul\":16104:16108   */\n      dup5\n        /* \"#utility.yul\":16098:16109   */\n      sload\n        /* \"#utility.yul\":16072:16110   */\n      tag_57\n      jump\t// in\n        /* \"#utility.yul\":16022:16119   */\n    tag_357:\n        /* \"#utility.yul\":16174:16178   */\n      0x20\n      dup1\n        /* \"#utility.yul\":16238:16240   */\n      0x1f\n        /* \"#utility.yul\":16227:16241   */\n      dup4\n      gt\n        /* \"#utility.yul\":16255:16256   */\n      0x01\n        /* \"#utility.yul\":16250:17032   */\n      dup2\n      eq\n      tag_360\n      jumpi\n        /* \"#utility.yul\":17076:17077   */\n      0x00\n        /* \"#utility.yul\":17093:17099   */\n      dup5\n        /* \"#utility.yul\":17090:17179   */\n      iszero\n      tag_361\n      jumpi\n      pop\n        /* \"#utility.yul\":17145:17164   */\n      dup6\n      dup4\n      add\n        /* \"#utility.yul\":17139:17165   */\n      mload\n        /* \"#utility.yul\":17090:17179   */\n    tag_361:\n        /* \"#utility.yul\":14165:14231   */\n      0xffffffffffffffffffffffffffffffffffffffffffffffffffffffffffffffff\n        /* \"#utility.yul\":14156:14157   */\n      0x03\n        /* \"#utility.yul\":14152:14163   */\n      dup7\n      swap1\n      shl\n        /* \"#utility.yul\":14148:14232   */\n      shr\n        /* \"#utility.yul\":14144:14233   */\n      not\n        /* \"#utility.yul\":14134:14234   */\n      and\n        /* \"#utility.yul\":14240:14241   */\n      0x01\n        /* \"#utility.yul\":14236:14247   */\n      dup6\n      swap1\n      shl\n        /* \"#utility.yul\":14131:14248   */\n      or\n        /* \"#utility.yul\":17192:17273   */\n      dup6\n      sstore\n        /* \"#utility.yul\":16220:17283   */\n      jump(tag_335)\n        /* \"#utility.yul\":16250:17032   */\n    tag_360:\n        /* \"#utility.yul\":12068:12069   */\n      0x00\n        /* \"#utility.yul\":12061:12075   */\n      dup6\n      dup2\n      mstore\n        /* \"#utility.yul\":12105:12109   */\n      0x20\n        /* \"#utility.yul\":12092:12110   */\n      dup2\n      keccak256\n        /* \"#utility.yul\":16298:16364   */\n      0xffffffffffffffffffffffffffffffffffffffffffffffffffffffffffffffe0\n        /* \"#utility.yul\":16286:16365   */\n      dup7\n      and\n      swap2\n        /* \"#utility.yul\":16463:16699   */\n    tag_364:\n        /* \"#utility.yul\":16477:16484   */\n      dup3\n        /* \"#utility.yul\":16474:16475   */\n      dup2\n        /* \"#utility.yul\":16471:16485   */\n      lt\n        /* \"#utility.yul\":16463:16699   */\n      iszero\n      tag_366\n      jumpi\n        /* \"#utility.yul\":16566:16585   */\n      dup9\n      dup7\n      add\n        /* \"#utility.yul\":16560:16586   */\n      mload\n        /* \"#utility.yul\":16545:16587   */\n      dup3\n      sstore\n        /* \"#utility.yul\":16658:16685   */\n      swap5\n      dup5\n      add\n      swap5\n        /* \"#utility.yul\":16626:16627   */\n      0x01\n        /* \"#utility.yul\":16614:16628   */\n      swap1\n      swap2\n      add\n      swap1\n        /* \"#utility.yul\":16493:16512   */\n      dup5\n      add\n        /* \"#utility.yul\":16463:16699   */\n      jump(tag_364)\n    tag_366:\n        /* \"#utility.yul\":16467:16470   */\n      pop\n        /* \"#utility.yul\":16727:16733   */\n      dup6\n        /* \"#utility.yul\":16718:16725   */\n      dup3\n        /* \"#utility.yul\":16715:16734   */\n      lt\n        /* \"#utility.yul\":16712:16973   */\n      iszero\n      tag_353\n      jumpi\n        /* \"#utility.yul\":16788:16807   */\n      swap4\n      swap1\n      swap7\n      add\n        /* \"#utility.yul\":16782:16808   */\n      mload\n        /* \"#utility.yul\":16889:16955   */\n      0xffffffffffffffffffffffffffffffffffffffffffffffffffffffffffffffff\n        /* \"#utility.yul\":16883:16886   */\n      0xf8\n        /* \"#utility.yul\":16871:16872   */\n      0x03\n        /* \"#utility.yul\":16867:16881   */\n      dup8\n      swap1\n      shl\n        /* \"#utility.yul\":16863:16887   */\n      and\n        /* \"#utility.yul\":16859:16956   */\n      shr\n        /* \"#utility.yul\":16855:16957   */\n      not\n        /* \"#utility.yul\":16840:16958   */\n      and\n        /* \"#utility.yul\":16825:16959   */\n      swap1\n      swap3\n      sstore\n      pop\n      pop\n        /* \"#utility.yul\":17019:17020   */\n      0x01\n        /* \"#utility.yul\":17003:17017   */\n      swap1\n      dup2\n      shl\n        /* \"#utility.yul\":16999:17021   */\n      add\n        /* \"#utility.yul\":16986:17022   */\n      swap1\n      sstore\n      pop\n        /* \"#utility.yul\":15818:17289   */\n      jump\t// out\n\n    auxdata: 0xa2646970667358221220683f87a0d25770e4820cc223c2ddb460bef956165a131bf56bfef08c18e31d2164736f6c63430008120033\n}\n",
				"bytecode": {
					"linkReferences": {},
					"object": "608060405234801561001057600080fd5b506117c7806100206000396000f3fe608060405234801561001057600080fd5b506004361061007d5760003560e01c8063ae55c8881161005b578063ae55c888146100c8578063be05133c146100e8578063cb965ae9146100fb578063f14805c31461011057600080fd5b806311d881b11461008257806328ce8638146100a0578063ac193f1a146100b5575b600080fd5b61008a610123565b6040516100979190610dcb565b60405180910390f35b6100b36100ae366004610f80565b61027e565b005b6100b36100c3366004610fd9565b61028a565b6100db6100d6366004610f80565b61033e565b604051610097919061108f565b6100b36100f636600461111d565b610362565b61010361042f565b604051610097919061123a565b6100b361011e3660046112ad565b610508565b60015460609060009067ffffffffffffffff81111561014457610144610e4b565b60405190808252806020026020018201604052801561018a57816020015b6040805180820190915260008152606060208201528152602001906001900390816101625790505b50905060005b60015481101561027857610248600182815481106101b0576101b0611311565b9060005260206000200180546101c590611340565b80601f01602080910402602001604051908101604052809291908181526020018280546101f190611340565b801561023e5780601f106102135761010080835404028352916020019161023e565b820191906000526020600020905b81548152906001019060200180831161022157829003601f168201915b5050505050610512565b82828151811061025a5761025a611311565b60200260200101819052508080610270906113bc565b915050610190565b50919050565b61028781610693565b50565b60008151116102fa576040517f08c379a000000000000000000000000000000000000000000000000000000000815260206004820152600760248201527f4e4f5f4b4559530000000000000000000000000000000000000000000000000060448201526064015b60405180910390fd5b60005b815181101561033a5761032882828151811061031b5761031b611311565b6020026020010151610693565b80610332816113bc565b9150506102fd565b5050565b60408051808201909152600081526060602082015261035c82610512565b92915050565b60008151116103cd576040517f08c379a000000000000000000000000000000000000000000000000000000000815260206004820152600760248201527f4e4f5f444154410000000000000000000000000000000000000000000000000060448201526064016102f1565b60005b815181101561033a5761041d8282815181106103ee576103ee611311565b60200260200101516000015183838151811061040c5761040c611311565b602002602001015160200151610a9a565b80610427816113bc565b9150506103d0565b60606001805480602002602001604051908101604052809291908181526020016000905b828210156104ff57838290600052602060002001805461047290611340565b80601f016020809104026020016040519081016040528092919081815260200182805461049e90611340565b80156104eb5780601f106104c0576101008083540402835291602001916104eb565b820191906000526020600020905b8154815290600101906020018083116104ce57829003601f168201915b505050505081526020019060010190610453565b50505050905090565b61033a8282610a9a565b604080518082019091526000815260606020820152815182908190600003610596576040517f08c379a000000000000000000000000000000000000000000000000000000000815260206004820152600860248201527f4e4f5f56414c554500000000000000000000000000000000000000000000000060448201526064016102f1565b60405180604001604052806000866040516105b191906113f4565b90815260408051602092819003830190205473ffffffffffffffffffffffffffffffffffffffff168352519101906000906105ed9088906113f4565b9081526020016040518091039020600101805461060990611340565b80601f016020809104026020016040519081016040528092919081815260200182805461063590611340565b80156106825780601f1061065757610100808354040283529160200191610682565b820191906000526020600020905b81548152906001019060200180831161066557829003601f168201915b505050505081525092505050919050565b805181908190600003610702576040517f08c379a000000000000000000000000000000000000000000000000000000000815260206004820152600860248201527f4e4f5f56414c554500000000000000000000000000000000000000000000000060448201526064016102f1565b82600073ffffffffffffffffffffffffffffffffffffffff1660008260405161072b91906113f4565b9081526040519081900360200190205473ffffffffffffffffffffffffffffffffffffffff16036107b8576040517f08c379a000000000000000000000000000000000000000000000000000000000815260206004820152600860248201527f4e4f5f4f574e455200000000000000000000000000000000000000000000000060448201526064016102f1565b6000816040516107c891906113f4565b908152604051908190036020019020543373ffffffffffffffffffffffffffffffffffffffff90911614610858576040517f08c379a000000000000000000000000000000000000000000000000000000000815260206004820152600960248201527f464f5242494444454e000000000000000000000000000000000000000000000060448201526064016102f1565b60008460405161086891906113f4565b90815260405190819003602001902080547fffffffffffffffffffffffff000000000000000000000000000000000000000016815560006108ac6001830182610cd2565b505060015415610a945760018054900361096557836040516020016108d191906113f4565b6040516020818303038152906040528051906020012060016000815481106108fb576108fb611311565b906000526020600020016040516020016109159190611410565b6040516020818303038152906040528051906020012003610960576001805480610941576109416114a4565b60019003818190600052602060002001600061095d9190610cd2565b90555b610a94565b6000805b6001805461097791906114d3565b811015610a5b578560405160200161098f91906113f4565b60405160208183030381529060405280519060200120600182815481106109b8576109b8611311565b906000526020600020016040516020016109d29190611410565b60405160208183030381529060405280519060200120036109f257600191505b8115610a49576001610a0482826114e6565b81548110610a1457610a14611311565b9060005260206000200160018281548110610a3157610a31611311565b906000526020600020019081610a479190611548565b505b80610a53816113bc565b915050610969565b508015610a92576001805480610a7357610a736114a4565b600190038181906000526020600020016000610a8f9190610cd2565b90555b505b50505050565b815182908190600003610b09576040517f08c379a000000000000000000000000000000000000000000000000000000000815260206004820152600860248201527f4e4f5f56414c554500000000000000000000000000000000000000000000000060448201526064016102f1565b600073ffffffffffffffffffffffffffffffffffffffff16600085604051610b3191906113f4565b9081526040519081900360200190205473ffffffffffffffffffffffffffffffffffffffff1614610c0157600084604051610b6c91906113f4565b908152604051908190036020019020543373ffffffffffffffffffffffffffffffffffffffff90911614610bfc576040517f08c379a000000000000000000000000000000000000000000000000000000000815260206004820152600960248201527f464f5242494444454e000000000000000000000000000000000000000000000060448201526064016102f1565b610c3e565b6001805480820182556000919091527fb10e2d527612073b26eecdfd717e6a320cf44b4afac2b0732d9fcbe2b7fa0cf601610c3c858261167f565b505b8251604051600090610c519087906113f4565b908152602001604051809103902060000160006101000a81548173ffffffffffffffffffffffffffffffffffffffff021916908373ffffffffffffffffffffffffffffffffffffffff1602179055508260200151600085604051610cb591906113f4565b90815260200160405180910390206001019081610a92919061167f565b508054610cde90611340565b6000825580601f10610cee575050565b601f01602090049060005260206000209081019061028791905b80821115610d1c5760008155600101610d08565b5090565b60005b83811015610d3b578181015183820152602001610d23565b50506000910152565b60008151808452610d5c816020860160208601610d20565b601f017fffffffffffffffffffffffffffffffffffffffffffffffffffffffffffffffe0169290920160200192915050565b73ffffffffffffffffffffffffffffffffffffffff81511682526000602082015160406020850152610dc36040850182610d44565b949350505050565b6000602080830181845280855180835260408601915060408160051b870101925083870160005b82811015610e3e577fffffffffffffffffffffffffffffffffffffffffffffffffffffffffffffffc0888603018452610e2c858351610d8e565b94509285019290850190600101610df2565b5092979650505050505050565b7f4e487b7100000000000000000000000000000000000000000000000000000000600052604160045260246000fd5b6040805190810167ffffffffffffffff81118282101715610e9d57610e9d610e4b565b60405290565b604051601f82017fffffffffffffffffffffffffffffffffffffffffffffffffffffffffffffffe016810167ffffffffffffffff81118282101715610eea57610eea610e4b565b604052919050565b600082601f830112610f0357600080fd5b813567ffffffffffffffff811115610f1d57610f1d610e4b565b610f4e60207fffffffffffffffffffffffffffffffffffffffffffffffffffffffffffffffe0601f84011601610ea3565b818152846020838601011115610f6357600080fd5b816020850160208301376000918101602001919091529392505050565b600060208284031215610f9257600080fd5b813567ffffffffffffffff811115610fa957600080fd5b610dc384828501610ef2565b600067ffffffffffffffff821115610fcf57610fcf610e4b565b5060051b60200190565b60006020808385031215610fec57600080fd5b823567ffffffffffffffff8082111561100457600080fd5b818501915085601f83011261101857600080fd5b813561102b61102682610fb5565b610ea3565b81815260059190911b8301840190848101908883111561104a57600080fd5b8585015b83811015611082578035858111156110665760008081fd5b6110748b89838a0101610ef2565b84525091860191860161104e565b5098975050505050505050565b6020815260006110a26020830184610d8e565b9392505050565b6000604082840312156110bb57600080fd5b6110c3610e7a565b9050813573ffffffffffffffffffffffffffffffffffffffff811681146110e957600080fd5b8152602082013567ffffffffffffffff81111561110557600080fd5b61111184828501610ef2565b60208301525092915050565b6000602080838503121561113057600080fd5b823567ffffffffffffffff8082111561114857600080fd5b818501915085601f83011261115c57600080fd5b813561116a61102682610fb5565b81815260059190911b8301840190848101908883111561118957600080fd5b8585015b83811015611082578035858111156111a55760008081fd5b86016040818c037fffffffffffffffffffffffffffffffffffffffffffffffffffffffffffffffe0018113156111db5760008081fd5b6111e3610e7a565b89830135888111156111f55760008081fd5b6112038e8c83870101610ef2565b8252509082013590878211156112195760008081fd5b6112278d8b848601016110a9565b818b01528552505091860191860161118d565b6000602080830181845280855180835260408601915060408160051b870101925083870160005b82811015610e3e577fffffffffffffffffffffffffffffffffffffffffffffffffffffffffffffffc088860301845261129b858351610d44565b94509285019290850190600101611261565b600080604083850312156112c057600080fd5b823567ffffffffffffffff808211156112d857600080fd5b6112e486838701610ef2565b935060208501359150808211156112fa57600080fd5b50611307858286016110a9565b9150509250929050565b7f4e487b7100000000000000000000000000000000000000000000000000000000600052603260045260246000fd5b600181811c9082168061135457607f821691505b602082108103610278577f4e487b7100000000000000000000000000000000000000000000000000000000600052602260045260246000fd5b7f4e487b7100000000000000000000000000000000000000000000000000000000600052601160045260246000fd5b60007fffffffffffffffffffffffffffffffffffffffffffffffffffffffffffffffff82036113ed576113ed61138d565b5060010190565b60008251611406818460208701610d20565b9190910192915050565b600080835461141e81611340565b60018281168015611436576001811461146957611498565b7fffffffffffffffffffffffffffffffffffffffffffffffffffffffffffffff0084168752821515830287019450611498565b8760005260208060002060005b8581101561148f5781548a820152908401908201611476565b50505082870194505b50929695505050505050565b7f4e487b7100000000000000000000000000000000000000000000000000000000600052603160045260246000fd5b8181038181111561035c5761035c61138d565b8082018082111561035c5761035c61138d565b601f82111561154357600081815260208120601f850160051c810160208610156115205750805b601f850160051c820191505b8181101561153f5782815560010161152c565b5050505b505050565b818103611553575050565b61155d8254611340565b67ffffffffffffffff81111561157557611575610e4b565b611589816115838454611340565b846114f9565b6000601f8211600181146115db57600083156115a55750848201545b7fffffffffffffffffffffffffffffffffffffffffffffffffffffffffffffffff600385901b1c1916600184901b178455610a92565b6000858152602090207fffffffffffffffffffffffffffffffffffffffffffffffffffffffffffffffe0841690600086815260209020845b838110156116335782860154825560019586019590910190602001611613565b508583101561166f57818501547fffffffffffffffffffffffffffffffffffffffffffffffffffffffffffffffff600388901b60f8161c191681555b5050505050600190811b01905550565b815167ffffffffffffffff81111561169957611699610e4b565b6116a7816115838454611340565b602080601f8311600181146116fa57600084156116c45750858301515b7fffffffffffffffffffffffffffffffffffffffffffffffffffffffffffffffff600386901b1c1916600185901b17855561153f565b6000858152602081207fffffffffffffffffffffffffffffffffffffffffffffffffffffffffffffffe08616915b8281101561174757888601518255948401946001909101908401611728565b508582101561166f5793909601517fffffffffffffffffffffffffffffffffffffffffffffffffffffffffffffffff60f8600387901b161c19169092555050600190811b0190555056fea2646970667358221220683f87a0d25770e4820cc223c2ddb460bef956165a131bf56bfef08c18e31d2164736f6c63430008120033",
					"opcodes": "PUSH1 0x80 PUSH1 0x40 MSTORE CALLVALUE DUP1 ISZERO PUSH2 0x10 JUMPI PUSH1 0x0 DUP1 REVERT JUMPDEST POP PUSH2 0x17C7 DUP1 PUSH2 0x20 PUSH1 0x0 CODECOPY PUSH1 0x0 RETURN INVALID PUSH1 0x80 PUSH1 0x40 MSTORE CALLVALUE DUP1 ISZERO PUSH2 0x10 JUMPI PUSH1 0x0 DUP1 REVERT JUMPDEST POP PUSH1 0x4 CALLDATASIZE LT PUSH2 0x7D JUMPI PUSH1 0x0 CALLDATALOAD PUSH1 0xE0 SHR DUP1 PUSH4 0xAE55C888 GT PUSH2 0x5B JUMPI DUP1 PUSH4 0xAE55C888 EQ PUSH2 0xC8 JUMPI DUP1 PUSH4 0xBE05133C EQ PUSH2 0xE8 JUMPI DUP1 PUSH4 0xCB965AE9 EQ PUSH2 0xFB JUMPI DUP1 PUSH4 0xF14805C3 EQ PUSH2 0x110 JUMPI PUSH1 0x0 DUP1 REVERT JUMPDEST DUP1 PUSH4 0x11D881B1 EQ PUSH2 0x82 JUMPI DUP1 PUSH4 0x28CE8638 EQ PUSH2 0xA0 JUMPI DUP1 PUSH4 0xAC193F1A EQ PUSH2 0xB5 JUMPI JUMPDEST PUSH1 0x0 DUP1 REVERT JUMPDEST PUSH2 0x8A PUSH2 0x123 JUMP JUMPDEST PUSH1 0x40 MLOAD PUSH2 0x97 SWAP2 SWAP1 PUSH2 0xDCB JUMP JUMPDEST PUSH1 0x40 MLOAD DUP1 SWAP2 SUB SWAP1 RETURN JUMPDEST PUSH2 0xB3 PUSH2 0xAE CALLDATASIZE PUSH1 0x4 PUSH2 0xF80 JUMP JUMPDEST PUSH2 0x27E JUMP JUMPDEST STOP JUMPDEST PUSH2 0xB3 PUSH2 0xC3 CALLDATASIZE PUSH1 0x4 PUSH2 0xFD9 JUMP JUMPDEST PUSH2 0x28A JUMP JUMPDEST PUSH2 0xDB PUSH2 0xD6 CALLDATASIZE PUSH1 0x4 PUSH2 0xF80 JUMP JUMPDEST PUSH2 0x33E JUMP JUMPDEST PUSH1 0x40 MLOAD PUSH2 0x97 SWAP2 SWAP1 PUSH2 0x108F JUMP JUMPDEST PUSH2 0xB3 PUSH2 0xF6 CALLDATASIZE PUSH1 0x4 PUSH2 0x111D JUMP JUMPDEST PUSH2 0x362 JUMP JUMPDEST PUSH2 0x103 PUSH2 0x42F JUMP JUMPDEST PUSH1 0x40 MLOAD PUSH2 0x97 SWAP2 SWAP1 PUSH2 0x123A JUMP JUMPDEST PUSH2 0xB3 PUSH2 0x11E CALLDATASIZE PUSH1 0x4 PUSH2 0x12AD JUMP JUMPDEST PUSH2 0x508 JUMP JUMPDEST PUSH1 0x1 SLOAD PUSH1 0x60 SWAP1 PUSH1 0x0 SWAP1 PUSH8 0xFFFFFFFFFFFFFFFF DUP2 GT ISZERO PUSH2 0x144 JUMPI PUSH2 0x144 PUSH2 0xE4B JUMP JUMPDEST PUSH1 0x40 MLOAD SWAP1 DUP1 DUP3 MSTORE DUP1 PUSH1 0x20 MUL PUSH1 0x20 ADD DUP3 ADD PUSH1 0x40 MSTORE DUP1 ISZERO PUSH2 0x18A JUMPI DUP2 PUSH1 0x20 ADD JUMPDEST PUSH1 0x40 DUP1 MLOAD DUP1 DUP3 ADD SWAP1 SWAP2 MSTORE PUSH1 0x0 DUP2 MSTORE PUSH1 0x60 PUSH1 0x20 DUP3 ADD MSTORE DUP2 MSTORE PUSH1 0x20 ADD SWAP1 PUSH1 0x1 SWAP1 SUB SWAP1 DUP2 PUSH2 0x162 JUMPI SWAP1 POP JUMPDEST POP SWAP1 POP PUSH1 0x0 JUMPDEST PUSH1 0x1 SLOAD DUP2 LT ISZERO PUSH2 0x278 JUMPI PUSH2 0x248 PUSH1 0x1 DUP3 DUP2 SLOAD DUP2 LT PUSH2 0x1B0 JUMPI PUSH2 0x1B0 PUSH2 0x1311 JUMP JUMPDEST SWAP1 PUSH1 0x0 MSTORE PUSH1 0x20 PUSH1 0x0 KECCAK256 ADD DUP1 SLOAD PUSH2 0x1C5 SWAP1 PUSH2 0x1340 JUMP JUMPDEST DUP1 PUSH1 0x1F ADD PUSH1 0x20 DUP1 SWAP2 DIV MUL PUSH1 0x20 ADD PUSH1 0x40 MLOAD SWAP1 DUP2 ADD PUSH1 0x40 MSTORE DUP1 SWAP3 SWAP2 SWAP1 DUP2 DUP2 MSTORE PUSH1 0x20 ADD DUP3 DUP1 SLOAD PUSH2 0x1F1 SWAP1 PUSH2 0x1340 JUMP JUMPDEST DUP1 ISZERO PUSH2 0x23E JUMPI DUP1 PUSH1 0x1F LT PUSH2 0x213 JUMPI PUSH2 0x100 DUP1 DUP4 SLOAD DIV MUL DUP4 MSTORE SWAP2 PUSH1 0x20 ADD SWAP2 PUSH2 0x23E JUMP JUMPDEST DUP3 ADD SWAP2 SWAP1 PUSH1 0x0 MSTORE PUSH1 0x20 PUSH1 0x0 KECCAK256 SWAP1 JUMPDEST DUP2 SLOAD DUP2 MSTORE SWAP1 PUSH1 0x1 ADD SWAP1 PUSH1 0x20 ADD DUP1 DUP4 GT PUSH2 0x221 JUMPI DUP3 SWAP1 SUB PUSH1 0x1F AND DUP3 ADD SWAP2 JUMPDEST POP POP POP POP POP PUSH2 0x512 JUMP JUMPDEST DUP3 DUP3 DUP2 MLOAD DUP2 LT PUSH2 0x25A JUMPI PUSH2 0x25A PUSH2 0x1311 JUMP JUMPDEST PUSH1 0x20 MUL PUSH1 0x20 ADD ADD DUP2 SWAP1 MSTORE POP DUP1 DUP1 PUSH2 0x270 SWAP1 PUSH2 0x13BC JUMP JUMPDEST SWAP2 POP POP PUSH2 0x190 JUMP JUMPDEST POP SWAP2 SWAP1 POP JUMP JUMPDEST PUSH2 0x287 DUP2 PUSH2 0x693 JUMP JUMPDEST POP JUMP JUMPDEST PUSH1 0x0 DUP2 MLOAD GT PUSH2 0x2FA JUMPI PUSH1 0x40 MLOAD PUSH32 0x8C379A000000000000000000000000000000000000000000000000000000000 DUP2 MSTORE PUSH1 0x20 PUSH1 0x4 DUP3 ADD MSTORE PUSH1 0x7 PUSH1 0x24 DUP3 ADD MSTORE PUSH32 0x4E4F5F4B45595300000000000000000000000000000000000000000000000000 PUSH1 0x44 DUP3 ADD MSTORE PUSH1 0x64 ADD JUMPDEST PUSH1 0x40 MLOAD DUP1 SWAP2 SUB SWAP1 REVERT JUMPDEST PUSH1 0x0 JUMPDEST DUP2 MLOAD DUP2 LT ISZERO PUSH2 0x33A JUMPI PUSH2 0x328 DUP3 DUP3 DUP2 MLOAD DUP2 LT PUSH2 0x31B JUMPI PUSH2 0x31B PUSH2 0x1311 JUMP JUMPDEST PUSH1 0x20 MUL PUSH1 0x20 ADD ADD MLOAD PUSH2 0x693 JUMP JUMPDEST DUP1 PUSH2 0x332 DUP2 PUSH2 0x13BC JUMP JUMPDEST SWAP2 POP POP PUSH2 0x2FD JUMP JUMPDEST POP POP JUMP JUMPDEST PUSH1 0x40 DUP1 MLOAD DUP1 DUP3 ADD SWAP1 SWAP2 MSTORE PUSH1 0x0 DUP2 MSTORE PUSH1 0x60 PUSH1 0x20 DUP3 ADD MSTORE PUSH2 0x35C DUP3 PUSH2 0x512 JUMP JUMPDEST SWAP3 SWAP2 POP POP JUMP JUMPDEST PUSH1 0x0 DUP2 MLOAD GT PUSH2 0x3CD JUMPI PUSH1 0x40 MLOAD PUSH32 0x8C379A000000000000000000000000000000000000000000000000000000000 DUP2 MSTORE PUSH1 0x20 PUSH1 0x4 DUP3 ADD MSTORE PUSH1 0x7 PUSH1 0x24 DUP3 ADD MSTORE PUSH32 0x4E4F5F4441544100000000000000000000000000000000000000000000000000 PUSH1 0x44 DUP3 ADD MSTORE PUSH1 0x64 ADD PUSH2 0x2F1 JUMP JUMPDEST PUSH1 0x0 JUMPDEST DUP2 MLOAD DUP2 LT ISZERO PUSH2 0x33A JUMPI PUSH2 0x41D DUP3 DUP3 DUP2 MLOAD DUP2 LT PUSH2 0x3EE JUMPI PUSH2 0x3EE PUSH2 0x1311 JUMP JUMPDEST PUSH1 0x20 MUL PUSH1 0x20 ADD ADD MLOAD PUSH1 0x0 ADD MLOAD DUP4 DUP4 DUP2 MLOAD DUP2 LT PUSH2 0x40C JUMPI PUSH2 0x40C PUSH2 0x1311 JUMP JUMPDEST PUSH1 0x20 MUL PUSH1 0x20 ADD ADD MLOAD PUSH1 0x20 ADD MLOAD PUSH2 0xA9A JUMP JUMPDEST DUP1 PUSH2 0x427 DUP2 PUSH2 0x13BC JUMP JUMPDEST SWAP2 POP POP PUSH2 0x3D0 JUMP JUMPDEST PUSH1 0x60 PUSH1 0x1 DUP1 SLOAD DUP1 PUSH1 0x20 MUL PUSH1 0x20 ADD PUSH1 0x40 MLOAD SWAP1 DUP2 ADD PUSH1 0x40 MSTORE DUP1 SWAP3 SWAP2 SWAP1 DUP2 DUP2 MSTORE PUSH1 0x20 ADD PUSH1 0x0 SWAP1 JUMPDEST DUP3 DUP3 LT ISZERO PUSH2 0x4FF JUMPI DUP4 DUP3 SWAP1 PUSH1 0x0 MSTORE PUSH1 0x20 PUSH1 0x0 KECCAK256 ADD DUP1 SLOAD PUSH2 0x472 SWAP1 PUSH2 0x1340 JUMP JUMPDEST DUP1 PUSH1 0x1F ADD PUSH1 0x20 DUP1 SWAP2 DIV MUL PUSH1 0x20 ADD PUSH1 0x40 MLOAD SWAP1 DUP2 ADD PUSH1 0x40 MSTORE DUP1 SWAP3 SWAP2 SWAP1 DUP2 DUP2 MSTORE PUSH1 0x20 ADD DUP3 DUP1 SLOAD PUSH2 0x49E SWAP1 PUSH2 0x1340 JUMP JUMPDEST DUP1 ISZERO PUSH2 0x4EB JUMPI DUP1 PUSH1 0x1F LT PUSH2 0x4C0 JUMPI PUSH2 0x100 DUP1 DUP4 SLOAD DIV MUL DUP4 MSTORE SWAP2 PUSH1 0x20 ADD SWAP2 PUSH2 0x4EB JUMP JUMPDEST DUP3 ADD SWAP2 SWAP1 PUSH1 0x0 MSTORE PUSH1 0x20 PUSH1 0x0 KECCAK256 SWAP1 JUMPDEST DUP2 SLOAD DUP2 MSTORE SWAP1 PUSH1 0x1 ADD SWAP1 PUSH1 0x20 ADD DUP1 DUP4 GT PUSH2 0x4CE JUMPI DUP3 SWAP1 SUB PUSH1 0x1F AND DUP3 ADD SWAP2 JUMPDEST POP POP POP POP POP DUP2 MSTORE PUSH1 0x20 ADD SWAP1 PUSH1 0x1 ADD SWAP1 PUSH2 0x453 JUMP JUMPDEST POP POP POP POP SWAP1 POP SWAP1 JUMP JUMPDEST PUSH2 0x33A DUP3 DUP3 PUSH2 0xA9A JUMP JUMPDEST PUSH1 0x40 DUP1 MLOAD DUP1 DUP3 ADD SWAP1 SWAP2 MSTORE PUSH1 0x0 DUP2 MSTORE PUSH1 0x60 PUSH1 0x20 DUP3 ADD MSTORE DUP2 MLOAD DUP3 SWAP1 DUP2 SWAP1 PUSH1 0x0 SUB PUSH2 0x596 JUMPI PUSH1 0x40 MLOAD PUSH32 0x8C379A000000000000000000000000000000000000000000000000000000000 DUP2 MSTORE PUSH1 0x20 PUSH1 0x4 DUP3 ADD MSTORE PUSH1 0x8 PUSH1 0x24 DUP3 ADD MSTORE PUSH32 0x4E4F5F56414C5545000000000000000000000000000000000000000000000000 PUSH1 0x44 DUP3 ADD MSTORE PUSH1 0x64 ADD PUSH2 0x2F1 JUMP JUMPDEST PUSH1 0x40 MLOAD DUP1 PUSH1 0x40 ADD PUSH1 0x40 MSTORE DUP1 PUSH1 0x0 DUP7 PUSH1 0x40 MLOAD PUSH2 0x5B1 SWAP2 SWAP1 PUSH2 0x13F4 JUMP JUMPDEST SWAP1 DUP2 MSTORE PUSH1 0x40 DUP1 MLOAD PUSH1 0x20 SWAP3 DUP2 SWAP1 SUB DUP4 ADD SWAP1 KECCAK256 SLOAD PUSH20 0xFFFFFFFFFFFFFFFFFFFFFFFFFFFFFFFFFFFFFFFF AND DUP4 MSTORE MLOAD SWAP2 ADD SWAP1 PUSH1 0x0 SWAP1 PUSH2 0x5ED SWAP1 DUP9 SWAP1 PUSH2 0x13F4 JUMP JUMPDEST SWAP1 DUP2 MSTORE PUSH1 0x20 ADD PUSH1 0x40 MLOAD DUP1 SWAP2 SUB SWAP1 KECCAK256 PUSH1 0x1 ADD DUP1 SLOAD PUSH2 0x609 SWAP1 PUSH2 0x1340 JUMP JUMPDEST DUP1 PUSH1 0x1F ADD PUSH1 0x20 DUP1 SWAP2 DIV MUL PUSH1 0x20 ADD PUSH1 0x40 MLOAD SWAP1 DUP2 ADD PUSH1 0x40 MSTORE DUP1 SWAP3 SWAP2 SWAP1 DUP2 DUP2 MSTORE PUSH1 0x20 ADD DUP3 DUP1 SLOAD PUSH2 0x635 SWAP1 PUSH2 0x1340 JUMP JUMPDEST DUP1 ISZERO PUSH2 0x682 JUMPI DUP1 PUSH1 0x1F LT PUSH2 0x657 JUMPI PUSH2 0x100 DUP1 DUP4 SLOAD DIV MUL DUP4 MSTORE SWAP2 PUSH1 0x20 ADD SWAP2 PUSH2 0x682 JUMP JUMPDEST DUP3 ADD SWAP2 SWAP1 PUSH1 0x0 MSTORE PUSH1 0x20 PUSH1 0x0 KECCAK256 SWAP1 JUMPDEST DUP2 SLOAD DUP2 MSTORE SWAP1 PUSH1 0x1 ADD SWAP1 PUSH1 0x20 ADD DUP1 DUP4 GT PUSH2 0x665 JUMPI DUP3 SWAP1 SUB PUSH1 0x1F AND DUP3 ADD SWAP2 JUMPDEST POP POP POP POP POP DUP2 MSTORE POP SWAP3 POP POP POP SWAP2 SWAP1 POP JUMP JUMPDEST DUP1 MLOAD DUP2 SWAP1 DUP2 SWAP1 PUSH1 0x0 SUB PUSH2 0x702 JUMPI PUSH1 0x40 MLOAD PUSH32 0x8C379A000000000000000000000000000000000000000000000000000000000 DUP2 MSTORE PUSH1 0x20 PUSH1 0x4 DUP3 ADD MSTORE PUSH1 0x8 PUSH1 0x24 DUP3 ADD MSTORE PUSH32 0x4E4F5F56414C5545000000000000000000000000000000000000000000000000 PUSH1 0x44 DUP3 ADD MSTORE PUSH1 0x64 ADD PUSH2 0x2F1 JUMP JUMPDEST DUP3 PUSH1 0x0 PUSH20 0xFFFFFFFFFFFFFFFFFFFFFFFFFFFFFFFFFFFFFFFF AND PUSH1 0x0 DUP3 PUSH1 0x40 MLOAD PUSH2 0x72B SWAP2 SWAP1 PUSH2 0x13F4 JUMP JUMPDEST SWAP1 DUP2 MSTORE PUSH1 0x40 MLOAD SWAP1 DUP2 SWAP1 SUB PUSH1 0x20 ADD SWAP1 KECCAK256 SLOAD PUSH20 0xFFFFFFFFFFFFFFFFFFFFFFFFFFFFFFFFFFFFFFFF AND SUB PUSH2 0x7B8 JUMPI PUSH1 0x40 MLOAD PUSH32 0x8C379A000000000000000000000000000000000000000000000000000000000 DUP2 MSTORE PUSH1 0x20 PUSH1 0x4 DUP3 ADD MSTORE PUSH1 0x8 PUSH1 0x24 DUP3 ADD MSTORE PUSH32 0x4E4F5F4F574E4552000000000000000000000000000000000000000000000000 PUSH1 0x44 DUP3 ADD MSTORE PUSH1 0x64 ADD PUSH2 0x2F1 JUMP JUMPDEST PUSH1 0x0 DUP2 PUSH1 0x40 MLOAD PUSH2 0x7C8 SWAP2 SWAP1 PUSH2 0x13F4 JUMP JUMPDEST SWAP1 DUP2 MSTORE PUSH1 0x40 MLOAD SWAP1 DUP2 SWAP1 SUB PUSH1 0x20 ADD SWAP1 KECCAK256 SLOAD CALLER PUSH20 0xFFFFFFFFFFFFFFFFFFFFFFFFFFFFFFFFFFFFFFFF SWAP1 SWAP2 AND EQ PUSH2 0x858 JUMPI PUSH1 0x40 MLOAD PUSH32 0x8C379A000000000000000000000000000000000000000000000000000000000 DUP2 MSTORE PUSH1 0x20 PUSH1 0x4 DUP3 ADD MSTORE PUSH1 0x9 PUSH1 0x24 DUP3 ADD MSTORE PUSH32 0x464F5242494444454E0000000000000000000000000000000000000000000000 PUSH1 0x44 DUP3 ADD MSTORE PUSH1 0x64 ADD PUSH2 0x2F1 JUMP JUMPDEST PUSH1 0x0 DUP5 PUSH1 0x40 MLOAD PUSH2 0x868 SWAP2 SWAP1 PUSH2 0x13F4 JUMP JUMPDEST SWAP1 DUP2 MSTORE PUSH1 0x40 MLOAD SWAP1 DUP2 SWAP1 SUB PUSH1 0x20 ADD SWAP1 KECCAK256 DUP1 SLOAD PUSH32 0xFFFFFFFFFFFFFFFFFFFFFFFF0000000000000000000000000000000000000000 AND DUP2 SSTORE PUSH1 0x0 PUSH2 0x8AC PUSH1 0x1 DUP4 ADD DUP3 PUSH2 0xCD2 JUMP JUMPDEST POP POP PUSH1 0x1 SLOAD ISZERO PUSH2 0xA94 JUMPI PUSH1 0x1 DUP1 SLOAD SWAP1 SUB PUSH2 0x965 JUMPI DUP4 PUSH1 0x40 MLOAD PUSH1 0x20 ADD PUSH2 0x8D1 SWAP2 SWAP1 PUSH2 0x13F4 JUMP JUMPDEST PUSH1 0x40 MLOAD PUSH1 0x20 DUP2 DUP4 SUB SUB DUP2 MSTORE SWAP1 PUSH1 0x40 MSTORE DUP1 MLOAD SWAP1 PUSH1 0x20 ADD KECCAK256 PUSH1 0x1 PUSH1 0x0 DUP2 SLOAD DUP2 LT PUSH2 0x8FB JUMPI PUSH2 0x8FB PUSH2 0x1311 JUMP JUMPDEST SWAP1 PUSH1 0x0 MSTORE PUSH1 0x20 PUSH1 0x0 KECCAK256 ADD PUSH1 0x40 MLOAD PUSH1 0x20 ADD PUSH2 0x915 SWAP2 SWAP1 PUSH2 0x1410 JUMP JUMPDEST PUSH1 0x40 MLOAD PUSH1 0x20 DUP2 DUP4 SUB SUB DUP2 MSTORE SWAP1 PUSH1 0x40 MSTORE DUP1 MLOAD SWAP1 PUSH1 0x20 ADD KECCAK256 SUB PUSH2 0x960 JUMPI PUSH1 0x1 DUP1 SLOAD DUP1 PUSH2 0x941 JUMPI PUSH2 0x941 PUSH2 0x14A4 JUMP JUMPDEST PUSH1 0x1 SWAP1 SUB DUP2 DUP2 SWAP1 PUSH1 0x0 MSTORE PUSH1 0x20 PUSH1 0x0 KECCAK256 ADD PUSH1 0x0 PUSH2 0x95D SWAP2 SWAP1 PUSH2 0xCD2 JUMP JUMPDEST SWAP1 SSTORE JUMPDEST PUSH2 0xA94 JUMP JUMPDEST PUSH1 0x0 DUP1 JUMPDEST PUSH1 0x1 DUP1 SLOAD PUSH2 0x977 SWAP2 SWAP1 PUSH2 0x14D3 JUMP JUMPDEST DUP2 LT ISZERO PUSH2 0xA5B JUMPI DUP6 PUSH1 0x40 MLOAD PUSH1 0x20 ADD PUSH2 0x98F SWAP2 SWAP1 PUSH2 0x13F4 JUMP JUMPDEST PUSH1 0x40 MLOAD PUSH1 0x20 DUP2 DUP4 SUB SUB DUP2 MSTORE SWAP1 PUSH1 0x40 MSTORE DUP1 MLOAD SWAP1 PUSH1 0x20 ADD KECCAK256 PUSH1 0x1 DUP3 DUP2 SLOAD DUP2 LT PUSH2 0x9B8 JUMPI PUSH2 0x9B8 PUSH2 0x1311 JUMP JUMPDEST SWAP1 PUSH1 0x0 MSTORE PUSH1 0x20 PUSH1 0x0 KECCAK256 ADD PUSH1 0x40 MLOAD PUSH1 0x20 ADD PUSH2 0x9D2 SWAP2 SWAP1 PUSH2 0x1410 JUMP JUMPDEST PUSH1 0x40 MLOAD PUSH1 0x20 DUP2 DUP4 SUB SUB DUP2 MSTORE SWAP1 PUSH1 0x40 MSTORE DUP1 MLOAD SWAP1 PUSH1 0x20 ADD KECCAK256 SUB PUSH2 0x9F2 JUMPI PUSH1 0x1 SWAP2 POP JUMPDEST DUP2 ISZERO PUSH2 0xA49 JUMPI PUSH1 0x1 PUSH2 0xA04 DUP3 DUP3 PUSH2 0x14E6 JUMP JUMPDEST DUP2 SLOAD DUP2 LT PUSH2 0xA14 JUMPI PUSH2 0xA14 PUSH2 0x1311 JUMP JUMPDEST SWAP1 PUSH1 0x0 MSTORE PUSH1 0x20 PUSH1 0x0 KECCAK256 ADD PUSH1 0x1 DUP3 DUP2 SLOAD DUP2 LT PUSH2 0xA31 JUMPI PUSH2 0xA31 PUSH2 0x1311 JUMP JUMPDEST SWAP1 PUSH1 0x0 MSTORE PUSH1 0x20 PUSH1 0x0 KECCAK256 ADD SWAP1 DUP2 PUSH2 0xA47 SWAP2 SWAP1 PUSH2 0x1548 JUMP JUMPDEST POP JUMPDEST DUP1 PUSH2 0xA53 DUP2 PUSH2 0x13BC JUMP JUMPDEST SWAP2 POP POP PUSH2 0x969 JUMP JUMPDEST POP DUP1 ISZERO PUSH2 0xA92 JUMPI PUSH1 0x1 DUP1 SLOAD DUP1 PUSH2 0xA73 JUMPI PUSH2 0xA73 PUSH2 0x14A4 JUMP JUMPDEST PUSH1 0x1 SWAP1 SUB DUP2 DUP2 SWAP1 PUSH1 0x0 MSTORE PUSH1 0x20 PUSH1 0x0 KECCAK256 ADD PUSH1 0x0 PUSH2 0xA8F SWAP2 SWAP1 PUSH2 0xCD2 JUMP JUMPDEST SWAP1 SSTORE JUMPDEST POP JUMPDEST POP POP POP POP JUMP JUMPDEST DUP2 MLOAD DUP3 SWAP1 DUP2 SWAP1 PUSH1 0x0 SUB PUSH2 0xB09 JUMPI PUSH1 0x40 MLOAD PUSH32 0x8C379A000000000000000000000000000000000000000000000000000000000 DUP2 MSTORE PUSH1 0x20 PUSH1 0x4 DUP3 ADD MSTORE PUSH1 0x8 PUSH1 0x24 DUP3 ADD MSTORE PUSH32 0x4E4F5F56414C5545000000000000000000000000000000000000000000000000 PUSH1 0x44 DUP3 ADD MSTORE PUSH1 0x64 ADD PUSH2 0x2F1 JUMP JUMPDEST PUSH1 0x0 PUSH20 0xFFFFFFFFFFFFFFFFFFFFFFFFFFFFFFFFFFFFFFFF AND PUSH1 0x0 DUP6 PUSH1 0x40 MLOAD PUSH2 0xB31 SWAP2 SWAP1 PUSH2 0x13F4 JUMP JUMPDEST SWAP1 DUP2 MSTORE PUSH1 0x40 MLOAD SWAP1 DUP2 SWAP1 SUB PUSH1 0x20 ADD SWAP1 KECCAK256 SLOAD PUSH20 0xFFFFFFFFFFFFFFFFFFFFFFFFFFFFFFFFFFFFFFFF AND EQ PUSH2 0xC01 JUMPI PUSH1 0x0 DUP5 PUSH1 0x40 MLOAD PUSH2 0xB6C SWAP2 SWAP1 PUSH2 0x13F4 JUMP JUMPDEST SWAP1 DUP2 MSTORE PUSH1 0x40 MLOAD SWAP1 DUP2 SWAP1 SUB PUSH1 0x20 ADD SWAP1 KECCAK256 SLOAD CALLER PUSH20 0xFFFFFFFFFFFFFFFFFFFFFFFFFFFFFFFFFFFFFFFF SWAP1 SWAP2 AND EQ PUSH2 0xBFC JUMPI PUSH1 0x40 MLOAD PUSH32 0x8C379A000000000000000000000000000000000000000000000000000000000 DUP2 MSTORE PUSH1 0x20 PUSH1 0x4 DUP3 ADD MSTORE PUSH1 0x9 PUSH1 0x24 DUP3 ADD MSTORE PUSH32 0x464F5242494444454E0000000000000000000000000000000000000000000000 PUSH1 0x44 DUP3 ADD MSTORE PUSH1 0x64 ADD PUSH2 0x2F1 JUMP JUMPDEST PUSH2 0xC3E JUMP JUMPDEST PUSH1 0x1 DUP1 SLOAD DUP1 DUP3 ADD DUP3 SSTORE PUSH1 0x0 SWAP2 SWAP1 SWAP2 MSTORE PUSH32 0xB10E2D527612073B26EECDFD717E6A320CF44B4AFAC2B0732D9FCBE2B7FA0CF6 ADD PUSH2 0xC3C DUP6 DUP3 PUSH2 0x167F JUMP JUMPDEST POP JUMPDEST DUP3 MLOAD PUSH1 0x40 MLOAD PUSH1 0x0 SWAP1 PUSH2 0xC51 SWAP1 DUP8 SWAP1 PUSH2 0x13F4 JUMP JUMPDEST SWAP1 DUP2 MSTORE PUSH1 0x20 ADD PUSH1 0x40 MLOAD DUP1 SWAP2 SUB SWAP1 KECCAK256 PUSH1 0x0 ADD PUSH1 0x0 PUSH2 0x100 EXP DUP2 SLOAD DUP2 PUSH20 0xFFFFFFFFFFFFFFFFFFFFFFFFFFFFFFFFFFFFFFFF MUL NOT AND SWAP1 DUP4 PUSH20 0xFFFFFFFFFFFFFFFFFFFFFFFFFFFFFFFFFFFFFFFF AND MUL OR SWAP1 SSTORE POP DUP3 PUSH1 0x20 ADD MLOAD PUSH1 0x0 DUP6 PUSH1 0x40 MLOAD PUSH2 0xCB5 SWAP2 SWAP1 PUSH2 0x13F4 JUMP JUMPDEST SWAP1 DUP2 MSTORE PUSH1 0x20 ADD PUSH1 0x40 MLOAD DUP1 SWAP2 SUB SWAP1 KECCAK256 PUSH1 0x1 ADD SWAP1 DUP2 PUSH2 0xA92 SWAP2 SWAP1 PUSH2 0x167F JUMP JUMPDEST POP DUP1 SLOAD PUSH2 0xCDE SWAP1 PUSH2 0x1340 JUMP JUMPDEST PUSH1 0x0 DUP3 SSTORE DUP1 PUSH1 0x1F LT PUSH2 0xCEE JUMPI POP POP JUMP JUMPDEST PUSH1 0x1F ADD PUSH1 0x20 SWAP1 DIV SWAP1 PUSH1 0x0 MSTORE PUSH1 0x20 PUSH1 0x0 KECCAK256 SWAP1 DUP2 ADD SWAP1 PUSH2 0x287 SWAP2 SWAP1 JUMPDEST DUP1 DUP3 GT ISZERO PUSH2 0xD1C JUMPI PUSH1 0x0 DUP2 SSTORE PUSH1 0x1 ADD PUSH2 0xD08 JUMP JUMPDEST POP SWAP1 JUMP JUMPDEST PUSH1 0x0 JUMPDEST DUP4 DUP2 LT ISZERO PUSH2 0xD3B JUMPI DUP2 DUP2 ADD MLOAD DUP4 DUP3 ADD MSTORE PUSH1 0x20 ADD PUSH2 0xD23 JUMP JUMPDEST POP POP PUSH1 0x0 SWAP2 ADD MSTORE JUMP JUMPDEST PUSH1 0x0 DUP2 MLOAD DUP1 DUP5 MSTORE PUSH2 0xD5C DUP2 PUSH1 0x20 DUP7 ADD PUSH1 0x20 DUP7 ADD PUSH2 0xD20 JUMP JUMPDEST PUSH1 0x1F ADD PUSH32 0xFFFFFFFFFFFFFFFFFFFFFFFFFFFFFFFFFFFFFFFFFFFFFFFFFFFFFFFFFFFFFFE0 AND SWAP3 SWAP1 SWAP3 ADD PUSH1 0x20 ADD SWAP3 SWAP2 POP POP JUMP JUMPDEST PUSH20 0xFFFFFFFFFFFFFFFFFFFFFFFFFFFFFFFFFFFFFFFF DUP2 MLOAD AND DUP3 MSTORE PUSH1 0x0 PUSH1 0x20 DUP3 ADD MLOAD PUSH1 0x40 PUSH1 0x20 DUP6 ADD MSTORE PUSH2 0xDC3 PUSH1 0x40 DUP6 ADD DUP3 PUSH2 0xD44 JUMP JUMPDEST SWAP5 SWAP4 POP POP POP POP JUMP JUMPDEST PUSH1 0x0 PUSH1 0x20 DUP1 DUP4 ADD DUP2 DUP5 MSTORE DUP1 DUP6 MLOAD DUP1 DUP4 MSTORE PUSH1 0x40 DUP7 ADD SWAP2 POP PUSH1 0x40 DUP2 PUSH1 0x5 SHL DUP8 ADD ADD SWAP3 POP DUP4 DUP8 ADD PUSH1 0x0 JUMPDEST DUP3 DUP2 LT ISZERO PUSH2 0xE3E JUMPI PUSH32 0xFFFFFFFFFFFFFFFFFFFFFFFFFFFFFFFFFFFFFFFFFFFFFFFFFFFFFFFFFFFFFFC0 DUP9 DUP7 SUB ADD DUP5 MSTORE PUSH2 0xE2C DUP6 DUP4 MLOAD PUSH2 0xD8E JUMP JUMPDEST SWAP5 POP SWAP3 DUP6 ADD SWAP3 SWAP1 DUP6 ADD SWAP1 PUSH1 0x1 ADD PUSH2 0xDF2 JUMP JUMPDEST POP SWAP3 SWAP8 SWAP7 POP POP POP POP POP POP POP JUMP JUMPDEST PUSH32 0x4E487B7100000000000000000000000000000000000000000000000000000000 PUSH1 0x0 MSTORE PUSH1 0x41 PUSH1 0x4 MSTORE PUSH1 0x24 PUSH1 0x0 REVERT JUMPDEST PUSH1 0x40 DUP1 MLOAD SWAP1 DUP2 ADD PUSH8 0xFFFFFFFFFFFFFFFF DUP2 GT DUP3 DUP3 LT OR ISZERO PUSH2 0xE9D JUMPI PUSH2 0xE9D PUSH2 0xE4B JUMP JUMPDEST PUSH1 0x40 MSTORE SWAP1 JUMP JUMPDEST PUSH1 0x40 MLOAD PUSH1 0x1F DUP3 ADD PUSH32 0xFFFFFFFFFFFFFFFFFFFFFFFFFFFFFFFFFFFFFFFFFFFFFFFFFFFFFFFFFFFFFFE0 AND DUP2 ADD PUSH8 0xFFFFFFFFFFFFFFFF DUP2 GT DUP3 DUP3 LT OR ISZERO PUSH2 0xEEA JUMPI PUSH2 0xEEA PUSH2 0xE4B JUMP JUMPDEST PUSH1 0x40 MSTORE SWAP2 SWAP1 POP JUMP JUMPDEST PUSH1 0x0 DUP3 PUSH1 0x1F DUP4 ADD SLT PUSH2 0xF03 JUMPI PUSH1 0x0 DUP1 REVERT JUMPDEST DUP2 CALLDATALOAD PUSH8 0xFFFFFFFFFFFFFFFF DUP2 GT ISZERO PUSH2 0xF1D JUMPI PUSH2 0xF1D PUSH2 0xE4B JUMP JUMPDEST PUSH2 0xF4E PUSH1 0x20 PUSH32 0xFFFFFFFFFFFFFFFFFFFFFFFFFFFFFFFFFFFFFFFFFFFFFFFFFFFFFFFFFFFFFFE0 PUSH1 0x1F DUP5 ADD AND ADD PUSH2 0xEA3 JUMP JUMPDEST DUP2 DUP2 MSTORE DUP5 PUSH1 0x20 DUP4 DUP7 ADD ADD GT ISZERO PUSH2 0xF63 JUMPI PUSH1 0x0 DUP1 REVERT JUMPDEST DUP2 PUSH1 0x20 DUP6 ADD PUSH1 0x20 DUP4 ADD CALLDATACOPY PUSH1 0x0 SWAP2 DUP2 ADD PUSH1 0x20 ADD SWAP2 SWAP1 SWAP2 MSTORE SWAP4 SWAP3 POP POP POP JUMP JUMPDEST PUSH1 0x0 PUSH1 0x20 DUP3 DUP5 SUB SLT ISZERO PUSH2 0xF92 JUMPI PUSH1 0x0 DUP1 REVERT JUMPDEST DUP2 CALLDATALOAD PUSH8 0xFFFFFFFFFFFFFFFF DUP2 GT ISZERO PUSH2 0xFA9 JUMPI PUSH1 0x0 DUP1 REVERT JUMPDEST PUSH2 0xDC3 DUP5 DUP3 DUP6 ADD PUSH2 0xEF2 JUMP JUMPDEST PUSH1 0x0 PUSH8 0xFFFFFFFFFFFFFFFF DUP3 GT ISZERO PUSH2 0xFCF JUMPI PUSH2 0xFCF PUSH2 0xE4B JUMP JUMPDEST POP PUSH1 0x5 SHL PUSH1 0x20 ADD SWAP1 JUMP JUMPDEST PUSH1 0x0 PUSH1 0x20 DUP1 DUP4 DUP6 SUB SLT ISZERO PUSH2 0xFEC JUMPI PUSH1 0x0 DUP1 REVERT JUMPDEST DUP3 CALLDATALOAD PUSH8 0xFFFFFFFFFFFFFFFF DUP1 DUP3 GT ISZERO PUSH2 0x1004 JUMPI PUSH1 0x0 DUP1 REVERT JUMPDEST DUP2 DUP6 ADD SWAP2 POP DUP6 PUSH1 0x1F DUP4 ADD SLT PUSH2 0x1018 JUMPI PUSH1 0x0 DUP1 REVERT JUMPDEST DUP2 CALLDATALOAD PUSH2 0x102B PUSH2 0x1026 DUP3 PUSH2 0xFB5 JUMP JUMPDEST PUSH2 0xEA3 JUMP JUMPDEST DUP2 DUP2 MSTORE PUSH1 0x5 SWAP2 SWAP1 SWAP2 SHL DUP4 ADD DUP5 ADD SWAP1 DUP5 DUP2 ADD SWAP1 DUP9 DUP4 GT ISZERO PUSH2 0x104A JUMPI PUSH1 0x0 DUP1 REVERT JUMPDEST DUP6 DUP6 ADD JUMPDEST DUP4 DUP2 LT ISZERO PUSH2 0x1082 JUMPI DUP1 CALLDATALOAD DUP6 DUP2 GT ISZERO PUSH2 0x1066 JUMPI PUSH1 0x0 DUP1 DUP2 REVERT JUMPDEST PUSH2 0x1074 DUP12 DUP10 DUP4 DUP11 ADD ADD PUSH2 0xEF2 JUMP JUMPDEST DUP5 MSTORE POP SWAP2 DUP7 ADD SWAP2 DUP7 ADD PUSH2 0x104E JUMP JUMPDEST POP SWAP9 SWAP8 POP POP POP POP POP POP POP POP JUMP JUMPDEST PUSH1 0x20 DUP2 MSTORE PUSH1 0x0 PUSH2 0x10A2 PUSH1 0x20 DUP4 ADD DUP5 PUSH2 0xD8E JUMP JUMPDEST SWAP4 SWAP3 POP POP POP JUMP JUMPDEST PUSH1 0x0 PUSH1 0x40 DUP3 DUP5 SUB SLT ISZERO PUSH2 0x10BB JUMPI PUSH1 0x0 DUP1 REVERT JUMPDEST PUSH2 0x10C3 PUSH2 0xE7A JUMP JUMPDEST SWAP1 POP DUP2 CALLDATALOAD PUSH20 0xFFFFFFFFFFFFFFFFFFFFFFFFFFFFFFFFFFFFFFFF DUP2 AND DUP2 EQ PUSH2 0x10E9 JUMPI PUSH1 0x0 DUP1 REVERT JUMPDEST DUP2 MSTORE PUSH1 0x20 DUP3 ADD CALLDATALOAD PUSH8 0xFFFFFFFFFFFFFFFF DUP2 GT ISZERO PUSH2 0x1105 JUMPI PUSH1 0x0 DUP1 REVERT JUMPDEST PUSH2 0x1111 DUP5 DUP3 DUP6 ADD PUSH2 0xEF2 JUMP JUMPDEST PUSH1 0x20 DUP4 ADD MSTORE POP SWAP3 SWAP2 POP POP JUMP JUMPDEST PUSH1 0x0 PUSH1 0x20 DUP1 DUP4 DUP6 SUB SLT ISZERO PUSH2 0x1130 JUMPI PUSH1 0x0 DUP1 REVERT JUMPDEST DUP3 CALLDATALOAD PUSH8 0xFFFFFFFFFFFFFFFF DUP1 DUP3 GT ISZERO PUSH2 0x1148 JUMPI PUSH1 0x0 DUP1 REVERT JUMPDEST DUP2 DUP6 ADD SWAP2 POP DUP6 PUSH1 0x1F DUP4 ADD SLT PUSH2 0x115C JUMPI PUSH1 0x0 DUP1 REVERT JUMPDEST DUP2 CALLDATALOAD PUSH2 0x116A PUSH2 0x1026 DUP3 PUSH2 0xFB5 JUMP JUMPDEST DUP2 DUP2 MSTORE PUSH1 0x5 SWAP2 SWAP1 SWAP2 SHL DUP4 ADD DUP5 ADD SWAP1 DUP5 DUP2 ADD SWAP1 DUP9 DUP4 GT ISZERO PUSH2 0x1189 JUMPI PUSH1 0x0 DUP1 REVERT JUMPDEST DUP6 DUP6 ADD JUMPDEST DUP4 DUP2 LT ISZERO PUSH2 0x1082 JUMPI DUP1 CALLDATALOAD DUP6 DUP2 GT ISZERO PUSH2 0x11A5 JUMPI PUSH1 0x0 DUP1 DUP2 REVERT JUMPDEST DUP7 ADD PUSH1 0x40 DUP2 DUP13 SUB PUSH32 0xFFFFFFFFFFFFFFFFFFFFFFFFFFFFFFFFFFFFFFFFFFFFFFFFFFFFFFFFFFFFFFE0 ADD DUP2 SGT ISZERO PUSH2 0x11DB JUMPI PUSH1 0x0 DUP1 DUP2 REVERT JUMPDEST PUSH2 0x11E3 PUSH2 0xE7A JUMP JUMPDEST DUP10 DUP4 ADD CALLDATALOAD DUP9 DUP2 GT ISZERO PUSH2 0x11F5 JUMPI PUSH1 0x0 DUP1 DUP2 REVERT JUMPDEST PUSH2 0x1203 DUP15 DUP13 DUP4 DUP8 ADD ADD PUSH2 0xEF2 JUMP JUMPDEST DUP3 MSTORE POP SWAP1 DUP3 ADD CALLDATALOAD SWAP1 DUP8 DUP3 GT ISZERO PUSH2 0x1219 JUMPI PUSH1 0x0 DUP1 DUP2 REVERT JUMPDEST PUSH2 0x1227 DUP14 DUP12 DUP5 DUP7 ADD ADD PUSH2 0x10A9 JUMP JUMPDEST DUP2 DUP12 ADD MSTORE DUP6 MSTORE POP POP SWAP2 DUP7 ADD SWAP2 DUP7 ADD PUSH2 0x118D JUMP JUMPDEST PUSH1 0x0 PUSH1 0x20 DUP1 DUP4 ADD DUP2 DUP5 MSTORE DUP1 DUP6 MLOAD DUP1 DUP4 MSTORE PUSH1 0x40 DUP7 ADD SWAP2 POP PUSH1 0x40 DUP2 PUSH1 0x5 SHL DUP8 ADD ADD SWAP3 POP DUP4 DUP8 ADD PUSH1 0x0 JUMPDEST DUP3 DUP2 LT ISZERO PUSH2 0xE3E JUMPI PUSH32 0xFFFFFFFFFFFFFFFFFFFFFFFFFFFFFFFFFFFFFFFFFFFFFFFFFFFFFFFFFFFFFFC0 DUP9 DUP7 SUB ADD DUP5 MSTORE PUSH2 0x129B DUP6 DUP4 MLOAD PUSH2 0xD44 JUMP JUMPDEST SWAP5 POP SWAP3 DUP6 ADD SWAP3 SWAP1 DUP6 ADD SWAP1 PUSH1 0x1 ADD PUSH2 0x1261 JUMP JUMPDEST PUSH1 0x0 DUP1 PUSH1 0x40 DUP4 DUP6 SUB SLT ISZERO PUSH2 0x12C0 JUMPI PUSH1 0x0 DUP1 REVERT JUMPDEST DUP3 CALLDATALOAD PUSH8 0xFFFFFFFFFFFFFFFF DUP1 DUP3 GT ISZERO PUSH2 0x12D8 JUMPI PUSH1 0x0 DUP1 REVERT JUMPDEST PUSH2 0x12E4 DUP7 DUP4 DUP8 ADD PUSH2 0xEF2 JUMP JUMPDEST SWAP4 POP PUSH1 0x20 DUP6 ADD CALLDATALOAD SWAP2 POP DUP1 DUP3 GT ISZERO PUSH2 0x12FA JUMPI PUSH1 0x0 DUP1 REVERT JUMPDEST POP PUSH2 0x1307 DUP6 DUP3 DUP7 ADD PUSH2 0x10A9 JUMP JUMPDEST SWAP2 POP POP SWAP3 POP SWAP3 SWAP1 POP JUMP JUMPDEST PUSH32 0x4E487B7100000000000000000000000000000000000000000000000000000000 PUSH1 0x0 MSTORE PUSH1 0x32 PUSH1 0x4 MSTORE PUSH1 0x24 PUSH1 0x0 REVERT JUMPDEST PUSH1 0x1 DUP2 DUP2 SHR SWAP1 DUP3 AND DUP1 PUSH2 0x1354 JUMPI PUSH1 0x7F DUP3 AND SWAP2 POP JUMPDEST PUSH1 0x20 DUP3 LT DUP2 SUB PUSH2 0x278 JUMPI PUSH32 0x4E487B7100000000000000000000000000000000000000000000000000000000 PUSH1 0x0 MSTORE PUSH1 0x22 PUSH1 0x4 MSTORE PUSH1 0x24 PUSH1 0x0 REVERT JUMPDEST PUSH32 0x4E487B7100000000000000000000000000000000000000000000000000000000 PUSH1 0x0 MSTORE PUSH1 0x11 PUSH1 0x4 MSTORE PUSH1 0x24 PUSH1 0x0 REVERT JUMPDEST PUSH1 0x0 PUSH32 0xFFFFFFFFFFFFFFFFFFFFFFFFFFFFFFFFFFFFFFFFFFFFFFFFFFFFFFFFFFFFFFFF DUP3 SUB PUSH2 0x13ED JUMPI PUSH2 0x13ED PUSH2 0x138D JUMP JUMPDEST POP PUSH1 0x1 ADD SWAP1 JUMP JUMPDEST PUSH1 0x0 DUP3 MLOAD PUSH2 0x1406 DUP2 DUP5 PUSH1 0x20 DUP8 ADD PUSH2 0xD20 JUMP JUMPDEST SWAP2 SWAP1 SWAP2 ADD SWAP3 SWAP2 POP POP JUMP JUMPDEST PUSH1 0x0 DUP1 DUP4 SLOAD PUSH2 0x141E DUP2 PUSH2 0x1340 JUMP JUMPDEST PUSH1 0x1 DUP3 DUP2 AND DUP1 ISZERO PUSH2 0x1436 JUMPI PUSH1 0x1 DUP2 EQ PUSH2 0x1469 JUMPI PUSH2 0x1498 JUMP JUMPDEST PUSH32 0xFFFFFFFFFFFFFFFFFFFFFFFFFFFFFFFFFFFFFFFFFFFFFFFFFFFFFFFFFFFFFF00 DUP5 AND DUP8 MSTORE DUP3 ISZERO ISZERO DUP4 MUL DUP8 ADD SWAP5 POP PUSH2 0x1498 JUMP JUMPDEST DUP8 PUSH1 0x0 MSTORE PUSH1 0x20 DUP1 PUSH1 0x0 KECCAK256 PUSH1 0x0 JUMPDEST DUP6 DUP2 LT ISZERO PUSH2 0x148F JUMPI DUP2 SLOAD DUP11 DUP3 ADD MSTORE SWAP1 DUP5 ADD SWAP1 DUP3 ADD PUSH2 0x1476 JUMP JUMPDEST POP POP POP DUP3 DUP8 ADD SWAP5 POP JUMPDEST POP SWAP3 SWAP7 SWAP6 POP POP POP POP POP POP JUMP JUMPDEST PUSH32 0x4E487B7100000000000000000000000000000000000000000000000000000000 PUSH1 0x0 MSTORE PUSH1 0x31 PUSH1 0x4 MSTORE PUSH1 0x24 PUSH1 0x0 REVERT JUMPDEST DUP2 DUP2 SUB DUP2 DUP2 GT ISZERO PUSH2 0x35C JUMPI PUSH2 0x35C PUSH2 0x138D JUMP JUMPDEST DUP1 DUP3 ADD DUP1 DUP3 GT ISZERO PUSH2 0x35C JUMPI PUSH2 0x35C PUSH2 0x138D JUMP JUMPDEST PUSH1 0x1F DUP3 GT ISZERO PUSH2 0x1543 JUMPI PUSH1 0x0 DUP2 DUP2 MSTORE PUSH1 0x20 DUP2 KECCAK256 PUSH1 0x1F DUP6 ADD PUSH1 0x5 SHR DUP2 ADD PUSH1 0x20 DUP7 LT ISZERO PUSH2 0x1520 JUMPI POP DUP1 JUMPDEST PUSH1 0x1F DUP6 ADD PUSH1 0x5 SHR DUP3 ADD SWAP2 POP JUMPDEST DUP2 DUP2 LT ISZERO PUSH2 0x153F JUMPI DUP3 DUP2 SSTORE PUSH1 0x1 ADD PUSH2 0x152C JUMP JUMPDEST POP POP POP JUMPDEST POP POP POP JUMP JUMPDEST DUP2 DUP2 SUB PUSH2 0x1553 JUMPI POP POP JUMP JUMPDEST PUSH2 0x155D DUP3 SLOAD PUSH2 0x1340 JUMP JUMPDEST PUSH8 0xFFFFFFFFFFFFFFFF DUP2 GT ISZERO PUSH2 0x1575 JUMPI PUSH2 0x1575 PUSH2 0xE4B JUMP JUMPDEST PUSH2 0x1589 DUP2 PUSH2 0x1583 DUP5 SLOAD PUSH2 0x1340 JUMP JUMPDEST DUP5 PUSH2 0x14F9 JUMP JUMPDEST PUSH1 0x0 PUSH1 0x1F DUP3 GT PUSH1 0x1 DUP2 EQ PUSH2 0x15DB JUMPI PUSH1 0x0 DUP4 ISZERO PUSH2 0x15A5 JUMPI POP DUP5 DUP3 ADD SLOAD JUMPDEST PUSH32 0xFFFFFFFFFFFFFFFFFFFFFFFFFFFFFFFFFFFFFFFFFFFFFFFFFFFFFFFFFFFFFFFF PUSH1 0x3 DUP6 SWAP1 SHL SHR NOT AND PUSH1 0x1 DUP5 SWAP1 SHL OR DUP5 SSTORE PUSH2 0xA92 JUMP JUMPDEST PUSH1 0x0 DUP6 DUP2 MSTORE PUSH1 0x20 SWAP1 KECCAK256 PUSH32 0xFFFFFFFFFFFFFFFFFFFFFFFFFFFFFFFFFFFFFFFFFFFFFFFFFFFFFFFFFFFFFFE0 DUP5 AND SWAP1 PUSH1 0x0 DUP7 DUP2 MSTORE PUSH1 0x20 SWAP1 KECCAK256 DUP5 JUMPDEST DUP4 DUP2 LT ISZERO PUSH2 0x1633 JUMPI DUP3 DUP7 ADD SLOAD DUP3 SSTORE PUSH1 0x1 SWAP6 DUP7 ADD SWAP6 SWAP1 SWAP2 ADD SWAP1 PUSH1 0x20 ADD PUSH2 0x1613 JUMP JUMPDEST POP DUP6 DUP4 LT ISZERO PUSH2 0x166F JUMPI DUP2 DUP6 ADD SLOAD PUSH32 0xFFFFFFFFFFFFFFFFFFFFFFFFFFFFFFFFFFFFFFFFFFFFFFFFFFFFFFFFFFFFFFFF PUSH1 0x3 DUP9 SWAP1 SHL PUSH1 0xF8 AND SHR NOT AND DUP2 SSTORE JUMPDEST POP POP POP POP POP PUSH1 0x1 SWAP1 DUP2 SHL ADD SWAP1 SSTORE POP JUMP JUMPDEST DUP2 MLOAD PUSH8 0xFFFFFFFFFFFFFFFF DUP2 GT ISZERO PUSH2 0x1699 JUMPI PUSH2 0x1699 PUSH2 0xE4B JUMP JUMPDEST PUSH2 0x16A7 DUP2 PUSH2 0x1583 DUP5 SLOAD PUSH2 0x1340 JUMP JUMPDEST PUSH1 0x20 DUP1 PUSH1 0x1F DUP4 GT PUSH1 0x1 DUP2 EQ PUSH2 0x16FA JUMPI PUSH1 0x0 DUP5 ISZERO PUSH2 0x16C4 JUMPI POP DUP6 DUP4 ADD MLOAD JUMPDEST PUSH32 0xFFFFFFFFFFFFFFFFFFFFFFFFFFFFFFFFFFFFFFFFFFFFFFFFFFFFFFFFFFFFFFFF PUSH1 0x3 DUP7 SWAP1 SHL SHR NOT AND PUSH1 0x1 DUP6 SWAP1 SHL OR DUP6 SSTORE PUSH2 0x153F JUMP JUMPDEST PUSH1 0x0 DUP6 DUP2 MSTORE PUSH1 0x20 DUP2 KECCAK256 PUSH32 0xFFFFFFFFFFFFFFFFFFFFFFFFFFFFFFFFFFFFFFFFFFFFFFFFFFFFFFFFFFFFFFE0 DUP7 AND SWAP2 JUMPDEST DUP3 DUP2 LT ISZERO PUSH2 0x1747 JUMPI DUP9 DUP7 ADD MLOAD DUP3 SSTORE SWAP5 DUP5 ADD SWAP5 PUSH1 0x1 SWAP1 SWAP2 ADD SWAP1 DUP5 ADD PUSH2 0x1728 JUMP JUMPDEST POP DUP6 DUP3 LT ISZERO PUSH2 0x166F JUMPI SWAP4 SWAP1 SWAP7 ADD MLOAD PUSH32 0xFFFFFFFFFFFFFFFFFFFFFFFFFFFFFFFFFFFFFFFFFFFFFFFFFFFFFFFFFFFFFFFF PUSH1 0xF8 PUSH1 0x3 DUP8 SWAP1 SHL AND SHR NOT AND SWAP1 SWAP3 SSTORE POP POP PUSH1 0x1 SWAP1 DUP2 SHL ADD SWAP1 SSTORE POP JUMP INVALID LOG2 PUSH5 0x6970667358 0x22 SLT KECCAK256 PUSH9 0x3F87A0D25770E4820C 0xC2 0x23 0xC2 0xDD 0xB4 PUSH1 0xBE 0xF9 JUMP AND GAS SGT SHL CREATE2 PUSH12 0xFEF08C18E31D2164736F6C63 NUMBER STOP ADDMOD SLT STOP CALLER "
				},
				"gasEstimates": {
					"creation": {
						"codeDepositCost": "1217400",
						"executionCost": "1268",
						"totalCost": "1218668"
					},
					"external": {
						"allKeys()": "infinite",
						"allKeysData()": "infinite",
						"clearKeyData(string)": "infinite",
						"clearKeysData(string[])": "infinite",
						"getData(string)": "infinite",
						"setKeyData(string,(address,string))": "infinite",
						"setKeysData((string,(address,string))[])": "infinite"
					},
					"internal": {
						"_clearKeyData(string memory)": "infinite",
						"_keyData(string memory)": "infinite",
						"_setKeyData(string memory,struct IStorage.Data memory)": "infinite"
					}
				},
				"methodIdentifiers": {
					"allKeys()": "cb965ae9",
					"allKeysData()": "11d881b1",
					"clearKeyData(string)": "28ce8638",
					"clearKeysData(string[])": "ac193f1a",
					"getData(string)": "ae55c888",
					"setKeyData(string,(address,string))": "f14805c3",
					"setKeysData((string,(address,string))[])": "be05133c"
				}
			},
			"storageLayout": {
				"storage": [
					{
						"astId": 67,
						"contract": "source/Storage.sol:Storage",
						"label": "allData",
						"offset": 0,
						"slot": "0",
						"type": "t_mapping(t_string_memory_ptr,t_struct(Data)6_storage)"
					},
					{
						"astId": 70,
						"contract": "source/Storage.sol:Storage",
						"label": "keys",
						"offset": 0,
						"slot": "1",
						"type": "t_array(t_string_storage)dyn_storage"
					}
				],
				"types": {
					"t_address": {
						"encoding": "inplace",
						"label": "address",
						"numberOfBytes": "20"
					},
					"t_array(t_string_storage)dyn_storage": {
						"base": "t_string_storage",
						"encoding": "dynamic_array",
						"label": "string[]",
						"numberOfBytes": "32"
					},
					"t_mapping(t_string_memory_ptr,t_struct(Data)6_storage)": {
						"encoding": "mapping",
						"key": "t_string_memory_ptr",
						"label": "mapping(string => struct IStorage.Data)",
						"numberOfBytes": "32",
						"value": "t_struct(Data)6_storage"
					},
					"t_string_memory_ptr": {
						"encoding": "bytes",
						"label": "string",
						"numberOfBytes": "32"
					},
					"t_string_storage": {
						"encoding": "bytes",
						"label": "string",
						"numberOfBytes": "32"
					},
					"t_struct(Data)6_storage": {
						"encoding": "inplace",
						"label": "struct IStorage.Data",
						"members": [
							{
								"astId": 3,
								"contract": "source/Storage.sol:Storage",
								"label": "owner",
								"offset": 0,
								"slot": "0",
								"type": "t_address"
							},
							{
								"astId": 5,
								"contract": "source/Storage.sol:Storage",
								"label": "info",
								"offset": 0,
								"slot": "1",
								"type": "t_string_storage"
							}
						],
						"numberOfBytes": "64"
					}
				}
			},
			"userdoc": {
				"kind": "user",
				"methods": {},
				"version": 1
			}
		}
	}
}